{
  "contractName": "GeneralMarketplace",
  "abi": [
    {
      "inputs": [],
      "stateMutability": "nonpayable",
      "type": "constructor"
    },
    {
      "inputs": [],
      "name": "listingCount",
      "outputs": [
        {
          "internalType": "uint256",
          "name": "",
          "type": "uint256"
        }
      ],
      "stateMutability": "view",
      "type": "function"
    },
    {
      "inputs": [
        {
          "internalType": "uint256",
          "name": "",
          "type": "uint256"
        }
      ],
      "name": "listings",
      "outputs": [
        {
          "internalType": "uint256",
          "name": "ticketId",
          "type": "uint256"
        },
        {
          "internalType": "address",
          "name": "seller",
          "type": "address"
        },
        {
          "internalType": "uint256",
          "name": "price",
          "type": "uint256"
        },
        {
          "internalType": "enum GeneralMarketplace.TicketStatus",
          "name": "status",
          "type": "uint8"
        },
        {
          "internalType": "address",
          "name": "ticketContract",
          "type": "address"
        }
      ],
      "stateMutability": "view",
      "type": "function"
    },
    {
      "inputs": [
        {
          "internalType": "address",
          "name": "_ticketContract",
          "type": "address"
        },
        {
          "internalType": "uint256",
          "name": "ticketId",
          "type": "uint256"
        }
      ],
      "name": "sellTicket",
      "outputs": [],
      "stateMutability": "nonpayable",
      "type": "function"
    },
    {
      "inputs": [
        {
          "internalType": "uint256",
          "name": "listingId",
          "type": "uint256"
        }
      ],
      "name": "buyTicket",
      "outputs": [],
      "stateMutability": "payable",
      "type": "function"
    },
    {
      "inputs": [
        {
          "internalType": "uint256",
          "name": "listingId",
          "type": "uint256"
        }
      ],
      "name": "removeFromSell",
      "outputs": [],
      "stateMutability": "nonpayable",
      "type": "function"
    }
  ],
  "bytecode": "0x608060405234801561001057600080fd5b50610c2b806100206000396000f3fe60806040526004361061004a5760003560e01c80633d8601171461004f57806367dd74ca14610071578063a9b07c2614610084578063c395d9cc146100ad578063de74e57b146100cd575b600080fd5b34801561005b57600080fd5b5061006f61006a366004610946565b610137565b005b61006f61007f36600461097e565b61040f565b34801561009057600080fd5b5061009a60015481565b6040519081526020015b60405180910390f35b3480156100b957600080fd5b5061006f6100c836600461097e565b6107ea565b3480156100d957600080fd5b506101266100e836600461097e565b600060208190529081526040902080546001820154600283015460039093015491926001600160a01b0391821692909160ff82169161010090041685565b6040516100a49594939291906109ce565b604051633ee1bcfd60e11b81526004810182905260009081906001600160a01b03851690637dc379fa90602401600060405180830381865afa158015610181573d6000803e3d6000fd5b505050506040513d6000823e601f3d908101601f191682016040526101a99190810190610acb565b5050604051627eeac760e11b8152336004820152602481018a90529197509550600094506001600160a01b038916935062fdd58e92506044019050602060405180830381865afa158015610201573d6000803e3d6000fd5b505050506040513d601f19601f820116820180604052508101906102259190610b77565b116102775760405162461bcd60e51b815260206004820152601a60248201527f596f7520646f206e6f74206f776e2074686973207469636b657400000000000060448201526064015b60405180910390fd5b600181600381111561028b5761028b610997565b146102d85760405162461bcd60e51b815260206004820152601c60248201527f5469636b6574206d757374206265206f776e656420746f206c69737400000000604482015260640161026e565b600180549060006102e883610ba6565b90915550506040805160a08101825284815233602082015290810183905260608101600081526001600160a01b03868116602092830152600180546000908152808452604090819020855181559385015184830180546001600160a01b03191691909416179092559083015160028301556060830151600380840180549293909260ff191691849081111561037f5761037f610997565b02179055506080919091015160039091018054610100600160a81b0319166101006001600160a01b039384160217905560405163a460b81760e01b81529085169063a460b817906103d7908690600090600401610bbf565b600060405180830381600087803b1580156103f157600080fd5b505af1158015610405573d6000803e3d6000fd5b5050505050505050565b60008181526020819052604081209060038083015460ff169081111561043757610437610997565b146104725760405162461bcd60e51b815260206004820152600b60248201526a4e6f74206f6e2073616c6560a81b604482015260640161026e565b80600201543410156104bd5760405162461bcd60e51b8152602060048201526014602482015273125b9cdd59999a58da595b9d081c185e5b595b9d60621b604482015260640161026e565b60038101548154604051633ee1bcfd60e11b8152600481019190915260009161010090046001600160a01b031690637dc379fa90602401600060405180830381865afa158015610511573d6000803e3d6000fd5b505050506040513d6000823e601f3d908101601f191682016040526105399190810190610acb565b509096506000955061054c945050505050565b81600381111561055e5761055e610997565b146105ab5760405162461bcd60e51b815260206004820152601c60248201527f5469636b6574206973206e6f206c6f6e67657220666f722073616c6500000000604482015260640161026e565b81600201543410156105f65760405162461bcd60e51b8152602060048201526014602482015273125b9cdd59999a58da595b9d081c185e5b595b9d60621b604482015260640161026e565b60018201546040516000916001600160a01b03169034908381818185875af1925050503d8060008114610645576040519150601f19603f3d011682016040523d82523d6000602084013e61064a565b606091505b505090508061068c5760405162461bcd60e51b815260206004820152600e60248201526d14185e5b595b9d0819985a5b195960921b604482015260640161026e565b60038301546001808501548554604051637921219560e11b81526001600160a01b0392831660048201523360248201526044810191909152606481019290925260a06084830152600060a48301526101009092049091169063f242432a9060c401600060405180830381600087803b15801561070757600080fd5b505af115801561071b573d6000803e3d6000fd5b505050506003830154835460405163a460b81760e01b81526101009092046001600160a01b03169163a460b8179161075891600190600401610bbf565b600060405180830381600087803b15801561077257600080fd5b505af1158015610786573d6000803e3d6000fd5b5050505060038301805460ff1916600117905560028301543411156107e457600283015433906108fc906107ba9034610bdc565b6040518115909202916000818181858888f193505050501580156107e2573d6000803e3d6000fd5b505b50505050565b60008181526020819052604081209060038083015460ff169081111561081257610812610997565b1461085f5760405162461bcd60e51b815260206004820181905260248201527f5469636b6574206973206e6f7420617661696c61626c6520666f722073616c65604482015260640161026e565b60018101546001600160a01b031633146108ca5760405162461bcd60e51b815260206004820152602660248201527f4f6e6c79207468652073656c6c65722063616e2072656d6f766520746865206c604482015265697374696e6760d01b606482015260840161026e565b6003810154815460405163a460b81760e01b81526101009092046001600160a01b03169163a460b8179161090391600190600401610bbf565b600060405180830381600087803b15801561091d57600080fd5b505af1158015610931573d6000803e3d6000fd5b50505050600301805460ff1916600117905550565b6000806040838503121561095957600080fd5b82356001600160a01b038116811461097057600080fd5b946020939093013593505050565b60006020828403121561099057600080fd5b5035919050565b634e487b7160e01b600052602160045260246000fd5b600481106109cb57634e487b7160e01b600052602160045260246000fd5b50565b8581526001600160a01b0385811660208301526040820185905260a08201906109f6856109ad565b8460608401528084166080840152509695505050505050565b634e487b7160e01b600052604160045260246000fd5b600082601f830112610a3657600080fd5b815167ffffffffffffffff80821115610a5157610a51610a0f565b604051601f8301601f19908116603f01168101908282118183101715610a7957610a79610a0f565b81604052838152602092508683858801011115610a9557600080fd5b600091505b83821015610ab75785820183015181830184015290820190610a9a565b600093810190920192909252949350505050565b600080600080600080600080610100898b031215610ae857600080fd5b885197506020890151965060408901519550606089015194506080890151935060a089015160048110610b1a57600080fd5b60c08a015190935067ffffffffffffffff80821115610b3857600080fd5b610b448c838d01610a25565b935060e08b0151915080821115610b5a57600080fd5b50610b678b828c01610a25565b9150509295985092959890939650565b600060208284031215610b8957600080fd5b5051919050565b634e487b7160e01b600052601160045260246000fd5b600060018201610bb857610bb8610b90565b5060010190565b82815260408101610bcf836109ad565b8260208301529392505050565b81810381811115610bef57610bef610b90565b9291505056fea264697066735822122004373a5ddcc3eba6ce2c26cb4fb8455807b4f4f04a2026278bd653dd81a7214764736f6c63430008140033",
  "immutableReferences": {},
  "source": "// SPDX-License-Identifier: MIT\r\npragma solidity ^0.8.0;\r\n\r\nimport \"./Ticket_NFT.sol\"; // Import del contratto Ticket_NFT\r\n\r\ncontract GeneralMarketplace {\r\n\r\n    enum TicketStatus { Available, Owned, Validated, Expired }\r\n\r\n    struct Listing {\r\n        uint256 ticketId;\r\n        address seller;\r\n        uint256 price;\r\n        TicketStatus status;\r\n        address ticketContract; // ho aggiunto il ticketcontract alla struttura\r\n    }\r\n\r\n    mapping(uint256 => Listing) public listings;\r\n    uint256 public listingCount;\r\n    // Ticket_NFT public ticketContract; non serve pi nel costruttore\r\n\r\n    \r\n    constructor() {} //diventato vuoto\r\n\r\n    \r\n    function sellTicket(address _ticketContract, uint256 ticketId) external {\r\n        \r\n        (\r\n        ,\r\n        ,\r\n        ,\r\n        ,\r\n        uint originalPrice,\r\n        Ticket_NFT.TicketStatus status,\r\n        ,\r\n        ) = Ticket_NFT(_ticketContract).getTicket(ticketId);\r\n\r\n        require(Ticket_NFT(_ticketContract).balanceOf(msg.sender, ticketId) > 0, \"You do not own this ticket\"); // non  tuo\r\n        require(status == Ticket_NFT.TicketStatus.Owned, \"Ticket must be owned to list\"); //gi in vendita\r\n\r\n        listingCount++;\r\n        listings[listingCount] = Listing({\r\n            ticketId: ticketId,\r\n            seller: msg.sender,\r\n            price: originalPrice,\r\n            status: TicketStatus.Available,\r\n            ticketContract: _ticketContract\r\n        });\r\n\r\n        // aggiorna stato del biglietto\r\n        Ticket_NFT(_ticketContract).updateTicketStatus(ticketId, Ticket_NFT.TicketStatus.Available);\r\n    }\r\n\r\n\r\n    function buyTicket(uint256 listingId) external payable {\r\n        Listing storage listing = listings[listingId];\r\n        require(listing.status == TicketStatus.Available, \"Not on sale\");\r\n        require(msg.value >= listing.price, \"Insufficient payment\");\r\n\r\n        //devo controllare anche listing che sia available?\r\n        (\r\n        , \r\n        , \r\n        , \r\n        , \r\n        , \r\n        Ticket_NFT.TicketStatus status,\r\n        , \r\n        ) = Ticket_NFT(listing.ticketContract).getTicket(listing.ticketId);\r\n        require(status == Ticket_NFT.TicketStatus.Available, \"Ticket is no longer for sale\");\r\n\r\n        // manda soldi a proprietario biglietto\r\n        require(msg.value >= listing.price, \"Insufficient payment\");\r\n        (bool success, ) = listing.seller.call{value: msg.value}(\"\");\r\n        require(success, \"Payment failed\");\r\n\r\n        // trasferisce con safetransfer\r\n        Ticket_NFT(listing.ticketContract).safeTransferFrom(listing.seller, msg.sender, listing.ticketId, 1, \"\");\r\n\r\n        // segna come non in vendita sia nella lista che nel biglietto\r\n        Ticket_NFT(listing.ticketContract).updateTicketStatus(listing.ticketId, Ticket_NFT.TicketStatus.Owned);\r\n        listing.status = TicketStatus.Owned;\r\n\r\n        //rimanda indietro soldi in eccesso\r\n        if (msg.value > listing.price) {\r\n            payable(msg.sender).transfer(msg.value - listing.price);\r\n        }\r\n    }\r\n\r\n    // Rimuovere un ticket dalla vendita\r\n    function removeFromSell(uint256 listingId) external {\r\n        Listing storage listing = listings[listingId];\r\n        require(listing.status == TicketStatus.Available, \"Ticket is not available for sale\");\r\n        require(listing.seller == msg.sender, \"Only the seller can remove the listing\");\r\n\r\n        //aggiorna biglietto stato sia in listing che nel ticket\r\n        Ticket_NFT(listing.ticketContract).updateTicketStatus(listing.ticketId, Ticket_NFT.TicketStatus.Owned);\r\n        listing.status = TicketStatus.Owned;\r\n    }\r\n}\r\n",
  "sourcePath": "C:\\Users\\eddie\\OneDrive\\Desktop\\block\\truffle\\contracts\\Marketplace2.sol",
  "compiler": {
    "name": "solc",
    "version": "0.8.20+commit.a1b79de6.Emscripten.clang"
  },
  "schemaVersion": "3.4.16",
  "updatedAt": "2025-01-27T16:19:36.319Z",
  "devdoc": {
    "kind": "dev",
    "methods": {},
    "version": 1
  },
  "userdoc": {
    "kind": "user",
    "methods": {},
    "version": 1
  }
}