{
  "contractName": "Marketplace",
  "abi": [
    {
      "inputs": [
        {
          "internalType": "address",
          "name": "_ticketContract",
          "type": "address"
        }
      ],
      "stateMutability": "nonpayable",
      "type": "constructor"
    },
    {
      "inputs": [],
      "name": "listingCount",
      "outputs": [
        {
          "internalType": "uint256",
          "name": "",
          "type": "uint256"
        }
      ],
      "stateMutability": "view",
      "type": "function"
    },
    {
      "inputs": [
        {
          "internalType": "uint256",
          "name": "",
          "type": "uint256"
        }
      ],
      "name": "listings",
      "outputs": [
        {
          "internalType": "uint256",
          "name": "ticketId",
          "type": "uint256"
        },
        {
          "internalType": "address",
          "name": "seller",
          "type": "address"
        },
        {
          "internalType": "uint256",
          "name": "price",
          "type": "uint256"
        },
        {
          "internalType": "enum Marketplace.TicketStatus",
          "name": "status",
          "type": "uint8"
        }
      ],
      "stateMutability": "view",
      "type": "function"
    },
    {
      "inputs": [],
      "name": "ticketContract",
      "outputs": [
        {
          "internalType": "contract Ticket_NFT",
          "name": "",
          "type": "address"
        }
      ],
      "stateMutability": "view",
      "type": "function"
    },
    {
      "inputs": [
        {
          "internalType": "uint256",
          "name": "ticketId",
          "type": "uint256"
        }
      ],
      "name": "sellTicket",
      "outputs": [],
      "stateMutability": "nonpayable",
      "type": "function"
    },
    {
      "inputs": [
        {
          "internalType": "uint256",
          "name": "listingId",
          "type": "uint256"
        }
      ],
      "name": "buyTicket",
      "outputs": [],
      "stateMutability": "payable",
      "type": "function"
    },
    {
      "inputs": [
        {
          "internalType": "uint256",
          "name": "listingId",
          "type": "uint256"
        }
      ],
      "name": "removeFromSell",
      "outputs": [],
      "stateMutability": "nonpayable",
      "type": "function"
    }
  ],
  "bytecode": "0x608060405234801561001057600080fd5b50604051610c6d380380610c6d83398101604081905261002f91610054565b600180546001600160a01b0319166001600160a01b0392909216919091179055610084565b60006020828403121561006657600080fd5b81516001600160a01b038116811461007d57600080fd5b9392505050565b610bda806100936000396000f3fe6080604052600436106100555760003560e01c806358a86e1d1461005a57806367dd74ca14610097578063a9b07c26146100ac578063c395d9cc146100d0578063de74e57b146100f0578063f192866a1461014f575b600080fd5b34801561006657600080fd5b5060015461007a906001600160a01b031681565b6040516001600160a01b0390911681526020015b60405180910390f35b6100aa6100a5366004610939565b61016f565b005b3480156100b857600080fd5b506100c260025481565b60405190815260200161008e565b3480156100dc57600080fd5b506100aa6100eb366004610939565b610537565b3480156100fc57600080fd5b5061013f61010b366004610939565b600060208190529081526040902080546001820154600283015460039093015491926001600160a01b039091169160ff1684565b60405161008e9493929190610989565b34801561015b57600080fd5b506100aa61016a366004610939565b61067f565b60008181526020819052604081209060038083015460ff169081111561019757610197610952565b146101d75760405162461bcd60e51b815260206004820152600b60248201526a4e6f74206f6e2073616c6560a81b60448201526064015b60405180910390fd5b80600201543410156102225760405162461bcd60e51b8152602060048201526014602482015273125b9cdd59999a58da595b9d081c185e5b595b9d60621b60448201526064016101ce565b6001548154604051633ee1bcfd60e11b815260048101919091526000916001600160a01b031690637dc379fa90602401600060405180830381865afa15801561026f573d6000803e3d6000fd5b505050506040513d6000823e601f3d908101601f191682016040526102979190810190610a7a565b50909650600095506102aa945050505050565b8160038111156102bc576102bc610952565b146103095760405162461bcd60e51b815260206004820152601c60248201527f5469636b6574206973206e6f206c6f6e67657220666f722073616c650000000060448201526064016101ce565b81600201543410156103545760405162461bcd60e51b8152602060048201526014602482015273125b9cdd59999a58da595b9d081c185e5b595b9d60621b60448201526064016101ce565b60018201546040516000916001600160a01b03169034908381818185875af1925050503d80600081146103a3576040519150601f19603f3d011682016040523d82523d6000602084013e6103a8565b606091505b50509050806103ea5760405162461bcd60e51b815260206004820152600e60248201526d14185e5b595b9d0819985a5b195960921b60448201526064016101ce565b60018054848201548554604051637921219560e11b81526001600160a01b0392831660048201523360248201526044810191909152606481019390935260a06084840152600060a4840152169063f242432a9060c401600060405180830381600087803b15801561045a57600080fd5b505af115801561046e573d6000803e3d6000fd5b505060018054865460405163a460b81760e01b81526001600160a01b03909216945063a460b81793506104a5929091600401610b26565b600060405180830381600087803b1580156104bf57600080fd5b505af11580156104d3573d6000803e3d6000fd5b5050505060038301805460ff19166001179055600283015434111561053157600283015433906108fc906105079034610b59565b6040518115909202916000818181858888f1935050505015801561052f573d6000803e3d6000fd5b505b50505050565b60008181526020819052604081209060038083015460ff169081111561055f5761055f610952565b146105a15760405162461bcd60e51b81526020600482015260126024820152715469636b6574206e6f74206f6e2073616c6560701b60448201526064016101ce565b60018101546001600160a01b031633146106095760405162461bcd60e51b8152602060048201526024808201527f4f6e6c79207468652073656c6c65722063616e2063616e63656c20746869732060448201526373616c6560e01b60648201526084016101ce565b60018054825460405163a460b81760e01b81526001600160a01b039092169263a460b8179261063c929190600401610b26565b600060405180830381600087803b15801561065657600080fd5b505af115801561066a573d6000803e3d6000fd5b50505050600301805460ff1916600117905550565b600154604051633ee1bcfd60e11b81526004810183905260009182916001600160a01b0390911690637dc379fa90602401600060405180830381865afa1580156106cd573d6000803e3d6000fd5b505050506040513d6000823e601f3d908101601f191682016040526106f59190810190610a7a565b5050600154604051627eeac760e11b8152336004820152602481018b9052929850909650600095506001600160a01b0316935062fdd58e92506044019050602060405180830381865afa158015610750573d6000803e3d6000fd5b505050506040513d601f19601f820116820180604052508101906107749190610b72565b116107c15760405162461bcd60e51b815260206004820152601a60248201527f596f7520646f206e6f74206f776e2074686973207469636b657400000000000060448201526064016101ce565b60018160038111156107d5576107d5610952565b146108225760405162461bcd60e51b815260206004820152601e60248201527f43616e6e6f742073616c65206f7220616c7265616479206f6e2073616c65000060448201526064016101ce565b6002805490600061083283610b8b565b909155505060408051608081018252848152336020820152908101839052606081016000905260028054600090815260208181526040918290208451815590840151600180830180546001600160a01b0319166001600160a01b039093169290921790915591840151928101929092556060830151600380840180549293909260ff19169184908111156108c8576108c8610952565b02179055505060015460405163a460b81760e01b81526001600160a01b03909116915063a460b81790610902908690600090600401610b26565b600060405180830381600087803b15801561091c57600080fd5b505af1158015610930573d6000803e3d6000fd5b50505050505050565b60006020828403121561094b57600080fd5b5035919050565b634e487b7160e01b600052602160045260246000fd5b6004811061098657634e487b7160e01b600052602160045260246000fd5b50565b8481526001600160a01b038416602082015260408101839052608081016109af83610968565b82606083015295945050505050565b634e487b7160e01b600052604160045260246000fd5b600082601f8301126109e557600080fd5b815167ffffffffffffffff80821115610a0057610a006109be565b604051601f8301601f19908116603f01168101908282118183101715610a2857610a286109be565b81604052838152602092508683858801011115610a4457600080fd5b600091505b83821015610a665785820183015181830184015290820190610a49565b600093810190920192909252949350505050565b600080600080600080600080610100898b031215610a9757600080fd5b885197506020890151965060408901519550606089015194506080890151935060a089015160048110610ac957600080fd5b60c08a015190935067ffffffffffffffff80821115610ae757600080fd5b610af38c838d016109d4565b935060e08b0151915080821115610b0957600080fd5b50610b168b828c016109d4565b9150509295985092959890939650565b82815260408101610b3683610968565b8260208301529392505050565b634e487b7160e01b600052601160045260246000fd5b81810381811115610b6c57610b6c610b43565b92915050565b600060208284031215610b8457600080fd5b5051919050565b600060018201610b9d57610b9d610b43565b506001019056fea26469706673582212204006017b6e74b04545f22e0ab4ed2a7252059a258b68f7a76907f548e492fc3764736f6c63430008140033",
  "immutableReferences": {},
  "source": "// SPDX-License-Identifier: MIT\r\npragma solidity ^0.8.0;\r\n\r\n\r\nimport \"./Ticket_NFT.sol\";\r\n\r\n\r\ncontract Marketplace{\r\n    \r\n    enum TicketStatus { Available, Owned, Validated, Expired } \r\n\r\n    struct Listing{\r\n        uint256 ticketId;\r\n        address seller;\r\n        uint256 price;  \r\n        TicketStatus status;\r\n    }\r\n\r\n    mapping(uint256 => Listing) public listings;\r\n    Ticket_NFT public ticketContract;\r\n    uint256 public listingCount;\r\n\r\n    constructor(address _ticketContract) {\r\n        ticketContract=Ticket_NFT(_ticketContract);\r\n    }\r\n\r\n\r\n    function sellTicket(uint256 ticketId) external {\r\n        \r\n        //prende ticket specifico in base ad id\r\n        (\r\n        ,\r\n        ,\r\n        ,\r\n        ,\r\n        uint originalPrice,\r\n        Ticket_NFT.TicketStatus status,\r\n        ,\r\n          \r\n        ) = ticketContract.getTicket(ticketId);\r\n\r\n\r\n\r\n        require(ticketContract.balanceOf(msg.sender, ticketId) > 0, \"You do not own this ticket\"); // non  tuo\r\n        require(status == Ticket_NFT.TicketStatus.Owned, \"Cannot sale or already on sale\"); //gi in vendita\r\n\r\n        listingCount++;\r\n        listings[listingCount] = Listing({\r\n            ticketId: ticketId,\r\n            seller: msg.sender,\r\n            price: originalPrice,\r\n            status: TicketStatus.Available\r\n        });\r\n\r\n        // aggiorna stato del biglietto\r\n        ticketContract.updateTicketStatus(ticketId, Ticket_NFT.TicketStatus.Available); \r\n    }\r\n\r\n    \r\n    function buyTicket(uint256 listingId) external payable {\r\n        Listing storage listing = listings[listingId];\r\n        require(listing.status == TicketStatus.Available, \"Not on sale\");\r\n        require(msg.value >= listing.price, \"Insufficient payment\");\r\n\r\n        //devo controllare anche listing che sia available?\r\n        (\r\n        , \r\n        , \r\n        , \r\n        , \r\n        , \r\n        Ticket_NFT.TicketStatus status,\r\n        , \r\n        ) = ticketContract.getTicket(listing.ticketId);\r\n\r\n        require(status == Ticket_NFT.TicketStatus.Available, \"Ticket is no longer for sale\");\r\n\r\n        // manda soldi a proprietario biglietto\r\n        require(msg.value >= listing.price, \"Insufficient payment\");\r\n        (bool success, ) = listing.seller.call{value: msg.value}(\"\");\r\n        require(success, \"Payment failed\");\r\n\r\n        // trasferisce con safetransfer\r\n        ticketContract.safeTransferFrom(listing.seller, msg.sender, listing.ticketId, 1, \"\");\r\n\r\n        // // segna come non in vendita sia nella lista che nel biglietto\r\n        ticketContract.updateTicketStatus(listing.ticketId, Ticket_NFT.TicketStatus.Owned);\r\n        listing.status = TicketStatus.Owned;\r\n\r\n        //rimanda indietro soldi in eccesso\r\n        if (msg.value > listing.price) {\r\n            payable(msg.sender).transfer(msg.value - listing.price);  \r\n        }\r\n\r\n    }\r\n    \r\n    \r\n    function removeFromSell(uint256 listingId) external {\r\n        Listing storage listing = listings[listingId];\r\n        require(listing.status == TicketStatus.Available, \"Ticket not on sale\");\r\n        require(listing.seller == msg.sender, \"Only the seller can cancel this sale\");\r\n\r\n        //aggiorna biglietto stato sia in listing che nel ticket\r\n        ticketContract.updateTicketStatus(listing.ticketId, Ticket_NFT.TicketStatus.Owned);\r\n        listing.status = TicketStatus.Owned;\r\n\r\n        \r\n    }\r\n    \r\n\r\n} ",
  "sourcePath": "C:\\Users\\eddie\\OneDrive\\Desktop\\block\\truffle\\contracts\\Marketplace.sol",
  "compiler": {
    "name": "solc",
    "version": "0.8.20+commit.a1b79de6.Emscripten.clang"
  },
  "schemaVersion": "3.4.16",
  "updatedAt": "2025-01-27T17:29:52.020Z",
  "devdoc": {
    "kind": "dev",
    "methods": {},
    "version": 1
  },
  "userdoc": {
    "kind": "user",
    "methods": {},
    "version": 1
  }
}