{
  "contractName": "Marketplace",
  "abi": [
    {
      "inputs": [],
      "stateMutability": "nonpayable",
      "type": "constructor"
    },
    {
      "anonymous": false,
      "inputs": [
        {
          "indexed": false,
          "internalType": "string",
          "name": "message",
          "type": "string"
        },
        {
          "indexed": false,
          "internalType": "uint256",
          "name": "value",
          "type": "uint256"
        }
      ],
      "name": "Debug",
      "type": "event"
    },
    {
      "anonymous": false,
      "inputs": [
        {
          "indexed": false,
          "internalType": "string",
          "name": "message",
          "type": "string"
        },
        {
          "indexed": false,
          "internalType": "address",
          "name": "addr",
          "type": "address"
        }
      ],
      "name": "Debug2",
      "type": "event"
    },
    {
      "anonymous": false,
      "inputs": [
        {
          "indexed": false,
          "internalType": "string",
          "name": "message",
          "type": "string"
        },
        {
          "indexed": false,
          "internalType": "uint256",
          "name": "excessAmount",
          "type": "uint256"
        }
      ],
      "name": "Debug3",
      "type": "event"
    },
    {
      "inputs": [],
      "name": "listingCount",
      "outputs": [
        {
          "internalType": "uint256",
          "name": "",
          "type": "uint256"
        }
      ],
      "stateMutability": "view",
      "type": "function",
      "constant": true
    },
    {
      "inputs": [
        {
          "internalType": "uint256",
          "name": "",
          "type": "uint256"
        }
      ],
      "name": "listings",
      "outputs": [
        {
          "internalType": "uint256",
          "name": "ticketId",
          "type": "uint256"
        },
        {
          "internalType": "address",
          "name": "seller",
          "type": "address"
        },
        {
          "internalType": "uint256",
          "name": "price",
          "type": "uint256"
        },
        {
          "internalType": "enum Marketplace.TicketStatus",
          "name": "status",
          "type": "uint8"
        },
        {
          "internalType": "address",
          "name": "ticketContract",
          "type": "address"
        }
      ],
      "stateMutability": "view",
      "type": "function",
      "constant": true
    },
    {
      "inputs": [
        {
          "internalType": "address",
          "name": "_ticketContract",
          "type": "address"
        },
        {
          "internalType": "uint256",
          "name": "ticketId",
          "type": "uint256"
        }
      ],
      "name": "sellTicket",
      "outputs": [],
      "stateMutability": "nonpayable",
      "type": "function"
    },
    {
      "inputs": [
        {
          "internalType": "uint256",
          "name": "listingId",
          "type": "uint256"
        },
        {
          "internalType": "string",
          "name": "name",
          "type": "string"
        },
        {
          "internalType": "string",
          "name": "surname",
          "type": "string"
        }
      ],
      "name": "buyTicket",
      "outputs": [],
      "stateMutability": "payable",
      "type": "function",
      "payable": true
    },
    {
      "inputs": [
        {
          "internalType": "uint256",
          "name": "listingId",
          "type": "uint256"
        }
      ],
      "name": "removeFromSell",
      "outputs": [],
      "stateMutability": "nonpayable",
      "type": "function"
    },
    {
      "inputs": [
        {
          "internalType": "uint256",
          "name": "ticketId",
          "type": "uint256"
        },
        {
          "internalType": "address",
          "name": "contractAddress",
          "type": "address"
        }
      ],
      "name": "findListingByTicketId",
      "outputs": [
        {
          "internalType": "uint256",
          "name": "listingId",
          "type": "uint256"
        },
        {
          "internalType": "uint256",
          "name": "price",
          "type": "uint256"
        }
      ],
      "stateMutability": "view",
      "type": "function",
      "constant": true
    },
    {
      "inputs": [
        {
          "internalType": "uint256",
          "name": "ticketId",
          "type": "uint256"
        },
        {
          "internalType": "address",
          "name": "sellerAddress",
          "type": "address"
        }
      ],
      "name": "findListingBySeller",
      "outputs": [
        {
          "internalType": "uint256",
          "name": "listingId",
          "type": "uint256"
        },
        {
          "internalType": "uint256",
          "name": "price",
          "type": "uint256"
        }
      ],
      "stateMutability": "view",
      "type": "function",
      "constant": true
    }
  ],
  "bytecode": "0x608060405234801561001057600080fd5b5061188c806100206000396000f3fe6080604052600436106100705760003560e01c8063a9b07c261161004e578063a9b07c26146100e4578063c395d9cc14610108578063de74e57b14610128578063f00cc3211461019257600080fd5b8063019346ea146100755780633d8601171461008a5780635cb269ae146100aa575b600080fd5b6100886100833660046113f0565b6101b2565b005b34801561009657600080fd5b506100886100a5366004611479565b610d33565b3480156100b657600080fd5b506100ca6100c53660046114a3565b611006565b604080519283526020830191909152015b60405180910390f35b3480156100f057600080fd5b506100fa60015481565b6040519081526020016100db565b34801561011457600080fd5b506100886101233660046114cf565b61111d565b34801561013457600080fd5b506101816101433660046114cf565b600060208190529081526040902080546001820154600283015460039093015491926001600160a01b0391821692909160ff82169161010090041685565b6040516100db95949392919061151f565b34801561019e57600080fd5b506100ca6101ad3660046114a3565b611279565b604080518181526018818301527f5374617274206275795469636b65742066756e6374696f6e000000000000000060608201526020810185905290516000805160206118378339815191529181900360800190a160008381526020819052604090206003808201546000805160206118378339815191529160ff9091169081111561023f5761023f6114e8565b60405161027791906040808252600e908201526d4c697374696e672053746174757360901b6060820152602081019190915260800190565b60405180910390a1600060038083015460ff169081111561029a5761029a6114e8565b146102da5760405162461bcd60e51b815260206004820152600b60248201526a4e6f74206f6e2073616c6560a81b60448201526064015b60405180910390fd5b60408051818152601c818301527f5469636b657420697320617661696c61626c6520666f722073616c650000000060608201526020810186905290516000805160206118378339815191529181900360800190a180600201543410156103795760405162461bcd60e51b8152602060048201526014602482015273125b9cdd59999a58da595b9d081c185e5b595b9d60621b60448201526064016102d1565b604080518181526012818301527114dd59999a58da595b9d081c185e5b595b9d60721b606082015234602082015290516000805160206118378339815191529181900360800190a160038101548154604051633ee1bcfd60e11b8152600481019190915260009161010090046001600160a01b031690637dc379fa90602401600060405180830381865afa158015610415573d6000803e3d6000fd5b505050506040513d6000823e601f3d908101601f1916820160405261043d9190810190611584565b5090965060009550610450945050505050565b816003811115610462576104626114e8565b146104af5760405162461bcd60e51b815260206004820152601c60248201527f5469636b6574206973206e6f206c6f6e67657220666f722073616c650000000060448201526064016102d1565b6000805160206118378339815191528160038111156104d0576104d06114e8565b60405161051791906040808252601d908201527f5469636b657420737461747573206265666f7265207472616e736665720000006060820152602081019190915260800190565b60405180910390a1600382015460018301548354604051627eeac760e11b81526001600160a01b039283166004820152602481019190915260009261010090049091169062fdd58e90604401602060405180830381865afa158015610580573d6000803e3d6000fd5b505050506040513d601f19601f820116820180604052508101906105a4919061165a565b9050600080516020611837833981519152816040516105fd919060408082526017908201527f53656c6c65722773207469636b65742062616c616e63650000000000000000006060820152602081019190915260800190565b60405180910390a1600081116106555760405162461bcd60e51b815260206004820152601e60248201527f53656c6c657220646f6573206e6f74206f776e20746865207469636b6574000060448201526064016102d1565b82600201543410156106a05760405162461bcd60e51b8152602060048201526014602482015273125b9cdd59999a58da595b9d081c185e5b595b9d60621b60448201526064016102d1565b60018301546040516000916001600160a01b03169034908381818185875af1925050503d80600081146106ef576040519150601f19603f3d011682016040523d82523d6000602084013e6106f4565b606091505b50509050806107365760405162461bcd60e51b815260206004820152600e60248201526d14185e5b595b9d0819985a5b195960921b60448201526064016102d1565b60408051818152601681830152752830bcb6b2b73a1039b2b73a103a379039b2b63632b960511b606082015234602082015290516000805160206118378339815191529181900360800190a18354604051600080516020611837833981519152916107d091604080825260139082015272151c985b9cd9995c9c9a5b99c81d1a58dad95d606a1b6060820152602081019190915260800190565b60405180910390a1600184015460408051818152600b818301526a233937b69039b2b63632b960a91b60608201526001600160a01b039092166020830152517f5962514d7ec50966eaf33d86b837373e780c311af0b0050b835fa858529beaab9181900360800190a160408051818152600881830152672a3790313abcb2b960c11b606082015233602082015290517f5962514d7ec50966eaf33d86b837373e780c311af0b0050b835fa858529beaab9181900360800190a1600384015460408051818152600f818301526e1d1a58dad95d0810dbdb9d1c9858dd608a1b60608201526101009092046001600160a01b03166020830152517f5962514d7ec50966eaf33d86b837373e780c311af0b0050b835fa858529beaab916080908290030190a160038401546001808601548654604051637921219560e11b81526001600160a01b0392831660048201523360248201526044810191909152606481019290925260a06084830152600060a48301526101009092049091169063f242432a9060c401600060405180830381600087803b15801561096e57600080fd5b505af192505050801561097f575060015b610a5a5761098b611673565b806308c379a0036109ea575061099f61168f565b806109aa57506109ec565b60008051602061183783398151915260016040516109c89190611719565b60405180910390a18060405162461bcd60e51b81526004016102d19190611782565b505b6000805160206118378339815191526002604051610a0a9190611719565b60405180910390a160405162461bcd60e51b815260206004820152601860248201527f556e6b6e6f776e207472616e73666572206661696c757265000000000000000060448201526064016102d1565b835460405160008051602061183783398151915291610aa791604080825260129082015271151a58dad95d081d1c985b9cd9995c9c995960721b6060820152602081019190915260800190565b60405180910390a16003840154845460405163c28aeb7760e01b81526101009092046001600160a01b03169163c28aeb7791610ae9918a908a9060040161179c565b600060405180830381600087803b158015610b0357600080fd5b505af1158015610b17573d6000803e3d6000fd5b505085546040516000805160206118378339815191529350610b6392506040808252600d908201526c13dddb995c8818da185b99d959609a1b6060820152602081019190915260800190565b60405180910390a16003840154845460405163a460b81760e01b81526101009092046001600160a01b03169163a460b81791610ba4916001906004016117d1565b600060405180830381600087803b158015610bbe57600080fd5b505af1158015610bd2573d6000803e3d6000fd5b5050505060038401805460ff19166001179055835460408051818152600e818301526d14dd185d1d5cc81d5c19185d195960921b6060820152602081019290925251600080516020611837833981519152916080908290030190a16000846002015434610c3f9190611804565b60408051818152600981830152684d73672076616c756560b81b60608201523460208201529051919250600080516020611837833981519152919081900360800190a16000805160206118378339815191528560020154604051610ccd91906040808252600d908201526c4c697374696e6720707269636560981b6060820152602081019190915260800190565b60405180910390a1604080518181526017818301527f526566756e64696e672065786365737320616d6f756e7400000000000000000060608201526020810183905290516000805160206118378339815191529181900360800190a15050505050505050565b604051633ee1bcfd60e11b81526004810182905260009081906001600160a01b03851690637dc379fa90602401600060405180830381865afa158015610d7d573d6000803e3d6000fd5b505050506040513d6000823e601f3d908101601f19168201604052610da59190810190611584565b5050604051627eeac760e11b8152336004820152602481018a90529197509550600094506001600160a01b038916935062fdd58e92506044019050602060405180830381865afa158015610dfd573d6000803e3d6000fd5b505050506040513d601f19601f82011682018060405250810190610e21919061165a565b11610e6e5760405162461bcd60e51b815260206004820152601a60248201527f596f7520646f206e6f74206f776e2074686973207469636b657400000000000060448201526064016102d1565b6001816003811115610e8257610e826114e8565b14610ecf5760405162461bcd60e51b815260206004820152601c60248201527f5469636b6574206d757374206265206f776e656420746f206c6973740000000060448201526064016102d1565b60018054906000610edf8361181d565b90915550506040805160a08101825284815233602082015290810183905260608101600081526001600160a01b03868116602092830152600180546000908152808452604090819020855181559385015184830180546001600160a01b03191691909416179092559083015160028301556060830151600380840180549293909260ff1916918490811115610f7657610f766114e8565b02179055506080919091015160039091018054610100600160a81b0319166101006001600160a01b039384160217905560405163a460b81760e01b81529085169063a460b81790610fce9086906000906004016117d1565b600060405180830381600087803b158015610fe857600080fd5b505af1158015610ffc573d6000803e3d6000fd5b5050505050505050565b60008060015b60015481116110b1576000818152602081905260409020548514801561104e57506000818152602081905260409020600101546001600160a01b038581169116145b801561107e5750600081815260208190526040812060039081015460ff169081111561107c5761107c6114e8565b145b1561109f576000818152602081905260409020600201549092509050611116565b806110a98161181d565b91505061100c565b5060405162461bcd60e51b815260206004820152603360248201527f5469636b6574206e6f7420666f756e6420666f722074686520676976656e207460448201527269636b6574496420616e64206164647265737360681b60648201526084016102d1565b9250929050565b60008181526020819052604081209060038083015460ff1690811115611145576111456114e8565b146111925760405162461bcd60e51b815260206004820181905260248201527f5469636b6574206973206e6f7420617661696c61626c6520666f722073616c6560448201526064016102d1565b60018101546001600160a01b031633146111fd5760405162461bcd60e51b815260206004820152602660248201527f4f6e6c79207468652073656c6c65722063616e2072656d6f766520746865206c604482015265697374696e6760d01b60648201526084016102d1565b6003810154815460405163a460b81760e01b81526101009092046001600160a01b03169163a460b81791611236916001906004016117d1565b600060405180830381600087803b15801561125057600080fd5b505af1158015611264573d6000803e3d6000fd5b50505050600301805460ff1916600117905550565b60008060015b60015481116110b157600081815260208190526040902054851480156112c657506000818152602081905260409020600301546001600160a01b0385811661010090920416145b80156112f65750600081815260208190526040812060039081015460ff16908111156112f4576112f46114e8565b145b15611317576000818152602081905260409020600201549092509050611116565b806113218161181d565b91505061127f565b634e487b7160e01b600052604160045260246000fd5b601f8201601f1916810167ffffffffffffffff8111828210171561136557611365611329565b6040525050565b600067ffffffffffffffff82111561138657611386611329565b50601f01601f191660200190565b600082601f8301126113a557600080fd5b81356113b08161136c565b6040516113bd828261133f565b8281528560208487010111156113d257600080fd5b82602086016020830137600092810160200192909252509392505050565b60008060006060848603121561140557600080fd5b83359250602084013567ffffffffffffffff8082111561142457600080fd5b61143087838801611394565b9350604086013591508082111561144657600080fd5b5061145386828701611394565b9150509250925092565b80356001600160a01b038116811461147457600080fd5b919050565b6000806040838503121561148c57600080fd5b6114958361145d565b946020939093013593505050565b600080604083850312156114b657600080fd5b823591506114c66020840161145d565b90509250929050565b6000602082840312156114e157600080fd5b5035919050565b634e487b7160e01b600052602160045260246000fd5b6004811061151c57634e487b7160e01b600052602160045260246000fd5b50565b8581526001600160a01b0385811660208301526040820185905260a0820190611547856114fe565b8460608401528084166080840152509695505050505050565b60005b8381101561157b578181015183820152602001611563565b50506000910152565b600080600080600080600080610100898b0312156115a157600080fd5b885197506020890151965060408901519550606089015194506080890151935060a0890151600481106115d357600080fd5b60c08a015190935067ffffffffffffffff8111156115f057600080fd5b8901601f81018b1361160157600080fd5b805161160c8161136c565b604051611619828261133f565b8281528d602084860101111561162e57600080fd5b61163f836020830160208701611560565b8095505050505060e089015190509295985092959890939650565b60006020828403121561166c57600080fd5b5051919050565b600060033d111561168c5760046000803e5060005160e01c5b90565b600060443d101561169d5790565b6040516003193d81016004833e81513d67ffffffffffffffff81602484011181841117156116cd57505050505090565b82850191508151818111156116e55750505050505090565b843d87010160208285010111156116ff5750505050505090565b61170e6020828601018761133f565b509095945050505050565b60408152600061174860408301600f81526e151c985b9cd9995c8819985a5b1959608a1b602082015260400190565b905082602083015292915050565b6000815180845261176e816020860160208601611560565b601f01601f19169290920160200192915050565b6020815260006117956020830184611756565b9392505050565b8381526060602082015260006117b56060830185611756565b82810360408401526117c78185611756565b9695505050505050565b828152604081016117e1836114fe565b8260208301529392505050565b634e487b7160e01b600052601160045260246000fd5b81810381811115611817576118176117ee565b92915050565b60006001820161182f5761182f6117ee565b506001019056fe3c5ad147104e56be34a9176a6692f7df8d2f4b29a5af06bc6b98970d329d6577a264697066735822122069c7596d406a6bf5d89bcd5b485e7e6cba3f2a9dae160232d62509d7f794551c64736f6c63430008140033",
  "immutableReferences": {},
  "source": "// SPDX-License-Identifier: MIT\r\npragma solidity ^0.8.0;\r\n\r\nimport \"./Ticket_NFT.sol\"; // Import del contratto Ticket_NFT\r\nimport \"@openzeppelin/contracts/token/ERC1155/extensions/IERC1155MetadataURI.sol\";\r\n\r\n\r\ncontract Marketplace {\r\n\r\n    enum TicketStatus { Available, Owned, Validated, Expired }\r\n\r\n    struct Listing {\r\n        uint256 ticketId;\r\n        address seller;\r\n        uint256 price;\r\n        TicketStatus status;\r\n        address ticketContract; // ho aggiunto il ticketcontract alla struttura\r\n    }\r\n\r\n    mapping(uint256 => Listing) public listings;\r\n    uint256 public listingCount;\r\n    // Ticket_NFT public ticketContract; non serve pi nel costruttore\r\n\r\n    \r\n    constructor() {} //diventato vuoto\r\n\r\n    \r\n    function sellTicket(address _ticketContract, uint256 ticketId) external {\r\n        \r\n        (\r\n        ,\r\n        ,\r\n        ,\r\n        ,\r\n        uint originalPrice,\r\n        Ticket_NFT.TicketStatus status,\r\n        ,\r\n        ) = Ticket_NFT(_ticketContract).getTicket(ticketId);\r\n\r\n        require(Ticket_NFT(_ticketContract).balanceOf(msg.sender, ticketId) > 0, \"You do not own this ticket\"); // non  tuo\r\n        require(status == Ticket_NFT.TicketStatus.Owned, \"Ticket must be owned to list\"); //gi in vendita\r\n\r\n        listingCount++;\r\n        listings[listingCount] = Listing({\r\n            ticketId: ticketId,\r\n            seller: msg.sender,\r\n            price: originalPrice,\r\n            status: TicketStatus.Available,\r\n            ticketContract: _ticketContract\r\n        });\r\n\r\n        // aggiorna stato del biglietto\r\n        Ticket_NFT(_ticketContract).updateTicketStatus(ticketId, Ticket_NFT.TicketStatus.Available);\r\n    }\r\n\r\n    event Debug(string message, uint256 value);\r\n    event Debug2(string message, address addr);\r\n    event Debug3(string message,uint256 excessAmount);\r\n    \r\n    function buyTicket(uint256 listingId, string memory name, string memory surname) external payable {\r\n        emit Debug(\"Start buyTicket function\", listingId); //\r\n\r\n        Listing storage listing = listings[listingId];\r\n        emit Debug(\"Listing Status\", uint256(listing.status)); //\r\n\r\n        require(listing.status == TicketStatus.Available, \"Not on sale\");\r\n        emit Debug(\"Ticket is available for sale\", listingId);//\r\n\r\n        require(msg.value >= listing.price, \"Insufficient payment\");\r\n        emit Debug(\"Sufficient payment\", msg.value); //\r\n        \r\n        //devo controllare anche listing che sia available?\r\n        (, , , , , Ticket_NFT.TicketStatus status,, ) = Ticket_NFT(listing.ticketContract).getTicket(listing.ticketId);\r\n\r\n        require(status == Ticket_NFT.TicketStatus.Available, \"Ticket is no longer for sale\");\r\n        emit Debug(\"Ticket status before transfer\", uint256(status)); //\r\n\r\n        uint256 sellerBalance = Ticket_NFT(listing.ticketContract).balanceOf(listing.seller, listing.ticketId);\r\n        emit Debug(\"Seller's ticket balance\", sellerBalance);\r\n        require(sellerBalance > 0, \"Seller does not own the ticket\");\r\n\r\n        // manda soldi a proprietario biglietto\r\n        require(msg.value >= listing.price, \"Insufficient payment\");\r\n        (bool success, ) = listing.seller.call{value: msg.value}(\"\");\r\n        require(success, \"Payment failed\");\r\n        emit Debug(\"Payment sent to seller\", msg.value); //\r\n        \r\n        //check del transfer\r\n        emit Debug(\"Transferring ticket\", listing.ticketId);\r\n        emit Debug2(\"From seller\", listing.seller);\r\n        emit Debug2(\"To buyer\", msg.sender);\r\n        emit Debug2(\"ticket Contract\", listing.ticketContract);\r\n\r\n        // trasferisce con safetransfer\r\n        try Ticket_NFT(listing.ticketContract).safeTransferFrom(listing.seller, msg.sender, listing.ticketId, 1, \"\")\r\n        {\r\n            \r\n        }\r\n        catch Error(string memory reason) {\r\n            emit Debug(\"Transfer failed\", 1);\r\n            revert(reason);\r\n        } catch {\r\n            emit Debug(\"Transfer failed\", 2);\r\n            revert(\"Unknown transfer failure\");\r\n        }\r\n\r\n        emit Debug(\"Ticket transferred\", listing.ticketId); //\r\n        \r\n        Ticket_NFT(listing.ticketContract).setOwnerName(listing.ticketId, name, surname);\r\n        emit Debug(\"Owner changed\", listing.ticketId);\r\n        \r\n        // segna come non in vendita sia nella lista che nel biglietto\r\n        Ticket_NFT(listing.ticketContract).updateTicketStatus(listing.ticketId, Ticket_NFT.TicketStatus.Owned);\r\n        listing.status = TicketStatus.Owned;\r\n        emit Debug(\"Status updated\", listing.ticketId);\r\n        \r\n        uint256 excessAmount = msg.value - listing.price;\r\n        emit Debug(\"Msg value\", msg.value);\r\n        emit Debug(\"Listing price\", listing.price);\r\n        emit Debug(\"Refunding excess amount\", excessAmount);    \r\n    }\r\n\r\n    // Rimuovere un ticket dalla vendita\r\n    function removeFromSell(uint256 listingId) external {\r\n        Listing storage listing = listings[listingId];\r\n        require(listing.status == TicketStatus.Available, \"Ticket is not available for sale\");\r\n        require(listing.seller == msg.sender, \"Only the seller can remove the listing\");\r\n\r\n        //aggiorna biglietto stato sia in listing che nel ticket\r\n        Ticket_NFT(listing.ticketContract).updateTicketStatus(listing.ticketId, Ticket_NFT.TicketStatus.Owned);\r\n        listing.status = TicketStatus.Owned;\r\n    }\r\n\r\n\r\n\r\n    function findListingByTicketId(uint256 ticketId, address contractAddress) external view returns \r\n    (uint256 listingId, uint256 price) {\r\n    for (uint256 i = 1; i <= listingCount; i++) {\r\n        if (listings[i].ticketId == ticketId && listings[i].ticketContract == contractAddress && listings[i].status == TicketStatus.Available) {\r\n            return (i, listings[i].price);\r\n        }\r\n    }\r\n    revert(\"Ticket not found for the given ticketId and address\"); \r\n    }\r\n\r\n    function findListingBySeller(uint256 ticketId, address sellerAddress) external view returns \r\n    (uint256 listingId, uint256 price) {\r\n    for (uint256 i = 1; i <= listingCount; i++) {\r\n        if (listings[i].ticketId == ticketId && listings[i].seller == sellerAddress && listings[i].status == TicketStatus.Available) {\r\n            return (i, listings[i].price);\r\n        }\r\n    }\r\n    revert(\"Ticket not found for the given ticketId and address\"); \r\n    }\r\n}\r\n\r\n",
  "sourcePath": "C:\\Users\\eddie\\OneDrive\\Desktop\\Blockchain\\BlockchainTicketsUnitn-main\\truffle\\contracts\\Marketplace.sol",
  "compiler": {
    "name": "solc",
    "version": "0.8.20+commit.a1b79de6.Emscripten.clang"
  },
  "schemaVersion": "3.4.16",
  "updatedAt": "2025-02-11T17:35:33.267Z",
  "networkType": "ethereum",
  "devdoc": {
    "kind": "dev",
    "methods": {},
    "version": 1
  },
  "userdoc": {
    "kind": "user",
    "methods": {},
    "version": 1
  }
}