{
  "contractName": "Marketplace",
  "abi": [
    {
      "inputs": [],
      "stateMutability": "nonpayable",
      "type": "constructor"
    },
    {
      "anonymous": false,
      "inputs": [
        {
          "indexed": false,
          "internalType": "string",
          "name": "message",
          "type": "string"
        },
        {
          "indexed": false,
          "internalType": "uint256",
          "name": "value",
          "type": "uint256"
        }
      ],
      "name": "Debug",
      "type": "event"
    },
    {
      "anonymous": false,
      "inputs": [
        {
          "indexed": false,
          "internalType": "string",
          "name": "message",
          "type": "string"
        },
        {
          "indexed": false,
          "internalType": "address",
          "name": "addr",
          "type": "address"
        }
      ],
      "name": "Debug2",
      "type": "event"
    },
    {
      "anonymous": false,
      "inputs": [
        {
          "indexed": false,
          "internalType": "string",
          "name": "message",
          "type": "string"
        },
        {
          "indexed": false,
          "internalType": "uint256",
          "name": "excessAmount",
          "type": "uint256"
        }
      ],
      "name": "Debug3",
      "type": "event"
    },
    {
      "inputs": [],
      "name": "listingCount",
      "outputs": [
        {
          "internalType": "uint256",
          "name": "",
          "type": "uint256"
        }
      ],
      "stateMutability": "view",
      "type": "function",
      "constant": true
    },
    {
      "inputs": [
        {
          "internalType": "uint256",
          "name": "",
          "type": "uint256"
        }
      ],
      "name": "listings",
      "outputs": [
        {
          "internalType": "uint256",
          "name": "ticketId",
          "type": "uint256"
        },
        {
          "internalType": "address",
          "name": "seller",
          "type": "address"
        },
        {
          "internalType": "uint256",
          "name": "price",
          "type": "uint256"
        },
        {
          "internalType": "enum Marketplace.TicketStatus",
          "name": "status",
          "type": "uint8"
        },
        {
          "internalType": "address",
          "name": "ticketContract",
          "type": "address"
        }
      ],
      "stateMutability": "view",
      "type": "function",
      "constant": true
    },
    {
      "inputs": [
        {
          "internalType": "address",
          "name": "_ticketContract",
          "type": "address"
        },
        {
          "internalType": "uint256",
          "name": "ticketId",
          "type": "uint256"
        }
      ],
      "name": "sellTicket",
      "outputs": [],
      "stateMutability": "nonpayable",
      "type": "function"
    },
    {
      "inputs": [
        {
          "internalType": "uint256",
          "name": "listingId",
          "type": "uint256"
        },
        {
          "internalType": "string",
          "name": "name",
          "type": "string"
        },
        {
          "internalType": "string",
          "name": "surname",
          "type": "string"
        }
      ],
      "name": "buyTicket",
      "outputs": [],
      "stateMutability": "payable",
      "type": "function",
      "payable": true
    },
    {
      "inputs": [
        {
          "internalType": "uint256",
          "name": "listingId",
          "type": "uint256"
        }
      ],
      "name": "removeFromSell",
      "outputs": [],
      "stateMutability": "nonpayable",
      "type": "function"
    }
  ],
  "bytecode": "0x608060405234801561001057600080fd5b506113c8806100206000396000f3fe60806040526004361061004a5760003560e01c8063019346ea1461004f5780633d86011714610064578063a9b07c2614610084578063c395d9cc146100ad578063de74e57b146100cd575b600080fd5b61006261005d36600461106e565b610137565b005b34801561007057600080fd5b5061006261007f3660046110db565b610b7a565b34801561009057600080fd5b5061009a60015481565b6040519081526020015b60405180910390f35b3480156100b957600080fd5b506100626100c8366004611113565b610e4d565b3480156100d957600080fd5b506101266100e8366004611113565b600060208190529081526040902080546001820154600283015460039093015491926001600160a01b0391821692909160ff82169161010090041685565b6040516100a4959493929190611163565b604080518181526018818301527f5374617274206275795469636b65742066756e6374696f6e000000000000000060608201526020810185905290516000805160206113738339815191529181900360800190a160008381526020819052604090206003808201546000805160206113738339815191529160ff909116908111156101c4576101c461112c565b6040516101fc91906040808252600e908201526d4c697374696e672053746174757360901b6060820152602081019190915260800190565b60405180910390a1600060038083015460ff169081111561021f5761021f61112c565b1461025f5760405162461bcd60e51b815260206004820152600b60248201526a4e6f74206f6e2073616c6560a81b60448201526064015b60405180910390fd5b60408051818152601c818301527f5469636b657420697320617661696c61626c6520666f722073616c650000000060608201526020810186905290516000805160206113738339815191529181900360800190a180600201543410156102fe5760405162461bcd60e51b8152602060048201526014602482015273125b9cdd59999a58da595b9d081c185e5b595b9d60621b6044820152606401610256565b604080518181526012818301527114dd59999a58da595b9d081c185e5b595b9d60721b606082015234602082015290516000805160206113738339815191529181900360800190a160038101548154604051633ee1bcfd60e11b8152600481019190915260009161010090046001600160a01b031690637dc379fa90602401600060405180830381865afa15801561039a573d6000803e3d6000fd5b505050506040513d6000823e601f3d908101601f191682016040526103c291908101906111c8565b50909650600095506103d5945050505050565b8160038111156103e7576103e761112c565b146104345760405162461bcd60e51b815260206004820152601c60248201527f5469636b6574206973206e6f206c6f6e67657220666f722073616c65000000006044820152606401610256565b6000805160206113738339815191528160038111156104555761045561112c565b60405161049c91906040808252601d908201527f5469636b657420737461747573206265666f7265207472616e736665720000006060820152602081019190915260800190565b60405180910390a1600382015460018301548354604051627eeac760e11b81526001600160a01b039283166004820152602481019190915260009261010090049091169062fdd58e90604401602060405180830381865afa158015610505573d6000803e3d6000fd5b505050506040513d601f19601f820116820180604052508101906105299190611293565b905060008051602061137383398151915281604051610582919060408082526017908201527f53656c6c65722773207469636b65742062616c616e63650000000000000000006060820152602081019190915260800190565b60405180910390a1600081116105da5760405162461bcd60e51b815260206004820152601e60248201527f53656c6c657220646f6573206e6f74206f776e20746865207469636b657400006044820152606401610256565b82600201543410156106255760405162461bcd60e51b8152602060048201526014602482015273125b9cdd59999a58da595b9d081c185e5b595b9d60621b6044820152606401610256565b60018301546040516000916001600160a01b03169034908381818185875af1925050503d8060008114610674576040519150601f19603f3d011682016040523d82523d6000602084013e610679565b606091505b50509050806106bb5760405162461bcd60e51b815260206004820152600e60248201526d14185e5b595b9d0819985a5b195960921b6044820152606401610256565b60408051818152601681830152752830bcb6b2b73a1039b2b73a103a379039b2b63632b960511b606082015234602082015290516000805160206113738339815191529181900360800190a183546040516000805160206113738339815191529161075591604080825260139082015272151c985b9cd9995c9c9a5b99c81d1a58dad95d606a1b6060820152602081019190915260800190565b60405180910390a1600184015460408051818152600b818301526a233937b69039b2b63632b960a91b60608201526001600160a01b039092166020830152517f5962514d7ec50966eaf33d86b837373e780c311af0b0050b835fa858529beaab9181900360800190a160408051818152600881830152672a3790313abcb2b960c11b606082015233602082015290517f5962514d7ec50966eaf33d86b837373e780c311af0b0050b835fa858529beaab9181900360800190a160038401546001808601548654604051637921219560e11b81526001600160a01b0392831660048201523360248201526044810191909152606481019290925260a06084830152600060a48301526101009092049091169063f242432a9060c401600060405180830381600087803b15801561088957600080fd5b505af115801561089d573d6000803e3d6000fd5b5050855460405160008051602061137383398151915293506108ee9250604080825260129082015271151a58dad95d081d1c985b9cd9995c9c995960721b6060820152602081019190915260800190565b60405180910390a16003840154845460405163c28aeb7760e01b81526101009092046001600160a01b03169163c28aeb7791610930918a908a906004016112d8565b600060405180830381600087803b15801561094a57600080fd5b505af115801561095e573d6000803e3d6000fd5b5050855460405160008051602061137383398151915293506109aa92506040808252600d908201526c13dddb995c8818da185b99d959609a1b6060820152602081019190915260800190565b60405180910390a16003840154845460405163a460b81760e01b81526101009092046001600160a01b03169163a460b817916109eb9160019060040161130d565b600060405180830381600087803b158015610a0557600080fd5b505af1158015610a19573d6000803e3d6000fd5b5050505060038401805460ff19166001179055835460408051818152600e818301526d14dd185d1d5cc81d5c19185d195960921b6060820152602081019290925251600080516020611373833981519152916080908290030190a16000846002015434610a869190611340565b60408051818152600981830152684d73672076616c756560b81b60608201523460208201529051919250600080516020611373833981519152919081900360800190a16000805160206113738339815191528560020154604051610b1491906040808252600d908201526c4c697374696e6720707269636560981b6060820152602081019190915260800190565b60405180910390a1604080518181526017818301527f526566756e64696e672065786365737320616d6f756e7400000000000000000060608201526020810183905290516000805160206113738339815191529181900360800190a15050505050505050565b604051633ee1bcfd60e11b81526004810182905260009081906001600160a01b03851690637dc379fa90602401600060405180830381865afa158015610bc4573d6000803e3d6000fd5b505050506040513d6000823e601f3d908101601f19168201604052610bec91908101906111c8565b5050604051627eeac760e11b8152336004820152602481018a90529197509550600094506001600160a01b038916935062fdd58e92506044019050602060405180830381865afa158015610c44573d6000803e3d6000fd5b505050506040513d601f19601f82011682018060405250810190610c689190611293565b11610cb55760405162461bcd60e51b815260206004820152601a60248201527f596f7520646f206e6f74206f776e2074686973207469636b65740000000000006044820152606401610256565b6001816003811115610cc957610cc961112c565b14610d165760405162461bcd60e51b815260206004820152601c60248201527f5469636b6574206d757374206265206f776e656420746f206c697374000000006044820152606401610256565b60018054906000610d2683611359565b90915550506040805160a08101825284815233602082015290810183905260608101600081526001600160a01b03868116602092830152600180546000908152808452604090819020855181559385015184830180546001600160a01b03191691909416179092559083015160028301556060830151600380840180549293909260ff1916918490811115610dbd57610dbd61112c565b02179055506080919091015160039091018054610100600160a81b0319166101006001600160a01b039384160217905560405163a460b81760e01b81529085169063a460b81790610e1590869060009060040161130d565b600060405180830381600087803b158015610e2f57600080fd5b505af1158015610e43573d6000803e3d6000fd5b5050505050505050565b60008181526020819052604081209060038083015460ff1690811115610e7557610e7561112c565b14610ec25760405162461bcd60e51b815260206004820181905260248201527f5469636b6574206973206e6f7420617661696c61626c6520666f722073616c656044820152606401610256565b60018101546001600160a01b03163314610f2d5760405162461bcd60e51b815260206004820152602660248201527f4f6e6c79207468652073656c6c65722063616e2072656d6f766520746865206c604482015265697374696e6760d01b6064820152608401610256565b6003810154815460405163a460b81760e01b81526101009092046001600160a01b03169163a460b81791610f669160019060040161130d565b600060405180830381600087803b158015610f8057600080fd5b505af1158015610f94573d6000803e3d6000fd5b50505050600301805460ff1916600117905550565b634e487b7160e01b600052604160045260246000fd5b604051601f8201601f1916810167ffffffffffffffff81118282101715610fe857610fe8610fa9565b604052919050565b600067ffffffffffffffff82111561100a5761100a610fa9565b50601f01601f191660200190565b600082601f83011261102957600080fd5b813561103c61103782610ff0565b610fbf565b81815284602083860101111561105157600080fd5b816020850160208301376000918101602001919091529392505050565b60008060006060848603121561108357600080fd5b83359250602084013567ffffffffffffffff808211156110a257600080fd5b6110ae87838801611018565b935060408601359150808211156110c457600080fd5b506110d186828701611018565b9150509250925092565b600080604083850312156110ee57600080fd5b82356001600160a01b038116811461110557600080fd5b946020939093013593505050565b60006020828403121561112557600080fd5b5035919050565b634e487b7160e01b600052602160045260246000fd5b6004811061116057634e487b7160e01b600052602160045260246000fd5b50565b8581526001600160a01b0385811660208301526040820185905260a082019061118b85611142565b8460608401528084166080840152509695505050505050565b60005b838110156111bf5781810151838201526020016111a7565b50506000910152565b600080600080600080600080610100898b0312156111e557600080fd5b885197506020890151965060408901519550606089015194506080890151935060a08901516004811061121757600080fd5b60c08a015190935067ffffffffffffffff81111561123457600080fd5b8901601f81018b1361124557600080fd5b805161125361103782610ff0565b8181528c602083850101111561126857600080fd5b6112798260208301602086016111a4565b80945050505060e089015190509295985092959890939650565b6000602082840312156112a557600080fd5b5051919050565b600081518084526112c48160208601602086016111a4565b601f01601f19169290920160200192915050565b8381526060602082015260006112f160608301856112ac565b828103604084015261130381856112ac565b9695505050505050565b8281526040810161131d83611142565b8260208301529392505050565b634e487b7160e01b600052601160045260246000fd5b818103818111156113535761135361132a565b92915050565b60006001820161136b5761136b61132a565b506001019056fe3c5ad147104e56be34a9176a6692f7df8d2f4b29a5af06bc6b98970d329d6577a2646970667358221220789667aed44a187548b17ed830ee421c466f15eda3d9f8c1d3397fa36303c55564736f6c63430008140033",
  "immutableReferences": {},
  "source": "// SPDX-License-Identifier: MIT\r\npragma solidity ^0.8.0;\r\n\r\nimport \"./Ticket_NFT.sol\"; // Import del contratto Ticket_NFT\r\n\r\ncontract Marketplace {\r\n\r\n    enum TicketStatus { Available, Owned, Validated, Expired }\r\n\r\n    struct Listing {\r\n        uint256 ticketId;\r\n        address seller;\r\n        uint256 price;\r\n        TicketStatus status;\r\n        address ticketContract; // ho aggiunto il ticketcontract alla struttura\r\n    }\r\n\r\n    mapping(uint256 => Listing) public listings;\r\n    uint256 public listingCount;\r\n    // Ticket_NFT public ticketContract; non serve pi nel costruttore\r\n\r\n    \r\n    constructor() {} //diventato vuoto\r\n\r\n    \r\n    function sellTicket(address _ticketContract, uint256 ticketId) external {\r\n        \r\n        (\r\n        ,\r\n        ,\r\n        ,\r\n        ,\r\n        uint originalPrice,\r\n        Ticket_NFT.TicketStatus status,\r\n        ,\r\n        ) = Ticket_NFT(_ticketContract).getTicket(ticketId);\r\n\r\n        require(Ticket_NFT(_ticketContract).balanceOf(msg.sender, ticketId) > 0, \"You do not own this ticket\"); // non  tuo\r\n        require(status == Ticket_NFT.TicketStatus.Owned, \"Ticket must be owned to list\"); //gi in vendita\r\n\r\n        listingCount++;\r\n        listings[listingCount] = Listing({\r\n            ticketId: ticketId,\r\n            seller: msg.sender,\r\n            price: originalPrice,\r\n            status: TicketStatus.Available,\r\n            ticketContract: _ticketContract\r\n        });\r\n\r\n        // aggiorna stato del biglietto\r\n        Ticket_NFT(_ticketContract).updateTicketStatus(ticketId, Ticket_NFT.TicketStatus.Available);\r\n    }\r\n\r\n    event Debug(string message, uint256 value);\r\n    event Debug2(string message, address addr);\r\n    event Debug3(string message,uint256 excessAmount);\r\n    function buyTicket(uint256 listingId, string memory name, string memory surname) external payable {\r\n        emit Debug(\"Start buyTicket function\", listingId); //\r\n\r\n        Listing storage listing = listings[listingId];\r\n        emit Debug(\"Listing Status\", uint256(listing.status)); //\r\n\r\n        require(listing.status == TicketStatus.Available, \"Not on sale\");\r\n        emit Debug(\"Ticket is available for sale\", listingId);//\r\n\r\n        require(msg.value >= listing.price, \"Insufficient payment\");\r\n        emit Debug(\"Sufficient payment\", msg.value); //\r\n        \r\n        //devo controllare anche listing che sia available?\r\n        (\r\n        , \r\n        , \r\n        , \r\n        , \r\n        , \r\n        Ticket_NFT.TicketStatus status,\r\n        , \r\n        ) = Ticket_NFT(listing.ticketContract).getTicket(listing.ticketId);\r\n        require(status == Ticket_NFT.TicketStatus.Available, \"Ticket is no longer for sale\");\r\n        emit Debug(\"Ticket status before transfer\", uint256(status)); //\r\n\r\n\r\n        uint256 sellerBalance = Ticket_NFT(listing.ticketContract).balanceOf(listing.seller, listing.ticketId);\r\n        emit Debug(\"Seller's ticket balance\", sellerBalance);\r\n        require(sellerBalance > 0, \"Seller does not own the ticket\");\r\n\r\n\r\n        // manda soldi a proprietario biglietto\r\n        require(msg.value >= listing.price, \"Insufficient payment\");\r\n        (bool success, ) = listing.seller.call{value: msg.value}(\"\");\r\n        require(success, \"Payment failed\");\r\n        emit Debug(\"Payment sent to seller\", msg.value); //\r\n        \r\n        //check del transfer\r\n        emit Debug(\"Transferring ticket\", listing.ticketId);\r\n        emit Debug2(\"From seller\", listing.seller);\r\n        emit Debug2(\"To buyer\", msg.sender);\r\n\r\n        \r\n        // trasferisce con safetransfer\r\n        Ticket_NFT(listing.ticketContract).safeTransferFrom(listing.seller, msg.sender, listing.ticketId, 1, \"\");\r\n        emit Debug(\"Ticket transferred\", listing.ticketId); //\r\n        \r\n        Ticket_NFT(listing.ticketContract).setOwnerName(listing.ticketId, name, surname);\r\n        emit Debug(\"Owner changed\", listing.ticketId);\r\n        \r\n        // segna come non in vendita sia nella lista che nel biglietto\r\n        Ticket_NFT(listing.ticketContract).updateTicketStatus(listing.ticketId, Ticket_NFT.TicketStatus.Owned);\r\n        listing.status = TicketStatus.Owned;\r\n        emit Debug(\"Status updated\", listing.ticketId);\r\n        \r\n    \r\n\r\n        uint256 excessAmount = msg.value - listing.price;\r\n        emit Debug(\"Msg value\", msg.value);\r\n        emit Debug(\"Listing price\", listing.price);\r\n        emit Debug(\"Refunding excess amount\", excessAmount);\r\n        \r\n        \r\n        \r\n    }\r\n\r\n    // Rimuovere un ticket dalla vendita\r\n    function removeFromSell(uint256 listingId) external {\r\n        Listing storage listing = listings[listingId];\r\n        require(listing.status == TicketStatus.Available, \"Ticket is not available for sale\");\r\n        require(listing.seller == msg.sender, \"Only the seller can remove the listing\");\r\n\r\n        //aggiorna biglietto stato sia in listing che nel ticket\r\n        Ticket_NFT(listing.ticketContract).updateTicketStatus(listing.ticketId, Ticket_NFT.TicketStatus.Owned);\r\n        listing.status = TicketStatus.Owned;\r\n    }\r\n}\r\n",
  "sourcePath": "C:\\Users\\eddie\\OneDrive\\Desktop\\Blockchain\\BlockchainTicketsUnitn-main\\truffle\\contracts\\Marketplace.sol",
  "compiler": {
    "name": "solc",
    "version": "0.8.20+commit.a1b79de6.Emscripten.clang"
  },
  "schemaVersion": "3.4.16",
  "updatedAt": "2025-01-31T08:16:23.011Z",
  "networkType": "ethereum",
  "devdoc": {
    "kind": "dev",
    "methods": {},
    "version": 1
  },
  "userdoc": {
    "kind": "user",
    "methods": {},
    "version": 1
  }
}