{
  "contractName": "Marketplace",
  "abi": [
    {
      "inputs": [],
      "stateMutability": "nonpayable",
      "type": "constructor"
    },
    {
      "anonymous": false,
      "inputs": [
        {
          "indexed": false,
          "internalType": "string",
          "name": "message",
          "type": "string"
        },
        {
          "indexed": false,
          "internalType": "uint256",
          "name": "value",
          "type": "uint256"
        }
      ],
      "name": "Debug",
      "type": "event"
    },
    {
      "anonymous": false,
      "inputs": [
        {
          "indexed": false,
          "internalType": "string",
          "name": "message",
          "type": "string"
        },
        {
          "indexed": false,
          "internalType": "address",
          "name": "addr",
          "type": "address"
        }
      ],
      "name": "Debug2",
      "type": "event"
    },
    {
      "anonymous": false,
      "inputs": [
        {
          "indexed": false,
          "internalType": "string",
          "name": "message",
          "type": "string"
        },
        {
          "indexed": false,
          "internalType": "uint256",
          "name": "excessAmount",
          "type": "uint256"
        }
      ],
      "name": "Debug3",
      "type": "event"
    },
    {
      "inputs": [],
      "name": "listingCount",
      "outputs": [
        {
          "internalType": "uint256",
          "name": "",
          "type": "uint256"
        }
      ],
      "stateMutability": "view",
      "type": "function",
      "constant": true
    },
    {
      "inputs": [
        {
          "internalType": "uint256",
          "name": "",
          "type": "uint256"
        }
      ],
      "name": "listings",
      "outputs": [
        {
          "internalType": "uint256",
          "name": "ticketId",
          "type": "uint256"
        },
        {
          "internalType": "address",
          "name": "seller",
          "type": "address"
        },
        {
          "internalType": "uint256",
          "name": "price",
          "type": "uint256"
        },
        {
          "internalType": "enum Marketplace.TicketStatus",
          "name": "status",
          "type": "uint8"
        },
        {
          "internalType": "address",
          "name": "ticketContract",
          "type": "address"
        }
      ],
      "stateMutability": "view",
      "type": "function",
      "constant": true
    },
    {
      "inputs": [
        {
          "internalType": "address",
          "name": "_ticketContract",
          "type": "address"
        },
        {
          "internalType": "uint256",
          "name": "ticketId",
          "type": "uint256"
        }
      ],
      "name": "sellTicket",
      "outputs": [],
      "stateMutability": "nonpayable",
      "type": "function"
    },
    {
      "inputs": [
        {
          "internalType": "uint256",
          "name": "listingId",
          "type": "uint256"
        },
        {
          "internalType": "string",
          "name": "name",
          "type": "string"
        },
        {
          "internalType": "string",
          "name": "surname",
          "type": "string"
        }
      ],
      "name": "buyTicket",
      "outputs": [],
      "stateMutability": "payable",
      "type": "function",
      "payable": true
    },
    {
      "inputs": [
        {
          "internalType": "uint256",
          "name": "listingId",
          "type": "uint256"
        }
      ],
      "name": "removeFromSell",
      "outputs": [],
      "stateMutability": "nonpayable",
      "type": "function"
    },
    {
      "inputs": [
        {
          "internalType": "uint256",
          "name": "ticketId",
          "type": "uint256"
        }
      ],
      "name": "findListingByTicketId",
      "outputs": [
        {
          "internalType": "uint256",
          "name": "",
          "type": "uint256"
        }
      ],
      "stateMutability": "view",
      "type": "function",
      "constant": true
    }
  ],
  "bytecode": "0x608060405234801561001057600080fd5b506116d0806100206000396000f3fe6080604052600436106100555760003560e01c8063019346ea1461005a5780633d8601171461006f578063a9b07c261461008f578063c395d9cc146100b8578063de74e57b146100d8578063f3deb09c14610142575b600080fd5b61006d61006836600461126e565b610162565b005b34801561007b57600080fd5b5061006d61008a3660046112db565b610ce3565b34801561009b57600080fd5b506100a560015481565b6040519081526020015b60405180910390f35b3480156100c457600080fd5b5061006d6100d3366004611313565b610fb6565b3480156100e457600080fd5b506101316100f3366004611313565b600060208190529081526040902080546001820154600283015460039093015491926001600160a01b0391821692909160ff82169161010090041685565b6040516100af959493929190611363565b34801561014e57600080fd5b506100a561015d366004611313565b611112565b604080518181526018818301527f5374617274206275795469636b65742066756e6374696f6e0000000000000000606082015260208101859052905160008051602061167b8339815191529181900360800190a1600083815260208190526040902060038082015460008051602061167b8339815191529160ff909116908111156101ef576101ef61132c565b60405161022791906040808252600e908201526d4c697374696e672053746174757360901b6060820152602081019190915260800190565b60405180910390a1600060038083015460ff169081111561024a5761024a61132c565b1461028a5760405162461bcd60e51b815260206004820152600b60248201526a4e6f74206f6e2073616c6560a81b60448201526064015b60405180910390fd5b60408051818152601c818301527f5469636b657420697320617661696c61626c6520666f722073616c6500000000606082015260208101869052905160008051602061167b8339815191529181900360800190a180600201543410156103295760405162461bcd60e51b8152602060048201526014602482015273125b9cdd59999a58da595b9d081c185e5b595b9d60621b6044820152606401610281565b604080518181526012818301527114dd59999a58da595b9d081c185e5b595b9d60721b6060820152346020820152905160008051602061167b8339815191529181900360800190a160038101548154604051633ee1bcfd60e11b8152600481019190915260009161010090046001600160a01b031690637dc379fa90602401600060405180830381865afa1580156103c5573d6000803e3d6000fd5b505050506040513d6000823e601f3d908101601f191682016040526103ed91908101906113c8565b5090965060009550610400945050505050565b8160038111156104125761041261132c565b1461045f5760405162461bcd60e51b815260206004820152601c60248201527f5469636b6574206973206e6f206c6f6e67657220666f722073616c65000000006044820152606401610281565b60008051602061167b8339815191528160038111156104805761048061132c565b6040516104c791906040808252601d908201527f5469636b657420737461747573206265666f7265207472616e736665720000006060820152602081019190915260800190565b60405180910390a1600382015460018301548354604051627eeac760e11b81526001600160a01b039283166004820152602481019190915260009261010090049091169062fdd58e90604401602060405180830381865afa158015610530573d6000803e3d6000fd5b505050506040513d601f19601f82011682018060405250810190610554919061149e565b905060008051602061167b833981519152816040516105ad919060408082526017908201527f53656c6c65722773207469636b65742062616c616e63650000000000000000006060820152602081019190915260800190565b60405180910390a1600081116106055760405162461bcd60e51b815260206004820152601e60248201527f53656c6c657220646f6573206e6f74206f776e20746865207469636b657400006044820152606401610281565b82600201543410156106505760405162461bcd60e51b8152602060048201526014602482015273125b9cdd59999a58da595b9d081c185e5b595b9d60621b6044820152606401610281565b60018301546040516000916001600160a01b03169034908381818185875af1925050503d806000811461069f576040519150601f19603f3d011682016040523d82523d6000602084013e6106a4565b606091505b50509050806106e65760405162461bcd60e51b815260206004820152600e60248201526d14185e5b595b9d0819985a5b195960921b6044820152606401610281565b60408051818152601681830152752830bcb6b2b73a1039b2b73a103a379039b2b63632b960511b6060820152346020820152905160008051602061167b8339815191529181900360800190a1835460405160008051602061167b8339815191529161078091604080825260139082015272151c985b9cd9995c9c9a5b99c81d1a58dad95d606a1b6060820152602081019190915260800190565b60405180910390a1600184015460408051818152600b818301526a233937b69039b2b63632b960a91b60608201526001600160a01b039092166020830152517f5962514d7ec50966eaf33d86b837373e780c311af0b0050b835fa858529beaab9181900360800190a160408051818152600881830152672a3790313abcb2b960c11b606082015233602082015290517f5962514d7ec50966eaf33d86b837373e780c311af0b0050b835fa858529beaab9181900360800190a1600384015460408051818152600f818301526e1d1a58dad95d0810dbdb9d1c9858dd608a1b60608201526101009092046001600160a01b03166020830152517f5962514d7ec50966eaf33d86b837373e780c311af0b0050b835fa858529beaab916080908290030190a160038401546001808601548654604051637921219560e11b81526001600160a01b0392831660048201523360248201526044810191909152606481019290925260a06084830152600060a48301526101009092049091169063f242432a9060c401600060405180830381600087803b15801561091e57600080fd5b505af192505050801561092f575060015b610a0a5761093b6114b7565b806308c379a00361099a575061094f6114d3565b8061095a575061099c565b60008051602061167b8339815191526001604051610978919061155d565b60405180910390a18060405162461bcd60e51b815260040161028191906115c6565b505b60008051602061167b83398151915260026040516109ba919061155d565b60405180910390a160405162461bcd60e51b815260206004820152601860248201527f556e6b6e6f776e207472616e73666572206661696c75726500000000000000006044820152606401610281565b835460405160008051602061167b83398151915291610a5791604080825260129082015271151a58dad95d081d1c985b9cd9995c9c995960721b6060820152602081019190915260800190565b60405180910390a16003840154845460405163c28aeb7760e01b81526101009092046001600160a01b03169163c28aeb7791610a99918a908a906004016115e0565b600060405180830381600087803b158015610ab357600080fd5b505af1158015610ac7573d6000803e3d6000fd5b5050855460405160008051602061167b8339815191529350610b1392506040808252600d908201526c13dddb995c8818da185b99d959609a1b6060820152602081019190915260800190565b60405180910390a16003840154845460405163a460b81760e01b81526101009092046001600160a01b03169163a460b81791610b5491600190600401611615565b600060405180830381600087803b158015610b6e57600080fd5b505af1158015610b82573d6000803e3d6000fd5b5050505060038401805460ff19166001179055835460408051818152600e818301526d14dd185d1d5cc81d5c19185d195960921b606082015260208101929092525160008051602061167b833981519152916080908290030190a16000846002015434610bef9190611648565b60408051818152600981830152684d73672076616c756560b81b6060820152346020820152905191925060008051602061167b833981519152919081900360800190a160008051602061167b8339815191528560020154604051610c7d91906040808252600d908201526c4c697374696e6720707269636560981b6060820152602081019190915260800190565b60405180910390a1604080518181526017818301527f526566756e64696e672065786365737320616d6f756e74000000000000000000606082015260208101839052905160008051602061167b8339815191529181900360800190a15050505050505050565b604051633ee1bcfd60e11b81526004810182905260009081906001600160a01b03851690637dc379fa90602401600060405180830381865afa158015610d2d573d6000803e3d6000fd5b505050506040513d6000823e601f3d908101601f19168201604052610d5591908101906113c8565b5050604051627eeac760e11b8152336004820152602481018a90529197509550600094506001600160a01b038916935062fdd58e92506044019050602060405180830381865afa158015610dad573d6000803e3d6000fd5b505050506040513d601f19601f82011682018060405250810190610dd1919061149e565b11610e1e5760405162461bcd60e51b815260206004820152601a60248201527f596f7520646f206e6f74206f776e2074686973207469636b65740000000000006044820152606401610281565b6001816003811115610e3257610e3261132c565b14610e7f5760405162461bcd60e51b815260206004820152601c60248201527f5469636b6574206d757374206265206f776e656420746f206c697374000000006044820152606401610281565b60018054906000610e8f83611661565b90915550506040805160a08101825284815233602082015290810183905260608101600081526001600160a01b03868116602092830152600180546000908152808452604090819020855181559385015184830180546001600160a01b03191691909416179092559083015160028301556060830151600380840180549293909260ff1916918490811115610f2657610f2661132c565b02179055506080919091015160039091018054610100600160a81b0319166101006001600160a01b039384160217905560405163a460b81760e01b81529085169063a460b81790610f7e908690600090600401611615565b600060405180830381600087803b158015610f9857600080fd5b505af1158015610fac573d6000803e3d6000fd5b5050505050505050565b60008181526020819052604081209060038083015460ff1690811115610fde57610fde61132c565b1461102b5760405162461bcd60e51b815260206004820181905260248201527f5469636b6574206973206e6f7420617661696c61626c6520666f722073616c656044820152606401610281565b60018101546001600160a01b031633146110965760405162461bcd60e51b815260206004820152602660248201527f4f6e6c79207468652073656c6c65722063616e2072656d6f766520746865206c604482015265697374696e6760d01b6064820152608401610281565b6003810154815460405163a460b81760e01b81526101009092046001600160a01b03169163a460b817916110cf91600190600401611615565b600060405180830381600087803b1580156110e957600080fd5b505af11580156110fd573d6000803e3d6000fd5b50505050600301805460ff1916600117905550565b600060015b600154811161114e5760008181526020819052604090205483900361113c5792915050565b8061114681611661565b915050611117565b5060405162461bcd60e51b815260206004820152602760248201527f5469636b6574206e6f7420666f756e6420666f722074686520676976656e20746044820152661a58dad95d125960ca1b6064820152608401610281565b634e487b7160e01b600052604160045260246000fd5b601f8201601f1916810167ffffffffffffffff811182821017156111e3576111e36111a7565b6040525050565b600067ffffffffffffffff821115611204576112046111a7565b50601f01601f191660200190565b600082601f83011261122357600080fd5b813561122e816111ea565b60405161123b82826111bd565b82815285602084870101111561125057600080fd5b82602086016020830137600092810160200192909252509392505050565b60008060006060848603121561128357600080fd5b83359250602084013567ffffffffffffffff808211156112a257600080fd5b6112ae87838801611212565b935060408601359150808211156112c457600080fd5b506112d186828701611212565b9150509250925092565b600080604083850312156112ee57600080fd5b82356001600160a01b038116811461130557600080fd5b946020939093013593505050565b60006020828403121561132557600080fd5b5035919050565b634e487b7160e01b600052602160045260246000fd5b6004811061136057634e487b7160e01b600052602160045260246000fd5b50565b8581526001600160a01b0385811660208301526040820185905260a082019061138b85611342565b8460608401528084166080840152509695505050505050565b60005b838110156113bf5781810151838201526020016113a7565b50506000910152565b600080600080600080600080610100898b0312156113e557600080fd5b885197506020890151965060408901519550606089015194506080890151935060a08901516004811061141757600080fd5b60c08a015190935067ffffffffffffffff81111561143457600080fd5b8901601f81018b1361144557600080fd5b8051611450816111ea565b60405161145d82826111bd565b8281528d602084860101111561147257600080fd5b6114838360208301602087016113a4565b8095505050505060e089015190509295985092959890939650565b6000602082840312156114b057600080fd5b5051919050565b600060033d11156114d05760046000803e5060005160e01c5b90565b600060443d10156114e15790565b6040516003193d81016004833e81513d67ffffffffffffffff816024840111818411171561151157505050505090565b82850191508151818111156115295750505050505090565b843d87010160208285010111156115435750505050505090565b611552602082860101876111bd565b509095945050505050565b60408152600061158c60408301600f81526e151c985b9cd9995c8819985a5b1959608a1b602082015260400190565b905082602083015292915050565b600081518084526115b28160208601602086016113a4565b601f01601f19169290920160200192915050565b6020815260006115d9602083018461159a565b9392505050565b8381526060602082015260006115f9606083018561159a565b828103604084015261160b818561159a565b9695505050505050565b8281526040810161162583611342565b8260208301529392505050565b634e487b7160e01b600052601160045260246000fd5b8181038181111561165b5761165b611632565b92915050565b60006001820161167357611673611632565b506001019056fe3c5ad147104e56be34a9176a6692f7df8d2f4b29a5af06bc6b98970d329d6577a264697066735822122080e906326b1f5faec3fc4ee61ca90ea48d16b53b5def295bc636d5fa94ca5d6864736f6c63430008140033",
  "immutableReferences": {},
  "source": "// SPDX-License-Identifier: MIT\r\npragma solidity ^0.8.0;\r\n\r\nimport \"./Ticket_NFT.sol\"; // Import del contratto Ticket_NFT\r\nimport \"@openzeppelin/contracts/token/ERC1155/extensions/IERC1155MetadataURI.sol\";\r\n\r\n\r\ncontract Marketplace {\r\n\r\n    enum TicketStatus { Available, Owned, Validated, Expired }\r\n\r\n    struct Listing {\r\n        uint256 ticketId;\r\n        address seller;\r\n        uint256 price;\r\n        TicketStatus status;\r\n        address ticketContract; // ho aggiunto il ticketcontract alla struttura\r\n    }\r\n\r\n    mapping(uint256 => Listing) public listings;\r\n    uint256 public listingCount;\r\n    // Ticket_NFT public ticketContract; non serve pi nel costruttore\r\n\r\n    \r\n    constructor() {} //diventato vuoto\r\n\r\n    \r\n    function sellTicket(address _ticketContract, uint256 ticketId) external {\r\n        \r\n        (\r\n        ,\r\n        ,\r\n        ,\r\n        ,\r\n        uint originalPrice,\r\n        Ticket_NFT.TicketStatus status,\r\n        ,\r\n        ) = Ticket_NFT(_ticketContract).getTicket(ticketId);\r\n\r\n        require(Ticket_NFT(_ticketContract).balanceOf(msg.sender, ticketId) > 0, \"You do not own this ticket\"); // non  tuo\r\n        require(status == Ticket_NFT.TicketStatus.Owned, \"Ticket must be owned to list\"); //gi in vendita\r\n\r\n        listingCount++;\r\n        listings[listingCount] = Listing({\r\n            ticketId: ticketId,\r\n            seller: msg.sender,\r\n            price: originalPrice,\r\n            status: TicketStatus.Available,\r\n            ticketContract: _ticketContract\r\n        });\r\n\r\n        // aggiorna stato del biglietto\r\n        Ticket_NFT(_ticketContract).updateTicketStatus(ticketId, Ticket_NFT.TicketStatus.Available);\r\n    }\r\n\r\n    event Debug(string message, uint256 value);\r\n    event Debug2(string message, address addr);\r\n    event Debug3(string message,uint256 excessAmount);\r\n    \r\n    function buyTicket(uint256 listingId, string memory name, string memory surname) external payable {\r\n        emit Debug(\"Start buyTicket function\", listingId); //\r\n\r\n        Listing storage listing = listings[listingId];\r\n        emit Debug(\"Listing Status\", uint256(listing.status)); //\r\n\r\n        require(listing.status == TicketStatus.Available, \"Not on sale\");\r\n        emit Debug(\"Ticket is available for sale\", listingId);//\r\n\r\n        require(msg.value >= listing.price, \"Insufficient payment\");\r\n        emit Debug(\"Sufficient payment\", msg.value); //\r\n        \r\n        //devo controllare anche listing che sia available?\r\n        (, , , , , Ticket_NFT.TicketStatus status,, ) = Ticket_NFT(listing.ticketContract).getTicket(listing.ticketId);\r\n\r\n        require(status == Ticket_NFT.TicketStatus.Available, \"Ticket is no longer for sale\");\r\n        emit Debug(\"Ticket status before transfer\", uint256(status)); //\r\n\r\n        uint256 sellerBalance = Ticket_NFT(listing.ticketContract).balanceOf(listing.seller, listing.ticketId);\r\n        emit Debug(\"Seller's ticket balance\", sellerBalance);\r\n        require(sellerBalance > 0, \"Seller does not own the ticket\");\r\n\r\n        // manda soldi a proprietario biglietto\r\n        require(msg.value >= listing.price, \"Insufficient payment\");\r\n        (bool success, ) = listing.seller.call{value: msg.value}(\"\");\r\n        require(success, \"Payment failed\");\r\n        emit Debug(\"Payment sent to seller\", msg.value); //\r\n        \r\n        //check del transfer\r\n        emit Debug(\"Transferring ticket\", listing.ticketId);\r\n        emit Debug2(\"From seller\", listing.seller);\r\n        emit Debug2(\"To buyer\", msg.sender);\r\n        emit Debug2(\"ticket Contract\", listing.ticketContract);\r\n\r\n        \r\n        \r\n\r\n        // trasferisce con safetransfer\r\n        //Ticket_NFT(listing.ticketContract).safeTransferFrom(listing.seller, address(this), listing.ticketId, 1, \"\");\r\n        try Ticket_NFT(listing.ticketContract).safeTransferFrom(listing.seller, msg.sender, listing.ticketId, 1, \"\")\r\n        {\r\n            \r\n        }\r\n        catch Error(string memory reason) {\r\n            emit Debug(\"Transfer failed\", 1);\r\n            revert(reason);\r\n        } catch {\r\n            emit Debug(\"Transfer failed\", 2);\r\n            revert(\"Unknown transfer failure\");\r\n        }\r\n\r\n        emit Debug(\"Ticket transferred\", listing.ticketId); //\r\n        \r\n        Ticket_NFT(listing.ticketContract).setOwnerName(listing.ticketId, name, surname);\r\n        emit Debug(\"Owner changed\", listing.ticketId);\r\n        \r\n        // segna come non in vendita sia nella lista che nel biglietto\r\n        Ticket_NFT(listing.ticketContract).updateTicketStatus(listing.ticketId, Ticket_NFT.TicketStatus.Owned);\r\n        listing.status = TicketStatus.Owned;\r\n        emit Debug(\"Status updated\", listing.ticketId);\r\n        \r\n        uint256 excessAmount = msg.value - listing.price;\r\n        emit Debug(\"Msg value\", msg.value);\r\n        emit Debug(\"Listing price\", listing.price);\r\n        emit Debug(\"Refunding excess amount\", excessAmount);\r\n\r\n    \r\n        \r\n    }\r\n\r\n    // Rimuovere un ticket dalla vendita\r\n    function removeFromSell(uint256 listingId) external {\r\n        Listing storage listing = listings[listingId];\r\n        require(listing.status == TicketStatus.Available, \"Ticket is not available for sale\");\r\n        require(listing.seller == msg.sender, \"Only the seller can remove the listing\");\r\n\r\n        //aggiorna biglietto stato sia in listing che nel ticket\r\n        Ticket_NFT(listing.ticketContract).updateTicketStatus(listing.ticketId, Ticket_NFT.TicketStatus.Owned);\r\n        listing.status = TicketStatus.Owned;\r\n    }\r\n\r\n\r\n\r\n    function findListingByTicketId(uint256 ticketId) external view returns (uint256) {\r\n    for (uint256 i = 1; i <= listingCount; i++) {\r\n        if (listings[i].ticketId == ticketId) {\r\n            return i; \r\n        }\r\n    }\r\n    revert(\"Ticket not found for the given ticketId\"); \r\n}\r\n}\r\n",
  "sourcePath": "C:\\Users\\user\\Progetti\\BlockchainTicketsUnitn\\truffle\\contracts\\Marketplace.sol",
  "compiler": {
    "name": "solc",
    "version": "0.8.20+commit.a1b79de6.Emscripten.clang"
  },
  "schemaVersion": "3.4.16",
  "updatedAt": "2025-02-10T20:23:31.669Z",
  "networkType": "ethereum",
  "devdoc": {
    "kind": "dev",
    "methods": {},
    "version": 1
  },
  "userdoc": {
    "kind": "user",
    "methods": {},
    "version": 1
  }
}