{
  "contractName": "Organizer_manager",
  "abi": [
    {
      "inputs": [],
      "stateMutability": "nonpayable",
      "type": "constructor"
    },
    {
      "inputs": [],
      "name": "AccessControlBadConfirmation",
      "type": "error"
    },
    {
      "inputs": [
        {
          "internalType": "address",
          "name": "account",
          "type": "address"
        },
        {
          "internalType": "bytes32",
          "name": "neededRole",
          "type": "bytes32"
        }
      ],
      "name": "AccessControlUnauthorizedAccount",
      "type": "error"
    },
    {
      "anonymous": false,
      "inputs": [
        {
          "indexed": true,
          "internalType": "address",
          "name": "organizer",
          "type": "address"
        },
        {
          "indexed": false,
          "internalType": "address",
          "name": "nftContract",
          "type": "address"
        }
      ],
      "name": "OrganizationCreated",
      "type": "event"
    },
    {
      "anonymous": false,
      "inputs": [
        {
          "indexed": true,
          "internalType": "bytes32",
          "name": "role",
          "type": "bytes32"
        },
        {
          "indexed": true,
          "internalType": "bytes32",
          "name": "previousAdminRole",
          "type": "bytes32"
        },
        {
          "indexed": true,
          "internalType": "bytes32",
          "name": "newAdminRole",
          "type": "bytes32"
        }
      ],
      "name": "RoleAdminChanged",
      "type": "event"
    },
    {
      "anonymous": false,
      "inputs": [
        {
          "indexed": true,
          "internalType": "bytes32",
          "name": "role",
          "type": "bytes32"
        },
        {
          "indexed": true,
          "internalType": "address",
          "name": "account",
          "type": "address"
        },
        {
          "indexed": true,
          "internalType": "address",
          "name": "sender",
          "type": "address"
        }
      ],
      "name": "RoleGranted",
      "type": "event"
    },
    {
      "anonymous": false,
      "inputs": [
        {
          "indexed": true,
          "internalType": "bytes32",
          "name": "role",
          "type": "bytes32"
        },
        {
          "indexed": true,
          "internalType": "address",
          "name": "account",
          "type": "address"
        },
        {
          "indexed": true,
          "internalType": "address",
          "name": "sender",
          "type": "address"
        }
      ],
      "name": "RoleRevoked",
      "type": "event"
    },
    {
      "inputs": [],
      "name": "DEFAULT_ADMIN_ROLE",
      "outputs": [
        {
          "internalType": "bytes32",
          "name": "",
          "type": "bytes32"
        }
      ],
      "stateMutability": "view",
      "type": "function",
      "constant": true
    },
    {
      "inputs": [
        {
          "internalType": "bytes32",
          "name": "role",
          "type": "bytes32"
        }
      ],
      "name": "getRoleAdmin",
      "outputs": [
        {
          "internalType": "bytes32",
          "name": "",
          "type": "bytes32"
        }
      ],
      "stateMutability": "view",
      "type": "function",
      "constant": true
    },
    {
      "inputs": [
        {
          "internalType": "bytes32",
          "name": "role",
          "type": "bytes32"
        },
        {
          "internalType": "address",
          "name": "account",
          "type": "address"
        }
      ],
      "name": "grantRole",
      "outputs": [],
      "stateMutability": "nonpayable",
      "type": "function"
    },
    {
      "inputs": [
        {
          "internalType": "bytes32",
          "name": "role",
          "type": "bytes32"
        },
        {
          "internalType": "address",
          "name": "account",
          "type": "address"
        }
      ],
      "name": "hasRole",
      "outputs": [
        {
          "internalType": "bool",
          "name": "",
          "type": "bool"
        }
      ],
      "stateMutability": "view",
      "type": "function",
      "constant": true
    },
    {
      "inputs": [],
      "name": "nextNFTId",
      "outputs": [
        {
          "internalType": "uint256",
          "name": "",
          "type": "uint256"
        }
      ],
      "stateMutability": "view",
      "type": "function",
      "constant": true
    },
    {
      "inputs": [
        {
          "internalType": "address",
          "name": "",
          "type": "address"
        }
      ],
      "name": "organization_NFT",
      "outputs": [
        {
          "internalType": "address",
          "name": "",
          "type": "address"
        }
      ],
      "stateMutability": "view",
      "type": "function",
      "constant": true
    },
    {
      "inputs": [
        {
          "internalType": "uint256",
          "name": "",
          "type": "uint256"
        }
      ],
      "name": "organizations",
      "outputs": [
        {
          "internalType": "address",
          "name": "",
          "type": "address"
        }
      ],
      "stateMutability": "view",
      "type": "function",
      "constant": true
    },
    {
      "inputs": [
        {
          "internalType": "bytes32",
          "name": "role",
          "type": "bytes32"
        },
        {
          "internalType": "address",
          "name": "callerConfirmation",
          "type": "address"
        }
      ],
      "name": "renounceRole",
      "outputs": [],
      "stateMutability": "nonpayable",
      "type": "function"
    },
    {
      "inputs": [
        {
          "internalType": "bytes32",
          "name": "role",
          "type": "bytes32"
        },
        {
          "internalType": "address",
          "name": "account",
          "type": "address"
        }
      ],
      "name": "revokeRole",
      "outputs": [],
      "stateMutability": "nonpayable",
      "type": "function"
    },
    {
      "inputs": [
        {
          "internalType": "bytes4",
          "name": "interfaceId",
          "type": "bytes4"
        }
      ],
      "name": "supportsInterface",
      "outputs": [
        {
          "internalType": "bool",
          "name": "",
          "type": "bool"
        }
      ],
      "stateMutability": "view",
      "type": "function",
      "constant": true
    },
    {
      "inputs": [
        {
          "internalType": "string",
          "name": "_name",
          "type": "string"
        },
        {
          "internalType": "address",
          "name": "_organizer_address",
          "type": "address"
        }
      ],
      "name": "create_organization",
      "outputs": [],
      "stateMutability": "nonpayable",
      "type": "function"
    },
    {
      "inputs": [
        {
          "internalType": "address",
          "name": "_organizer",
          "type": "address"
        }
      ],
      "name": "getOrganizerNFT",
      "outputs": [
        {
          "internalType": "address",
          "name": "",
          "type": "address"
        }
      ],
      "stateMutability": "view",
      "type": "function",
      "constant": true
    },
    {
      "inputs": [
        {
          "internalType": "uint256",
          "name": "_id",
          "type": "uint256"
        }
      ],
      "name": "getOrganizationAddress",
      "outputs": [
        {
          "internalType": "address",
          "name": "",
          "type": "address"
        }
      ],
      "stateMutability": "view",
      "type": "function",
      "constant": true
    },
    {
      "inputs": [],
      "name": "getnextNFTId",
      "outputs": [
        {
          "internalType": "uint256",
          "name": "",
          "type": "uint256"
        }
      ],
      "stateMutability": "view",
      "type": "function",
      "constant": true
    }
  ],
  "bytecode": "0x608060405234801561001057600080fd5b5061001c600033610022565b506100ce565b6000828152602081815260408083206001600160a01b038516845290915281205460ff166100c4576000838152602081815260408083206001600160a01b03861684529091529020805460ff1916600117905561007c3390565b6001600160a01b0316826001600160a01b0316847f2f8788117e7eff1d82e926ec794901d17c78024a50270940304540a733656f0d60405160405180910390a45060016100c8565b5060005b92915050565b614cbf806100dd6000396000f3fe60806040523480156200001157600080fd5b5060043610620000fd5760003560e01c80638119e4d71162000097578063a953a604116200006e578063a953a6041462000244578063c909adc01462000273578063d547741f146200027d578063e792dd8a146200029457600080fd5b80638119e4d7146200021b57806391d148541462000224578063a217fddf146200023b57600080fd5b80632f2ff15d11620000d85780632f2ff15d146200017c57806336568abe14620001935780635e6c0b9c14620001aa57806364b7f49614620001ef57600080fd5b806301ffc9a7146200010257806318057196146200012e578063248a9ca31462000147575b600080fd5b62000119620001133660046200069e565b620002c0565b60405190151581526020015b60405180910390f35b620001456200013f36600462000704565b620002f8565b005b6200016d62000158366004620007d2565b60009081526020819052604090206001015490565b60405190815260200162000125565b620001456200018d366004620007ec565b6200047d565b62000145620001a4366004620007ec565b620004ac565b620001d6620001bb36600462000812565b6002602052600090815260409020546001600160a01b031681565b6040516001600160a01b03909116815260200162000125565b620001d662000200366004620007d2565b6000908152600360205260409020546001600160a01b031690565b6001546200016d565b6200011962000235366004620007ec565b620004e7565b6200016d600081565b620001d66200025536600462000812565b6001600160a01b039081166000908152600260205260409020541690565b6200016d60015481565b620001456200028e366004620007ec565b62000510565b620001d6620002a5366004620007d2565b6003602052600090815260409020546001600160a01b031681565b60006001600160e01b03198216637965db0b60e01b1480620002f257506301ffc9a760e01b6001600160e01b03198316145b92915050565b6000620003058162000539565b6001600160a01b038216620003765760405162461bcd60e51b815260206004820152602c60248201527f4f7267616e697a657220616464726573732063616e6e6f74206265207468652060448201526b7a65726f206164647265737360a01b60648201526084015b60405180910390fd5b6001600160a01b0382811660009081526002602052604090205416156200039c57600080fd5b60008383604051620003ae9062000690565b620003bb92919062000830565b604051809103906000f080158015620003d8573d6000803e3d6000fd5b506001600160a01b03808516600081815260026020908152604080832080549587166001600160a01b0319968716179055600180548452600390925282208054909416909217909255805492935090620004328362000892565b90915550506040516001600160a01b0382811682528416907f2725ca0bb6f842da395a595005373aaa8e052b21133359b3c75f59a1247e6e7a9060200160405180910390a250505050565b6000828152602081905260409020600101546200049a8162000539565b620004a6838362000548565b50505050565b6001600160a01b0381163314620004d65760405163334bd91960e11b815260040160405180910390fd5b620004e28282620005e0565b505050565b6000918252602082815260408084206001600160a01b0393909316845291905290205460ff1690565b6000828152602081905260409020600101546200052d8162000539565b620004a68383620005e0565b6200054581336200064f565b50565b6000620005568383620004e7565b620005d7576000838152602081815260408083206001600160a01b03861684529091529020805460ff191660011790556200058e3390565b6001600160a01b0316826001600160a01b0316847f2f8788117e7eff1d82e926ec794901d17c78024a50270940304540a733656f0d60405160405180910390a4506001620002f2565b506000620002f2565b6000620005ee8383620004e7565b15620005d7576000838152602081815260408083206001600160a01b0386168085529252808320805460ff1916905551339286917ff6391f5c32d9c69d2a47ea670b442974b53935d1edc7fd64eb21e047a839171b9190a4506001620002f2565b6200065b8282620004e7565b6200068c5760405163e2517d3f60e01b81526001600160a01b0382166004820152602481018390526044016200036d565b5050565b6143cf80620008bb83390190565b600060208284031215620006b157600080fd5b81356001600160e01b031981168114620006ca57600080fd5b9392505050565b634e487b7160e01b600052604160045260246000fd5b80356001600160a01b0381168114620006ff57600080fd5b919050565b600080604083850312156200071857600080fd5b823567ffffffffffffffff808211156200073157600080fd5b818501915085601f8301126200074657600080fd5b8135818111156200075b576200075b620006d1565b604051601f8201601f19908116603f01168101908382118183101715620007865762000786620006d1565b81604052828152886020848701011115620007a057600080fd5b826020860160208301376000602084830101528096505050505050620007c960208401620006e7565b90509250929050565b600060208284031215620007e557600080fd5b5035919050565b600080604083850312156200080057600080fd5b82359150620007c960208401620006e7565b6000602082840312156200082557600080fd5b620006ca82620006e7565b604081526000835180604084015260005b8181101562000860576020818701810151606086840101520162000841565b50600060608285018101919091526001600160a01b03949094166020840152601f01601f191690910190910192915050565b600060018201620008b357634e487b7160e01b600052601160045260246000fd5b506001019056fe60806040523480156200001157600080fd5b50604051620043cf380380620043cf833981016040819052620000349162000217565b6040805160208101909152600081526200004e81620000d8565b506200005c600032620000ea565b50620000897f4d2e7a1e3f5dd6e203f087b15756ccf0e4ccd947fe1b639a38540089a1e47f6382620000ea565b50620000a5600080516020620043af83398151915282620000ea565b50620000c1600080516020620043af8339815191528062000199565b600c620000cf83826200038e565b5050506200045a565b6003620000e682826200038e565b5050565b6000828152602081815260408083206001600160a01b038516845290915281205460ff166200018f576000838152602081815260408083206001600160a01b03861684529091529020805460ff19166001179055620001463390565b6001600160a01b0316826001600160a01b0316847f2f8788117e7eff1d82e926ec794901d17c78024a50270940304540a733656f0d60405160405180910390a450600162000193565b5060005b92915050565b600082815260208190526040808220600101805490849055905190918391839186917fbd79b86ffe0ab8e8776151514217cd7cacd52c909f66475c3af44e129f0b00ff9190a4505050565b634e487b7160e01b600052604160045260246000fd5b80516001600160a01b03811681146200021257600080fd5b919050565b600080604083850312156200022b57600080fd5b82516001600160401b03808211156200024357600080fd5b818501915085601f8301126200025857600080fd5b8151818111156200026d576200026d620001e4565b604051601f8201601f19908116603f01168101908382118183101715620002985762000298620001e4565b81604052828152602093508884848701011115620002b557600080fd5b600091505b82821015620002d95784820184015181830185015290830190620002ba565b6000848483010152809650505050620002f4818601620001fa565b925050509250929050565b600181811c908216806200031457607f821691505b6020821081036200033557634e487b7160e01b600052602260045260246000fd5b50919050565b601f8211156200038957600081815260208120601f850160051c81016020861015620003645750805b601f850160051c820191505b81811015620003855782815560010162000370565b5050505b505050565b81516001600160401b03811115620003aa57620003aa620001e4565b620003c281620003bb8454620002ff565b846200033b565b602080601f831160018114620003fa5760008415620003e15750858301515b600019600386901b1c1916600185901b17855562000385565b600085815260208120601f198616915b828110156200042b578886015182559484019460019091019084016200040a565b50858210156200044a5787850151600019600388901b60f8161c191681555b5050505050600190811b01905550565b613f45806200046a6000396000f3fe608060405234801561001057600080fd5b506004361061029f5760003560e01c806375b238fc11610167578063bc79ddcb116100ce578063e426bfef11610087578063e426bfef14610654578063e4725f0214610667578063e985e9c51461067a578063ec38d5a01461068d578063f242432a146106b1578063f70778fa146106c457600080fd5b8063bc79ddcb146105df578063bd85b039146105f2578063c28aeb7714610612578063cfbd900f14610625578063d547741f1461062e578063db8aa9881461064157600080fd5b80639a4d4385116101205780639a4d438514610571578063a0a599f314610584578063a217fddf1461058c578063a22cb46514610594578063a460b817146105a7578063b51aef04146105ba57600080fd5b806375b238fc146104e15780637909cb59146105085780637dc379fa1461051d5780638be8a775146105305780638f23b3261461055557806391d148541461055e57600080fd5b80632f2ff15d1161020b5780634e1273f4116101c45780634e1273f4146104495780634f558e791461046957806350b447121461048b57806352def180146104b257806365bf60e0146104c557806371be2e4a146104d857600080fd5b80632f2ff15d146103e257806336568abe146103f557806344508ad01461040857806344ade56d1461041b5780634ae855cf1461042e5780634c66a0731461044157600080fd5b8063118757f81161025d578063118757f81461035857806315e472dd1461037157806318160ddd146103845780631c8096451461038c578063248a9ca3146103ac5780632eb2c2d6146103cf57600080fd5b8062fdd58e146102a457806301ffc9a7146102ca5780630b791430146102ed5780630c08b30d146103105780630e531076146103255780630e89341c14610338575b600080fd5b6102b76102b236600461314f565b6106d7565b6040519081526020015b60405180910390f35b6102dd6102d836600461318f565b610701565b60405190151581526020016102c1565b6103006102fb3660046131b3565b61070c565b6040516102c1949392919061321c565b61032361031e36600461338b565b6107bd565b005b61032361033336600461345f565b6108ac565b61034b6103463660046131b3565b610988565b6040516102c191906134b5565b610360610a1c565b6040516102c1959493929190613503565b61032361037f3660046135b2565b610d65565b6005546102b7565b61039f61039a3660046135de565b610f96565b6040516102c19190613638565b6102b76103ba3660046131b3565b60009081526020819052604090206001015490565b6103236103dd3660046136fa565b611204565b6103236103f03660046137a3565b61126b565b6103236104033660046137a3565b611290565b6103236104163660046135de565b6112c8565b6103236104293660046137cf565b61156e565b6102b761043c3660046135de565b6115b0565b61034b6115e1565b61045c6104573660046137ea565b61166f565b6040516102c191906138a9565b6102dd6104773660046131b3565b600090815260046020526040902054151590565b61049e6104993660046131b3565b61173b565b6040516102c19897969594939291906138bc565b6103236104c0366004613911565b61180c565b6102b76104d33660046131b3565b61198b565b6102b760065481565b6102b77fa49807205ce4d355092ef5a8a18f56e8913cf4a201fbe287825b095693c2177581565b6102b7600080516020613ef083398151915281565b61049e61052b3660046131b3565b611a04565b61054361053e3660046135de565b611b03565b6040516102c19695949392919061397d565b6102b760085481565b6102dd61056c3660046137a3565b611d9a565b61032361057f3660046139d5565b611dc3565b6007546102b7565b6102b7600081565b6103236105a2366004613a19565b611e64565b6103236105b5366004613a55565b611e73565b6102dd6105c83660046131b3565b6000908152600a6020526040902060030154151590565b61045c6105ed3660046131b3565b611fa9565b6102b76106003660046131b3565b60009081526004602052604090205490565b610323610620366004613911565b61200a565b6102b760075481565b61032361063c3660046137a3565b612098565b6102b761064f3660046139d5565b6120bd565b6103236106623660046131b3565b6120f0565b6103236106753660046137cf565b6121fb565b6102dd610688366004613a7e565b61223d565b6106a061069b3660046131b3565b61226b565b6040516102c1959493929190613aa8565b6103236106bf366004613ade565b612384565b6103236106d23660046135de565b6123e3565b60008181526001602090815260408083206001600160a01b03861684529091529020545b92915050565b60006106fb826127c6565b6009602052600090815260409020805460018201805491929161072e90613b42565b80601f016020809104026020016040519081016040528092919081815260200182805461075a90613b42565b80156107a75780601f1061077c576101008083540402835291602001916107a7565b820191906000526020600020905b81548152906001019060200180831161078a57829003601f168201915b5050505050908060020154908060040154905084565b600080516020613ef08339815191526107d581612806565b815183511461082b5760405162461bcd60e51b815260206004820152601760248201527f4d69736d61746368656420696e7075742061727261797300000000000000000060448201526064015b60405180910390fd5b60005b83518110156108a6576000600a600086848151811061084f5761084f613b7c565b60200260200101518152602001908152602001600020905083828151811061087957610879613b7c565b60200260200101518160060190816108919190613bd8565b5050808061089e90613cad565b91505061082e565b50505050565b600080516020613ef08339815191526108c481612806565b60008581526009602052604081206001810180549192916108e490613b42565b9050116108f057600080fd5b60048101805490600061090283613cad565b90915550506004810154600081815260038301602052604090209081556001810161092d8782613bd8565b50600281018590556003810185905560048101849055805460405188907fa02d99a1daac50524d2b80db5bd4ef4ef59bc535a96274cb9cc11c460cc8ac6690610977908a906134b5565b60405180910390a350505050505050565b60606003805461099790613b42565b80601f01602080910402602001604051908101604052809291908181526020018280546109c390613b42565b8015610a105780601f106109e557610100808354040283529160200191610a10565b820191906000526020600020905b8154815290600101906020018083116109f357829003601f168201915b50505050509050919050565b60608060608060606006546001600160401b03811115610a3e57610a3e613248565b604051908082528060200260200182016040528015610a67578160200160208202803683370190505b5094506006546001600160401b03811115610a8457610a84613248565b604051908082528060200260200182016040528015610ab757816020015b6060815260200190600190039081610aa25790505b5093506006546001600160401b03811115610ad457610ad4613248565b604051908082528060200260200182016040528015610afd578160200160208202803683370190505b5092506006546001600160401b03811115610b1a57610b1a613248565b604051908082528060200260200182016040528015610b43578160200160208202803683370190505b5091506006546001600160401b03811115610b6057610b60613248565b604051908082528060200260200182016040528015610b89578160200160208202803683370190505b50905060015b6006548111610d5d57600081815260096020526040812090805b82600401548111610be6576000818152600384016020526040902060020154610bd29083613cc6565b915080610bde81613cad565b915050610ba9565b50815488610bf5600186613cd9565b81518110610c0557610c05613b7c565b602002602001018181525050816001018054610c2090613b42565b80601f0160208091040260200160405190810160405280929190818152602001828054610c4c90613b42565b8015610c995780601f10610c6e57610100808354040283529160200191610c99565b820191906000526020600020905b815481529060010190602001808311610c7c57829003601f168201915b505050505087600185610cac9190613cd9565b81518110610cbc57610cbc613b7c565b6020908102919091010152600282015486610cd8600186613cd9565b81518110610ce857610ce8613b7c565b6020908102919091010152600482015485610d04600186613cd9565b81518110610d1457610d14613b7c565b60209081029190910101528084610d2c600186613cd9565b81518110610d3c57610d3c613b7c565b60200260200101818152505050508080610d5590613cad565b915050610b8f565b509091929394565b600080516020613ef0833981519152610d7d81612806565b60008211610dcd5760405162461bcd60e51b815260206004820152601c60248201527f5072696365206d7573742062652067726561746572207468616e2030000000006044820152606401610822565b6000848152600960209081526040808320868452600390810190925290912090810154610e2c5760405162461bcd60e51b815260206004820152600d60248201526c139bc81cd9585d1cc81b19599d609a1b6044820152606401610822565b60078054906000610e3c83613cad565b90915550506007546000818152600a6020526040902081815560018082018890556002820187905560058201805460ff1916909117905560048101859055600c8054610f109190610e8c90613b42565b80601f0160208091040260200160405190810160405280929190818152602001828054610eb890613b42565b8015610f055780601f10610eda57610100808354040283529160200191610f05565b820191906000526020600020905b815481529060010190602001808311610ee857829003601f168201915b5050505050836120bd565b6007820155600383018054906000610f2783613cec565b9091555050604080518881526020810188905290810186905282907f2a46459bd2b4f82bf8e5df9e7aaaa836588650ea9b6758cd0f274e5b5a2187c69060600160405180910390a2610f8d33600754600160405180602001604052806000815250612813565b50505050505050565b6060600754821115610fd85760405162461bcd60e51b815260206004820152600b60248201526a125b9d985b1a5908195b9960aa1b6044820152606401610822565b8282101561101d5760405162461bcd60e51b8152602060048201526012602482015271496e76616c696420706172616d657465727360701b6044820152606401610822565b60006110298484613cd9565b611034906001613cc6565b6001600160401b0381111561104b5761104b613248565b60405190808252806020026020018201604052801561108457816020015b6110716130dd565b8152602001906001900390816110695790505b509050835b611094846001613cc6565b8110156111fc57600a60008281526020019081526020016000206040518061010001604052908160008201548152602001600182015481526020016002820154815260200160038201548152602001600482015481526020016005820160009054906101000a900460ff16600381111561111057611110613600565b600381111561112157611121613600565b815260200160068201805461113590613b42565b80601f016020809104026020016040519081016040528092919081815260200182805461116190613b42565b80156111ae5780601f10611183576101008083540402835291602001916111ae565b820191906000526020600020905b81548152906001019060200180831161119157829003601f168201915b505050505081526020016007820154815250508286836111ce9190613cd9565b815181106111de576111de613b7c565b602002602001018190525080806111f490613cad565b915050611089565b509392505050565b336001600160a01b03861681148015906112255750611223868261223d565b155b156112565760405163711bec9160e11b81526001600160a01b03808316600483015287166024820152604401610822565b6112638686868686612870565b505050505050565b60008281526020819052604090206001015461128681612806565b6108a683836128d7565b6001600160a01b03811633146112b95760405163334bd91960e11b815260040160405180910390fd5b6112c38282612969565b505050565b6000828152600b602052604090205461131a5760405162461bcd60e51b8152602060048201526014602482015273496c2067727570706f206e6f6e2065736973746560601b6044820152606401610822565b600061132633836106d7565b116113435760405162461bcd60e51b815260040161082290613d03565b6000818152600a602052604090206003015482146113b45760405162461bcd60e51b815260206004820152602860248201527f496c207469636b6574206e6f6e2061707061727469656e6520612071756573746044820152676f2067727570706f60c01b6064820152608401610822565b6000818152600a6020526040812060030181905580805b6000858152600b60205260409020548110156114795760408051602081018690520160408051601f1981840301815291815281516020928301206000888152600b909352912080548390811061142357611423613b7c565b906000526020600020015460405160200161144091815260200190565b60405160208183030381529060405280519060200120036114675780925060019150611479565b8061147181613cad565b9150506113cb565b50806114c75760405162461bcd60e51b815260206004820152601d60248201527f5469636b6574206e6f6e2074726f7661746f206e656c2067727570706f0000006044820152606401610822565b6000848152600b6020526040902080546114e390600190613cd9565b815481106114f3576114f3613b7c565b9060005260206000200154600b6000868152602001908152602001600020838154811061152257611522613b7c565b9060005260206000200181905550600b600085815260200190815260200160002080548061155257611552613d31565b6001900381819060005260206000200160009055905550505050565b7fa49807205ce4d355092ef5a8a18f56e8913cf4a201fbe287825b095693c2177561159881612806565b6112c3600080516020613ef083398151915283612969565b600b60205281600052604060002081815481106115cc57600080fd5b90600052602060002001600091509150505481565b600c80546115ee90613b42565b80601f016020809104026020016040519081016040528092919081815260200182805461161a90613b42565b80156116675780601f1061163c57610100808354040283529160200191611667565b820191906000526020600020905b81548152906001019060200180831161164a57829003601f168201915b505050505081565b606081518351146116a05781518351604051635b05999160e01b815260048101929092526024820152604401610822565b600083516001600160401b038111156116bb576116bb613248565b6040519080825280602002602001820160405280156116e4578160200160208202803683370190505b50905060005b84518110156111fc5760208082028601015161170e906020808402870101516106d7565b82828151811061172057611720613b7c565b602090810291909101015261173481613cad565b90506116ea565b600a6020526000908152604090208054600182015460028301546003840154600485015460058601546006870180549697959694959394929360ff9092169261178390613b42565b80601f01602080910402602001604051908101604052809291908181526020018280546117af90613b42565b80156117fc5780601f106117d1576101008083540402835291602001916117fc565b820191906000526020600020905b8154815290600101906020018083116117df57829003601f168201915b5050505050908060070154905088565b600080516020613ef083398151915261182481612806565b6000848152600a602052604090206002600582015460ff16600381111561184d5761184d613600565b0361189a5760405162461bcd60e51b815260206004820152601860248201527f5469636b657420616c72656164792076616c69646174656400000000000000006044820152606401610822565b6003600582015460ff1660038111156118b5576118b5613600565b036118f45760405162461bcd60e51b815260206004820152600f60248201526e5469636b657420657870697265642160881b6044820152606401610822565b6000611921858560405160200161190c929190613d47565b604051602081830303815290604052876120bd565b9050808260070154146119765760405162461bcd60e51b815260206004820152601b60248201527f5469636b65742068617320646966666572656e74206f776e65722100000000006044820152606401610822565b50600501805460ff1916600217905550505050565b60008061199833846106d7565b116119b55760405162461bcd60e51b815260040161082290613d03565b60006008600081546119c690613cad565b91829055506000848152600a60209081526040808320600301849055838352600b825282208054600181018255908352912001939093555090919050565b6000806000806000806060600080600a60008b81526020019081526020016000209050806000015481600101548260020154836003015484600401548560050160009054906101000a900460ff16866006018760070154818054611a6790613b42565b80601f0160208091040260200160405190810160405280929190818152602001828054611a9390613b42565b8015611ae05780601f10611ab557610100808354040283529160200191611ae0565b820191906000526020600020905b815481529060010190602001808311611ac357829003601f168201915b505050505091509850985098509850985098509850985050919395975091939597565b60008281526009602090815260408083208484526003019091528120606090829081908390819083805b600754811015611b8c576000818152600a60205260409020600101548b148015611b6757506000818152600a60205260409020600201548a145b15611b7a5781611b7681613cad565b9250505b80611b8481613cad565b915050611b2d565b506000816001600160401b03811115611ba757611ba7613248565b604051908082528060200260200182016040528015611bd0578160200160208202803683370190505b5090506000826001600160401b03811115611bed57611bed613248565b604051908082528060200260200182016040528015611c16578160200160208202803683370190505b5090506000805b84811015611cdd576000818152600a60205260409020600101548e148015611c5557506000818152600a60205260409020600201548d145b15611ccb576000818152600a60205260409020548451859084908110611c7d57611c7d613b7c565b602002602001018181525050600a600082815260200190815260200160002060030154838381518110611cb257611cb2613b7c565b602090810291909101015281611cc781613cad565b9250505b80611cd581613cad565b915050611c1d565b50846000015485600101866002015487600301548686848054611cff90613b42565b80601f0160208091040260200160405190810160405280929190818152602001828054611d2b90613b42565b8015611d785780601f10611d4d57610100808354040283529160200191611d78565b820191906000526020600020905b815481529060010190602001808311611d5b57829003601f168201915b505050505094509a509a509a509a509a509a5050505050509295509295509295565b6000918252602082815260408084206001600160a01b0393909316845291905290205460ff1690565b600080516020613ef0833981519152611ddb81612806565b60068054906000611deb83613cad565b9091555050600654600081815260096020526040902090815560018101611e128582613bd8565b5060028101839055600060048201556006546040517fee37bb5143a14810f72e86fce895be08e16090409d2e18f79b308995e39b73d490611e569087908790613d83565b60405180910390a250505050565b611e6f3383836129d4565b5050565b6000828152600a602052604090206002826003811115611e9557611e95613600565b1480611eb257506000826003811115611eb057611eb0613600565b145b8015611ef857506001600582015460ff166003811115611ed457611ed4613600565b1480611ef857506000600582015460ff166003811115611ef657611ef6613600565b145b15611f4a57611f15600080516020613ef083398151915233611d9a565b80611f2957506000611f2733856106d7565b115b611f455760405162461bcd60e51b815260040161082290613da5565b611f7e565b611f62600080516020613ef083398151915233611d9a565b611f7e5760405162461bcd60e51b815260040161082290613da5565b60058101805483919060ff19166001836003811115611f9f57611f9f613600565b0217905550505050565b6000818152600b6020908152604091829020805483518184028101840190945280845260609392830182828015610a1057602002820191906000526020600020905b815481526020019060010190808311611feb5750505050509050919050565b612022600080516020613ef083398151915233611d9a565b806120365750600061203433856106d7565b115b6120525760405162461bcd60e51b815260040161082290613d03565b6000838152600a6020908152604091829020915161208d91612078918691869101613d47565b604051602081830303815290604052856120bd565b600790910155505050565b6000828152602081905260409020600101546120b381612806565b6108a68383612969565b600082826040516020016120d2929190613deb565b60405160208183030381529060405280519060200120905092915050565b600080516020613ef083398151915261210881612806565b6000828152600960205260409020600281015442116121695760405162461bcd60e51b815260206004820152601a60248201527f4576656e7420686173206e6f7420796574206f636375727265640000000000006044820152606401610822565b60015b60075481116108a6576000818152600a602052604090206001810154851480156121d357506003600582015460ff1660038111156121ac576121ac613600565b141580156121d357506002600582015460ff1660038111156121d0576121d0613600565b14155b156121e85760058101805460ff191660031790555b50806121f381613cad565b91505061216c565b7fa49807205ce4d355092ef5a8a18f56e8913cf4a201fbe287825b095693c2177561222581612806565b6112c3600080516020613ef0833981519152836128d7565b6001600160a01b03918216600090815260026020908152604080832093909416825291909152205460ff1690565b600081815260096020526040812060609082908190819081805b6004830154612295906001613cc6565b8110156122ce5760008181526003840160205260409020600201546122ba9083613cc6565b9150806122c681613cad565b915050612285565b5081600001548260010183600201548460040154848380546122ef90613b42565b80601f016020809104026020016040519081016040528092919081815260200182805461231b90613b42565b80156123685780601f1061233d57610100808354040283529160200191612368565b820191906000526020600020905b81548152906001019060200180831161234b57829003601f168201915b5050505050935096509650965096509650505091939590929450565b336001600160a01b03861681148015906123a557506123a3868261223d565b155b156123d65760405163711bec9160e11b81526001600160a01b03808316600483015287166024820152604401610822565b6112638686868686612a6a565b6000828152600b602052604090205461243e5760405162461bcd60e51b815260206004820152601860248201527f5468652067726f757020646f6573206e6f7420657869737400000000000000006044820152606401610822565b6000805b6000848152600b60205260409020548110156124c95760006124a833600a6000600b60008a8152602001908152602001600020868154811061248657612486613b7c565b90600052602060002001548152602001908152602001600020600001546106d7565b11156124b757600191506124c9565b806124c181613cad565b915050612442565b508061252e5760405162461bcd60e51b815260206004820152602e60248201527f596f75206d75737420626520612067726f7570206d656d62657220746f20616460448201526d64207061727469636970616e747360901b6064820152608401610822565b60016000838152600a602052604090206005015460ff16600381111561255657612556613600565b146125a35760405162461bcd60e51b815260206004820152601960248201527f546865207469636b6574206973206e6f7420274f776e656427000000000000006044820152606401610822565b6000828152600a6020526040902060030154156126145760405162461bcd60e51b815260206004820152602960248201527f546865207469636b657420697320616c72656164792061737369676e6564207460448201526806f20612067726f75760bc1b6064820152608401610822565b6000838152600b602052604081208054600a918391829061263757612637613b7c565b906000526020600020015481526020019081526020016000206001015490506000600a6000600b600088815260200190815260200160002060008154811061268157612681613b7c565b9060005260206000200154815260200190815260200160002060020154905081600a600086815260200190815260200160002060010154146127195760405162461bcd60e51b815260206004820152602b60248201527f546865207469636b657420646f6573206e6f74206d617463682074686520677260448201526a1bdd5c09dcc8195d995b9d60aa1b6064820152608401610822565b6000848152600a6020526040902060020154811461278e5760405162461bcd60e51b815260206004820152602c60248201527f546865207469636b657420646f6573206e6f74206d617463682074686520677260448201526b37bab813b99039b2b1ba37b960a11b6064820152608401610822565b5050506000818152600a60209081526040808320600301859055938252600b8152928120805460018101825590825292902090910155565b60006001600160e01b03198216636cdb3d1360e11b14806127f757506001600160e01b031982166303a24d0760e21b145b806106fb57506106fb82612aef565b6128108133612b24565b50565b6001600160a01b03841661283d57604051632bfa23e760e11b815260006004820152602401610822565b60408051600180825260208201869052818301908152606082018590526080820190925290611263600087848487612b5d565b6001600160a01b03841661289a57604051632bfa23e760e11b815260006004820152602401610822565b6001600160a01b0385166128c357604051626a0d4560e21b815260006004820152602401610822565b6128d08585858585612b5d565b5050505050565b60006128e38383611d9a565b612961576000838152602081815260408083206001600160a01b03861684529091529020805460ff191660011790556129193390565b6001600160a01b0316826001600160a01b0316847f2f8788117e7eff1d82e926ec794901d17c78024a50270940304540a733656f0d60405160405180910390a45060016106fb565b5060006106fb565b60006129758383611d9a565b15612961576000838152602081815260408083206001600160a01b0386168085529252808320805460ff1916905551339286917ff6391f5c32d9c69d2a47ea670b442974b53935d1edc7fd64eb21e047a839171b9190a45060016106fb565b6001600160a01b0382166129fd5760405162ced3e160e81b815260006004820152602401610822565b6001600160a01b03838116600081815260026020908152604080832094871680845294825291829020805460ff191686151590811790915591519182527f17307eab39ab6107e8899845ad3d59bd9653f200f220920489ca2b5937696c31910160405180910390a3505050565b6001600160a01b038416612a9457604051632bfa23e760e11b815260006004820152602401610822565b6001600160a01b038516612abd57604051626a0d4560e21b815260006004820152602401610822565b60408051600180825260208201869052818301908152606082018590526080820190925290610f8d8787848487612b5d565b60006001600160e01b03198216637965db0b60e01b14806106fb57506301ffc9a760e01b6001600160e01b03198316146106fb565b612b2e8282611d9a565b611e6f5760405163e2517d3f60e01b81526001600160a01b038216600482015260248101839052604401610822565b612b6985858585612bb0565b6001600160a01b038416156128d05782513390600103612ba25760208481015190840151612b9b838989858589612cad565b5050611263565b611263818787878787612dd1565b612bbc84848484612eba565b6001600160a01b038416612c45576000805b8351811015612c2b5760208181028481018201519086018201516000908152600490925260408220805491928392612c07908490613cc6565b90915550612c1790508184613cc6565b92505080612c2490613cad565b9050612bce565b508060056000828254612c3e9190613cc6565b9091555050505b6001600160a01b0383166108a6576000805b8351811015612c9c576020818102848101820151908601820151600090815260049092526040909120805482900390559190910190612c9581613cad565b9050612c57565b506005805491909103905550505050565b6001600160a01b0384163b156112635760405163f23a6e6160e01b81526001600160a01b0385169063f23a6e6190612cf19089908990889088908890600401613e0d565b6020604051808303816000875af1925050508015612d2c575060408051601f3d908101601f19168201909252612d2991810190613e52565b60015b612d95573d808015612d5a576040519150601f19603f3d011682016040523d82523d6000602084013e612d5f565b606091505b508051600003612d8d57604051632bfa23e760e11b81526001600160a01b0386166004820152602401610822565b805181602001fd5b6001600160e01b0319811663f23a6e6160e01b14610f8d57604051632bfa23e760e11b81526001600160a01b0386166004820152602401610822565b6001600160a01b0384163b156112635760405163bc197c8160e01b81526001600160a01b0385169063bc197c8190612e159089908990889088908890600401613e6f565b6020604051808303816000875af1925050508015612e50575060408051601f3d908101601f19168201909252612e4d91810190613e52565b60015b612e7e573d808015612d5a576040519150601f19603f3d011682016040523d82523d6000602084013e612d5f565b6001600160e01b0319811663bc197c8160e01b14610f8d57604051632bfa23e760e11b81526001600160a01b0386166004820152602401610822565b8051825114612ee95781518151604051635b05999160e01b815260048101929092526024820152604401610822565b3360005b8351811015612ffe576020818102858101820151908501909101516001600160a01b03881615612fa45760008281526001602090815260408083206001600160a01b038c16845290915290205481811015612f7b576040516303dee4c560e01b81526001600160a01b038a166004820152602481018290526044810183905260648101849052608401610822565b60008381526001602090815260408083206001600160a01b038d16845290915290209082900390555b6001600160a01b03871615612feb5760008281526001602090815260408083206001600160a01b038b16845290915281208054839290612fe5908490613cc6565b90915550505b505080612ff790613cad565b9050612eed565b50825160010361307f5760208301516000906020840151909150856001600160a01b0316876001600160a01b0316846001600160a01b03167fc3d58168c5ae7397731d063d5bbf3d657854427343f4c083240f7aacaa2d0f628585604051613070929190918252602082015260400190565b60405180910390a450506128d0565b836001600160a01b0316856001600160a01b0316826001600160a01b03167f4a39dc06d4c0dbc64b70af90fd698a233a518aa5d07e595d983b8c0526c8f7fb86866040516130ce929190613ec1565b60405180910390a45050505050565b60405180610100016040528060008152602001600081526020016000815260200160008152602001600081526020016000600381111561311f5761311f613600565b815260606020820152600060409091015290565b80356001600160a01b038116811461314a57600080fd5b919050565b6000806040838503121561316257600080fd5b61316b83613133565b946020939093013593505050565b6001600160e01b03198116811461281057600080fd5b6000602082840312156131a157600080fd5b81356131ac81613179565b9392505050565b6000602082840312156131c557600080fd5b5035919050565b60005b838110156131e75781810151838201526020016131cf565b50506000910152565b600081518084526132088160208601602086016131cc565b601f01601f19169290920160200192915050565b84815260806020820152600061323560808301866131f0565b6040830194909452506060015292915050565b634e487b7160e01b600052604160045260246000fd5b604051601f8201601f191681016001600160401b038111828210171561328657613286613248565b604052919050565b60006001600160401b038211156132a7576132a7613248565b5060051b60200190565b600082601f8301126132c257600080fd5b813560206132d76132d28361328e565b61325e565b82815260059290921b840181019181810190868411156132f657600080fd5b8286015b8481101561331157803583529183019183016132fa565b509695505050505050565b600082601f83011261332d57600080fd5b81356001600160401b0381111561334657613346613248565b613359601f8201601f191660200161325e565b81815284602083860101111561336e57600080fd5b816020850160208301376000918101602001919091529392505050565b6000806040838503121561339e57600080fd5b82356001600160401b03808211156133b557600080fd5b6133c1868387016132b1565b93506020915081850135818111156133d857600080fd5b8501601f810187136133e957600080fd5b80356133f76132d28261328e565b81815260059190911b8201840190848101908983111561341657600080fd5b8584015b8381101561344e578035868111156134325760008081fd5b6134408c898389010161331c565b84525091860191860161341a565b508096505050505050509250929050565b6000806000806080858703121561347557600080fd5b8435935060208501356001600160401b0381111561349257600080fd5b61349e8782880161331c565b949794965050505060408301359260600135919050565b6020815260006131ac60208301846131f0565b600081518084526020808501945080840160005b838110156134f8578151875295820195908201906001016134dc565b509495945050505050565b60a08152600061351660a08301886134c8565b6020838203818501528188518084528284019150828160051b850101838b0160005b8381101561356657601f198784030185526135548383516131f0565b94860194925090850190600101613538565b5050868103604088015261357a818b6134c8565b945050505050828103606084015261359281866134c8565b905082810360808401526135a681856134c8565b98975050505050505050565b6000806000606084860312156135c757600080fd5b505081359360208301359350604090920135919050565b600080604083850312156135f157600080fd5b50508035926020909101359150565b634e487b7160e01b600052602160045260246000fd5b6004811061363457634e487b7160e01b600052602160045260246000fd5b9052565b60006020808301818452808551808352604092508286019150828160051b87010184880160005b838110156136ec57888303603f1901855281518051845287810151888501528681015187850152606080820151908501526080808201519085015260a08082015161010091906136b182880182613616565b505060c08083015182828801526136ca838801826131f0565b60e094850151979094019690965250509487019492509086019060010161365f565b509098975050505050505050565b600080600080600060a0868803121561371257600080fd5b61371b86613133565b945061372960208701613133565b935060408601356001600160401b038082111561374557600080fd5b61375189838a016132b1565b9450606088013591508082111561376757600080fd5b61377389838a016132b1565b9350608088013591508082111561378957600080fd5b506137968882890161331c565b9150509295509295909350565b600080604083850312156137b657600080fd5b823591506137c660208401613133565b90509250929050565b6000602082840312156137e157600080fd5b6131ac82613133565b600080604083850312156137fd57600080fd5b82356001600160401b038082111561381457600080fd5b818501915085601f83011261382857600080fd5b813560206138386132d28361328e565b82815260059290921b8401810191818101908984111561385757600080fd5b948201945b8386101561387c5761386d86613133565b8252948201949082019061385c565b9650508601359250508082111561389257600080fd5b5061389f858286016132b1565b9150509250929050565b6020815260006131ac60208301846134c8565b60006101008a83528960208401528860408401528760608401528660808401526138e960a0840187613616565b8060c08401526138fb818401866131f0565b9150508260e08301529998505050505050505050565b60008060006060848603121561392657600080fd5b8335925060208401356001600160401b038082111561394457600080fd5b6139508783880161331c565b9350604086013591508082111561396657600080fd5b506139738682870161331c565b9150509250925092565b86815260c06020820152600061399660c08301886131f0565b86604084015285606084015282810360808401526139b481866134c8565b905082810360a08401526139c881856134c8565b9998505050505050505050565b600080604083850312156139e857600080fd5b82356001600160401b038111156139fe57600080fd5b613a0a8582860161331c565b95602094909401359450505050565b60008060408385031215613a2c57600080fd5b613a3583613133565b915060208301358015158114613a4a57600080fd5b809150509250929050565b60008060408385031215613a6857600080fd5b82359150602083013560048110613a4a57600080fd5b60008060408385031215613a9157600080fd5b613a9a83613133565b91506137c660208401613133565b85815260a060208201526000613ac160a08301876131f0565b604083019590955250606081019290925260809091015292915050565b600080600080600060a08688031215613af657600080fd5b613aff86613133565b9450613b0d60208701613133565b9350604086013592506060860135915060808601356001600160401b03811115613b3657600080fd5b6137968882890161331c565b600181811c90821680613b5657607f821691505b602082108103613b7657634e487b7160e01b600052602260045260246000fd5b50919050565b634e487b7160e01b600052603260045260246000fd5b601f8211156112c357600081815260208120601f850160051c81016020861015613bb95750805b601f850160051c820191505b8181101561126357828155600101613bc5565b81516001600160401b03811115613bf157613bf1613248565b613c0581613bff8454613b42565b84613b92565b602080601f831160018114613c3a5760008415613c225750858301515b600019600386901b1c1916600185901b178555611263565b600085815260208120601f198616915b82811015613c6957888601518255948401946001909101908401613c4a565b5085821015613c875787850151600019600388901b60f8161c191681555b5050505050600190811b01905550565b634e487b7160e01b600052601160045260246000fd5b600060018201613cbf57613cbf613c97565b5060010190565b808201808211156106fb576106fb613c97565b818103818111156106fb576106fb613c97565b600081613cfb57613cfb613c97565b506000190190565b6020808252601490820152732737ba103a3432903a34b1b5b2ba1037bbb732b960611b604082015260600190565b634e487b7160e01b600052603160045260246000fd5b60008351613d598184602088016131cc565b602d60f81b9083019081528351613d778160018401602088016131cc565b01600101949350505050565b604081526000613d9660408301856131f0565b90508260208301529392505050565b60208082526026908201527f4e6f7420617574686f72697a656420746f20757064617465207469636b65742060408201526573746174757360d01b606082015260800190565b60008351613dfd8184602088016131cc565b9190910191825250602001919050565b6001600160a01b03868116825285166020820152604081018490526060810183905260a060808201819052600090613e47908301846131f0565b979650505050505050565b600060208284031215613e6457600080fd5b81516131ac81613179565b6001600160a01b0386811682528516602082015260a060408201819052600090613e9b908301866134c8565b8281036060840152613ead81866134c8565b905082810360808401526135a681856131f0565b604081526000613ed460408301856134c8565b8281036020840152613ee681856134c8565b9594505050505056fe4d2e7a1e3f5dd6e203f087b15756ccf0e4ccd947fe1b639a38540089a1e47f63a2646970667358221220c949e2f5965aa83fb1d567d07fdbb181c1f59a44343adfa2084359a29b5a9d3c64736f6c63430008140033a49807205ce4d355092ef5a8a18f56e8913cf4a201fbe287825b095693c21775a26469706673582212202229b696ec81f3ffd0c587177659572605b69fe9692cfda1516512ef7d27247864736f6c63430008140033",
  "immutableReferences": {},
  "source": "// SPDX-License-Identifier: MIT\r\npragma solidity ^0.8.0;\r\n\r\nimport \"@openzeppelin/contracts/token/ERC1155/extensions/ERC1155Supply.sol\";\r\nimport \"@openzeppelin/contracts/access/AccessControl.sol\";\r\nimport \"./Ticket_NFT.sol\";\r\n\r\n\r\ncontract Organizer_manager is AccessControl{\r\n\r\n\r\n    event OrganizationCreated(address indexed organizer, address nftContract);\r\n\r\n    uint public nextNFTId;\r\n\r\n    mapping (address => address) public organization_NFT;\r\n    mapping (uint => address) public organizations;\r\n\r\n    constructor() {\r\n        _grantRole(DEFAULT_ADMIN_ROLE, msg.sender);\r\n    }\r\n\r\n    //----------------------------Create organization-------------------------------\r\n    function create_organization(string memory _name, address _organizer_address)external onlyRole(DEFAULT_ADMIN_ROLE){\r\n        require(_organizer_address != address(0), \"Organizer address cannot be the zero address\");\r\n        require(organization_NFT[_organizer_address] == address(0));\r\n        Ticket_NFT nft=new Ticket_NFT(_name, _organizer_address);\r\n\r\n        \r\n        organization_NFT[_organizer_address]=address(nft);\r\n        organizations[nextNFTId]=_organizer_address;\r\n        nextNFTId++;\r\n\r\n        emit OrganizationCreated(_organizer_address, address(nft));\r\n    }\r\n\r\n    //get the organization NFT given the organizer address\r\n    function getOrganizerNFT(address _organizer) external view returns (address) {\r\n        return organization_NFT[_organizer];\r\n    }\r\n\r\n    //get the organizer adress given the organizer id\r\n    function getOrganizationAddress(uint _id) external view returns (address) {\r\n        return organizations[_id];\r\n    }\r\n\r\n    function getnextNFTId() external view returns (uint256) {\r\n        return nextNFTId;\r\n    } \r\n\r\n}\r\n",
  "sourcePath": "C:\\Users\\eddie\\OneDrive\\Desktop\\Blockchain\\BlockchainTicketsUnitn-main\\truffle\\contracts\\Organizer_manager.sol",
  "compiler": {
    "name": "solc",
    "version": "0.8.20+commit.a1b79de6.Emscripten.clang"
  },
  "schemaVersion": "3.4.16",
  "updatedAt": "2025-02-06T15:15:06.500Z",
  "networkType": "ethereum",
  "devdoc": {
    "errors": {
      "AccessControlBadConfirmation()": [
        {
          "details": "The caller of a function is not the expected one. NOTE: Don't confuse with {AccessControlUnauthorizedAccount}."
        }
      ],
      "AccessControlUnauthorizedAccount(address,bytes32)": [
        {
          "details": "The `account` is missing a role."
        }
      ]
    },
    "events": {
      "RoleAdminChanged(bytes32,bytes32,bytes32)": {
        "details": "Emitted when `newAdminRole` is set as ``role``'s admin role, replacing `previousAdminRole` `DEFAULT_ADMIN_ROLE` is the starting admin for all roles, despite {RoleAdminChanged} not being emitted signaling this."
      },
      "RoleGranted(bytes32,address,address)": {
        "details": "Emitted when `account` is granted `role`. `sender` is the account that originated the contract call. This account bears the admin role (for the granted role). Expected in cases where the role was granted using the internal {AccessControl-_grantRole}."
      },
      "RoleRevoked(bytes32,address,address)": {
        "details": "Emitted when `account` is revoked `role`. `sender` is the account that originated the contract call:   - if using `revokeRole`, it is the admin role bearer   - if using `renounceRole`, it is the role bearer (i.e. `account`)"
      }
    },
    "kind": "dev",
    "methods": {
      "getRoleAdmin(bytes32)": {
        "details": "Returns the admin role that controls `role`. See {grantRole} and {revokeRole}. To change a role's admin, use {_setRoleAdmin}."
      },
      "grantRole(bytes32,address)": {
        "details": "Grants `role` to `account`. If `account` had not been already granted `role`, emits a {RoleGranted} event. Requirements: - the caller must have ``role``'s admin role. May emit a {RoleGranted} event."
      },
      "hasRole(bytes32,address)": {
        "details": "Returns `true` if `account` has been granted `role`."
      },
      "renounceRole(bytes32,address)": {
        "details": "Revokes `role` from the calling account. Roles are often managed via {grantRole} and {revokeRole}: this function's purpose is to provide a mechanism for accounts to lose their privileges if they are compromised (such as when a trusted device is misplaced). If the calling account had been revoked `role`, emits a {RoleRevoked} event. Requirements: - the caller must be `callerConfirmation`. May emit a {RoleRevoked} event."
      },
      "revokeRole(bytes32,address)": {
        "details": "Revokes `role` from `account`. If `account` had been granted `role`, emits a {RoleRevoked} event. Requirements: - the caller must have ``role``'s admin role. May emit a {RoleRevoked} event."
      },
      "supportsInterface(bytes4)": {
        "details": "See {IERC165-supportsInterface}."
      }
    },
    "version": 1
  },
  "userdoc": {
    "kind": "user",
    "methods": {},
    "version": 1
  }
}