{
  "contractName": "Organizer_manager",
  "abi": [
    {
      "inputs": [],
      "stateMutability": "nonpayable",
      "type": "constructor"
    },
    {
      "inputs": [],
      "name": "AccessControlBadConfirmation",
      "type": "error"
    },
    {
      "inputs": [
        {
          "internalType": "address",
          "name": "account",
          "type": "address"
        },
        {
          "internalType": "bytes32",
          "name": "neededRole",
          "type": "bytes32"
        }
      ],
      "name": "AccessControlUnauthorizedAccount",
      "type": "error"
    },
    {
      "anonymous": false,
      "inputs": [
        {
          "indexed": true,
          "internalType": "address",
          "name": "organizer",
          "type": "address"
        },
        {
          "indexed": false,
          "internalType": "address",
          "name": "nftContract",
          "type": "address"
        }
      ],
      "name": "OrganizationCreated",
      "type": "event"
    },
    {
      "anonymous": false,
      "inputs": [
        {
          "indexed": true,
          "internalType": "bytes32",
          "name": "role",
          "type": "bytes32"
        },
        {
          "indexed": true,
          "internalType": "bytes32",
          "name": "previousAdminRole",
          "type": "bytes32"
        },
        {
          "indexed": true,
          "internalType": "bytes32",
          "name": "newAdminRole",
          "type": "bytes32"
        }
      ],
      "name": "RoleAdminChanged",
      "type": "event"
    },
    {
      "anonymous": false,
      "inputs": [
        {
          "indexed": true,
          "internalType": "bytes32",
          "name": "role",
          "type": "bytes32"
        },
        {
          "indexed": true,
          "internalType": "address",
          "name": "account",
          "type": "address"
        },
        {
          "indexed": true,
          "internalType": "address",
          "name": "sender",
          "type": "address"
        }
      ],
      "name": "RoleGranted",
      "type": "event"
    },
    {
      "anonymous": false,
      "inputs": [
        {
          "indexed": true,
          "internalType": "bytes32",
          "name": "role",
          "type": "bytes32"
        },
        {
          "indexed": true,
          "internalType": "address",
          "name": "account",
          "type": "address"
        },
        {
          "indexed": true,
          "internalType": "address",
          "name": "sender",
          "type": "address"
        }
      ],
      "name": "RoleRevoked",
      "type": "event"
    },
    {
      "inputs": [],
      "name": "DEFAULT_ADMIN_ROLE",
      "outputs": [
        {
          "internalType": "bytes32",
          "name": "",
          "type": "bytes32"
        }
      ],
      "stateMutability": "view",
      "type": "function",
      "constant": true
    },
    {
      "inputs": [
        {
          "internalType": "bytes32",
          "name": "role",
          "type": "bytes32"
        }
      ],
      "name": "getRoleAdmin",
      "outputs": [
        {
          "internalType": "bytes32",
          "name": "",
          "type": "bytes32"
        }
      ],
      "stateMutability": "view",
      "type": "function",
      "constant": true
    },
    {
      "inputs": [
        {
          "internalType": "bytes32",
          "name": "role",
          "type": "bytes32"
        },
        {
          "internalType": "address",
          "name": "account",
          "type": "address"
        }
      ],
      "name": "grantRole",
      "outputs": [],
      "stateMutability": "nonpayable",
      "type": "function"
    },
    {
      "inputs": [
        {
          "internalType": "bytes32",
          "name": "role",
          "type": "bytes32"
        },
        {
          "internalType": "address",
          "name": "account",
          "type": "address"
        }
      ],
      "name": "hasRole",
      "outputs": [
        {
          "internalType": "bool",
          "name": "",
          "type": "bool"
        }
      ],
      "stateMutability": "view",
      "type": "function",
      "constant": true
    },
    {
      "inputs": [],
      "name": "nextNFTId",
      "outputs": [
        {
          "internalType": "uint256",
          "name": "",
          "type": "uint256"
        }
      ],
      "stateMutability": "view",
      "type": "function",
      "constant": true
    },
    {
      "inputs": [
        {
          "internalType": "address",
          "name": "",
          "type": "address"
        }
      ],
      "name": "organization_NFT",
      "outputs": [
        {
          "internalType": "address",
          "name": "",
          "type": "address"
        }
      ],
      "stateMutability": "view",
      "type": "function",
      "constant": true
    },
    {
      "inputs": [
        {
          "internalType": "uint256",
          "name": "",
          "type": "uint256"
        }
      ],
      "name": "organizations",
      "outputs": [
        {
          "internalType": "address",
          "name": "",
          "type": "address"
        }
      ],
      "stateMutability": "view",
      "type": "function",
      "constant": true
    },
    {
      "inputs": [
        {
          "internalType": "bytes32",
          "name": "role",
          "type": "bytes32"
        },
        {
          "internalType": "address",
          "name": "callerConfirmation",
          "type": "address"
        }
      ],
      "name": "renounceRole",
      "outputs": [],
      "stateMutability": "nonpayable",
      "type": "function"
    },
    {
      "inputs": [
        {
          "internalType": "bytes32",
          "name": "role",
          "type": "bytes32"
        },
        {
          "internalType": "address",
          "name": "account",
          "type": "address"
        }
      ],
      "name": "revokeRole",
      "outputs": [],
      "stateMutability": "nonpayable",
      "type": "function"
    },
    {
      "inputs": [
        {
          "internalType": "bytes4",
          "name": "interfaceId",
          "type": "bytes4"
        }
      ],
      "name": "supportsInterface",
      "outputs": [
        {
          "internalType": "bool",
          "name": "",
          "type": "bool"
        }
      ],
      "stateMutability": "view",
      "type": "function",
      "constant": true
    },
    {
      "inputs": [
        {
          "internalType": "string",
          "name": "_name",
          "type": "string"
        },
        {
          "internalType": "address",
          "name": "_organizer_address",
          "type": "address"
        }
      ],
      "name": "create_organization",
      "outputs": [],
      "stateMutability": "nonpayable",
      "type": "function"
    },
    {
      "inputs": [
        {
          "internalType": "address",
          "name": "_organizer",
          "type": "address"
        }
      ],
      "name": "getOrganizerNFT",
      "outputs": [
        {
          "internalType": "address",
          "name": "",
          "type": "address"
        }
      ],
      "stateMutability": "view",
      "type": "function",
      "constant": true
    },
    {
      "inputs": [
        {
          "internalType": "uint256",
          "name": "_id",
          "type": "uint256"
        }
      ],
      "name": "getOrganizationAddress",
      "outputs": [
        {
          "internalType": "address",
          "name": "",
          "type": "address"
        }
      ],
      "stateMutability": "view",
      "type": "function",
      "constant": true
    },
    {
      "inputs": [],
      "name": "getnextNFTId",
      "outputs": [
        {
          "internalType": "uint256",
          "name": "",
          "type": "uint256"
        }
      ],
      "stateMutability": "view",
      "type": "function",
      "constant": true
    }
  ],
  "bytecode": "0x608060405234801561001057600080fd5b5061001c600033610022565b506100ce565b6000828152602081815260408083206001600160a01b038516845290915281205460ff166100c4576000838152602081815260408083206001600160a01b03861684529091529020805460ff1916600117905561007c3390565b6001600160a01b0316826001600160a01b0316847f2f8788117e7eff1d82e926ec794901d17c78024a50270940304540a733656f0d60405160405180910390a45060016100c8565b5060005b92915050565b614cce806100dd6000396000f3fe60806040523480156200001157600080fd5b5060043610620000fd5760003560e01c80638119e4d71162000097578063a953a604116200006e578063a953a6041462000244578063c909adc01462000273578063d547741f146200027d578063e792dd8a146200029457600080fd5b80638119e4d7146200021b57806391d148541462000224578063a217fddf146200023b57600080fd5b80632f2ff15d11620000d85780632f2ff15d146200017c57806336568abe14620001935780635e6c0b9c14620001aa57806364b7f49614620001ef57600080fd5b806301ffc9a7146200010257806318057196146200012e578063248a9ca31462000147575b600080fd5b62000119620001133660046200069e565b620002c0565b60405190151581526020015b60405180910390f35b620001456200013f36600462000704565b620002f8565b005b6200016d62000158366004620007d2565b60009081526020819052604090206001015490565b60405190815260200162000125565b620001456200018d366004620007ec565b6200047d565b62000145620001a4366004620007ec565b620004ac565b620001d6620001bb36600462000812565b6002602052600090815260409020546001600160a01b031681565b6040516001600160a01b03909116815260200162000125565b620001d662000200366004620007d2565b6000908152600360205260409020546001600160a01b031690565b6001546200016d565b6200011962000235366004620007ec565b620004e7565b6200016d600081565b620001d66200025536600462000812565b6001600160a01b039081166000908152600260205260409020541690565b6200016d60015481565b620001456200028e366004620007ec565b62000510565b620001d6620002a5366004620007d2565b6003602052600090815260409020546001600160a01b031681565b60006001600160e01b03198216637965db0b60e01b1480620002f257506301ffc9a760e01b6001600160e01b03198316145b92915050565b6000620003058162000539565b6001600160a01b038216620003765760405162461bcd60e51b815260206004820152602c60248201527f4f7267616e697a657220616464726573732063616e6e6f74206265207468652060448201526b7a65726f206164647265737360a01b60648201526084015b60405180910390fd5b6001600160a01b0382811660009081526002602052604090205416156200039c57600080fd5b60008383604051620003ae9062000690565b620003bb92919062000830565b604051809103906000f080158015620003d8573d6000803e3d6000fd5b506001600160a01b03808516600081815260026020908152604080832080549587166001600160a01b0319968716179055600180548452600390925282208054909416909217909255805492935090620004328362000892565b90915550506040516001600160a01b0382811682528416907f2725ca0bb6f842da395a595005373aaa8e052b21133359b3c75f59a1247e6e7a9060200160405180910390a250505050565b6000828152602081905260409020600101546200049a8162000539565b620004a6838362000548565b50505050565b6001600160a01b0381163314620004d65760405163334bd91960e11b815260040160405180910390fd5b620004e28282620005e0565b505050565b6000918252602082815260408084206001600160a01b0393909316845291905290205460ff1690565b6000828152602081905260409020600101546200052d8162000539565b620004a68383620005e0565b6200054581336200064f565b50565b6000620005568383620004e7565b620005d7576000838152602081815260408083206001600160a01b03861684529091529020805460ff191660011790556200058e3390565b6001600160a01b0316826001600160a01b0316847f2f8788117e7eff1d82e926ec794901d17c78024a50270940304540a733656f0d60405160405180910390a4506001620002f2565b506000620002f2565b6000620005ee8383620004e7565b15620005d7576000838152602081815260408083206001600160a01b0386168085529252808320805460ff1916905551339286917ff6391f5c32d9c69d2a47ea670b442974b53935d1edc7fd64eb21e047a839171b9190a4506001620002f2565b6200065b8282620004e7565b6200068c5760405163e2517d3f60e01b81526001600160a01b0382166004820152602481018390526044016200036d565b5050565b6143de80620008bb83390190565b600060208284031215620006b157600080fd5b81356001600160e01b031981168114620006ca57600080fd5b9392505050565b634e487b7160e01b600052604160045260246000fd5b80356001600160a01b0381168114620006ff57600080fd5b919050565b600080604083850312156200071857600080fd5b823567ffffffffffffffff808211156200073157600080fd5b818501915085601f8301126200074657600080fd5b8135818111156200075b576200075b620006d1565b604051601f8201601f19908116603f01168101908382118183101715620007865762000786620006d1565b81604052828152886020848701011115620007a057600080fd5b826020860160208301376000602084830101528096505050505050620007c960208401620006e7565b90509250929050565b600060208284031215620007e557600080fd5b5035919050565b600080604083850312156200080057600080fd5b82359150620007c960208401620006e7565b6000602082840312156200082557600080fd5b620006ca82620006e7565b604081526000835180604084015260005b8181101562000860576020818701810151606086840101520162000841565b50600060608285018101919091526001600160a01b03949094166020840152601f01601f191690910190910192915050565b600060018201620008b357634e487b7160e01b600052601160045260246000fd5b506001019056fe60806040523480156200001157600080fd5b50604051620043de380380620043de833981016040819052620000349162000217565b6040805160208101909152600081526200004e81620000d8565b506200005c600032620000ea565b50620000897f4d2e7a1e3f5dd6e203f087b15756ccf0e4ccd947fe1b639a38540089a1e47f6382620000ea565b50620000a5600080516020620043be83398151915282620000ea565b50620000c1600080516020620043be8339815191528062000199565b600c620000cf83826200038e565b5050506200045a565b6003620000e682826200038e565b5050565b6000828152602081815260408083206001600160a01b038516845290915281205460ff166200018f576000838152602081815260408083206001600160a01b03861684529091529020805460ff19166001179055620001463390565b6001600160a01b0316826001600160a01b0316847f2f8788117e7eff1d82e926ec794901d17c78024a50270940304540a733656f0d60405160405180910390a450600162000193565b5060005b92915050565b600082815260208190526040808220600101805490849055905190918391839186917fbd79b86ffe0ab8e8776151514217cd7cacd52c909f66475c3af44e129f0b00ff9190a4505050565b634e487b7160e01b600052604160045260246000fd5b80516001600160a01b03811681146200021257600080fd5b919050565b600080604083850312156200022b57600080fd5b82516001600160401b03808211156200024357600080fd5b818501915085601f8301126200025857600080fd5b8151818111156200026d576200026d620001e4565b604051601f8201601f19908116603f01168101908382118183101715620002985762000298620001e4565b81604052828152602093508884848701011115620002b557600080fd5b600091505b82821015620002d95784820184015181830185015290830190620002ba565b6000848483010152809650505050620002f4818601620001fa565b925050509250929050565b600181811c908216806200031457607f821691505b6020821081036200033557634e487b7160e01b600052602260045260246000fd5b50919050565b601f8211156200038957600081815260208120601f850160051c81016020861015620003645750805b601f850160051c820191505b81811015620003855782815560010162000370565b5050505b505050565b81516001600160401b03811115620003aa57620003aa620001e4565b620003c281620003bb8454620002ff565b846200033b565b602080601f831160018114620003fa5760008415620003e15750858301515b600019600386901b1c1916600185901b17855562000385565b600085815260208120601f198616915b828110156200042b578886015182559484019460019091019084016200040a565b50858210156200044a5787850151600019600388901b60f8161c191681555b5050505050600190811b01905550565b613f54806200046a6000396000f3fe608060405234801561001057600080fd5b506004361061029f5760003560e01c806375b238fc11610167578063bc79ddcb116100ce578063e426bfef11610087578063e426bfef14610654578063e4725f0214610667578063e985e9c51461067a578063ec38d5a01461068d578063f242432a146106b1578063f70778fa146106c457600080fd5b8063bc79ddcb146105df578063bd85b039146105f2578063c28aeb7714610612578063cfbd900f14610625578063d547741f1461062e578063db8aa9881461064157600080fd5b80639a4d4385116101205780639a4d438514610571578063a0a599f314610584578063a217fddf1461058c578063a22cb46514610594578063a460b817146105a7578063b51aef04146105ba57600080fd5b806375b238fc146104e15780637909cb59146105085780637dc379fa1461051d5780638be8a775146105305780638f23b3261461055557806391d148541461055e57600080fd5b80632f2ff15d1161020b5780634e1273f4116101c45780634e1273f4146104495780634f558e791461046957806350b447121461048b57806352def180146104b257806365bf60e0146104c557806371be2e4a146104d857600080fd5b80632f2ff15d146103e257806336568abe146103f557806344508ad01461040857806344ade56d1461041b5780634ae855cf1461042e5780634c66a0731461044157600080fd5b8063118757f81161025d578063118757f81461035857806315e472dd1461037157806318160ddd146103845780631c8096451461038c578063248a9ca3146103ac5780632eb2c2d6146103cf57600080fd5b8062fdd58e146102a457806301ffc9a7146102ca5780630b791430146102ed5780630c08b30d146103105780630e531076146103255780630e89341c14610338575b600080fd5b6102b76102b236600461315e565b6106d7565b6040519081526020015b60405180910390f35b6102dd6102d836600461319e565b610701565b60405190151581526020016102c1565b6103006102fb3660046131c2565b61070c565b6040516102c1949392919061322b565b61032361031e36600461339a565b6107bd565b005b61032361033336600461346e565b6108ac565b61034b6103463660046131c2565b610988565b6040516102c191906134c4565b610360610a1c565b6040516102c1959493929190613512565b61032361037f3660046135c1565b610d65565b6005546102b7565b61039f61039a3660046135ed565b610f96565b6040516102c19190613647565b6102b76103ba3660046131c2565b60009081526020819052604090206001015490565b6103236103dd366004613709565b611204565b6103236103f03660046137b2565b61126b565b6103236104033660046137b2565b611290565b6103236104163660046135ed565b6112c8565b6103236104293660046137de565b61156e565b6102b761043c3660046135ed565b6115b0565b61034b6115e1565b61045c6104573660046137f9565b61166f565b6040516102c191906138b8565b6102dd6104773660046131c2565b600090815260046020526040902054151590565b61049e6104993660046131c2565b61173b565b6040516102c19897969594939291906138cb565b6103236104c0366004613920565b61180c565b6102b76104d33660046131c2565b61198b565b6102b760065481565b6102b77fa49807205ce4d355092ef5a8a18f56e8913cf4a201fbe287825b095693c2177581565b6102b7600080516020613eff83398151915281565b61049e61052b3660046131c2565b611a04565b61054361053e3660046135ed565b611b03565b6040516102c19695949392919061398c565b6102b760085481565b6102dd61056c3660046137b2565b611da9565b61032361057f3660046139e4565b611dd2565b6007546102b7565b6102b7600081565b6103236105a2366004613a28565b611e73565b6103236105b5366004613a64565b611e82565b6102dd6105c83660046131c2565b6000908152600a6020526040902060030154151590565b61045c6105ed3660046131c2565b611fb8565b6102b76106003660046131c2565b60009081526004602052604090205490565b610323610620366004613920565b612019565b6102b760075481565b61032361063c3660046137b2565b6120a7565b6102b761064f3660046139e4565b6120cc565b6103236106623660046131c2565b6120ff565b6103236106753660046137de565b61220a565b6102dd610688366004613a8d565b61224c565b6106a061069b3660046131c2565b61227a565b6040516102c1959493929190613ab7565b6103236106bf366004613aed565b612393565b6103236106d23660046135ed565b6123f2565b60008181526001602090815260408083206001600160a01b03861684529091529020545b92915050565b60006106fb826127d5565b6009602052600090815260409020805460018201805491929161072e90613b51565b80601f016020809104026020016040519081016040528092919081815260200182805461075a90613b51565b80156107a75780601f1061077c576101008083540402835291602001916107a7565b820191906000526020600020905b81548152906001019060200180831161078a57829003601f168201915b5050505050908060020154908060040154905084565b600080516020613eff8339815191526107d581612815565b815183511461082b5760405162461bcd60e51b815260206004820152601760248201527f4d69736d61746368656420696e7075742061727261797300000000000000000060448201526064015b60405180910390fd5b60005b83518110156108a6576000600a600086848151811061084f5761084f613b8b565b60200260200101518152602001908152602001600020905083828151811061087957610879613b8b565b60200260200101518160060190816108919190613be7565b5050808061089e90613cbc565b91505061082e565b50505050565b600080516020613eff8339815191526108c481612815565b60008581526009602052604081206001810180549192916108e490613b51565b9050116108f057600080fd5b60048101805490600061090283613cbc565b90915550506004810154600081815260038301602052604090209081556001810161092d8782613be7565b50600281018590556003810185905560048101849055805460405188907fa02d99a1daac50524d2b80db5bd4ef4ef59bc535a96274cb9cc11c460cc8ac6690610977908a906134c4565b60405180910390a350505050505050565b60606003805461099790613b51565b80601f01602080910402602001604051908101604052809291908181526020018280546109c390613b51565b8015610a105780601f106109e557610100808354040283529160200191610a10565b820191906000526020600020905b8154815290600101906020018083116109f357829003601f168201915b50505050509050919050565b60608060608060606006546001600160401b03811115610a3e57610a3e613257565b604051908082528060200260200182016040528015610a67578160200160208202803683370190505b5094506006546001600160401b03811115610a8457610a84613257565b604051908082528060200260200182016040528015610ab757816020015b6060815260200190600190039081610aa25790505b5093506006546001600160401b03811115610ad457610ad4613257565b604051908082528060200260200182016040528015610afd578160200160208202803683370190505b5092506006546001600160401b03811115610b1a57610b1a613257565b604051908082528060200260200182016040528015610b43578160200160208202803683370190505b5091506006546001600160401b03811115610b6057610b60613257565b604051908082528060200260200182016040528015610b89578160200160208202803683370190505b50905060015b6006548111610d5d57600081815260096020526040812090805b82600401548111610be6576000818152600384016020526040902060020154610bd29083613cd5565b915080610bde81613cbc565b915050610ba9565b50815488610bf5600186613ce8565b81518110610c0557610c05613b8b565b602002602001018181525050816001018054610c2090613b51565b80601f0160208091040260200160405190810160405280929190818152602001828054610c4c90613b51565b8015610c995780601f10610c6e57610100808354040283529160200191610c99565b820191906000526020600020905b815481529060010190602001808311610c7c57829003601f168201915b505050505087600185610cac9190613ce8565b81518110610cbc57610cbc613b8b565b6020908102919091010152600282015486610cd8600186613ce8565b81518110610ce857610ce8613b8b565b6020908102919091010152600482015485610d04600186613ce8565b81518110610d1457610d14613b8b565b60209081029190910101528084610d2c600186613ce8565b81518110610d3c57610d3c613b8b565b60200260200101818152505050508080610d5590613cbc565b915050610b8f565b509091929394565b600080516020613eff833981519152610d7d81612815565b60008211610dcd5760405162461bcd60e51b815260206004820152601c60248201527f5072696365206d7573742062652067726561746572207468616e2030000000006044820152606401610822565b6000848152600960209081526040808320868452600390810190925290912090810154610e2c5760405162461bcd60e51b815260206004820152600d60248201526c139bc81cd9585d1cc81b19599d609a1b6044820152606401610822565b60078054906000610e3c83613cbc565b90915550506007546000818152600a6020526040902081815560018082018890556002820187905560058201805460ff1916909117905560048101859055600c8054610f109190610e8c90613b51565b80601f0160208091040260200160405190810160405280929190818152602001828054610eb890613b51565b8015610f055780601f10610eda57610100808354040283529160200191610f05565b820191906000526020600020905b815481529060010190602001808311610ee857829003601f168201915b5050505050836120cc565b6007820155600383018054906000610f2783613cfb565b9091555050604080518881526020810188905290810186905282907f2a46459bd2b4f82bf8e5df9e7aaaa836588650ea9b6758cd0f274e5b5a2187c69060600160405180910390a2610f8d33600754600160405180602001604052806000815250612822565b50505050505050565b6060600754821115610fd85760405162461bcd60e51b815260206004820152600b60248201526a125b9d985b1a5908195b9960aa1b6044820152606401610822565b8282101561101d5760405162461bcd60e51b8152602060048201526012602482015271496e76616c696420706172616d657465727360701b6044820152606401610822565b60006110298484613ce8565b611034906001613cd5565b6001600160401b0381111561104b5761104b613257565b60405190808252806020026020018201604052801561108457816020015b6110716130ec565b8152602001906001900390816110695790505b509050835b611094846001613cd5565b8110156111fc57600a60008281526020019081526020016000206040518061010001604052908160008201548152602001600182015481526020016002820154815260200160038201548152602001600482015481526020016005820160009054906101000a900460ff1660038111156111105761111061360f565b60038111156111215761112161360f565b815260200160068201805461113590613b51565b80601f016020809104026020016040519081016040528092919081815260200182805461116190613b51565b80156111ae5780601f10611183576101008083540402835291602001916111ae565b820191906000526020600020905b81548152906001019060200180831161119157829003601f168201915b505050505081526020016007820154815250508286836111ce9190613ce8565b815181106111de576111de613b8b565b602002602001018190525080806111f490613cbc565b915050611089565b509392505050565b336001600160a01b03861681148015906112255750611223868261224c565b155b156112565760405163711bec9160e11b81526001600160a01b03808316600483015287166024820152604401610822565b611263868686868661287f565b505050505050565b60008281526020819052604090206001015461128681612815565b6108a683836128e6565b6001600160a01b03811633146112b95760405163334bd91960e11b815260040160405180910390fd5b6112c38282612978565b505050565b6000828152600b602052604090205461131a5760405162461bcd60e51b8152602060048201526014602482015273496c2067727570706f206e6f6e2065736973746560601b6044820152606401610822565b600061132633836106d7565b116113435760405162461bcd60e51b815260040161082290613d12565b6000818152600a602052604090206003015482146113b45760405162461bcd60e51b815260206004820152602860248201527f496c207469636b6574206e6f6e2061707061727469656e6520612071756573746044820152676f2067727570706f60c01b6064820152608401610822565b6000818152600a6020526040812060030181905580805b6000858152600b60205260409020548110156114795760408051602081018690520160408051601f1981840301815291815281516020928301206000888152600b909352912080548390811061142357611423613b8b565b906000526020600020015460405160200161144091815260200190565b60405160208183030381529060405280519060200120036114675780925060019150611479565b8061147181613cbc565b9150506113cb565b50806114c75760405162461bcd60e51b815260206004820152601d60248201527f5469636b6574206e6f6e2074726f7661746f206e656c2067727570706f0000006044820152606401610822565b6000848152600b6020526040902080546114e390600190613ce8565b815481106114f3576114f3613b8b565b9060005260206000200154600b6000868152602001908152602001600020838154811061152257611522613b8b565b9060005260206000200181905550600b600085815260200190815260200160002080548061155257611552613d40565b6001900381819060005260206000200160009055905550505050565b7fa49807205ce4d355092ef5a8a18f56e8913cf4a201fbe287825b095693c2177561159881612815565b6112c3600080516020613eff83398151915283612978565b600b60205281600052604060002081815481106115cc57600080fd5b90600052602060002001600091509150505481565b600c80546115ee90613b51565b80601f016020809104026020016040519081016040528092919081815260200182805461161a90613b51565b80156116675780601f1061163c57610100808354040283529160200191611667565b820191906000526020600020905b81548152906001019060200180831161164a57829003601f168201915b505050505081565b606081518351146116a05781518351604051635b05999160e01b815260048101929092526024820152604401610822565b600083516001600160401b038111156116bb576116bb613257565b6040519080825280602002602001820160405280156116e4578160200160208202803683370190505b50905060005b84518110156111fc5760208082028601015161170e906020808402870101516106d7565b82828151811061172057611720613b8b565b602090810291909101015261173481613cbc565b90506116ea565b600a6020526000908152604090208054600182015460028301546003840154600485015460058601546006870180549697959694959394929360ff9092169261178390613b51565b80601f01602080910402602001604051908101604052809291908181526020018280546117af90613b51565b80156117fc5780601f106117d1576101008083540402835291602001916117fc565b820191906000526020600020905b8154815290600101906020018083116117df57829003601f168201915b5050505050908060070154905088565b600080516020613eff83398151915261182481612815565b6000848152600a602052604090206002600582015460ff16600381111561184d5761184d61360f565b0361189a5760405162461bcd60e51b815260206004820152601860248201527f5469636b657420616c72656164792076616c69646174656400000000000000006044820152606401610822565b6003600582015460ff1660038111156118b5576118b561360f565b036118f45760405162461bcd60e51b815260206004820152600f60248201526e5469636b657420657870697265642160881b6044820152606401610822565b6000611921858560405160200161190c929190613d56565b604051602081830303815290604052876120cc565b9050808260070154146119765760405162461bcd60e51b815260206004820152601b60248201527f5469636b65742068617320646966666572656e74206f776e65722100000000006044820152606401610822565b50600501805460ff1916600217905550505050565b60008061199833846106d7565b116119b55760405162461bcd60e51b815260040161082290613d12565b60006008600081546119c690613cbc565b91829055506000848152600a60209081526040808320600301849055838352600b825282208054600181018255908352912001939093555090919050565b6000806000806000806060600080600a60008b81526020019081526020016000209050806000015481600101548260020154836003015484600401548560050160009054906101000a900460ff16866006018760070154818054611a6790613b51565b80601f0160208091040260200160405190810160405280929190818152602001828054611a9390613b51565b8015611ae05780601f10611ab557610100808354040283529160200191611ae0565b820191906000526020600020905b815481529060010190602001808311611ac357829003601f168201915b505050505091509850985098509850985098509850985050919395975091939597565b6000828152600960209081526040808320848452600301909152812060609082908190839081908360015b6007548111611b8c576000818152600a60205260409020600101548b148015611b6757506000818152600a60205260409020600201548a145b15611b7a5781611b7681613cbc565b9250505b80611b8481613cbc565b915050611b2e565b506000816001600160401b03811115611ba757611ba7613257565b604051908082528060200260200182016040528015611bd0578160200160208202803683370190505b5090506000826001600160401b03811115611bed57611bed613257565b604051908082528060200260200182016040528015611c16578160200160208202803683370190505b509050600060015b6007548111158015611c2f57508482105b15611cec576000818152600a60205260409020600101548e148015611c6457506000818152600a60205260409020600201548d145b15611cda576000818152600a60205260409020548451859084908110611c8c57611c8c613b8b565b602002602001018181525050600a600082815260200190815260200160002060030154838381518110611cc157611cc1613b8b565b602090810291909101015281611cd681613cbc565b9250505b80611ce481613cbc565b915050611c1e565b50846000015485600101866002015487600301548686848054611d0e90613b51565b80601f0160208091040260200160405190810160405280929190818152602001828054611d3a90613b51565b8015611d875780601f10611d5c57610100808354040283529160200191611d87565b820191906000526020600020905b815481529060010190602001808311611d6a57829003601f168201915b505050505094509a509a509a509a509a509a5050505050509295509295509295565b6000918252602082815260408084206001600160a01b0393909316845291905290205460ff1690565b600080516020613eff833981519152611dea81612815565b60068054906000611dfa83613cbc565b9091555050600654600081815260096020526040902090815560018101611e218582613be7565b5060028101839055600060048201556006546040517fee37bb5143a14810f72e86fce895be08e16090409d2e18f79b308995e39b73d490611e659087908790613d92565b60405180910390a250505050565b611e7e3383836129e3565b5050565b6000828152600a602052604090206002826003811115611ea457611ea461360f565b1480611ec157506000826003811115611ebf57611ebf61360f565b145b8015611f0757506001600582015460ff166003811115611ee357611ee361360f565b1480611f0757506000600582015460ff166003811115611f0557611f0561360f565b145b15611f5957611f24600080516020613eff83398151915233611da9565b80611f3857506000611f3633856106d7565b115b611f545760405162461bcd60e51b815260040161082290613db4565b611f8d565b611f71600080516020613eff83398151915233611da9565b611f8d5760405162461bcd60e51b815260040161082290613db4565b60058101805483919060ff19166001836003811115611fae57611fae61360f565b0217905550505050565b6000818152600b6020908152604091829020805483518184028101840190945280845260609392830182828015610a1057602002820191906000526020600020905b815481526020019060010190808311611ffa5750505050509050919050565b612031600080516020613eff83398151915233611da9565b806120455750600061204333856106d7565b115b6120615760405162461bcd60e51b815260040161082290613d12565b6000838152600a6020908152604091829020915161209c91612087918691869101613d56565b604051602081830303815290604052856120cc565b600790910155505050565b6000828152602081905260409020600101546120c281612815565b6108a68383612978565b600082826040516020016120e1929190613dfa565b60405160208183030381529060405280519060200120905092915050565b600080516020613eff83398151915261211781612815565b6000828152600960205260409020600281015442116121785760405162461bcd60e51b815260206004820152601a60248201527f4576656e7420686173206e6f7420796574206f636375727265640000000000006044820152606401610822565b60015b60075481116108a6576000818152600a602052604090206001810154851480156121e257506003600582015460ff1660038111156121bb576121bb61360f565b141580156121e257506002600582015460ff1660038111156121df576121df61360f565b14155b156121f75760058101805460ff191660031790555b508061220281613cbc565b91505061217b565b7fa49807205ce4d355092ef5a8a18f56e8913cf4a201fbe287825b095693c2177561223481612815565b6112c3600080516020613eff833981519152836128e6565b6001600160a01b03918216600090815260026020908152604080832093909416825291909152205460ff1690565b600081815260096020526040812060609082908190819081805b60048301546122a4906001613cd5565b8110156122dd5760008181526003840160205260409020600201546122c99083613cd5565b9150806122d581613cbc565b915050612294565b5081600001548260010183600201548460040154848380546122fe90613b51565b80601f016020809104026020016040519081016040528092919081815260200182805461232a90613b51565b80156123775780601f1061234c57610100808354040283529160200191612377565b820191906000526020600020905b81548152906001019060200180831161235a57829003601f168201915b5050505050935096509650965096509650505091939590929450565b336001600160a01b03861681148015906123b457506123b2868261224c565b155b156123e55760405163711bec9160e11b81526001600160a01b03808316600483015287166024820152604401610822565b6112638686868686612a79565b6000828152600b602052604090205461244d5760405162461bcd60e51b815260206004820152601860248201527f5468652067726f757020646f6573206e6f7420657869737400000000000000006044820152606401610822565b6000805b6000848152600b60205260409020548110156124d85760006124b733600a6000600b60008a8152602001908152602001600020868154811061249557612495613b8b565b90600052602060002001548152602001908152602001600020600001546106d7565b11156124c657600191506124d8565b806124d081613cbc565b915050612451565b508061253d5760405162461bcd60e51b815260206004820152602e60248201527f596f75206d75737420626520612067726f7570206d656d62657220746f20616460448201526d64207061727469636970616e747360901b6064820152608401610822565b60016000838152600a602052604090206005015460ff1660038111156125655761256561360f565b146125b25760405162461bcd60e51b815260206004820152601960248201527f546865207469636b6574206973206e6f7420274f776e656427000000000000006044820152606401610822565b6000828152600a6020526040902060030154156126235760405162461bcd60e51b815260206004820152602960248201527f546865207469636b657420697320616c72656164792061737369676e6564207460448201526806f20612067726f75760bc1b6064820152608401610822565b6000838152600b602052604081208054600a918391829061264657612646613b8b565b906000526020600020015481526020019081526020016000206001015490506000600a6000600b600088815260200190815260200160002060008154811061269057612690613b8b565b9060005260206000200154815260200190815260200160002060020154905081600a600086815260200190815260200160002060010154146127285760405162461bcd60e51b815260206004820152602b60248201527f546865207469636b657420646f6573206e6f74206d617463682074686520677260448201526a1bdd5c09dcc8195d995b9d60aa1b6064820152608401610822565b6000848152600a6020526040902060020154811461279d5760405162461bcd60e51b815260206004820152602c60248201527f546865207469636b657420646f6573206e6f74206d617463682074686520677260448201526b37bab813b99039b2b1ba37b960a11b6064820152608401610822565b5050506000818152600a60209081526040808320600301859055938252600b8152928120805460018101825590825292902090910155565b60006001600160e01b03198216636cdb3d1360e11b148061280657506001600160e01b031982166303a24d0760e21b145b806106fb57506106fb82612afe565b61281f8133612b33565b50565b6001600160a01b03841661284c57604051632bfa23e760e11b815260006004820152602401610822565b60408051600180825260208201869052818301908152606082018590526080820190925290611263600087848487612b6c565b6001600160a01b0384166128a957604051632bfa23e760e11b815260006004820152602401610822565b6001600160a01b0385166128d257604051626a0d4560e21b815260006004820152602401610822565b6128df8585858585612b6c565b5050505050565b60006128f28383611da9565b612970576000838152602081815260408083206001600160a01b03861684529091529020805460ff191660011790556129283390565b6001600160a01b0316826001600160a01b0316847f2f8788117e7eff1d82e926ec794901d17c78024a50270940304540a733656f0d60405160405180910390a45060016106fb565b5060006106fb565b60006129848383611da9565b15612970576000838152602081815260408083206001600160a01b0386168085529252808320805460ff1916905551339286917ff6391f5c32d9c69d2a47ea670b442974b53935d1edc7fd64eb21e047a839171b9190a45060016106fb565b6001600160a01b038216612a0c5760405162ced3e160e81b815260006004820152602401610822565b6001600160a01b03838116600081815260026020908152604080832094871680845294825291829020805460ff191686151590811790915591519182527f17307eab39ab6107e8899845ad3d59bd9653f200f220920489ca2b5937696c31910160405180910390a3505050565b6001600160a01b038416612aa357604051632bfa23e760e11b815260006004820152602401610822565b6001600160a01b038516612acc57604051626a0d4560e21b815260006004820152602401610822565b60408051600180825260208201869052818301908152606082018590526080820190925290610f8d8787848487612b6c565b60006001600160e01b03198216637965db0b60e01b14806106fb57506301ffc9a760e01b6001600160e01b03198316146106fb565b612b3d8282611da9565b611e7e5760405163e2517d3f60e01b81526001600160a01b038216600482015260248101839052604401610822565b612b7885858585612bbf565b6001600160a01b038416156128df5782513390600103612bb15760208481015190840151612baa838989858589612cbc565b5050611263565b611263818787878787612de0565b612bcb84848484612ec9565b6001600160a01b038416612c54576000805b8351811015612c3a5760208181028481018201519086018201516000908152600490925260408220805491928392612c16908490613cd5565b90915550612c2690508184613cd5565b92505080612c3390613cbc565b9050612bdd565b508060056000828254612c4d9190613cd5565b9091555050505b6001600160a01b0383166108a6576000805b8351811015612cab576020818102848101820151908601820151600090815260049092526040909120805482900390559190910190612ca481613cbc565b9050612c66565b506005805491909103905550505050565b6001600160a01b0384163b156112635760405163f23a6e6160e01b81526001600160a01b0385169063f23a6e6190612d009089908990889088908890600401613e1c565b6020604051808303816000875af1925050508015612d3b575060408051601f3d908101601f19168201909252612d3891810190613e61565b60015b612da4573d808015612d69576040519150601f19603f3d011682016040523d82523d6000602084013e612d6e565b606091505b508051600003612d9c57604051632bfa23e760e11b81526001600160a01b0386166004820152602401610822565b805181602001fd5b6001600160e01b0319811663f23a6e6160e01b14610f8d57604051632bfa23e760e11b81526001600160a01b0386166004820152602401610822565b6001600160a01b0384163b156112635760405163bc197c8160e01b81526001600160a01b0385169063bc197c8190612e249089908990889088908890600401613e7e565b6020604051808303816000875af1925050508015612e5f575060408051601f3d908101601f19168201909252612e5c91810190613e61565b60015b612e8d573d808015612d69576040519150601f19603f3d011682016040523d82523d6000602084013e612d6e565b6001600160e01b0319811663bc197c8160e01b14610f8d57604051632bfa23e760e11b81526001600160a01b0386166004820152602401610822565b8051825114612ef85781518151604051635b05999160e01b815260048101929092526024820152604401610822565b3360005b835181101561300d576020818102858101820151908501909101516001600160a01b03881615612fb35760008281526001602090815260408083206001600160a01b038c16845290915290205481811015612f8a576040516303dee4c560e01b81526001600160a01b038a166004820152602481018290526044810183905260648101849052608401610822565b60008381526001602090815260408083206001600160a01b038d16845290915290209082900390555b6001600160a01b03871615612ffa5760008281526001602090815260408083206001600160a01b038b16845290915281208054839290612ff4908490613cd5565b90915550505b50508061300690613cbc565b9050612efc565b50825160010361308e5760208301516000906020840151909150856001600160a01b0316876001600160a01b0316846001600160a01b03167fc3d58168c5ae7397731d063d5bbf3d657854427343f4c083240f7aacaa2d0f62858560405161307f929190918252602082015260400190565b60405180910390a450506128df565b836001600160a01b0316856001600160a01b0316826001600160a01b03167f4a39dc06d4c0dbc64b70af90fd698a233a518aa5d07e595d983b8c0526c8f7fb86866040516130dd929190613ed0565b60405180910390a45050505050565b60405180610100016040528060008152602001600081526020016000815260200160008152602001600081526020016000600381111561312e5761312e61360f565b815260606020820152600060409091015290565b80356001600160a01b038116811461315957600080fd5b919050565b6000806040838503121561317157600080fd5b61317a83613142565b946020939093013593505050565b6001600160e01b03198116811461281f57600080fd5b6000602082840312156131b057600080fd5b81356131bb81613188565b9392505050565b6000602082840312156131d457600080fd5b5035919050565b60005b838110156131f65781810151838201526020016131de565b50506000910152565b600081518084526132178160208601602086016131db565b601f01601f19169290920160200192915050565b84815260806020820152600061324460808301866131ff565b6040830194909452506060015292915050565b634e487b7160e01b600052604160045260246000fd5b604051601f8201601f191681016001600160401b038111828210171561329557613295613257565b604052919050565b60006001600160401b038211156132b6576132b6613257565b5060051b60200190565b600082601f8301126132d157600080fd5b813560206132e66132e18361329d565b61326d565b82815260059290921b8401810191818101908684111561330557600080fd5b8286015b848110156133205780358352918301918301613309565b509695505050505050565b600082601f83011261333c57600080fd5b81356001600160401b0381111561335557613355613257565b613368601f8201601f191660200161326d565b81815284602083860101111561337d57600080fd5b816020850160208301376000918101602001919091529392505050565b600080604083850312156133ad57600080fd5b82356001600160401b03808211156133c457600080fd5b6133d0868387016132c0565b93506020915081850135818111156133e757600080fd5b8501601f810187136133f857600080fd5b80356134066132e18261329d565b81815260059190911b8201840190848101908983111561342557600080fd5b8584015b8381101561345d578035868111156134415760008081fd5b61344f8c898389010161332b565b845250918601918601613429565b508096505050505050509250929050565b6000806000806080858703121561348457600080fd5b8435935060208501356001600160401b038111156134a157600080fd5b6134ad8782880161332b565b949794965050505060408301359260600135919050565b6020815260006131bb60208301846131ff565b600081518084526020808501945080840160005b83811015613507578151875295820195908201906001016134eb565b509495945050505050565b60a08152600061352560a08301886134d7565b6020838203818501528188518084528284019150828160051b850101838b0160005b8381101561357557601f198784030185526135638383516131ff565b94860194925090850190600101613547565b50508681036040880152613589818b6134d7565b94505050505082810360608401526135a181866134d7565b905082810360808401526135b581856134d7565b98975050505050505050565b6000806000606084860312156135d657600080fd5b505081359360208301359350604090920135919050565b6000806040838503121561360057600080fd5b50508035926020909101359150565b634e487b7160e01b600052602160045260246000fd5b6004811061364357634e487b7160e01b600052602160045260246000fd5b9052565b60006020808301818452808551808352604092508286019150828160051b87010184880160005b838110156136fb57888303603f1901855281518051845287810151888501528681015187850152606080820151908501526080808201519085015260a08082015161010091906136c082880182613625565b505060c08083015182828801526136d9838801826131ff565b60e094850151979094019690965250509487019492509086019060010161366e565b509098975050505050505050565b600080600080600060a0868803121561372157600080fd5b61372a86613142565b945061373860208701613142565b935060408601356001600160401b038082111561375457600080fd5b61376089838a016132c0565b9450606088013591508082111561377657600080fd5b61378289838a016132c0565b9350608088013591508082111561379857600080fd5b506137a58882890161332b565b9150509295509295909350565b600080604083850312156137c557600080fd5b823591506137d560208401613142565b90509250929050565b6000602082840312156137f057600080fd5b6131bb82613142565b6000806040838503121561380c57600080fd5b82356001600160401b038082111561382357600080fd5b818501915085601f83011261383757600080fd5b813560206138476132e18361329d565b82815260059290921b8401810191818101908984111561386657600080fd5b948201945b8386101561388b5761387c86613142565b8252948201949082019061386b565b965050860135925050808211156138a157600080fd5b506138ae858286016132c0565b9150509250929050565b6020815260006131bb60208301846134d7565b60006101008a83528960208401528860408401528760608401528660808401526138f860a0840187613625565b8060c084015261390a818401866131ff565b9150508260e08301529998505050505050505050565b60008060006060848603121561393557600080fd5b8335925060208401356001600160401b038082111561395357600080fd5b61395f8783880161332b565b9350604086013591508082111561397557600080fd5b506139828682870161332b565b9150509250925092565b86815260c0602082015260006139a560c08301886131ff565b86604084015285606084015282810360808401526139c381866134d7565b905082810360a08401526139d781856134d7565b9998505050505050505050565b600080604083850312156139f757600080fd5b82356001600160401b03811115613a0d57600080fd5b613a198582860161332b565b95602094909401359450505050565b60008060408385031215613a3b57600080fd5b613a4483613142565b915060208301358015158114613a5957600080fd5b809150509250929050565b60008060408385031215613a7757600080fd5b82359150602083013560048110613a5957600080fd5b60008060408385031215613aa057600080fd5b613aa983613142565b91506137d560208401613142565b85815260a060208201526000613ad060a08301876131ff565b604083019590955250606081019290925260809091015292915050565b600080600080600060a08688031215613b0557600080fd5b613b0e86613142565b9450613b1c60208701613142565b9350604086013592506060860135915060808601356001600160401b03811115613b4557600080fd5b6137a58882890161332b565b600181811c90821680613b6557607f821691505b602082108103613b8557634e487b7160e01b600052602260045260246000fd5b50919050565b634e487b7160e01b600052603260045260246000fd5b601f8211156112c357600081815260208120601f850160051c81016020861015613bc85750805b601f850160051c820191505b8181101561126357828155600101613bd4565b81516001600160401b03811115613c0057613c00613257565b613c1481613c0e8454613b51565b84613ba1565b602080601f831160018114613c495760008415613c315750858301515b600019600386901b1c1916600185901b178555611263565b600085815260208120601f198616915b82811015613c7857888601518255948401946001909101908401613c59565b5085821015613c965787850151600019600388901b60f8161c191681555b5050505050600190811b01905550565b634e487b7160e01b600052601160045260246000fd5b600060018201613cce57613cce613ca6565b5060010190565b808201808211156106fb576106fb613ca6565b818103818111156106fb576106fb613ca6565b600081613d0a57613d0a613ca6565b506000190190565b6020808252601490820152732737ba103a3432903a34b1b5b2ba1037bbb732b960611b604082015260600190565b634e487b7160e01b600052603160045260246000fd5b60008351613d688184602088016131db565b602d60f81b9083019081528351613d868160018401602088016131db565b01600101949350505050565b604081526000613da560408301856131ff565b90508260208301529392505050565b60208082526026908201527f4e6f7420617574686f72697a656420746f20757064617465207469636b65742060408201526573746174757360d01b606082015260800190565b60008351613e0c8184602088016131db565b9190910191825250602001919050565b6001600160a01b03868116825285166020820152604081018490526060810183905260a060808201819052600090613e56908301846131ff565b979650505050505050565b600060208284031215613e7357600080fd5b81516131bb81613188565b6001600160a01b0386811682528516602082015260a060408201819052600090613eaa908301866134d7565b8281036060840152613ebc81866134d7565b905082810360808401526135b581856131ff565b604081526000613ee360408301856134d7565b8281036020840152613ef581856134d7565b9594505050505056fe4d2e7a1e3f5dd6e203f087b15756ccf0e4ccd947fe1b639a38540089a1e47f63a264697066735822122042027d209e78abd19e91caab960cddba118371db57a806bd4bf1ce3fd73e5bef64736f6c63430008140033a49807205ce4d355092ef5a8a18f56e8913cf4a201fbe287825b095693c21775a26469706673582212203fb3abed223d71272e2ff4350b2ae0c2f355f0e0a7d054644f05b1cbf2f43c9464736f6c63430008140033",
  "immutableReferences": {},
  "source": "// SPDX-License-Identifier: MIT\r\npragma solidity ^0.8.0;\r\n\r\nimport \"@openzeppelin/contracts/token/ERC1155/extensions/ERC1155Supply.sol\";\r\nimport \"@openzeppelin/contracts/access/AccessControl.sol\";\r\nimport \"./Ticket_NFT.sol\";\r\n\r\n\r\ncontract Organizer_manager is AccessControl{\r\n\r\n\r\n    event OrganizationCreated(address indexed organizer, address nftContract);\r\n\r\n    uint public nextNFTId;\r\n\r\n    mapping (address => address) public organization_NFT;\r\n    mapping (uint => address) public organizations;\r\n\r\n    constructor() {\r\n        _grantRole(DEFAULT_ADMIN_ROLE, msg.sender);\r\n    }\r\n\r\n    //----------------------------Create organization-------------------------------\r\n    function create_organization(string memory _name, address _organizer_address)external onlyRole(DEFAULT_ADMIN_ROLE){\r\n        require(_organizer_address != address(0), \"Organizer address cannot be the zero address\");\r\n        require(organization_NFT[_organizer_address] == address(0));\r\n        Ticket_NFT nft=new Ticket_NFT(_name, _organizer_address);\r\n\r\n        \r\n        organization_NFT[_organizer_address]=address(nft);\r\n        organizations[nextNFTId]=_organizer_address;\r\n        nextNFTId++;\r\n\r\n        emit OrganizationCreated(_organizer_address, address(nft));\r\n    }\r\n\r\n    //get the organization NFT given the organizer address\r\n    function getOrganizerNFT(address _organizer) external view returns (address) {\r\n        return organization_NFT[_organizer];\r\n    }\r\n\r\n    //get the organizer adress given the organizer id\r\n    function getOrganizationAddress(uint _id) external view returns (address) {\r\n        return organizations[_id];\r\n    }\r\n\r\n    function getnextNFTId() external view returns (uint256) {\r\n        return nextNFTId;\r\n    } \r\n\r\n}\r\n",
  "sourcePath": "C:\\Users\\eddie\\OneDrive\\Desktop\\Blockchain\\BlockchainTicketsUnitn-main\\truffle\\contracts\\Organizer_manager.sol",
  "compiler": {
    "name": "solc",
    "version": "0.8.20+commit.a1b79de6.Emscripten.clang"
  },
  "schemaVersion": "3.4.16",
  "updatedAt": "2025-02-07T09:16:30.012Z",
  "networkType": "ethereum",
  "devdoc": {
    "errors": {
      "AccessControlBadConfirmation()": [
        {
          "details": "The caller of a function is not the expected one. NOTE: Don't confuse with {AccessControlUnauthorizedAccount}."
        }
      ],
      "AccessControlUnauthorizedAccount(address,bytes32)": [
        {
          "details": "The `account` is missing a role."
        }
      ]
    },
    "events": {
      "RoleAdminChanged(bytes32,bytes32,bytes32)": {
        "details": "Emitted when `newAdminRole` is set as ``role``'s admin role, replacing `previousAdminRole` `DEFAULT_ADMIN_ROLE` is the starting admin for all roles, despite {RoleAdminChanged} not being emitted signaling this."
      },
      "RoleGranted(bytes32,address,address)": {
        "details": "Emitted when `account` is granted `role`. `sender` is the account that originated the contract call. This account bears the admin role (for the granted role). Expected in cases where the role was granted using the internal {AccessControl-_grantRole}."
      },
      "RoleRevoked(bytes32,address,address)": {
        "details": "Emitted when `account` is revoked `role`. `sender` is the account that originated the contract call:   - if using `revokeRole`, it is the admin role bearer   - if using `renounceRole`, it is the role bearer (i.e. `account`)"
      }
    },
    "kind": "dev",
    "methods": {
      "getRoleAdmin(bytes32)": {
        "details": "Returns the admin role that controls `role`. See {grantRole} and {revokeRole}. To change a role's admin, use {_setRoleAdmin}."
      },
      "grantRole(bytes32,address)": {
        "details": "Grants `role` to `account`. If `account` had not been already granted `role`, emits a {RoleGranted} event. Requirements: - the caller must have ``role``'s admin role. May emit a {RoleGranted} event."
      },
      "hasRole(bytes32,address)": {
        "details": "Returns `true` if `account` has been granted `role`."
      },
      "renounceRole(bytes32,address)": {
        "details": "Revokes `role` from the calling account. Roles are often managed via {grantRole} and {revokeRole}: this function's purpose is to provide a mechanism for accounts to lose their privileges if they are compromised (such as when a trusted device is misplaced). If the calling account had been revoked `role`, emits a {RoleRevoked} event. Requirements: - the caller must be `callerConfirmation`. May emit a {RoleRevoked} event."
      },
      "revokeRole(bytes32,address)": {
        "details": "Revokes `role` from `account`. If `account` had been granted `role`, emits a {RoleRevoked} event. Requirements: - the caller must have ``role``'s admin role. May emit a {RoleRevoked} event."
      },
      "supportsInterface(bytes4)": {
        "details": "See {IERC165-supportsInterface}."
      }
    },
    "version": 1
  },
  "userdoc": {
    "kind": "user",
    "methods": {},
    "version": 1
  }
}