{
  "contractName": "Organizer_manager",
  "abi": [
    {
      "inputs": [],
      "stateMutability": "nonpayable",
      "type": "constructor"
    },
    {
      "inputs": [],
      "name": "AccessControlBadConfirmation",
      "type": "error"
    },
    {
      "inputs": [
        {
          "internalType": "address",
          "name": "account",
          "type": "address"
        },
        {
          "internalType": "bytes32",
          "name": "neededRole",
          "type": "bytes32"
        }
      ],
      "name": "AccessControlUnauthorizedAccount",
      "type": "error"
    },
    {
      "anonymous": false,
      "inputs": [
        {
          "indexed": true,
          "internalType": "address",
          "name": "organizer",
          "type": "address"
        },
        {
          "indexed": false,
          "internalType": "address",
          "name": "nftContract",
          "type": "address"
        }
      ],
      "name": "OrganizationCreated",
      "type": "event"
    },
    {
      "anonymous": false,
      "inputs": [
        {
          "indexed": true,
          "internalType": "bytes32",
          "name": "role",
          "type": "bytes32"
        },
        {
          "indexed": true,
          "internalType": "bytes32",
          "name": "previousAdminRole",
          "type": "bytes32"
        },
        {
          "indexed": true,
          "internalType": "bytes32",
          "name": "newAdminRole",
          "type": "bytes32"
        }
      ],
      "name": "RoleAdminChanged",
      "type": "event"
    },
    {
      "anonymous": false,
      "inputs": [
        {
          "indexed": true,
          "internalType": "bytes32",
          "name": "role",
          "type": "bytes32"
        },
        {
          "indexed": true,
          "internalType": "address",
          "name": "account",
          "type": "address"
        },
        {
          "indexed": true,
          "internalType": "address",
          "name": "sender",
          "type": "address"
        }
      ],
      "name": "RoleGranted",
      "type": "event"
    },
    {
      "anonymous": false,
      "inputs": [
        {
          "indexed": true,
          "internalType": "bytes32",
          "name": "role",
          "type": "bytes32"
        },
        {
          "indexed": true,
          "internalType": "address",
          "name": "account",
          "type": "address"
        },
        {
          "indexed": true,
          "internalType": "address",
          "name": "sender",
          "type": "address"
        }
      ],
      "name": "RoleRevoked",
      "type": "event"
    },
    {
      "inputs": [],
      "name": "DEFAULT_ADMIN_ROLE",
      "outputs": [
        {
          "internalType": "bytes32",
          "name": "",
          "type": "bytes32"
        }
      ],
      "stateMutability": "view",
      "type": "function"
    },
    {
      "inputs": [
        {
          "internalType": "bytes32",
          "name": "role",
          "type": "bytes32"
        }
      ],
      "name": "getRoleAdmin",
      "outputs": [
        {
          "internalType": "bytes32",
          "name": "",
          "type": "bytes32"
        }
      ],
      "stateMutability": "view",
      "type": "function"
    },
    {
      "inputs": [
        {
          "internalType": "bytes32",
          "name": "role",
          "type": "bytes32"
        },
        {
          "internalType": "address",
          "name": "account",
          "type": "address"
        }
      ],
      "name": "grantRole",
      "outputs": [],
      "stateMutability": "nonpayable",
      "type": "function"
    },
    {
      "inputs": [
        {
          "internalType": "bytes32",
          "name": "role",
          "type": "bytes32"
        },
        {
          "internalType": "address",
          "name": "account",
          "type": "address"
        }
      ],
      "name": "hasRole",
      "outputs": [
        {
          "internalType": "bool",
          "name": "",
          "type": "bool"
        }
      ],
      "stateMutability": "view",
      "type": "function"
    },
    {
      "inputs": [],
      "name": "nextNFTId",
      "outputs": [
        {
          "internalType": "uint256",
          "name": "",
          "type": "uint256"
        }
      ],
      "stateMutability": "view",
      "type": "function"
    },
    {
      "inputs": [
        {
          "internalType": "address",
          "name": "",
          "type": "address"
        }
      ],
      "name": "organization_NFT",
      "outputs": [
        {
          "internalType": "address",
          "name": "",
          "type": "address"
        }
      ],
      "stateMutability": "view",
      "type": "function"
    },
    {
      "inputs": [
        {
          "internalType": "uint256",
          "name": "",
          "type": "uint256"
        }
      ],
      "name": "organizations",
      "outputs": [
        {
          "internalType": "address",
          "name": "",
          "type": "address"
        }
      ],
      "stateMutability": "view",
      "type": "function"
    },
    {
      "inputs": [
        {
          "internalType": "bytes32",
          "name": "role",
          "type": "bytes32"
        },
        {
          "internalType": "address",
          "name": "callerConfirmation",
          "type": "address"
        }
      ],
      "name": "renounceRole",
      "outputs": [],
      "stateMutability": "nonpayable",
      "type": "function"
    },
    {
      "inputs": [
        {
          "internalType": "bytes32",
          "name": "role",
          "type": "bytes32"
        },
        {
          "internalType": "address",
          "name": "account",
          "type": "address"
        }
      ],
      "name": "revokeRole",
      "outputs": [],
      "stateMutability": "nonpayable",
      "type": "function"
    },
    {
      "inputs": [
        {
          "internalType": "bytes4",
          "name": "interfaceId",
          "type": "bytes4"
        }
      ],
      "name": "supportsInterface",
      "outputs": [
        {
          "internalType": "bool",
          "name": "",
          "type": "bool"
        }
      ],
      "stateMutability": "view",
      "type": "function"
    },
    {
      "inputs": [
        {
          "internalType": "string",
          "name": "_name",
          "type": "string"
        },
        {
          "internalType": "address",
          "name": "_organizer_address",
          "type": "address"
        }
      ],
      "name": "create_organization",
      "outputs": [],
      "stateMutability": "nonpayable",
      "type": "function"
    },
    {
      "inputs": [
        {
          "internalType": "address",
          "name": "_organizer_address",
          "type": "address"
        }
      ],
      "name": "getTicketNFT",
      "outputs": [
        {
          "internalType": "address",
          "name": "",
          "type": "address"
        }
      ],
      "stateMutability": "view",
      "type": "function"
    },
    {
      "inputs": [
        {
          "internalType": "address",
          "name": "_organizer",
          "type": "address"
        }
      ],
      "name": "getOrganizerNFT",
      "outputs": [
        {
          "internalType": "address",
          "name": "",
          "type": "address"
        }
      ],
      "stateMutability": "view",
      "type": "function"
    },
    {
      "inputs": [
        {
          "internalType": "uint256",
          "name": "_id",
          "type": "uint256"
        }
      ],
      "name": "getOrganizationAddress",
      "outputs": [
        {
          "internalType": "address",
          "name": "",
          "type": "address"
        }
      ],
      "stateMutability": "view",
      "type": "function"
    }
  ],
  "bytecode": "0x608060405234801561001057600080fd5b5061001c600033610022565b506100ce565b6000828152602081815260408083206001600160a01b038516845290915281205460ff166100c4576000838152602081815260408083206001600160a01b03861684529091529020805460ff1916600117905561007c3390565b6001600160a01b0316826001600160a01b0316847f2f8788117e7eff1d82e926ec794901d17c78024a50270940304540a733656f0d60405160405180910390a45060016100c8565b5060005b92915050565b614bad806100dd6000396000f3fe60806040523480156200001157600080fd5b5060043610620000fd5760003560e01c806364b7f4961162000097578063a953a604116200006e578063a953a604146200012e578063c909adc0146200026a578063d547741f1462000274578063e792dd8a146200028b57600080fd5b806364b7f496146200021e57806391d14854146200024a578063a217fddf146200026157600080fd5b8063248a9ca311620000d8578063248a9ca3146200018f5780632f2ff15d14620001c457806336568abe14620001db5780635e6c0b9c14620001f257600080fd5b806301ffc9a7146200010257806310cb4b86146200012e578063180571961462000176575b600080fd5b620001196200011336600462000695565b620002b7565b60405190151581526020015b60405180910390f35b6200015d6200013f366004620006e5565b6001600160a01b039081166000908152600260205260409020541690565b6040516001600160a01b03909116815260200162000125565b6200018d6200018736600462000719565b620002ef565b005b620001b5620001a0366004620007e7565b60009081526020819052604090206001015490565b60405190815260200162000125565b6200018d620001d536600462000801565b62000474565b6200018d620001ec36600462000801565b620004a3565b6200015d62000203366004620006e5565b6002602052600090815260409020546001600160a01b031681565b6200015d6200022f366004620007e7565b6000908152600360205260409020546001600160a01b031690565b620001196200025b36600462000801565b620004de565b620001b5600081565b620001b560015481565b6200018d6200028536600462000801565b62000507565b6200015d6200029c366004620007e7565b6003602052600090815260409020546001600160a01b031681565b60006001600160e01b03198216637965db0b60e01b1480620002e957506301ffc9a760e01b6001600160e01b03198316145b92915050565b6000620002fc8162000530565b6001600160a01b0382166200036d5760405162461bcd60e51b815260206004820152602c60248201527f4f7267616e697a657220616464726573732063616e6e6f74206265207468652060448201526b7a65726f206164647265737360a01b60648201526084015b60405180910390fd5b6001600160a01b0382811660009081526002602052604090205416156200039357600080fd5b60008383604051620003a59062000687565b620003b292919062000827565b604051809103906000f080158015620003cf573d6000803e3d6000fd5b506001600160a01b03808516600081815260026020908152604080832080549587166001600160a01b0319968716179055600180548452600390925282208054909416909217909255805492935090620004298362000889565b90915550506040516001600160a01b0382811682528416907f2725ca0bb6f842da395a595005373aaa8e052b21133359b3c75f59a1247e6e7a9060200160405180910390a250505050565b600082815260208190526040902060010154620004918162000530565b6200049d83836200053f565b50505050565b6001600160a01b0381163314620004cd5760405163334bd91960e11b815260040160405180910390fd5b620004d98282620005d7565b505050565b6000918252602082815260408084206001600160a01b0393909316845291905290205460ff1690565b600082815260208190526040902060010154620005248162000530565b6200049d8383620005d7565b6200053c813362000646565b50565b60006200054d8383620004de565b620005ce576000838152602081815260408083206001600160a01b03861684529091529020805460ff19166001179055620005853390565b6001600160a01b0316826001600160a01b0316847f2f8788117e7eff1d82e926ec794901d17c78024a50270940304540a733656f0d60405160405180910390a4506001620002e9565b506000620002e9565b6000620005e58383620004de565b15620005ce576000838152602081815260408083206001600160a01b0386168085529252808320805460ff1916905551339286917ff6391f5c32d9c69d2a47ea670b442974b53935d1edc7fd64eb21e047a839171b9190a4506001620002e9565b620006528282620004de565b620006835760405163e2517d3f60e01b81526001600160a01b03821660048201526024810183905260440162000364565b5050565b6142c680620008b283390190565b600060208284031215620006a857600080fd5b81356001600160e01b031981168114620006c157600080fd5b9392505050565b80356001600160a01b0381168114620006e057600080fd5b919050565b600060208284031215620006f857600080fd5b620006c182620006c8565b634e487b7160e01b600052604160045260246000fd5b600080604083850312156200072d57600080fd5b823567ffffffffffffffff808211156200074657600080fd5b818501915085601f8301126200075b57600080fd5b81358181111562000770576200077062000703565b604051601f8201601f19908116603f011681019083821181831017156200079b576200079b62000703565b81604052828152886020848701011115620007b557600080fd5b826020860160208301376000602084830101528096505050505050620007de60208401620006c8565b90509250929050565b600060208284031215620007fa57600080fd5b5035919050565b600080604083850312156200081557600080fd5b82359150620007de60208401620006c8565b604081526000835180604084015260005b8181101562000857576020818701810151606086840101520162000838565b50600060608285018101919091526001600160a01b03949094166020840152601f01601f191690910190910192915050565b600060018201620008aa57634e487b7160e01b600052601160045260246000fd5b506001019056fe60806040523480156200001157600080fd5b50604051620042c6380380620042c6833981016040819052620000349162000217565b6040805160208101909152600081526200004e81620000d8565b506200005c600032620000ea565b50620000897f4d2e7a1e3f5dd6e203f087b15756ccf0e4ccd947fe1b639a38540089a1e47f6382620000ea565b50620000a5600080516020620042a683398151915282620000ea565b50620000c1600080516020620042a68339815191528062000199565b600c620000cf83826200038e565b5050506200045a565b6003620000e682826200038e565b5050565b6000828152602081815260408083206001600160a01b038516845290915281205460ff166200018f576000838152602081815260408083206001600160a01b03861684529091529020805460ff19166001179055620001463390565b6001600160a01b0316826001600160a01b0316847f2f8788117e7eff1d82e926ec794901d17c78024a50270940304540a733656f0d60405160405180910390a450600162000193565b5060005b92915050565b600082815260208190526040808220600101805490849055905190918391839186917fbd79b86ffe0ab8e8776151514217cd7cacd52c909f66475c3af44e129f0b00ff9190a4505050565b634e487b7160e01b600052604160045260246000fd5b80516001600160a01b03811681146200021257600080fd5b919050565b600080604083850312156200022b57600080fd5b82516001600160401b03808211156200024357600080fd5b818501915085601f8301126200025857600080fd5b8151818111156200026d576200026d620001e4565b604051601f8201601f19908116603f01168101908382118183101715620002985762000298620001e4565b81604052828152602093508884848701011115620002b557600080fd5b600091505b82821015620002d95784820184015181830185015290830190620002ba565b6000848483010152809650505050620002f4818601620001fa565b925050509250929050565b600181811c908216806200031457607f821691505b6020821081036200033557634e487b7160e01b600052602260045260246000fd5b50919050565b601f8211156200038957600081815260208120601f850160051c81016020861015620003645750805b601f850160051c820191505b81811015620003855782815560010162000370565b5050505b505050565b81516001600160401b03811115620003aa57620003aa620001e4565b620003c281620003bb8454620002ff565b846200033b565b602080601f831160018114620003fa5760008415620003e15750858301515b600019600386901b1c1916600185901b17855562000385565b600085815260208120601f198616915b828110156200042b578886015182559484019460019091019084016200040a565b50858210156200044a5787850151600019600388901b60f8161c191681555b5050505050600190811b01905550565b613e3c806200046a6000396000f3fe608060405234801561001057600080fd5b50600436106102945760003560e01c806371be2e4a11610167578063bc79ddcb116100ce578063e426bfef11610087578063e426bfef14610641578063e4725f0214610654578063e985e9c514610667578063ec38d5a01461067a578063f242432a1461069e578063f70778fa146106b157600080fd5b8063bc79ddcb146105cc578063bd85b039146105df578063c28aeb77146105ff578063cfbd900f14610612578063d547741f1461061b578063db8aa9881461062e57600080fd5b806391d148541161012057806391d14854146105535780639a4d438514610566578063a217fddf14610579578063a22cb46514610581578063a460b81714610594578063b51aef04146105a757600080fd5b806371be2e4a146104cd57806375b238fc146104d65780637909cb59146104fd5780637dc379fa146105125780638be8a775146105255780638f23b3261461054a57600080fd5b80632eb2c2d61161020b5780634c66a073116101c45780634c66a073146104365780634e1273f41461043e5780634f558e791461045e57806350b447121461048057806352def180146104a757806365bf60e0146104ba57600080fd5b80632eb2c2d6146103c45780632f2ff15d146103d757806336568abe146103ea57806344508ad0146103fd57806344ade56d146104105780634ae855cf1461042357600080fd5b80630e89341c1161025d5780630e89341c1461032d578063118757f81461034d57806315e472dd1461036657806318160ddd146103795780631c80964514610381578063248a9ca3146103a157600080fd5b8062fdd58e1461029957806301ffc9a7146102bf5780630b791430146102e25780630c08b30d146103055780630e5310761461031a575b600080fd5b6102ac6102a7366004613068565b6106c4565b6040519081526020015b60405180910390f35b6102d26102cd3660046130a8565b6106ee565b60405190151581526020016102b6565b6102f56102f03660046130cc565b6106f9565b6040516102b69493929190613135565b6103186103133660046132a4565b6107aa565b005b610318610328366004613378565b610899565b61034061033b3660046130cc565b610936565b6040516102b691906133ce565b6103556109ca565b6040516102b695949392919061341c565b6103186103743660046134cb565b610d14565b6005546102ac565b61039461038f3660046134f7565b610efe565b6040516102b69190613551565b6102ac6103af3660046130cc565b60009081526020819052604090206001015490565b6103186103d2366004613613565b611157565b6103186103e53660046136bc565b6111be565b6103186103f83660046136bc565b6111e3565b61031861040b3660046134f7565b61121b565b61031861041e3660046136e8565b6114c1565b6102ac6104313660046134f7565b611507565b610340611538565b61045161044c366004613703565b6115c6565b6040516102b691906137c2565b6102d261046c3660046130cc565b600090815260046020526040902054151590565b61049361048e3660046130cc565b611692565b6040516102b69897969594939291906137d5565b6103186104b536600461382a565b611763565b6103186104c83660046130cc565b6118e2565b6102ac60065481565b6102ac7fa49807205ce4d355092ef5a8a18f56e8913cf4a201fbe287825b095693c2177581565b6102ac600080516020613de783398151915281565b6104936105203660046130cc565b611958565b6105386105333660046134f7565b611a57565b6040516102b696959493929190613896565b6102ac60085481565b6102d26105613660046136bc565b611cf4565b6103186105743660046138ee565b611d1d565b6102ac600081565b61031861058f366004613932565b611d81565b6103186105a236600461396e565b611d8c565b6102d26105b53660046130cc565b6000908152600a6020526040902060030154151590565b6104516105da3660046130cc565b611ec2565b6102ac6105ed3660046130cc565b60009081526004602052604090205490565b61031861060d36600461382a565b611f23565b6102ac60075481565b6103186106293660046136bc565b611fb1565b6102ac61063c3660046138ee565b611fd6565b61031861064f3660046130cc565b612009565b6103186106623660046136e8565b612114565b6102d2610675366004613997565b612156565b61068d6106883660046130cc565b612184565b6040516102b69594939291906139c1565b6103186106ac3660046139f7565b61229d565b6103186106bf3660046134f7565b6122fc565b60008181526001602090815260408083206001600160a01b03861684529091529020545b92915050565b60006106e8826126df565b6009602052600090815260409020805460018201805491929161071b90613a5b565b80601f016020809104026020016040519081016040528092919081815260200182805461074790613a5b565b80156107945780601f1061076957610100808354040283529160200191610794565b820191906000526020600020905b81548152906001019060200180831161077757829003601f168201915b5050505050908060020154908060040154905084565b600080516020613de78339815191526107c28161271f565b81518351146108185760405162461bcd60e51b815260206004820152601760248201527f4d69736d61746368656420696e7075742061727261797300000000000000000060448201526064015b60405180910390fd5b60005b8351811015610893576000600a600086848151811061083c5761083c613a95565b60200260200101518152602001908152602001600020905083828151811061086657610866613a95565b602002602001015181600601908161087e9190613af1565b5050808061088b90613bc6565b91505061081b565b50505050565b600080516020613de78339815191526108b18161271f565b60008581526009602052604081206001810180549192916108d190613a5b565b9050116108dd57600080fd5b6004810180549060006108ef83613bc6565b90915550506004810154600081815260038301602052604090209081556001810161091a8782613af1565b5060028101859055600381019490945550506004909101555050565b60606003805461094590613a5b565b80601f016020809104026020016040519081016040528092919081815260200182805461097190613a5b565b80156109be5780601f10610993576101008083540402835291602001916109be565b820191906000526020600020905b8154815290600101906020018083116109a157829003601f168201915b50505050509050919050565b60608060608060606006546001600160401b038111156109ec576109ec613161565b604051908082528060200260200182016040528015610a15578160200160208202803683370190505b5094506006546001600160401b03811115610a3257610a32613161565b604051908082528060200260200182016040528015610a6557816020015b6060815260200190600190039081610a505790505b5093506006546001600160401b03811115610a8257610a82613161565b604051908082528060200260200182016040528015610aab578160200160208202803683370190505b5092506006546001600160401b03811115610ac857610ac8613161565b604051908082528060200260200182016040528015610af1578160200160208202803683370190505b5091506006546001600160401b03811115610b0e57610b0e613161565b604051908082528060200260200182016040528015610b37578160200160208202803683370190505b50905060015b6006548111610d0c5760008181526009602052604081209060015b82600401548111610b95576000818152600380850160205260409091200154610b819083613bdf565b915080610b8d81613bc6565b915050610b58565b50815488610ba4600186613bf2565b81518110610bb457610bb4613a95565b602002602001018181525050816001018054610bcf90613a5b565b80601f0160208091040260200160405190810160405280929190818152602001828054610bfb90613a5b565b8015610c485780601f10610c1d57610100808354040283529160200191610c48565b820191906000526020600020905b815481529060010190602001808311610c2b57829003601f168201915b505050505087600185610c5b9190613bf2565b81518110610c6b57610c6b613a95565b6020908102919091010152600282015486610c87600186613bf2565b81518110610c9757610c97613a95565b6020908102919091010152600482015485610cb3600186613bf2565b81518110610cc357610cc3613a95565b60209081029190910101528084610cdb600186613bf2565b81518110610ceb57610ceb613a95565b60200260200101818152505050508080610d0490613bc6565b915050610b3d565b509091929394565b600080516020613de7833981519152610d2c8161271f565b60008211610d7c5760405162461bcd60e51b815260206004820152601c60248201527f5072696365206d7573742062652067726561746572207468616e203000000000604482015260640161080f565b6000848152600960209081526040808320868452600390810190925290912090810154610ddb5760405162461bcd60e51b815260206004820152600d60248201526c139bc81cd9585d1cc81b19599d609a1b604482015260640161080f565b60078054906000610deb83613bc6565b90915550506007546000818152600a60205260409020818155600181018790556002810186905560058101805460ff1916905560048101859055600c8054610ebb9190610e3790613a5b565b80601f0160208091040260200160405190810160405280929190818152602001828054610e6390613a5b565b8015610eb05780601f10610e8557610100808354040283529160200191610eb0565b820191906000526020600020905b815481529060010190602001808311610e9357829003601f168201915b505050505083611fd6565b6007820155600383018054906000610ed283613c05565b9190505550610ef53360075460016040518060200160405280600081525061272c565b50505050505050565b6060600754821115610f405760405162461bcd60e51b815260206004820152600b60248201526a125b9d985b1a5908195b9960aa1b604482015260640161080f565b82821015610f855760405162461bcd60e51b8152602060048201526012602482015271496e76616c696420706172616d657465727360701b604482015260640161080f565b6000610f918484613bf2565b6001600160401b03811115610fa857610fa8613161565b604051908082528060200260200182016040528015610fe157816020015b610fce612ff6565b815260200190600190039081610fc65790505b509050835b8381101561114f57600a60008281526020019081526020016000206040518061010001604052908160008201548152602001600182015481526020016002820154815260200160038201548152602001600482015481526020016005820160009054906101000a900460ff16600381111561106357611063613519565b600381111561107457611074613519565b815260200160068201805461108890613a5b565b80601f01602080910402602001604051908101604052809291908181526020018280546110b490613a5b565b80156111015780601f106110d657610100808354040283529160200191611101565b820191906000526020600020905b8154815290600101906020018083116110e457829003601f168201915b505050505081526020016007820154815250508286836111219190613bf2565b8151811061113157611131613a95565b6020026020010181905250808061114790613bc6565b915050610fe6565b509392505050565b336001600160a01b038616811480159061117857506111768682612156565b155b156111a95760405163711bec9160e11b81526001600160a01b0380831660048301528716602482015260440161080f565b6111b68686868686612789565b505050505050565b6000828152602081905260409020600101546111d98161271f565b61089383836127f0565b6001600160a01b038116331461120c5760405163334bd91960e11b815260040160405180910390fd5b6112168282612882565b505050565b6000828152600b602052604090205461126d5760405162461bcd60e51b8152602060048201526014602482015273496c2067727570706f206e6f6e2065736973746560601b604482015260640161080f565b600061127933836106c4565b116112965760405162461bcd60e51b815260040161080f90613c1c565b6000818152600a602052604090206003015482146113075760405162461bcd60e51b815260206004820152602860248201527f496c207469636b6574206e6f6e2061707061727469656e6520612071756573746044820152676f2067727570706f60c01b606482015260840161080f565b6000818152600a6020526040812060030181905580805b6000858152600b60205260409020548110156113cc5760408051602081018690520160408051601f1981840301815291815281516020928301206000888152600b909352912080548390811061137657611376613a95565b906000526020600020015460405160200161139391815260200190565b60405160208183030381529060405280519060200120036113ba57809250600191506113cc565b806113c481613bc6565b91505061131e565b508061141a5760405162461bcd60e51b815260206004820152601d60248201527f5469636b6574206e6f6e2074726f7661746f206e656c2067727570706f000000604482015260640161080f565b6000848152600b60205260409020805461143690600190613bf2565b8154811061144657611446613a95565b9060005260206000200154600b6000868152602001908152602001600020838154811061147557611475613a95565b9060005260206000200181905550600b60008581526020019081526020016000208054806114a5576114a5613c4a565b6001900381819060005260206000200160009055905550505050565b7fa49807205ce4d355092ef5a8a18f56e8913cf4a201fbe287825b095693c217756114eb8161271f565b611503600080516020613de783398151915283611fb1565b5050565b600b602052816000526040600020818154811061152357600080fd5b90600052602060002001600091509150505481565b600c805461154590613a5b565b80601f016020809104026020016040519081016040528092919081815260200182805461157190613a5b565b80156115be5780601f10611593576101008083540402835291602001916115be565b820191906000526020600020905b8154815290600101906020018083116115a157829003601f168201915b505050505081565b606081518351146115f75781518351604051635b05999160e01b81526004810192909252602482015260440161080f565b600083516001600160401b0381111561161257611612613161565b60405190808252806020026020018201604052801561163b578160200160208202803683370190505b50905060005b845181101561114f57602080820286010151611665906020808402870101516106c4565b82828151811061167757611677613a95565b602090810291909101015261168b81613bc6565b9050611641565b600a6020526000908152604090208054600182015460028301546003840154600485015460058601546006870180549697959694959394929360ff909216926116da90613a5b565b80601f016020809104026020016040519081016040528092919081815260200182805461170690613a5b565b80156117535780601f1061172857610100808354040283529160200191611753565b820191906000526020600020905b81548152906001019060200180831161173657829003601f168201915b5050505050908060070154905088565b600080516020613de783398151915261177b8161271f565b6000848152600a602052604090206002600582015460ff1660038111156117a4576117a4613519565b036117f15760405162461bcd60e51b815260206004820152601860248201527f5469636b657420616c72656164792076616c6964617465640000000000000000604482015260640161080f565b6003600582015460ff16600381111561180c5761180c613519565b0361184b5760405162461bcd60e51b815260206004820152600f60248201526e5469636b657420657870697265642160881b604482015260640161080f565b60006118788585604051602001611863929190613c60565b60405160208183030381529060405287611fd6565b9050808260070154146118cd5760405162461bcd60e51b815260206004820152601b60248201527f5469636b65742068617320646966666572656e74206f776e6572210000000000604482015260640161080f565b50600501805460ff1916600217905550505050565b60006118ee33836106c4565b1161190b5760405162461bcd60e51b815260040161080f90613c1c565b600060086000815461191c90613bc6565b91829055506000838152600a60209081526040808320600301849055928252600b81529181208054600181018255908252919020019190915550565b6000806000806000806060600080600a60008b81526020019081526020016000209050806000015481600101548260020154836003015484600401548560050160009054906101000a900460ff168660060187600701548180546119bb90613a5b565b80601f01602080910402602001604051908101604052809291908181526020018280546119e790613a5b565b8015611a345780601f10611a0957610100808354040283529160200191611a34565b820191906000526020600020905b815481529060010190602001808311611a1757829003601f168201915b505050505091509850985098509850985098509850985050919395975091939597565b60008281526009602090815260408083208484526003019091528120606090829081908390819083805b600754811015611ae0576000818152600a60205260409020600101548b148015611abb57506000818152600a60205260409020600201548a145b15611ace5781611aca81613bc6565b9250505b80611ad881613bc6565b915050611a81565b5060006007546001600160401b03811115611afd57611afd613161565b604051908082528060200260200182016040528015611b26578160200160208202803683370190505b50905060006007546001600160401b03811115611b4557611b45613161565b604051908082528060200260200182016040528015611b6e578160200160208202803683370190505b5090506000805b600754811015611c37576000818152600a60205260409020600101548e148015611baf57506000818152600a60205260409020600201548d145b15611c25576000818152600a60205260409020548451859084908110611bd757611bd7613a95565b602002602001018181525050600a600082815260200190815260200160002060030154838381518110611c0c57611c0c613a95565b602090810291909101015281611c2181613bc6565b9250505b80611c2f81613bc6565b915050611b75565b50846000015485600101866002015487600301548686848054611c5990613a5b565b80601f0160208091040260200160405190810160405280929190818152602001828054611c8590613a5b565b8015611cd25780601f10611ca757610100808354040283529160200191611cd2565b820191906000526020600020905b815481529060010190602001808311611cb557829003601f168201915b505050505094509a509a509a509a509a509a5050505050509295509295509295565b6000918252602082815260408084206001600160a01b0393909316845291905290205460ff1690565b600080516020613de7833981519152611d358161271f565b60068054906000611d4583613bc6565b9091555050600654600081815260096020526040902090815560018101611d6c8582613af1565b50600281019290925550600060049091015550565b6115033383836128ed565b6000828152600a602052604090206002826003811115611dae57611dae613519565b1480611dcb57506000826003811115611dc957611dc9613519565b145b8015611e1157506001600582015460ff166003811115611ded57611ded613519565b1480611e1157506000600582015460ff166003811115611e0f57611e0f613519565b145b15611e6357611e2e600080516020613de783398151915233611cf4565b80611e4257506000611e4033856106c4565b115b611e5e5760405162461bcd60e51b815260040161080f90613c9c565b611e97565b611e7b600080516020613de783398151915233611cf4565b611e975760405162461bcd60e51b815260040161080f90613c9c565b60058101805483919060ff19166001836003811115611eb857611eb8613519565b0217905550505050565b6000818152600b60209081526040918290208054835181840281018401909452808452606093928301828280156109be57602002820191906000526020600020905b815481526020019060010190808311611f045750505050509050919050565b611f3b600080516020613de783398151915233611cf4565b80611f4f57506000611f4d33856106c4565b115b611f6b5760405162461bcd60e51b815260040161080f90613c1c565b6000838152600a60209081526040918290209151611fa691611f91918691869101613c60565b60405160208183030381529060405285611fd6565b600790910155505050565b600082815260208190526040902060010154611fcc8161271f565b6108938383612882565b60008282604051602001611feb929190613ce2565b60405160208183030381529060405280519060200120905092915050565b600080516020613de78339815191526120218161271f565b6000828152600960205260409020600281015442116120825760405162461bcd60e51b815260206004820152601a60248201527f4576656e7420686173206e6f7420796574206f63637572726564000000000000604482015260640161080f565b60015b6007548111610893576000818152600a602052604090206001810154851480156120ec57506003600582015460ff1660038111156120c5576120c5613519565b141580156120ec57506002600582015460ff1660038111156120e9576120e9613519565b14155b156121015760058101805460ff191660031790555b508061210c81613bc6565b915050612085565b7fa49807205ce4d355092ef5a8a18f56e8913cf4a201fbe287825b095693c2177561213e8161271f565b611216600080516020613de7833981519152836127f0565b6001600160a01b03918216600090815260026020908152604080832093909416825291909152205460ff1690565b600081815260096020526040812060609082908190819081805b60048301546121ae906001613bdf565b8110156121e75760008181526003808501602052604090912001546121d39083613bdf565b9150806121df81613bc6565b91505061219e565b50816000015482600101836002015484600401548483805461220890613a5b565b80601f016020809104026020016040519081016040528092919081815260200182805461223490613a5b565b80156122815780601f1061225657610100808354040283529160200191612281565b820191906000526020600020905b81548152906001019060200180831161226457829003601f168201915b5050505050935096509650965096509650505091939590929450565b336001600160a01b03861681148015906122be57506122bc8682612156565b155b156122ef5760405163711bec9160e11b81526001600160a01b0380831660048301528716602482015260440161080f565b6111b68686868686612983565b6000828152600b60205260409020546123575760405162461bcd60e51b815260206004820152601860248201527f5468652067726f757020646f6573206e6f742065786973740000000000000000604482015260640161080f565b6000805b6000848152600b60205260409020548110156123e25760006123c133600a6000600b60008a8152602001908152602001600020868154811061239f5761239f613a95565b90600052602060002001548152602001908152602001600020600001546106c4565b11156123d057600191506123e2565b806123da81613bc6565b91505061235b565b50806124475760405162461bcd60e51b815260206004820152602e60248201527f596f75206d75737420626520612067726f7570206d656d62657220746f20616460448201526d64207061727469636970616e747360901b606482015260840161080f565b60016000838152600a602052604090206005015460ff16600381111561246f5761246f613519565b146124bc5760405162461bcd60e51b815260206004820152601960248201527f546865207469636b6574206973206e6f7420274f776e65642700000000000000604482015260640161080f565b6000828152600a60205260409020600301541561252d5760405162461bcd60e51b815260206004820152602960248201527f546865207469636b657420697320616c72656164792061737369676e6564207460448201526806f20612067726f75760bc1b606482015260840161080f565b6000838152600b602052604081208054600a918391829061255057612550613a95565b906000526020600020015481526020019081526020016000206001015490506000600a6000600b600088815260200190815260200160002060008154811061259a5761259a613a95565b9060005260206000200154815260200190815260200160002060020154905081600a600086815260200190815260200160002060010154146126325760405162461bcd60e51b815260206004820152602b60248201527f546865207469636b657420646f6573206e6f74206d617463682074686520677260448201526a1bdd5c09dcc8195d995b9d60aa1b606482015260840161080f565b6000848152600a602052604090206002015481146126a75760405162461bcd60e51b815260206004820152602c60248201527f546865207469636b657420646f6573206e6f74206d617463682074686520677260448201526b37bab813b99039b2b1ba37b960a11b606482015260840161080f565b5050506000818152600a60209081526040808320600301859055938252600b8152928120805460018101825590825292902090910155565b60006001600160e01b03198216636cdb3d1360e11b148061271057506001600160e01b031982166303a24d0760e21b145b806106e857506106e882612a08565b6127298133612a3d565b50565b6001600160a01b03841661275657604051632bfa23e760e11b81526000600482015260240161080f565b604080516001808252602082018690528183019081526060820185905260808201909252906111b6600087848487612a76565b6001600160a01b0384166127b357604051632bfa23e760e11b81526000600482015260240161080f565b6001600160a01b0385166127dc57604051626a0d4560e21b81526000600482015260240161080f565b6127e98585858585612a76565b5050505050565b60006127fc8383611cf4565b61287a576000838152602081815260408083206001600160a01b03861684529091529020805460ff191660011790556128323390565b6001600160a01b0316826001600160a01b0316847f2f8788117e7eff1d82e926ec794901d17c78024a50270940304540a733656f0d60405160405180910390a45060016106e8565b5060006106e8565b600061288e8383611cf4565b1561287a576000838152602081815260408083206001600160a01b0386168085529252808320805460ff1916905551339286917ff6391f5c32d9c69d2a47ea670b442974b53935d1edc7fd64eb21e047a839171b9190a45060016106e8565b6001600160a01b0382166129165760405162ced3e160e81b81526000600482015260240161080f565b6001600160a01b03838116600081815260026020908152604080832094871680845294825291829020805460ff191686151590811790915591519182527f17307eab39ab6107e8899845ad3d59bd9653f200f220920489ca2b5937696c31910160405180910390a3505050565b6001600160a01b0384166129ad57604051632bfa23e760e11b81526000600482015260240161080f565b6001600160a01b0385166129d657604051626a0d4560e21b81526000600482015260240161080f565b60408051600180825260208201869052818301908152606082018590526080820190925290610ef58787848487612a76565b60006001600160e01b03198216637965db0b60e01b14806106e857506301ffc9a760e01b6001600160e01b03198316146106e8565b612a478282611cf4565b6115035760405163e2517d3f60e01b81526001600160a01b03821660048201526024810183905260440161080f565b612a8285858585612ac9565b6001600160a01b038416156127e95782513390600103612abb5760208481015190840151612ab4838989858589612bc6565b50506111b6565b6111b6818787878787612cea565b612ad584848484612dd3565b6001600160a01b038416612b5e576000805b8351811015612b445760208181028481018201519086018201516000908152600490925260408220805491928392612b20908490613bdf565b90915550612b3090508184613bdf565b92505080612b3d90613bc6565b9050612ae7565b508060056000828254612b579190613bdf565b9091555050505b6001600160a01b038316610893576000805b8351811015612bb5576020818102848101820151908601820151600090815260049092526040909120805482900390559190910190612bae81613bc6565b9050612b70565b506005805491909103905550505050565b6001600160a01b0384163b156111b65760405163f23a6e6160e01b81526001600160a01b0385169063f23a6e6190612c0a9089908990889088908890600401613d04565b6020604051808303816000875af1925050508015612c45575060408051601f3d908101601f19168201909252612c4291810190613d49565b60015b612cae573d808015612c73576040519150601f19603f3d011682016040523d82523d6000602084013e612c78565b606091505b508051600003612ca657604051632bfa23e760e11b81526001600160a01b038616600482015260240161080f565b805181602001fd5b6001600160e01b0319811663f23a6e6160e01b14610ef557604051632bfa23e760e11b81526001600160a01b038616600482015260240161080f565b6001600160a01b0384163b156111b65760405163bc197c8160e01b81526001600160a01b0385169063bc197c8190612d2e9089908990889088908890600401613d66565b6020604051808303816000875af1925050508015612d69575060408051601f3d908101601f19168201909252612d6691810190613d49565b60015b612d97573d808015612c73576040519150601f19603f3d011682016040523d82523d6000602084013e612c78565b6001600160e01b0319811663bc197c8160e01b14610ef557604051632bfa23e760e11b81526001600160a01b038616600482015260240161080f565b8051825114612e025781518151604051635b05999160e01b81526004810192909252602482015260440161080f565b3360005b8351811015612f17576020818102858101820151908501909101516001600160a01b03881615612ebd5760008281526001602090815260408083206001600160a01b038c16845290915290205481811015612e94576040516303dee4c560e01b81526001600160a01b038a16600482015260248101829052604481018390526064810184905260840161080f565b60008381526001602090815260408083206001600160a01b038d16845290915290209082900390555b6001600160a01b03871615612f045760008281526001602090815260408083206001600160a01b038b16845290915281208054839290612efe908490613bdf565b90915550505b505080612f1090613bc6565b9050612e06565b508251600103612f985760208301516000906020840151909150856001600160a01b0316876001600160a01b0316846001600160a01b03167fc3d58168c5ae7397731d063d5bbf3d657854427343f4c083240f7aacaa2d0f628585604051612f89929190918252602082015260400190565b60405180910390a450506127e9565b836001600160a01b0316856001600160a01b0316826001600160a01b03167f4a39dc06d4c0dbc64b70af90fd698a233a518aa5d07e595d983b8c0526c8f7fb8686604051612fe7929190613db8565b60405180910390a45050505050565b60405180610100016040528060008152602001600081526020016000815260200160008152602001600081526020016000600381111561303857613038613519565b815260606020820152600060409091015290565b80356001600160a01b038116811461306357600080fd5b919050565b6000806040838503121561307b57600080fd5b6130848361304c565b946020939093013593505050565b6001600160e01b03198116811461272957600080fd5b6000602082840312156130ba57600080fd5b81356130c581613092565b9392505050565b6000602082840312156130de57600080fd5b5035919050565b60005b838110156131005781810151838201526020016130e8565b50506000910152565b600081518084526131218160208601602086016130e5565b601f01601f19169290920160200192915050565b84815260806020820152600061314e6080830186613109565b6040830194909452506060015292915050565b634e487b7160e01b600052604160045260246000fd5b604051601f8201601f191681016001600160401b038111828210171561319f5761319f613161565b604052919050565b60006001600160401b038211156131c0576131c0613161565b5060051b60200190565b600082601f8301126131db57600080fd5b813560206131f06131eb836131a7565b613177565b82815260059290921b8401810191818101908684111561320f57600080fd5b8286015b8481101561322a5780358352918301918301613213565b509695505050505050565b600082601f83011261324657600080fd5b81356001600160401b0381111561325f5761325f613161565b613272601f8201601f1916602001613177565b81815284602083860101111561328757600080fd5b816020850160208301376000918101602001919091529392505050565b600080604083850312156132b757600080fd5b82356001600160401b03808211156132ce57600080fd5b6132da868387016131ca565b93506020915081850135818111156132f157600080fd5b8501601f8101871361330257600080fd5b80356133106131eb826131a7565b81815260059190911b8201840190848101908983111561332f57600080fd5b8584015b838110156133675780358681111561334b5760008081fd5b6133598c8983890101613235565b845250918601918601613333565b508096505050505050509250929050565b6000806000806080858703121561338e57600080fd5b8435935060208501356001600160401b038111156133ab57600080fd5b6133b787828801613235565b949794965050505060408301359260600135919050565b6020815260006130c56020830184613109565b600081518084526020808501945080840160005b83811015613411578151875295820195908201906001016133f5565b509495945050505050565b60a08152600061342f60a08301886133e1565b6020838203818501528188518084528284019150828160051b850101838b0160005b8381101561347f57601f1987840301855261346d838351613109565b94860194925090850190600101613451565b50508681036040880152613493818b6133e1565b94505050505082810360608401526134ab81866133e1565b905082810360808401526134bf81856133e1565b98975050505050505050565b6000806000606084860312156134e057600080fd5b505081359360208301359350604090920135919050565b6000806040838503121561350a57600080fd5b50508035926020909101359150565b634e487b7160e01b600052602160045260246000fd5b6004811061354d57634e487b7160e01b600052602160045260246000fd5b9052565b60006020808301818452808551808352604092508286019150828160051b87010184880160005b8381101561360557888303603f1901855281518051845287810151888501528681015187850152606080820151908501526080808201519085015260a08082015161010091906135ca8288018261352f565b505060c08083015182828801526135e383880182613109565b60e0948501519790940196909652505094870194925090860190600101613578565b509098975050505050505050565b600080600080600060a0868803121561362b57600080fd5b6136348661304c565b94506136426020870161304c565b935060408601356001600160401b038082111561365e57600080fd5b61366a89838a016131ca565b9450606088013591508082111561368057600080fd5b61368c89838a016131ca565b935060808801359150808211156136a257600080fd5b506136af88828901613235565b9150509295509295909350565b600080604083850312156136cf57600080fd5b823591506136df6020840161304c565b90509250929050565b6000602082840312156136fa57600080fd5b6130c58261304c565b6000806040838503121561371657600080fd5b82356001600160401b038082111561372d57600080fd5b818501915085601f83011261374157600080fd5b813560206137516131eb836131a7565b82815260059290921b8401810191818101908984111561377057600080fd5b948201945b83861015613795576137868661304c565b82529482019490820190613775565b965050860135925050808211156137ab57600080fd5b506137b8858286016131ca565b9150509250929050565b6020815260006130c560208301846133e1565b60006101008a835289602084015288604084015287606084015286608084015261380260a084018761352f565b8060c084015261381481840186613109565b9150508260e08301529998505050505050505050565b60008060006060848603121561383f57600080fd5b8335925060208401356001600160401b038082111561385d57600080fd5b61386987838801613235565b9350604086013591508082111561387f57600080fd5b5061388c86828701613235565b9150509250925092565b86815260c0602082015260006138af60c0830188613109565b86604084015285606084015282810360808401526138cd81866133e1565b905082810360a08401526138e181856133e1565b9998505050505050505050565b6000806040838503121561390157600080fd5b82356001600160401b0381111561391757600080fd5b61392385828601613235565b95602094909401359450505050565b6000806040838503121561394557600080fd5b61394e8361304c565b91506020830135801515811461396357600080fd5b809150509250929050565b6000806040838503121561398157600080fd5b8235915060208301356004811061396357600080fd5b600080604083850312156139aa57600080fd5b6139b38361304c565b91506136df6020840161304c565b85815260a0602082015260006139da60a0830187613109565b604083019590955250606081019290925260809091015292915050565b600080600080600060a08688031215613a0f57600080fd5b613a188661304c565b9450613a266020870161304c565b9350604086013592506060860135915060808601356001600160401b03811115613a4f57600080fd5b6136af88828901613235565b600181811c90821680613a6f57607f821691505b602082108103613a8f57634e487b7160e01b600052602260045260246000fd5b50919050565b634e487b7160e01b600052603260045260246000fd5b601f82111561121657600081815260208120601f850160051c81016020861015613ad25750805b601f850160051c820191505b818110156111b657828155600101613ade565b81516001600160401b03811115613b0a57613b0a613161565b613b1e81613b188454613a5b565b84613aab565b602080601f831160018114613b535760008415613b3b5750858301515b600019600386901b1c1916600185901b1785556111b6565b600085815260208120601f198616915b82811015613b8257888601518255948401946001909101908401613b63565b5085821015613ba05787850151600019600388901b60f8161c191681555b5050505050600190811b01905550565b634e487b7160e01b600052601160045260246000fd5b600060018201613bd857613bd8613bb0565b5060010190565b808201808211156106e8576106e8613bb0565b818103818111156106e8576106e8613bb0565b600081613c1457613c14613bb0565b506000190190565b6020808252601490820152732737ba103a3432903a34b1b5b2ba1037bbb732b960611b604082015260600190565b634e487b7160e01b600052603160045260246000fd5b60008351613c728184602088016130e5565b602d60f81b9083019081528351613c908160018401602088016130e5565b01600101949350505050565b60208082526026908201527f4e6f7420617574686f72697a656420746f20757064617465207469636b65742060408201526573746174757360d01b606082015260800190565b60008351613cf48184602088016130e5565b9190910191825250602001919050565b6001600160a01b03868116825285166020820152604081018490526060810183905260a060808201819052600090613d3e90830184613109565b979650505050505050565b600060208284031215613d5b57600080fd5b81516130c581613092565b6001600160a01b0386811682528516602082015260a060408201819052600090613d92908301866133e1565b8281036060840152613da481866133e1565b905082810360808401526134bf8185613109565b604081526000613dcb60408301856133e1565b8281036020840152613ddd81856133e1565b9594505050505056fe4d2e7a1e3f5dd6e203f087b15756ccf0e4ccd947fe1b639a38540089a1e47f63a2646970667358221220272116fbc7ed397ab62d1d757e2ea7406ab25df2e62d87c0939286ae1884ad9364736f6c63430008140033a49807205ce4d355092ef5a8a18f56e8913cf4a201fbe287825b095693c21775a264697066735822122010b79d235e1af8954f79b1658cace8c93009cc496225ee56a7a8f48cafe8d95864736f6c63430008140033",
  "immutableReferences": {},
  "source": "// SPDX-License-Identifier: MIT\r\npragma solidity ^0.8.0;\r\n\r\nimport \"@openzeppelin/contracts/token/ERC1155/extensions/ERC1155Supply.sol\";\r\nimport \"@openzeppelin/contracts/access/AccessControl.sol\";\r\nimport \"./Ticket_NFT.sol\";\r\n\r\n\r\ncontract Organizer_manager is AccessControl{\r\n\r\n\r\n    event OrganizationCreated(address indexed organizer, address nftContract);\r\n\r\n    uint public nextNFTId;\r\n\r\n    mapping (address => address) public organization_NFT;\r\n    mapping (uint => address) public organizations;\r\n\r\n    constructor() {\r\n        _grantRole(DEFAULT_ADMIN_ROLE, msg.sender);\r\n    }\r\n\r\n    //----------------------------Create organization-------------------------------\r\n    function create_organization(string memory _name, address _organizer_address)external onlyRole(DEFAULT_ADMIN_ROLE){\r\n        require(_organizer_address != address(0), \"Organizer address cannot be the zero address\");\r\n        require(organization_NFT[_organizer_address] == address(0));\r\n        Ticket_NFT nft=new Ticket_NFT(_name, _organizer_address);\r\n\r\n        \r\n        organization_NFT[_organizer_address]=address(nft);\r\n        organizations[nextNFTId]=_organizer_address;\r\n        nextNFTId++;\r\n\r\n        emit OrganizationCreated(_organizer_address, address(nft));\r\n    }\r\n\r\n\r\n    function getTicketNFT(address _organizer_address) external view returns (address) {\r\n        return organization_NFT[_organizer_address];\r\n    }\r\n\r\n\r\n    //get the organization NFT given the organizer address\r\n    function getOrganizerNFT(address _organizer) external view returns (address) {\r\n        return organization_NFT[_organizer];\r\n    }\r\n\r\n    //get the organizer adress given the organizer id\r\n    function getOrganizationAddress(uint _id) external view returns (address) {\r\n        return organizations[_id];\r\n    }\r\n\r\n}\r\n\r\n\r\n // to do: funzioni getter vari",
  "sourcePath": "C:\\Users\\eddie\\OneDrive\\Desktop\\Blockchain\\BlockchainTicketsUnitn-main\\truffle\\contracts\\Organizer_manager.sol",
  "compiler": {
    "name": "solc",
    "version": "0.8.20+commit.a1b79de6.Emscripten.clang"
  },
  "schemaVersion": "3.4.16",
  "updatedAt": "2025-01-31T16:15:43.752Z",
  "devdoc": {
    "errors": {
      "AccessControlBadConfirmation()": [
        {
          "details": "The caller of a function is not the expected one. NOTE: Don't confuse with {AccessControlUnauthorizedAccount}."
        }
      ],
      "AccessControlUnauthorizedAccount(address,bytes32)": [
        {
          "details": "The `account` is missing a role."
        }
      ]
    },
    "events": {
      "RoleAdminChanged(bytes32,bytes32,bytes32)": {
        "details": "Emitted when `newAdminRole` is set as ``role``'s admin role, replacing `previousAdminRole` `DEFAULT_ADMIN_ROLE` is the starting admin for all roles, despite {RoleAdminChanged} not being emitted signaling this."
      },
      "RoleGranted(bytes32,address,address)": {
        "details": "Emitted when `account` is granted `role`. `sender` is the account that originated the contract call. This account bears the admin role (for the granted role). Expected in cases where the role was granted using the internal {AccessControl-_grantRole}."
      },
      "RoleRevoked(bytes32,address,address)": {
        "details": "Emitted when `account` is revoked `role`. `sender` is the account that originated the contract call:   - if using `revokeRole`, it is the admin role bearer   - if using `renounceRole`, it is the role bearer (i.e. `account`)"
      }
    },
    "kind": "dev",
    "methods": {
      "getRoleAdmin(bytes32)": {
        "details": "Returns the admin role that controls `role`. See {grantRole} and {revokeRole}. To change a role's admin, use {_setRoleAdmin}."
      },
      "grantRole(bytes32,address)": {
        "details": "Grants `role` to `account`. If `account` had not been already granted `role`, emits a {RoleGranted} event. Requirements: - the caller must have ``role``'s admin role. May emit a {RoleGranted} event."
      },
      "hasRole(bytes32,address)": {
        "details": "Returns `true` if `account` has been granted `role`."
      },
      "renounceRole(bytes32,address)": {
        "details": "Revokes `role` from the calling account. Roles are often managed via {grantRole} and {revokeRole}: this function's purpose is to provide a mechanism for accounts to lose their privileges if they are compromised (such as when a trusted device is misplaced). If the calling account had been revoked `role`, emits a {RoleRevoked} event. Requirements: - the caller must be `callerConfirmation`. May emit a {RoleRevoked} event."
      },
      "revokeRole(bytes32,address)": {
        "details": "Revokes `role` from `account`. If `account` had been granted `role`, emits a {RoleRevoked} event. Requirements: - the caller must have ``role``'s admin role. May emit a {RoleRevoked} event."
      },
      "supportsInterface(bytes4)": {
        "details": "See {IERC165-supportsInterface}."
      }
    },
    "version": 1
  },
  "userdoc": {
    "kind": "user",
    "methods": {},
    "version": 1
  }
}