{
  "contractName": "SimpleWallet",
  "abi": [
    {
      "inputs": [],
      "stateMutability": "nonpayable",
      "type": "constructor"
    },
    {
      "anonymous": false,
      "inputs": [
        {
          "indexed": true,
          "internalType": "address",
          "name": "sender",
          "type": "address"
        },
        {
          "indexed": false,
          "internalType": "uint256",
          "name": "amount",
          "type": "uint256"
        }
      ],
      "name": "Deposit",
      "type": "event"
    },
    {
      "anonymous": false,
      "inputs": [
        {
          "indexed": true,
          "internalType": "address",
          "name": "receiver",
          "type": "address"
        },
        {
          "indexed": false,
          "internalType": "uint256",
          "name": "amount",
          "type": "uint256"
        }
      ],
      "name": "Withdrawal",
      "type": "event"
    },
    {
      "inputs": [],
      "name": "owner",
      "outputs": [
        {
          "internalType": "address",
          "name": "",
          "type": "address"
        }
      ],
      "stateMutability": "view",
      "type": "function"
    },
    {
      "inputs": [],
      "name": "deposit",
      "outputs": [],
      "stateMutability": "payable",
      "type": "function"
    },
    {
      "inputs": [
        {
          "internalType": "uint256",
          "name": "amount",
          "type": "uint256"
        }
      ],
      "name": "withdraw",
      "outputs": [],
      "stateMutability": "nonpayable",
      "type": "function"
    },
    {
      "inputs": [],
      "name": "getBalance",
      "outputs": [
        {
          "internalType": "uint256",
          "name": "",
          "type": "uint256"
        }
      ],
      "stateMutability": "view",
      "type": "function"
    }
  ],
  "bytecode": "0x608060405234801561001057600080fd5b50600080546001600160a01b031916331790556102b3806100326000396000f3fe60806040526004361061003f5760003560e01c806312065fe0146100445780632e1a7d4d146100645780638da5cb5b14610086578063d0e30db0146100be575b600080fd5b34801561005057600080fd5b506040514781526020015b60405180910390f35b34801561007057600080fd5b5061008461007f366004610264565b6100c6565b005b34801561009257600080fd5b506000546100a6906001600160a01b031681565b6040516001600160a01b03909116815260200161005b565b6100846101d1565b6000546001600160a01b031633146101255760405162461bcd60e51b815260206004820152601860248201527f4e6f6e2073656920696c2070726f70726965746172696f21000000000000000060448201526064015b60405180910390fd5b4781111561016b5760405162461bcd60e51b8152602060048201526013602482015272466f6e646920696e73756666696369656e746960681b604482015260640161011c565b604051339082156108fc029083906000818181858888f19350505050158015610198573d6000803e3d6000fd5b5060405181815233907f7fcf532c15f0a6db0bd6d0e038bea71d30d808c7d98cb3bf7268a95bf5081b659060200160405180910390a250565b6000341161022d5760405162461bcd60e51b8152602060048201526024808201527f4465766920696e766961726520756e2076616c6f7265206d616767696f7265206044820152630646920360e41b606482015260840161011c565b60405134815233907fe1fffcc4923d04b559f4d29a8bfc6cda04eb5b0d3c460751c2402c5c5cc9109c9060200160405180910390a2565b60006020828403121561027657600080fd5b503591905056fea26469706673582212207b7e2952c42f9a81ee8fe144dd7bbb29718001210beb6e2048df72e3501c3fa964736f6c63430008140033",
  "immutableReferences": {},
  "source": "// SPDX-License-Identifier: MIT\r\npragma solidity ^0.8.0;\r\n\r\ncontract SimpleWallet {\r\n    address public owner;\r\n\r\n    // Evento per notificare un deposito\r\n    event Deposit(address indexed sender, uint amount);\r\n\r\n    // Evento per notificare un prelievo\r\n    event Withdrawal(address indexed receiver, uint amount);\r\n\r\n    // Modificatore per limitare l'accesso solo al proprietario\r\n    modifier onlyOwner() {\r\n        require(msg.sender == owner, \"Non sei il proprietario!\");\r\n        _;\r\n    }\r\n\r\n    // Costruttore per inizializzare il contratto con l'indirizzo del proprietario\r\n    constructor() {\r\n        owner = msg.sender;\r\n    }\r\n\r\n    // Funzione per depositare fondi nel contratto\r\n    function deposit() public payable {\r\n        require(msg.value > 0, \"Devi inviare un valore maggiore di 0\");\r\n        emit Deposit(msg.sender, msg.value);\r\n    }\r\n\r\n    // Funzione per prelevare fondi (solo il proprietario può farlo)\r\n    function withdraw(uint amount) public onlyOwner {\r\n        require(amount <= address(this).balance, \"Fondi insufficienti\");\r\n        payable(msg.sender).transfer(amount);\r\n        emit Withdrawal(msg.sender, amount);\r\n    }\r\n\r\n    // Funzione per controllare il saldo del contratto\r\n    function getBalance() public view returns (uint) {\r\n        return address(this).balance;\r\n    }\r\n}\r\n",
  "sourcePath": "C:\\Users\\eddie\\OneDrive\\Desktop\\block\\truffle\\contracts\\SimpleWallet.sol",
  "compiler": {
    "name": "solc",
    "version": "0.8.20+commit.a1b79de6.Emscripten.clang"
  },
  "schemaVersion": "3.4.16",
  "updatedAt": "2025-01-22T15:19:56.661Z",
  "networkType": "ethereum",
  "devdoc": {
    "kind": "dev",
    "methods": {},
    "version": 1
  },
  "userdoc": {
    "kind": "user",
    "methods": {},
    "version": 1
  }
}