{
  "contractName": "Ticket_NFT",
  "abi": [
    {
      "inputs": [
        {
          "internalType": "string",
          "name": "_organization_name",
          "type": "string"
        },
        {
          "internalType": "address",
          "name": "_organizer",
          "type": "address"
        }
      ],
      "stateMutability": "nonpayable",
      "type": "constructor"
    },
    {
      "inputs": [],
      "name": "AccessControlBadConfirmation",
      "type": "error"
    },
    {
      "inputs": [
        {
          "internalType": "address",
          "name": "account",
          "type": "address"
        },
        {
          "internalType": "bytes32",
          "name": "neededRole",
          "type": "bytes32"
        }
      ],
      "name": "AccessControlUnauthorizedAccount",
      "type": "error"
    },
    {
      "inputs": [
        {
          "internalType": "address",
          "name": "sender",
          "type": "address"
        },
        {
          "internalType": "uint256",
          "name": "balance",
          "type": "uint256"
        },
        {
          "internalType": "uint256",
          "name": "needed",
          "type": "uint256"
        },
        {
          "internalType": "uint256",
          "name": "tokenId",
          "type": "uint256"
        }
      ],
      "name": "ERC1155InsufficientBalance",
      "type": "error"
    },
    {
      "inputs": [
        {
          "internalType": "address",
          "name": "approver",
          "type": "address"
        }
      ],
      "name": "ERC1155InvalidApprover",
      "type": "error"
    },
    {
      "inputs": [
        {
          "internalType": "uint256",
          "name": "idsLength",
          "type": "uint256"
        },
        {
          "internalType": "uint256",
          "name": "valuesLength",
          "type": "uint256"
        }
      ],
      "name": "ERC1155InvalidArrayLength",
      "type": "error"
    },
    {
      "inputs": [
        {
          "internalType": "address",
          "name": "operator",
          "type": "address"
        }
      ],
      "name": "ERC1155InvalidOperator",
      "type": "error"
    },
    {
      "inputs": [
        {
          "internalType": "address",
          "name": "receiver",
          "type": "address"
        }
      ],
      "name": "ERC1155InvalidReceiver",
      "type": "error"
    },
    {
      "inputs": [
        {
          "internalType": "address",
          "name": "sender",
          "type": "address"
        }
      ],
      "name": "ERC1155InvalidSender",
      "type": "error"
    },
    {
      "inputs": [
        {
          "internalType": "address",
          "name": "operator",
          "type": "address"
        },
        {
          "internalType": "address",
          "name": "owner",
          "type": "address"
        }
      ],
      "name": "ERC1155MissingApprovalForAll",
      "type": "error"
    },
    {
      "anonymous": false,
      "inputs": [
        {
          "indexed": true,
          "internalType": "address",
          "name": "account",
          "type": "address"
        },
        {
          "indexed": true,
          "internalType": "address",
          "name": "operator",
          "type": "address"
        },
        {
          "indexed": false,
          "internalType": "bool",
          "name": "approved",
          "type": "bool"
        }
      ],
      "name": "ApprovalForAll",
      "type": "event"
    },
    {
      "anonymous": false,
      "inputs": [
        {
          "indexed": true,
          "internalType": "uint256",
          "name": "eventId",
          "type": "uint256"
        },
        {
          "indexed": false,
          "internalType": "string",
          "name": "name",
          "type": "string"
        },
        {
          "indexed": false,
          "internalType": "uint256",
          "name": "time",
          "type": "uint256"
        }
      ],
      "name": "EventCreated",
      "type": "event"
    },
    {
      "anonymous": false,
      "inputs": [
        {
          "indexed": true,
          "internalType": "bytes32",
          "name": "role",
          "type": "bytes32"
        },
        {
          "indexed": true,
          "internalType": "bytes32",
          "name": "previousAdminRole",
          "type": "bytes32"
        },
        {
          "indexed": true,
          "internalType": "bytes32",
          "name": "newAdminRole",
          "type": "bytes32"
        }
      ],
      "name": "RoleAdminChanged",
      "type": "event"
    },
    {
      "anonymous": false,
      "inputs": [
        {
          "indexed": true,
          "internalType": "bytes32",
          "name": "role",
          "type": "bytes32"
        },
        {
          "indexed": true,
          "internalType": "address",
          "name": "account",
          "type": "address"
        },
        {
          "indexed": true,
          "internalType": "address",
          "name": "sender",
          "type": "address"
        }
      ],
      "name": "RoleGranted",
      "type": "event"
    },
    {
      "anonymous": false,
      "inputs": [
        {
          "indexed": true,
          "internalType": "bytes32",
          "name": "role",
          "type": "bytes32"
        },
        {
          "indexed": true,
          "internalType": "address",
          "name": "account",
          "type": "address"
        },
        {
          "indexed": true,
          "internalType": "address",
          "name": "sender",
          "type": "address"
        }
      ],
      "name": "RoleRevoked",
      "type": "event"
    },
    {
      "anonymous": false,
      "inputs": [
        {
          "indexed": true,
          "internalType": "uint256",
          "name": "eventId",
          "type": "uint256"
        },
        {
          "indexed": true,
          "internalType": "uint256",
          "name": "sectorId",
          "type": "uint256"
        },
        {
          "indexed": false,
          "internalType": "string",
          "name": "name",
          "type": "string"
        }
      ],
      "name": "SectorCreated",
      "type": "event"
    },
    {
      "anonymous": false,
      "inputs": [
        {
          "indexed": true,
          "internalType": "uint256",
          "name": "ticketId",
          "type": "uint256"
        },
        {
          "indexed": false,
          "internalType": "uint256",
          "name": "eventId",
          "type": "uint256"
        },
        {
          "indexed": false,
          "internalType": "uint256",
          "name": "sectorId",
          "type": "uint256"
        },
        {
          "indexed": false,
          "internalType": "uint256",
          "name": "price",
          "type": "uint256"
        }
      ],
      "name": "TicketCreated",
      "type": "event"
    },
    {
      "anonymous": false,
      "inputs": [
        {
          "indexed": true,
          "internalType": "address",
          "name": "operator",
          "type": "address"
        },
        {
          "indexed": true,
          "internalType": "address",
          "name": "from",
          "type": "address"
        },
        {
          "indexed": true,
          "internalType": "address",
          "name": "to",
          "type": "address"
        },
        {
          "indexed": false,
          "internalType": "uint256[]",
          "name": "ids",
          "type": "uint256[]"
        },
        {
          "indexed": false,
          "internalType": "uint256[]",
          "name": "values",
          "type": "uint256[]"
        }
      ],
      "name": "TransferBatch",
      "type": "event"
    },
    {
      "anonymous": false,
      "inputs": [
        {
          "indexed": true,
          "internalType": "address",
          "name": "operator",
          "type": "address"
        },
        {
          "indexed": true,
          "internalType": "address",
          "name": "from",
          "type": "address"
        },
        {
          "indexed": true,
          "internalType": "address",
          "name": "to",
          "type": "address"
        },
        {
          "indexed": false,
          "internalType": "uint256",
          "name": "id",
          "type": "uint256"
        },
        {
          "indexed": false,
          "internalType": "uint256",
          "name": "value",
          "type": "uint256"
        }
      ],
      "name": "TransferSingle",
      "type": "event"
    },
    {
      "anonymous": false,
      "inputs": [
        {
          "indexed": false,
          "internalType": "string",
          "name": "value",
          "type": "string"
        },
        {
          "indexed": true,
          "internalType": "uint256",
          "name": "id",
          "type": "uint256"
        }
      ],
      "name": "URI",
      "type": "event"
    },
    {
      "inputs": [],
      "name": "ADMIN_ROLE",
      "outputs": [
        {
          "internalType": "bytes32",
          "name": "",
          "type": "bytes32"
        }
      ],
      "stateMutability": "view",
      "type": "function"
    },
    {
      "inputs": [],
      "name": "DEFAULT_ADMIN_ROLE",
      "outputs": [
        {
          "internalType": "bytes32",
          "name": "",
          "type": "bytes32"
        }
      ],
      "stateMutability": "view",
      "type": "function"
    },
    {
      "inputs": [],
      "name": "ORGANIZER_ROLE",
      "outputs": [
        {
          "internalType": "bytes32",
          "name": "",
          "type": "bytes32"
        }
      ],
      "stateMutability": "view",
      "type": "function"
    },
    {
      "inputs": [
        {
          "internalType": "address",
          "name": "account",
          "type": "address"
        },
        {
          "internalType": "uint256",
          "name": "id",
          "type": "uint256"
        }
      ],
      "name": "balanceOf",
      "outputs": [
        {
          "internalType": "uint256",
          "name": "",
          "type": "uint256"
        }
      ],
      "stateMutability": "view",
      "type": "function"
    },
    {
      "inputs": [
        {
          "internalType": "address[]",
          "name": "accounts",
          "type": "address[]"
        },
        {
          "internalType": "uint256[]",
          "name": "ids",
          "type": "uint256[]"
        }
      ],
      "name": "balanceOfBatch",
      "outputs": [
        {
          "internalType": "uint256[]",
          "name": "",
          "type": "uint256[]"
        }
      ],
      "stateMutability": "view",
      "type": "function"
    },
    {
      "inputs": [],
      "name": "eventCount",
      "outputs": [
        {
          "internalType": "uint256",
          "name": "",
          "type": "uint256"
        }
      ],
      "stateMutability": "view",
      "type": "function"
    },
    {
      "inputs": [
        {
          "internalType": "uint256",
          "name": "",
          "type": "uint256"
        }
      ],
      "name": "events",
      "outputs": [
        {
          "internalType": "uint256",
          "name": "id",
          "type": "uint256"
        },
        {
          "internalType": "string",
          "name": "name",
          "type": "string"
        },
        {
          "internalType": "uint256",
          "name": "time",
          "type": "uint256"
        },
        {
          "internalType": "uint256",
          "name": "sectorCount",
          "type": "uint256"
        }
      ],
      "stateMutability": "view",
      "type": "function"
    },
    {
      "inputs": [
        {
          "internalType": "uint256",
          "name": "id",
          "type": "uint256"
        }
      ],
      "name": "exists",
      "outputs": [
        {
          "internalType": "bool",
          "name": "",
          "type": "bool"
        }
      ],
      "stateMutability": "view",
      "type": "function"
    },
    {
      "inputs": [
        {
          "internalType": "bytes32",
          "name": "role",
          "type": "bytes32"
        }
      ],
      "name": "getRoleAdmin",
      "outputs": [
        {
          "internalType": "bytes32",
          "name": "",
          "type": "bytes32"
        }
      ],
      "stateMutability": "view",
      "type": "function"
    },
    {
      "inputs": [
        {
          "internalType": "bytes32",
          "name": "role",
          "type": "bytes32"
        },
        {
          "internalType": "address",
          "name": "account",
          "type": "address"
        }
      ],
      "name": "grantRole",
      "outputs": [],
      "stateMutability": "nonpayable",
      "type": "function"
    },
    {
      "inputs": [],
      "name": "groupCount",
      "outputs": [
        {
          "internalType": "uint256",
          "name": "",
          "type": "uint256"
        }
      ],
      "stateMutability": "view",
      "type": "function"
    },
    {
      "inputs": [
        {
          "internalType": "uint256",
          "name": "",
          "type": "uint256"
        },
        {
          "internalType": "uint256",
          "name": "",
          "type": "uint256"
        }
      ],
      "name": "groups",
      "outputs": [
        {
          "internalType": "uint256",
          "name": "",
          "type": "uint256"
        }
      ],
      "stateMutability": "view",
      "type": "function"
    },
    {
      "inputs": [
        {
          "internalType": "bytes32",
          "name": "role",
          "type": "bytes32"
        },
        {
          "internalType": "address",
          "name": "account",
          "type": "address"
        }
      ],
      "name": "hasRole",
      "outputs": [
        {
          "internalType": "bool",
          "name": "",
          "type": "bool"
        }
      ],
      "stateMutability": "view",
      "type": "function"
    },
    {
      "inputs": [
        {
          "internalType": "address",
          "name": "account",
          "type": "address"
        },
        {
          "internalType": "address",
          "name": "operator",
          "type": "address"
        }
      ],
      "name": "isApprovedForAll",
      "outputs": [
        {
          "internalType": "bool",
          "name": "",
          "type": "bool"
        }
      ],
      "stateMutability": "view",
      "type": "function"
    },
    {
      "inputs": [],
      "name": "organization_name",
      "outputs": [
        {
          "internalType": "string",
          "name": "",
          "type": "string"
        }
      ],
      "stateMutability": "view",
      "type": "function"
    },
    {
      "inputs": [
        {
          "internalType": "bytes32",
          "name": "role",
          "type": "bytes32"
        },
        {
          "internalType": "address",
          "name": "callerConfirmation",
          "type": "address"
        }
      ],
      "name": "renounceRole",
      "outputs": [],
      "stateMutability": "nonpayable",
      "type": "function"
    },
    {
      "inputs": [
        {
          "internalType": "bytes32",
          "name": "role",
          "type": "bytes32"
        },
        {
          "internalType": "address",
          "name": "account",
          "type": "address"
        }
      ],
      "name": "revokeRole",
      "outputs": [],
      "stateMutability": "nonpayable",
      "type": "function"
    },
    {
      "inputs": [
        {
          "internalType": "address",
          "name": "from",
          "type": "address"
        },
        {
          "internalType": "address",
          "name": "to",
          "type": "address"
        },
        {
          "internalType": "uint256[]",
          "name": "ids",
          "type": "uint256[]"
        },
        {
          "internalType": "uint256[]",
          "name": "values",
          "type": "uint256[]"
        },
        {
          "internalType": "bytes",
          "name": "data",
          "type": "bytes"
        }
      ],
      "name": "safeBatchTransferFrom",
      "outputs": [],
      "stateMutability": "nonpayable",
      "type": "function"
    },
    {
      "inputs": [
        {
          "internalType": "address",
          "name": "from",
          "type": "address"
        },
        {
          "internalType": "address",
          "name": "to",
          "type": "address"
        },
        {
          "internalType": "uint256",
          "name": "id",
          "type": "uint256"
        },
        {
          "internalType": "uint256",
          "name": "value",
          "type": "uint256"
        },
        {
          "internalType": "bytes",
          "name": "data",
          "type": "bytes"
        }
      ],
      "name": "safeTransferFrom",
      "outputs": [],
      "stateMutability": "nonpayable",
      "type": "function"
    },
    {
      "inputs": [
        {
          "internalType": "address",
          "name": "operator",
          "type": "address"
        },
        {
          "internalType": "bool",
          "name": "approved",
          "type": "bool"
        }
      ],
      "name": "setApprovalForAll",
      "outputs": [],
      "stateMutability": "nonpayable",
      "type": "function"
    },
    {
      "inputs": [],
      "name": "ticketCount",
      "outputs": [
        {
          "internalType": "uint256",
          "name": "",
          "type": "uint256"
        }
      ],
      "stateMutability": "view",
      "type": "function"
    },
    {
      "inputs": [
        {
          "internalType": "uint256",
          "name": "",
          "type": "uint256"
        }
      ],
      "name": "tickets",
      "outputs": [
        {
          "internalType": "uint256",
          "name": "id",
          "type": "uint256"
        },
        {
          "internalType": "uint256",
          "name": "eventId",
          "type": "uint256"
        },
        {
          "internalType": "uint256",
          "name": "sectorId",
          "type": "uint256"
        },
        {
          "internalType": "uint256",
          "name": "groupId",
          "type": "uint256"
        },
        {
          "internalType": "uint256",
          "name": "originalPrice",
          "type": "uint256"
        },
        {
          "internalType": "enum Ticket_NFT.TicketStatus",
          "name": "status",
          "type": "uint8"
        },
        {
          "internalType": "string",
          "name": "seat",
          "type": "string"
        },
        {
          "internalType": "bytes32",
          "name": "hashName",
          "type": "bytes32"
        }
      ],
      "stateMutability": "view",
      "type": "function"
    },
    {
      "inputs": [],
      "name": "totalSupply",
      "outputs": [
        {
          "internalType": "uint256",
          "name": "",
          "type": "uint256"
        }
      ],
      "stateMutability": "view",
      "type": "function"
    },
    {
      "inputs": [
        {
          "internalType": "uint256",
          "name": "id",
          "type": "uint256"
        }
      ],
      "name": "totalSupply",
      "outputs": [
        {
          "internalType": "uint256",
          "name": "",
          "type": "uint256"
        }
      ],
      "stateMutability": "view",
      "type": "function"
    },
    {
      "inputs": [
        {
          "internalType": "uint256",
          "name": "",
          "type": "uint256"
        }
      ],
      "name": "uri",
      "outputs": [
        {
          "internalType": "string",
          "name": "",
          "type": "string"
        }
      ],
      "stateMutability": "view",
      "type": "function"
    },
    {
      "inputs": [
        {
          "internalType": "address",
          "name": "_organizer",
          "type": "address"
        }
      ],
      "name": "addOrganizer",
      "outputs": [],
      "stateMutability": "nonpayable",
      "type": "function"
    },
    {
      "inputs": [
        {
          "internalType": "address",
          "name": "_organizer",
          "type": "address"
        }
      ],
      "name": "removeOrganizer",
      "outputs": [],
      "stateMutability": "nonpayable",
      "type": "function"
    },
    {
      "inputs": [
        {
          "internalType": "string",
          "name": "_name",
          "type": "string"
        },
        {
          "internalType": "uint256",
          "name": "_time",
          "type": "uint256"
        }
      ],
      "name": "createEvent",
      "outputs": [],
      "stateMutability": "nonpayable",
      "type": "function"
    },
    {
      "inputs": [
        {
          "internalType": "uint256",
          "name": "_eventId",
          "type": "uint256"
        },
        {
          "internalType": "string",
          "name": "_name",
          "type": "string"
        },
        {
          "internalType": "uint256",
          "name": "_totalSeats",
          "type": "uint256"
        },
        {
          "internalType": "uint256",
          "name": "_seat_x_lines",
          "type": "uint256"
        }
      ],
      "name": "createSector",
      "outputs": [],
      "stateMutability": "nonpayable",
      "type": "function"
    },
    {
      "inputs": [
        {
          "internalType": "uint256",
          "name": "_eventId",
          "type": "uint256"
        },
        {
          "internalType": "uint256",
          "name": "_sectorId",
          "type": "uint256"
        },
        {
          "internalType": "uint256",
          "name": "_originalPrice",
          "type": "uint256"
        }
      ],
      "name": "createTicket",
      "outputs": [],
      "stateMutability": "nonpayable",
      "type": "function"
    },
    {
      "inputs": [
        {
          "internalType": "string",
          "name": "str",
          "type": "string"
        },
        {
          "internalType": "uint256",
          "name": "num",
          "type": "uint256"
        }
      ],
      "name": "generateHash",
      "outputs": [
        {
          "internalType": "bytes32",
          "name": "",
          "type": "bytes32"
        }
      ],
      "stateMutability": "pure",
      "type": "function"
    },
    {
      "inputs": [
        {
          "internalType": "uint256",
          "name": "ticketId",
          "type": "uint256"
        }
      ],
      "name": "createGroup",
      "outputs": [
        {
          "internalType": "uint256",
          "name": "",
          "type": "uint256"
        }
      ],
      "stateMutability": "nonpayable",
      "type": "function"
    },
    {
      "inputs": [
        {
          "internalType": "uint256",
          "name": "groupId",
          "type": "uint256"
        },
        {
          "internalType": "uint256",
          "name": "ticketId",
          "type": "uint256"
        }
      ],
      "name": "addParticipant",
      "outputs": [],
      "stateMutability": "nonpayable",
      "type": "function"
    },
    {
      "inputs": [
        {
          "internalType": "uint256",
          "name": "groupId",
          "type": "uint256"
        },
        {
          "internalType": "uint256",
          "name": "ticketId",
          "type": "uint256"
        }
      ],
      "name": "removeParticipant",
      "outputs": [],
      "stateMutability": "nonpayable",
      "type": "function"
    },
    {
      "inputs": [
        {
          "internalType": "uint256",
          "name": "ticketId",
          "type": "uint256"
        },
        {
          "internalType": "string",
          "name": "name",
          "type": "string"
        },
        {
          "internalType": "string",
          "name": "surname",
          "type": "string"
        }
      ],
      "name": "setOwnerName",
      "outputs": [],
      "stateMutability": "nonpayable",
      "type": "function"
    },
    {
      "inputs": [
        {
          "internalType": "uint256",
          "name": "ticketId",
          "type": "uint256"
        },
        {
          "internalType": "string",
          "name": "name",
          "type": "string"
        },
        {
          "internalType": "string",
          "name": "surname",
          "type": "string"
        }
      ],
      "name": "validateTicket",
      "outputs": [],
      "stateMutability": "nonpayable",
      "type": "function"
    },
    {
      "inputs": [
        {
          "internalType": "uint256",
          "name": "ticketId",
          "type": "uint256"
        },
        {
          "internalType": "enum Ticket_NFT.TicketStatus",
          "name": "newStatus",
          "type": "uint8"
        }
      ],
      "name": "updateTicketStatus",
      "outputs": [],
      "stateMutability": "nonpayable",
      "type": "function"
    },
    {
      "inputs": [
        {
          "internalType": "uint256",
          "name": "_eventId",
          "type": "uint256"
        }
      ],
      "name": "expireTickets",
      "outputs": [],
      "stateMutability": "nonpayable",
      "type": "function"
    },
    {
      "inputs": [
        {
          "internalType": "uint256",
          "name": "_eventId",
          "type": "uint256"
        }
      ],
      "name": "getEventDetails",
      "outputs": [
        {
          "internalType": "uint256",
          "name": "id",
          "type": "uint256"
        },
        {
          "internalType": "string",
          "name": "name",
          "type": "string"
        },
        {
          "internalType": "uint256",
          "name": "time",
          "type": "uint256"
        },
        {
          "internalType": "uint256",
          "name": "sectorCount",
          "type": "uint256"
        },
        {
          "internalType": "uint256",
          "name": "availableSeats",
          "type": "uint256"
        }
      ],
      "stateMutability": "view",
      "type": "function"
    },
    {
      "inputs": [],
      "name": "getAllEventsDetails",
      "outputs": [
        {
          "internalType": "uint256[]",
          "name": "ids",
          "type": "uint256[]"
        },
        {
          "internalType": "string[]",
          "name": "names",
          "type": "string[]"
        },
        {
          "internalType": "uint256[]",
          "name": "times",
          "type": "uint256[]"
        },
        {
          "internalType": "uint256[]",
          "name": "sectorCounts",
          "type": "uint256[]"
        },
        {
          "internalType": "uint256[]",
          "name": "availableSeats",
          "type": "uint256[]"
        }
      ],
      "stateMutability": "view",
      "type": "function"
    },
    {
      "inputs": [
        {
          "internalType": "uint256",
          "name": "_start",
          "type": "uint256"
        },
        {
          "internalType": "uint256",
          "name": "_end",
          "type": "uint256"
        }
      ],
      "name": "getTickets",
      "outputs": [
        {
          "components": [
            {
              "internalType": "uint256",
              "name": "id",
              "type": "uint256"
            },
            {
              "internalType": "uint256",
              "name": "eventId",
              "type": "uint256"
            },
            {
              "internalType": "uint256",
              "name": "sectorId",
              "type": "uint256"
            },
            {
              "internalType": "uint256",
              "name": "groupId",
              "type": "uint256"
            },
            {
              "internalType": "uint256",
              "name": "originalPrice",
              "type": "uint256"
            },
            {
              "internalType": "enum Ticket_NFT.TicketStatus",
              "name": "status",
              "type": "uint8"
            },
            {
              "internalType": "string",
              "name": "seat",
              "type": "string"
            },
            {
              "internalType": "bytes32",
              "name": "hashName",
              "type": "bytes32"
            }
          ],
          "internalType": "struct Ticket_NFT.Ticket[]",
          "name": "",
          "type": "tuple[]"
        }
      ],
      "stateMutability": "view",
      "type": "function"
    },
    {
      "inputs": [
        {
          "internalType": "uint256",
          "name": "_eventId",
          "type": "uint256"
        },
        {
          "internalType": "uint256",
          "name": "_sectorId",
          "type": "uint256"
        }
      ],
      "name": "getSector",
      "outputs": [
        {
          "internalType": "uint256",
          "name": "id",
          "type": "uint256"
        },
        {
          "internalType": "string",
          "name": "name",
          "type": "string"
        },
        {
          "internalType": "uint256",
          "name": "totalSeats",
          "type": "uint256"
        },
        {
          "internalType": "uint256",
          "name": "availableSeats",
          "type": "uint256"
        },
        {
          "internalType": "uint256",
          "name": "seats_x_lines",
          "type": "uint256"
        },
        {
          "internalType": "uint256[]",
          "name": "ticketIds",
          "type": "uint256[]"
        },
        {
          "internalType": "uint256[]",
          "name": "associatedGroupIds",
          "type": "uint256[]"
        }
      ],
      "stateMutability": "view",
      "type": "function"
    },
    {
      "inputs": [
        {
          "internalType": "uint256",
          "name": "ticketId",
          "type": "uint256"
        }
      ],
      "name": "getTicket",
      "outputs": [
        {
          "internalType": "uint256",
          "name": "id",
          "type": "uint256"
        },
        {
          "internalType": "uint256",
          "name": "eventId",
          "type": "uint256"
        },
        {
          "internalType": "uint256",
          "name": "sectorId",
          "type": "uint256"
        },
        {
          "internalType": "uint256",
          "name": "groupId",
          "type": "uint256"
        },
        {
          "internalType": "uint256",
          "name": "originalPrice",
          "type": "uint256"
        },
        {
          "internalType": "enum Ticket_NFT.TicketStatus",
          "name": "status",
          "type": "uint8"
        },
        {
          "internalType": "string",
          "name": "seat",
          "type": "string"
        },
        {
          "internalType": "bytes32",
          "name": "hashName",
          "type": "bytes32"
        }
      ],
      "stateMutability": "view",
      "type": "function"
    },
    {
      "inputs": [
        {
          "internalType": "uint256[]",
          "name": "ticket_ids",
          "type": "uint256[]"
        },
        {
          "internalType": "string[]",
          "name": "seats",
          "type": "string[]"
        }
      ],
      "name": "assignSeats",
      "outputs": [],
      "stateMutability": "nonpayable",
      "type": "function"
    },
    {
      "inputs": [
        {
          "internalType": "uint256",
          "name": "groupId",
          "type": "uint256"
        }
      ],
      "name": "getGroupTickets",
      "outputs": [
        {
          "internalType": "uint256[]",
          "name": "",
          "type": "uint256[]"
        }
      ],
      "stateMutability": "view",
      "type": "function"
    },
    {
      "inputs": [
        {
          "internalType": "uint256",
          "name": "ticketId",
          "type": "uint256"
        }
      ],
      "name": "isTicketInGroup",
      "outputs": [
        {
          "internalType": "bool",
          "name": "",
          "type": "bool"
        }
      ],
      "stateMutability": "view",
      "type": "function"
    },
    {
      "inputs": [],
      "name": "getnextTicketCount",
      "outputs": [
        {
          "internalType": "uint256",
          "name": "",
          "type": "uint256"
        }
      ],
      "stateMutability": "view",
      "type": "function"
    },
    {
      "inputs": [
        {
          "internalType": "bytes4",
          "name": "_interfaceId",
          "type": "bytes4"
        }
      ],
      "name": "supportsInterface",
      "outputs": [
        {
          "internalType": "bool",
          "name": "",
          "type": "bool"
        }
      ],
      "stateMutability": "view",
      "type": "function"
    }
  ],
  "bytecode": "0x60806040523480156200001157600080fd5b50604051620043f1380380620043f1833981016040819052620000349162000217565b6040805160208101909152600081526200004e81620000d8565b506200005c600032620000ea565b50620000897f4d2e7a1e3f5dd6e203f087b15756ccf0e4ccd947fe1b639a38540089a1e47f6382620000ea565b50620000a5600080516020620043d183398151915282620000ea565b50620000c1600080516020620043d18339815191528062000199565b600c620000cf83826200038e565b5050506200045a565b6003620000e682826200038e565b5050565b6000828152602081815260408083206001600160a01b038516845290915281205460ff166200018f576000838152602081815260408083206001600160a01b03861684529091529020805460ff19166001179055620001463390565b6001600160a01b0316826001600160a01b0316847f2f8788117e7eff1d82e926ec794901d17c78024a50270940304540a733656f0d60405160405180910390a450600162000193565b5060005b92915050565b600082815260208190526040808220600101805490849055905190918391839186917fbd79b86ffe0ab8e8776151514217cd7cacd52c909f66475c3af44e129f0b00ff9190a4505050565b634e487b7160e01b600052604160045260246000fd5b80516001600160a01b03811681146200021257600080fd5b919050565b600080604083850312156200022b57600080fd5b82516001600160401b03808211156200024357600080fd5b818501915085601f8301126200025857600080fd5b8151818111156200026d576200026d620001e4565b604051601f8201601f19908116603f01168101908382118183101715620002985762000298620001e4565b81604052828152602093508884848701011115620002b557600080fd5b600091505b82821015620002d95784820184015181830185015290830190620002ba565b6000848483010152809650505050620002f4818601620001fa565b925050509250929050565b600181811c908216806200031457607f821691505b6020821081036200033557634e487b7160e01b600052602260045260246000fd5b50919050565b601f8211156200038957600081815260208120601f850160051c81016020861015620003645750805b601f850160051c820191505b81811015620003855782815560010162000370565b5050505b505050565b81516001600160401b03811115620003aa57620003aa620001e4565b620003c281620003bb8454620002ff565b846200033b565b602080601f831160018114620003fa5760008415620003e15750858301515b600019600386901b1c1916600185901b17855562000385565b600085815260208120601f198616915b828110156200042b578886015182559484019460019091019084016200040a565b50858210156200044a5787850151600019600388901b60f8161c191681555b5050505050600190811b01905550565b613f67806200046a6000396000f3fe608060405234801561001057600080fd5b506004361061029f5760003560e01c806375b238fc11610167578063bc79ddcb116100ce578063e426bfef11610087578063e426bfef14610655578063e4725f0214610668578063e985e9c51461067b578063ec38d5a01461068e578063f242432a146106b2578063f70778fa146106c557600080fd5b8063bc79ddcb146105e0578063bd85b039146105f3578063c28aeb7714610613578063cfbd900f14610626578063d547741f1461062f578063db8aa9881461064257600080fd5b80639a4d4385116101205780639a4d438514610572578063a0a599f314610585578063a217fddf1461058d578063a22cb46514610595578063a460b817146105a8578063b51aef04146105bb57600080fd5b806375b238fc146104e15780637909cb59146105085780637dc379fa1461051d5780638be8a775146105305780638f23b3261461055657806391d148541461055f57600080fd5b80632f2ff15d1161020b5780634e1273f4116101c45780634e1273f4146104495780634f558e791461046957806350b447121461048b57806352def180146104b257806365bf60e0146104c557806371be2e4a146104d857600080fd5b80632f2ff15d146103e257806336568abe146103f557806344508ad01461040857806344ade56d1461041b5780634ae855cf1461042e5780634c66a0731461044157600080fd5b8063118757f81161025d578063118757f81461035857806315e472dd1461037157806318160ddd146103845780631c8096451461038c578063248a9ca3146103ac5780632eb2c2d6146103cf57600080fd5b8062fdd58e146102a457806301ffc9a7146102ca5780630b791430146102ed5780630c08b30d146103105780630e531076146103255780630e89341c14610338575b600080fd5b6102b76102b236600461316a565b6106d8565b6040519081526020015b60405180910390f35b6102dd6102d83660046131aa565b610702565b60405190151581526020016102c1565b6103006102fb3660046131ce565b61070d565b6040516102c19493929190613237565b61032361031e3660046133a6565b6107be565b005b61032361033336600461347a565b6108ad565b61034b6103463660046131ce565b610989565b6040516102c191906134d0565b610360610a1d565b6040516102c195949392919061351e565b61032361037f3660046135cd565b610d66565b6005546102b7565b61039f61039a3660046135f9565b610f97565b6040516102c19190613653565b6102b76103ba3660046131ce565b60009081526020819052604090206001015490565b6103236103dd366004613715565b611205565b6103236103f03660046137be565b61126c565b6103236104033660046137be565b611291565b6103236104163660046135f9565b6112c9565b6103236104293660046137ea565b61156f565b6102b761043c3660046135f9565b6115b1565b61034b6115e2565b61045c610457366004613805565b611670565b6040516102c191906138c4565b6102dd6104773660046131ce565b600090815260046020526040902054151590565b61049e6104993660046131ce565b61173c565b6040516102c19897969594939291906138d7565b6103236104c036600461392c565b61180d565b6102b76104d33660046131ce565b61198c565b6102b760065481565b6102b77fa49807205ce4d355092ef5a8a18f56e8913cf4a201fbe287825b095693c2177581565b6102b7600080516020613f1283398151915281565b61049e61052b3660046131ce565b611a05565b61054361053e3660046135f9565b611b04565b6040516102c19796959493929190613998565b6102b760085481565b6102dd61056d3660046137be565b611db5565b6103236105803660046139f7565b611dde565b6007546102b7565b6102b7600081565b6103236105a3366004613a3b565b611e7f565b6103236105b6366004613a77565b611e8e565b6102dd6105c93660046131ce565b6000908152600a6020526040902060030154151590565b61045c6105ee3660046131ce565b611fc4565b6102b76106013660046131ce565b60009081526004602052604090205490565b61032361062136600461392c565b612025565b6102b760075481565b61032361063d3660046137be565b6120b3565b6102b76106503660046139f7565b6120d8565b6103236106633660046131ce565b61210b565b6103236106763660046137ea565b612216565b6102dd610689366004613aa0565b612258565b6106a161069c3660046131ce565b612286565b6040516102c1959493929190613aca565b6103236106c0366004613b00565b61239f565b6103236106d33660046135f9565b6123fe565b60008181526001602090815260408083206001600160a01b03861684529091529020545b92915050565b60006106fc826127e1565b6009602052600090815260409020805460018201805491929161072f90613b64565b80601f016020809104026020016040519081016040528092919081815260200182805461075b90613b64565b80156107a85780601f1061077d576101008083540402835291602001916107a8565b820191906000526020600020905b81548152906001019060200180831161078b57829003601f168201915b5050505050908060020154908060040154905084565b600080516020613f128339815191526107d681612821565b815183511461082c5760405162461bcd60e51b815260206004820152601760248201527f4d69736d61746368656420696e7075742061727261797300000000000000000060448201526064015b60405180910390fd5b60005b83518110156108a7576000600a600086848151811061085057610850613b9e565b60200260200101518152602001908152602001600020905083828151811061087a5761087a613b9e565b60200260200101518160060190816108929190613bfa565b5050808061089f90613ccf565b91505061082f565b50505050565b600080516020613f128339815191526108c581612821565b60008581526009602052604081206001810180549192916108e590613b64565b9050116108f157600080fd5b60048101805490600061090383613ccf565b90915550506004810154600081815260038301602052604090209081556001810161092e8782613bfa565b50600281018590556003810185905560048101849055805460405188907fa02d99a1daac50524d2b80db5bd4ef4ef59bc535a96274cb9cc11c460cc8ac6690610978908a906134d0565b60405180910390a350505050505050565b60606003805461099890613b64565b80601f01602080910402602001604051908101604052809291908181526020018280546109c490613b64565b8015610a115780601f106109e657610100808354040283529160200191610a11565b820191906000526020600020905b8154815290600101906020018083116109f457829003601f168201915b50505050509050919050565b60608060608060606006546001600160401b03811115610a3f57610a3f613263565b604051908082528060200260200182016040528015610a68578160200160208202803683370190505b5094506006546001600160401b03811115610a8557610a85613263565b604051908082528060200260200182016040528015610ab857816020015b6060815260200190600190039081610aa35790505b5093506006546001600160401b03811115610ad557610ad5613263565b604051908082528060200260200182016040528015610afe578160200160208202803683370190505b5092506006546001600160401b03811115610b1b57610b1b613263565b604051908082528060200260200182016040528015610b44578160200160208202803683370190505b5091506006546001600160401b03811115610b6157610b61613263565b604051908082528060200260200182016040528015610b8a578160200160208202803683370190505b50905060015b6006548111610d5e57600081815260096020526040812090805b82600401548111610be7576000818152600384016020526040902060020154610bd39083613ce8565b915080610bdf81613ccf565b915050610baa565b50815488610bf6600186613cfb565b81518110610c0657610c06613b9e565b602002602001018181525050816001018054610c2190613b64565b80601f0160208091040260200160405190810160405280929190818152602001828054610c4d90613b64565b8015610c9a5780601f10610c6f57610100808354040283529160200191610c9a565b820191906000526020600020905b815481529060010190602001808311610c7d57829003601f168201915b505050505087600185610cad9190613cfb565b81518110610cbd57610cbd613b9e565b6020908102919091010152600282015486610cd9600186613cfb565b81518110610ce957610ce9613b9e565b6020908102919091010152600482015485610d05600186613cfb565b81518110610d1557610d15613b9e565b60209081029190910101528084610d2d600186613cfb565b81518110610d3d57610d3d613b9e565b60200260200101818152505050508080610d5690613ccf565b915050610b90565b509091929394565b600080516020613f12833981519152610d7e81612821565b60008211610dce5760405162461bcd60e51b815260206004820152601c60248201527f5072696365206d7573742062652067726561746572207468616e2030000000006044820152606401610823565b6000848152600960209081526040808320868452600390810190925290912090810154610e2d5760405162461bcd60e51b815260206004820152600d60248201526c139bc81cd9585d1cc81b19599d609a1b6044820152606401610823565b60078054906000610e3d83613ccf565b90915550506007546000818152600a6020526040902081815560018082018890556002820187905560058201805460ff1916909117905560048101859055600c8054610f119190610e8d90613b64565b80601f0160208091040260200160405190810160405280929190818152602001828054610eb990613b64565b8015610f065780601f10610edb57610100808354040283529160200191610f06565b820191906000526020600020905b815481529060010190602001808311610ee957829003601f168201915b5050505050836120d8565b6007820155600383018054906000610f2883613d0e565b9091555050604080518881526020810188905290810186905282907f2a46459bd2b4f82bf8e5df9e7aaaa836588650ea9b6758cd0f274e5b5a2187c69060600160405180910390a2610f8e3360075460016040518060200160405280600081525061282e565b50505050505050565b6060600754821115610fd95760405162461bcd60e51b815260206004820152600b60248201526a125b9d985b1a5908195b9960aa1b6044820152606401610823565b8282101561101e5760405162461bcd60e51b8152602060048201526012602482015271496e76616c696420706172616d657465727360701b6044820152606401610823565b600061102a8484613cfb565b611035906001613ce8565b6001600160401b0381111561104c5761104c613263565b60405190808252806020026020018201604052801561108557816020015b6110726130f8565b81526020019060019003908161106a5790505b509050835b611095846001613ce8565b8110156111fd57600a60008281526020019081526020016000206040518061010001604052908160008201548152602001600182015481526020016002820154815260200160038201548152602001600482015481526020016005820160009054906101000a900460ff1660038111156111115761111161361b565b60038111156111225761112261361b565b815260200160068201805461113690613b64565b80601f016020809104026020016040519081016040528092919081815260200182805461116290613b64565b80156111af5780601f10611184576101008083540402835291602001916111af565b820191906000526020600020905b81548152906001019060200180831161119257829003601f168201915b505050505081526020016007820154815250508286836111cf9190613cfb565b815181106111df576111df613b9e565b602002602001018190525080806111f590613ccf565b91505061108a565b509392505050565b336001600160a01b038616811480159061122657506112248682612258565b155b156112575760405163711bec9160e11b81526001600160a01b03808316600483015287166024820152604401610823565b611264868686868661288b565b505050505050565b60008281526020819052604090206001015461128781612821565b6108a783836128f2565b6001600160a01b03811633146112ba5760405163334bd91960e11b815260040160405180910390fd5b6112c48282612984565b505050565b6000828152600b602052604090205461131b5760405162461bcd60e51b8152602060048201526014602482015273496c2067727570706f206e6f6e2065736973746560601b6044820152606401610823565b600061132733836106d8565b116113445760405162461bcd60e51b815260040161082390613d25565b6000818152600a602052604090206003015482146113b55760405162461bcd60e51b815260206004820152602860248201527f496c207469636b6574206e6f6e2061707061727469656e6520612071756573746044820152676f2067727570706f60c01b6064820152608401610823565b6000818152600a6020526040812060030181905580805b6000858152600b602052604090205481101561147a5760408051602081018690520160408051601f1981840301815291815281516020928301206000888152600b909352912080548390811061142457611424613b9e565b906000526020600020015460405160200161144191815260200190565b6040516020818303038152906040528051906020012003611468578092506001915061147a565b8061147281613ccf565b9150506113cc565b50806114c85760405162461bcd60e51b815260206004820152601d60248201527f5469636b6574206e6f6e2074726f7661746f206e656c2067727570706f0000006044820152606401610823565b6000848152600b6020526040902080546114e490600190613cfb565b815481106114f4576114f4613b9e565b9060005260206000200154600b6000868152602001908152602001600020838154811061152357611523613b9e565b9060005260206000200181905550600b600085815260200190815260200160002080548061155357611553613d53565b6001900381819060005260206000200160009055905550505050565b7fa49807205ce4d355092ef5a8a18f56e8913cf4a201fbe287825b095693c2177561159981612821565b6112c4600080516020613f1283398151915283612984565b600b60205281600052604060002081815481106115cd57600080fd5b90600052602060002001600091509150505481565b600c80546115ef90613b64565b80601f016020809104026020016040519081016040528092919081815260200182805461161b90613b64565b80156116685780601f1061163d57610100808354040283529160200191611668565b820191906000526020600020905b81548152906001019060200180831161164b57829003601f168201915b505050505081565b606081518351146116a15781518351604051635b05999160e01b815260048101929092526024820152604401610823565b600083516001600160401b038111156116bc576116bc613263565b6040519080825280602002602001820160405280156116e5578160200160208202803683370190505b50905060005b84518110156111fd5760208082028601015161170f906020808402870101516106d8565b82828151811061172157611721613b9e565b602090810291909101015261173581613ccf565b90506116eb565b600a6020526000908152604090208054600182015460028301546003840154600485015460058601546006870180549697959694959394929360ff9092169261178490613b64565b80601f01602080910402602001604051908101604052809291908181526020018280546117b090613b64565b80156117fd5780601f106117d2576101008083540402835291602001916117fd565b820191906000526020600020905b8154815290600101906020018083116117e057829003601f168201915b5050505050908060070154905088565b600080516020613f1283398151915261182581612821565b6000848152600a602052604090206002600582015460ff16600381111561184e5761184e61361b565b0361189b5760405162461bcd60e51b815260206004820152601860248201527f5469636b657420616c72656164792076616c69646174656400000000000000006044820152606401610823565b6003600582015460ff1660038111156118b6576118b661361b565b036118f55760405162461bcd60e51b815260206004820152600f60248201526e5469636b657420657870697265642160881b6044820152606401610823565b6000611922858560405160200161190d929190613d69565b604051602081830303815290604052876120d8565b9050808260070154146119775760405162461bcd60e51b815260206004820152601b60248201527f5469636b65742068617320646966666572656e74206f776e65722100000000006044820152606401610823565b50600501805460ff1916600217905550505050565b60008061199933846106d8565b116119b65760405162461bcd60e51b815260040161082390613d25565b60006008600081546119c790613ccf565b91829055506000848152600a60209081526040808320600301849055838352600b825282208054600181018255908352912001939093555090919050565b6000806000806000806060600080600a60008b81526020019081526020016000209050806000015481600101548260020154836003015484600401548560050160009054906101000a900460ff16866006018760070154818054611a6890613b64565b80601f0160208091040260200160405190810160405280929190818152602001828054611a9490613b64565b8015611ae15780601f10611ab657610100808354040283529160200191611ae1565b820191906000526020600020905b815481529060010190602001808311611ac457829003601f168201915b505050505091509850985098509850985098509850985050919395975091939597565b60008281526009602090815260408083208484526003019091528120606090829081908190849081908360015b6007548111611b8f576000818152600a60205260409020600101548c148015611b6a57506000818152600a60205260409020600201548b145b15611b7d5781611b7981613ccf565b9250505b80611b8781613ccf565b915050611b31565b506000816001600160401b03811115611baa57611baa613263565b604051908082528060200260200182016040528015611bd3578160200160208202803683370190505b5090506000826001600160401b03811115611bf057611bf0613263565b604051908082528060200260200182016040528015611c19578160200160208202803683370190505b509050600060015b6007548111158015611c3257508482105b15611cef576000818152600a60205260409020600101548f148015611c6757506000818152600a60205260409020600201548e145b15611cdd576000818152600a60205260409020548451859084908110611c8f57611c8f613b9e565b602002602001018181525050600a600082815260200190815260200160002060030154838381518110611cc457611cc4613b9e565b602090810291909101015281611cd981613ccf565b9250505b80611ce781613ccf565b915050611c21565b508460000154856001018660020154876003015488600401548787858054611d1690613b64565b80601f0160208091040260200160405190810160405280929190818152602001828054611d4290613b64565b8015611d8f5780601f10611d6457610100808354040283529160200191611d8f565b820191906000526020600020905b815481529060010190602001808311611d7257829003601f168201915b505050505095509b509b509b509b509b509b509b50505050505092959891949750929550565b6000918252602082815260408084206001600160a01b0393909316845291905290205460ff1690565b600080516020613f12833981519152611df681612821565b60068054906000611e0683613ccf565b9091555050600654600081815260096020526040902090815560018101611e2d8582613bfa565b5060028101839055600060048201556006546040517fee37bb5143a14810f72e86fce895be08e16090409d2e18f79b308995e39b73d490611e719087908790613da5565b60405180910390a250505050565b611e8a3383836129ef565b5050565b6000828152600a602052604090206002826003811115611eb057611eb061361b565b1480611ecd57506000826003811115611ecb57611ecb61361b565b145b8015611f1357506001600582015460ff166003811115611eef57611eef61361b565b1480611f1357506000600582015460ff166003811115611f1157611f1161361b565b145b15611f6557611f30600080516020613f1283398151915233611db5565b80611f4457506000611f4233856106d8565b115b611f605760405162461bcd60e51b815260040161082390613dc7565b611f99565b611f7d600080516020613f1283398151915233611db5565b611f995760405162461bcd60e51b815260040161082390613dc7565b60058101805483919060ff19166001836003811115611fba57611fba61361b565b0217905550505050565b6000818152600b6020908152604091829020805483518184028101840190945280845260609392830182828015610a1157602002820191906000526020600020905b8154815260200190600101908083116120065750505050509050919050565b61203d600080516020613f1283398151915233611db5565b806120515750600061204f33856106d8565b115b61206d5760405162461bcd60e51b815260040161082390613d25565b6000838152600a602090815260409182902091516120a891612093918691869101613d69565b604051602081830303815290604052856120d8565b600790910155505050565b6000828152602081905260409020600101546120ce81612821565b6108a78383612984565b600082826040516020016120ed929190613e0d565b60405160208183030381529060405280519060200120905092915050565b600080516020613f1283398151915261212381612821565b6000828152600960205260409020600281015442116121845760405162461bcd60e51b815260206004820152601a60248201527f4576656e7420686173206e6f7420796574206f636375727265640000000000006044820152606401610823565b60015b60075481116108a7576000818152600a602052604090206001810154851480156121ee57506003600582015460ff1660038111156121c7576121c761361b565b141580156121ee57506002600582015460ff1660038111156121eb576121eb61361b565b14155b156122035760058101805460ff191660031790555b508061220e81613ccf565b915050612187565b7fa49807205ce4d355092ef5a8a18f56e8913cf4a201fbe287825b095693c2177561224081612821565b6112c4600080516020613f12833981519152836128f2565b6001600160a01b03918216600090815260026020908152604080832093909416825291909152205460ff1690565b600081815260096020526040812060609082908190819081805b60048301546122b0906001613ce8565b8110156122e95760008181526003840160205260409020600201546122d59083613ce8565b9150806122e181613ccf565b9150506122a0565b50816000015482600101836002015484600401548483805461230a90613b64565b80601f016020809104026020016040519081016040528092919081815260200182805461233690613b64565b80156123835780601f1061235857610100808354040283529160200191612383565b820191906000526020600020905b81548152906001019060200180831161236657829003601f168201915b5050505050935096509650965096509650505091939590929450565b336001600160a01b03861681148015906123c057506123be8682612258565b155b156123f15760405163711bec9160e11b81526001600160a01b03808316600483015287166024820152604401610823565b6112648686868686612a85565b6000828152600b60205260409020546124595760405162461bcd60e51b815260206004820152601860248201527f5468652067726f757020646f6573206e6f7420657869737400000000000000006044820152606401610823565b6000805b6000848152600b60205260409020548110156124e45760006124c333600a6000600b60008a815260200190815260200160002086815481106124a1576124a1613b9e565b90600052602060002001548152602001908152602001600020600001546106d8565b11156124d257600191506124e4565b806124dc81613ccf565b91505061245d565b50806125495760405162461bcd60e51b815260206004820152602e60248201527f596f75206d75737420626520612067726f7570206d656d62657220746f20616460448201526d64207061727469636970616e747360901b6064820152608401610823565b60016000838152600a602052604090206005015460ff1660038111156125715761257161361b565b146125be5760405162461bcd60e51b815260206004820152601960248201527f546865207469636b6574206973206e6f7420274f776e656427000000000000006044820152606401610823565b6000828152600a60205260409020600301541561262f5760405162461bcd60e51b815260206004820152602960248201527f546865207469636b657420697320616c72656164792061737369676e6564207460448201526806f20612067726f75760bc1b6064820152608401610823565b6000838152600b602052604081208054600a918391829061265257612652613b9e565b906000526020600020015481526020019081526020016000206001015490506000600a6000600b600088815260200190815260200160002060008154811061269c5761269c613b9e565b9060005260206000200154815260200190815260200160002060020154905081600a600086815260200190815260200160002060010154146127345760405162461bcd60e51b815260206004820152602b60248201527f546865207469636b657420646f6573206e6f74206d617463682074686520677260448201526a1bdd5c09dcc8195d995b9d60aa1b6064820152608401610823565b6000848152600a602052604090206002015481146127a95760405162461bcd60e51b815260206004820152602c60248201527f546865207469636b657420646f6573206e6f74206d617463682074686520677260448201526b37bab813b99039b2b1ba37b960a11b6064820152608401610823565b5050506000818152600a60209081526040808320600301859055938252600b8152928120805460018101825590825292902090910155565b60006001600160e01b03198216636cdb3d1360e11b148061281257506001600160e01b031982166303a24d0760e21b145b806106fc57506106fc82612b0a565b61282b8133612b3f565b50565b6001600160a01b03841661285857604051632bfa23e760e11b815260006004820152602401610823565b60408051600180825260208201869052818301908152606082018590526080820190925290611264600087848487612b78565b6001600160a01b0384166128b557604051632bfa23e760e11b815260006004820152602401610823565b6001600160a01b0385166128de57604051626a0d4560e21b815260006004820152602401610823565b6128eb8585858585612b78565b5050505050565b60006128fe8383611db5565b61297c576000838152602081815260408083206001600160a01b03861684529091529020805460ff191660011790556129343390565b6001600160a01b0316826001600160a01b0316847f2f8788117e7eff1d82e926ec794901d17c78024a50270940304540a733656f0d60405160405180910390a45060016106fc565b5060006106fc565b60006129908383611db5565b1561297c576000838152602081815260408083206001600160a01b0386168085529252808320805460ff1916905551339286917ff6391f5c32d9c69d2a47ea670b442974b53935d1edc7fd64eb21e047a839171b9190a45060016106fc565b6001600160a01b038216612a185760405162ced3e160e81b815260006004820152602401610823565b6001600160a01b03838116600081815260026020908152604080832094871680845294825291829020805460ff191686151590811790915591519182527f17307eab39ab6107e8899845ad3d59bd9653f200f220920489ca2b5937696c31910160405180910390a3505050565b6001600160a01b038416612aaf57604051632bfa23e760e11b815260006004820152602401610823565b6001600160a01b038516612ad857604051626a0d4560e21b815260006004820152602401610823565b60408051600180825260208201869052818301908152606082018590526080820190925290610f8e8787848487612b78565b60006001600160e01b03198216637965db0b60e01b14806106fc57506301ffc9a760e01b6001600160e01b03198316146106fc565b612b498282611db5565b611e8a5760405163e2517d3f60e01b81526001600160a01b038216600482015260248101839052604401610823565b612b8485858585612bcb565b6001600160a01b038416156128eb5782513390600103612bbd5760208481015190840151612bb6838989858589612cc8565b5050611264565b611264818787878787612dec565b612bd784848484612ed5565b6001600160a01b038416612c60576000805b8351811015612c465760208181028481018201519086018201516000908152600490925260408220805491928392612c22908490613ce8565b90915550612c3290508184613ce8565b92505080612c3f90613ccf565b9050612be9565b508060056000828254612c599190613ce8565b9091555050505b6001600160a01b0383166108a7576000805b8351811015612cb7576020818102848101820151908601820151600090815260049092526040909120805482900390559190910190612cb081613ccf565b9050612c72565b506005805491909103905550505050565b6001600160a01b0384163b156112645760405163f23a6e6160e01b81526001600160a01b0385169063f23a6e6190612d0c9089908990889088908890600401613e2f565b6020604051808303816000875af1925050508015612d47575060408051601f3d908101601f19168201909252612d4491810190613e74565b60015b612db0573d808015612d75576040519150601f19603f3d011682016040523d82523d6000602084013e612d7a565b606091505b508051600003612da857604051632bfa23e760e11b81526001600160a01b0386166004820152602401610823565b805181602001fd5b6001600160e01b0319811663f23a6e6160e01b14610f8e57604051632bfa23e760e11b81526001600160a01b0386166004820152602401610823565b6001600160a01b0384163b156112645760405163bc197c8160e01b81526001600160a01b0385169063bc197c8190612e309089908990889088908890600401613e91565b6020604051808303816000875af1925050508015612e6b575060408051601f3d908101601f19168201909252612e6891810190613e74565b60015b612e99573d808015612d75576040519150601f19603f3d011682016040523d82523d6000602084013e612d7a565b6001600160e01b0319811663bc197c8160e01b14610f8e57604051632bfa23e760e11b81526001600160a01b0386166004820152602401610823565b8051825114612f045781518151604051635b05999160e01b815260048101929092526024820152604401610823565b3360005b8351811015613019576020818102858101820151908501909101516001600160a01b03881615612fbf5760008281526001602090815260408083206001600160a01b038c16845290915290205481811015612f96576040516303dee4c560e01b81526001600160a01b038a166004820152602481018290526044810183905260648101849052608401610823565b60008381526001602090815260408083206001600160a01b038d16845290915290209082900390555b6001600160a01b038716156130065760008281526001602090815260408083206001600160a01b038b16845290915281208054839290613000908490613ce8565b90915550505b50508061301290613ccf565b9050612f08565b50825160010361309a5760208301516000906020840151909150856001600160a01b0316876001600160a01b0316846001600160a01b03167fc3d58168c5ae7397731d063d5bbf3d657854427343f4c083240f7aacaa2d0f62858560405161308b929190918252602082015260400190565b60405180910390a450506128eb565b836001600160a01b0316856001600160a01b0316826001600160a01b03167f4a39dc06d4c0dbc64b70af90fd698a233a518aa5d07e595d983b8c0526c8f7fb86866040516130e9929190613ee3565b60405180910390a45050505050565b60405180610100016040528060008152602001600081526020016000815260200160008152602001600081526020016000600381111561313a5761313a61361b565b815260606020820152600060409091015290565b80356001600160a01b038116811461316557600080fd5b919050565b6000806040838503121561317d57600080fd5b6131868361314e565b946020939093013593505050565b6001600160e01b03198116811461282b57600080fd5b6000602082840312156131bc57600080fd5b81356131c781613194565b9392505050565b6000602082840312156131e057600080fd5b5035919050565b60005b838110156132025781810151838201526020016131ea565b50506000910152565b600081518084526132238160208601602086016131e7565b601f01601f19169290920160200192915050565b848152608060208201526000613250608083018661320b565b6040830194909452506060015292915050565b634e487b7160e01b600052604160045260246000fd5b604051601f8201601f191681016001600160401b03811182821017156132a1576132a1613263565b604052919050565b60006001600160401b038211156132c2576132c2613263565b5060051b60200190565b600082601f8301126132dd57600080fd5b813560206132f26132ed836132a9565b613279565b82815260059290921b8401810191818101908684111561331157600080fd5b8286015b8481101561332c5780358352918301918301613315565b509695505050505050565b600082601f83011261334857600080fd5b81356001600160401b0381111561336157613361613263565b613374601f8201601f1916602001613279565b81815284602083860101111561338957600080fd5b816020850160208301376000918101602001919091529392505050565b600080604083850312156133b957600080fd5b82356001600160401b03808211156133d057600080fd5b6133dc868387016132cc565b93506020915081850135818111156133f357600080fd5b8501601f8101871361340457600080fd5b80356134126132ed826132a9565b81815260059190911b8201840190848101908983111561343157600080fd5b8584015b838110156134695780358681111561344d5760008081fd5b61345b8c8983890101613337565b845250918601918601613435565b508096505050505050509250929050565b6000806000806080858703121561349057600080fd5b8435935060208501356001600160401b038111156134ad57600080fd5b6134b987828801613337565b949794965050505060408301359260600135919050565b6020815260006131c7602083018461320b565b600081518084526020808501945080840160005b83811015613513578151875295820195908201906001016134f7565b509495945050505050565b60a08152600061353160a08301886134e3565b6020838203818501528188518084528284019150828160051b850101838b0160005b8381101561358157601f1987840301855261356f83835161320b565b94860194925090850190600101613553565b50508681036040880152613595818b6134e3565b94505050505082810360608401526135ad81866134e3565b905082810360808401526135c181856134e3565b98975050505050505050565b6000806000606084860312156135e257600080fd5b505081359360208301359350604090920135919050565b6000806040838503121561360c57600080fd5b50508035926020909101359150565b634e487b7160e01b600052602160045260246000fd5b6004811061364f57634e487b7160e01b600052602160045260246000fd5b9052565b60006020808301818452808551808352604092508286019150828160051b87010184880160005b8381101561370757888303603f1901855281518051845287810151888501528681015187850152606080820151908501526080808201519085015260a08082015161010091906136cc82880182613631565b505060c08083015182828801526136e58388018261320b565b60e094850151979094019690965250509487019492509086019060010161367a565b509098975050505050505050565b600080600080600060a0868803121561372d57600080fd5b6137368661314e565b94506137446020870161314e565b935060408601356001600160401b038082111561376057600080fd5b61376c89838a016132cc565b9450606088013591508082111561378257600080fd5b61378e89838a016132cc565b935060808801359150808211156137a457600080fd5b506137b188828901613337565b9150509295509295909350565b600080604083850312156137d157600080fd5b823591506137e16020840161314e565b90509250929050565b6000602082840312156137fc57600080fd5b6131c78261314e565b6000806040838503121561381857600080fd5b82356001600160401b038082111561382f57600080fd5b818501915085601f83011261384357600080fd5b813560206138536132ed836132a9565b82815260059290921b8401810191818101908984111561387257600080fd5b948201945b83861015613897576138888661314e565b82529482019490820190613877565b965050860135925050808211156138ad57600080fd5b506138ba858286016132cc565b9150509250929050565b6020815260006131c760208301846134e3565b60006101008a835289602084015288604084015287606084015286608084015261390460a0840187613631565b8060c08401526139168184018661320b565b9150508260e08301529998505050505050505050565b60008060006060848603121561394157600080fd5b8335925060208401356001600160401b038082111561395f57600080fd5b61396b87838801613337565b9350604086013591508082111561398157600080fd5b5061398e86828701613337565b9150509250925092565b87815260e0602082015260006139b160e083018961320b565b87604084015286606084015285608084015282810360a08401526139d581866134e3565b905082810360c08401526139e981856134e3565b9a9950505050505050505050565b60008060408385031215613a0a57600080fd5b82356001600160401b03811115613a2057600080fd5b613a2c85828601613337565b95602094909401359450505050565b60008060408385031215613a4e57600080fd5b613a578361314e565b915060208301358015158114613a6c57600080fd5b809150509250929050565b60008060408385031215613a8a57600080fd5b82359150602083013560048110613a6c57600080fd5b60008060408385031215613ab357600080fd5b613abc8361314e565b91506137e16020840161314e565b85815260a060208201526000613ae360a083018761320b565b604083019590955250606081019290925260809091015292915050565b600080600080600060a08688031215613b1857600080fd5b613b218661314e565b9450613b2f6020870161314e565b9350604086013592506060860135915060808601356001600160401b03811115613b5857600080fd5b6137b188828901613337565b600181811c90821680613b7857607f821691505b602082108103613b9857634e487b7160e01b600052602260045260246000fd5b50919050565b634e487b7160e01b600052603260045260246000fd5b601f8211156112c457600081815260208120601f850160051c81016020861015613bdb5750805b601f850160051c820191505b8181101561126457828155600101613be7565b81516001600160401b03811115613c1357613c13613263565b613c2781613c218454613b64565b84613bb4565b602080601f831160018114613c5c5760008415613c445750858301515b600019600386901b1c1916600185901b178555611264565b600085815260208120601f198616915b82811015613c8b57888601518255948401946001909101908401613c6c565b5085821015613ca95787850151600019600388901b60f8161c191681555b5050505050600190811b01905550565b634e487b7160e01b600052601160045260246000fd5b600060018201613ce157613ce1613cb9565b5060010190565b808201808211156106fc576106fc613cb9565b818103818111156106fc576106fc613cb9565b600081613d1d57613d1d613cb9565b506000190190565b6020808252601490820152732737ba103a3432903a34b1b5b2ba1037bbb732b960611b604082015260600190565b634e487b7160e01b600052603160045260246000fd5b60008351613d7b8184602088016131e7565b602d60f81b9083019081528351613d998160018401602088016131e7565b01600101949350505050565b604081526000613db8604083018561320b565b90508260208301529392505050565b60208082526026908201527f4e6f7420617574686f72697a656420746f20757064617465207469636b65742060408201526573746174757360d01b606082015260800190565b60008351613e1f8184602088016131e7565b9190910191825250602001919050565b6001600160a01b03868116825285166020820152604081018490526060810183905260a060808201819052600090613e699083018461320b565b979650505050505050565b600060208284031215613e8657600080fd5b81516131c781613194565b6001600160a01b0386811682528516602082015260a060408201819052600090613ebd908301866134e3565b8281036060840152613ecf81866134e3565b905082810360808401526135c1818561320b565b604081526000613ef660408301856134e3565b8281036020840152613f0881856134e3565b9594505050505056fe4d2e7a1e3f5dd6e203f087b15756ccf0e4ccd947fe1b639a38540089a1e47f63a2646970667358221220ee936996eb03b75cb1f22d1377a518d4a3f142af288ac6493b8a26502ce2904a64736f6c63430008140033a49807205ce4d355092ef5a8a18f56e8913cf4a201fbe287825b095693c21775",
  "immutableReferences": {},
  "source": "// SPDX-License-Identifier: MIT\r\npragma solidity ^0.8.0;\r\n\r\nimport \"@openzeppelin/contracts/token/ERC1155/extensions/ERC1155Supply.sol\";\r\nimport \"@openzeppelin/contracts/access/AccessControl.sol\";\r\n\r\ncontract Ticket_NFT is AccessControl, ERC1155Supply {\r\n    \r\n    struct Event {\r\n        uint256 id;\r\n        string name;\r\n        uint256 time;\r\n        mapping(uint256 => Sector) sectors;\r\n        uint256 sectorCount;\r\n    }\r\n\r\n    struct Sector {\r\n        uint256 id;\r\n        string name;\r\n        uint256 totalSeats;\r\n        uint256 availableSeats;\r\n        uint256 seats_x_lines;\r\n    }\r\n\r\n    enum TicketStatus {\r\n        Available,\r\n        Owned,\r\n        Validated,\r\n        Expired\r\n    }\r\n\r\n    struct Ticket {\r\n        uint256 id;\r\n        uint256 eventId;\r\n        uint256 sectorId;\r\n        uint256 groupId;\r\n        uint256 originalPrice;\r\n        TicketStatus status;\r\n        string seat;\r\n        bytes32 hashName;\r\n    }\r\n\r\n    bytes32 public constant ORGANIZER_ROLE = keccak256(\"ORGANIZER_ROLE\");\r\n    bytes32 public constant ADMIN_ROLE = keccak256(\"ADMIN_ROLE\");\r\n\r\n    uint256 public eventCount;\r\n    uint256 public ticketCount;\r\n    uint256 public groupCount;\r\n\r\n    mapping(uint256 => Event) public events;\r\n    mapping(uint256 => Ticket) public tickets;\r\n    mapping(uint256 => uint256[]) public groups;\r\n\r\n    string public organization_name;\r\n\r\n    constructor(string memory _organization_name, address _organizer)\r\n        ERC1155(\"\")\r\n        ERC1155Supply()\r\n    {\r\n        _grantRole(DEFAULT_ADMIN_ROLE, tx.origin); //quello chedeploya la blockchain per primo (io)\r\n        _grantRole(ORGANIZER_ROLE, _organizer); //quello che chiama il contratto, ovvero sony, universal...\r\n        _grantRole(ADMIN_ROLE, _organizer);\r\n        _setRoleAdmin(ADMIN_ROLE, ADMIN_ROLE);\r\n\r\n        organization_name = _organization_name;\r\n    }\r\n\r\n    function addOrganizer(address _organizer) public onlyRole(ADMIN_ROLE) {\r\n        _grantRole(ORGANIZER_ROLE, _organizer);\r\n    }\r\n\r\n    function removeOrganizer(address _organizer) public onlyRole(ADMIN_ROLE) {\r\n        _revokeRole(ORGANIZER_ROLE, _organizer);\r\n    }\r\n\r\n    //------------------------Gestione biglietti-----------------------------------------------------------\r\n\r\n    event EventCreated(uint256 indexed eventId, string name, uint256 time);\r\n\r\n    function createEvent(string memory _name, uint256 _time)\r\n        external\r\n        onlyRole(ORGANIZER_ROLE)\r\n    {\r\n        eventCount++;\r\n        Event storage newEvent = events[eventCount];\r\n        newEvent.id = eventCount;\r\n        newEvent.name = _name;\r\n        newEvent.time = _time;\r\n        newEvent.sectorCount = 0;\r\n\r\n        emit EventCreated(eventCount, _name, _time);\r\n    }\r\n\r\n    event SectorCreated(uint256 indexed eventId, uint256 indexed sectorId, string name);\r\n\r\n    function createSector(\r\n        uint256 _eventId,\r\n        string memory _name,\r\n        uint256 _totalSeats,\r\n        uint256 _seat_x_lines\r\n    ) external onlyRole(ORGANIZER_ROLE) {\r\n        Event storage _event = events[_eventId];\r\n        require(bytes(_event.name).length > 0);\r\n        _event.sectorCount++;\r\n        Sector storage newSector = _event.sectors[_event.sectorCount];\r\n        newSector.id = _event.sectorCount;\r\n        newSector.name = _name;\r\n        newSector.totalSeats = _totalSeats;\r\n        newSector.availableSeats = _totalSeats;\r\n        newSector.seats_x_lines = _seat_x_lines;\r\n        \r\n        emit SectorCreated(_eventId, newSector.id, _name);\r\n    }\r\n\r\n    event TicketCreated(uint256 indexed ticketId, uint256 eventId, uint256 sectorId, uint256 price);\r\n    function createTicket(\r\n        uint256 _eventId,\r\n        uint256 _sectorId,\r\n        uint256 _originalPrice\r\n    ) external onlyRole(ORGANIZER_ROLE) {\r\n        require(_originalPrice > 0, \"Price must be greater than 0\");\r\n        Sector storage sector = events[_eventId].sectors[_sectorId];\r\n        require(sector.availableSeats > 0, \"No seats left\");\r\n\r\n        ticketCount++;\r\n        uint256 ticketId = ticketCount;\r\n        Ticket storage newTicket = tickets[ticketId];\r\n        newTicket.id = ticketId;\r\n        newTicket.eventId = _eventId;\r\n        newTicket.sectorId = _sectorId;\r\n        newTicket.status = TicketStatus.Owned;\r\n        newTicket.originalPrice = _originalPrice;\r\n        newTicket.hashName = generateHash(organization_name, ticketId);\r\n        sector.availableSeats--;\r\n\r\n        emit TicketCreated(ticketId, _eventId, _sectorId, _originalPrice);\r\n        _mint(msg.sender, ticketCount, 1, \"\");\r\n    }\r\n\r\n    function generateHash(string memory str, uint256 num) public pure returns (bytes32){\r\n        return keccak256(abi.encodePacked(str, num));\r\n    }\r\n\r\n    //------------------------Gestione gruppi-----------------------------------------------------------\r\n    function createGroup(uint256 ticketId) external returns (uint256){\r\n        require(balanceOf(msg.sender, ticketId) > 0, \"Not the ticket owner\");\r\n        uint256 groupId = ++groupCount;\r\n\r\n        tickets[ticketId].groupId = groupId;\r\n        groups[groupId].push(ticketId);\r\n\r\n        return groupId;\r\n\r\n    }\r\n\r\n    function addParticipant(uint256 groupId, uint256 ticketId) external {\r\n        require(groups[groupId].length > 0, \"The group does not exist\");\r\n\r\n        // Verify that the caller is a member of the group\r\n        bool isGroupMember = false;\r\n        for (uint256 i = 0; i < groups[groupId].length; i++) {\r\n            if (balanceOf(msg.sender, tickets[groups[groupId][i]].id) > 0) {\r\n                isGroupMember = true;\r\n                break;\r\n            }\r\n        }\r\n        require( isGroupMember, \"You must be a group member to add participants\");\r\n\r\n        // Verify that the ticket has status Owned\r\n        require( tickets[ticketId].status == TicketStatus.Owned, \"The ticket is not 'Owned'\" );\r\n        require( tickets[ticketId].groupId == 0, \"The ticket is already assigned to a group\" );\r\n\r\n        // Verify that the new ticket has the same sector and event as others in the group\r\n        uint256 groupEventId = tickets[groups[groupId][0]].eventId;\r\n        uint256 groupSectorId = tickets[groups[groupId][0]].sectorId;\r\n        require( tickets[ticketId].eventId == groupEventId, \"The ticket does not match the group's event\" );\r\n        require( tickets[ticketId].sectorId == groupSectorId, \"The ticket does not match the group's sector\" );\r\n\r\n        // Associate the ticket with the group and update the mapping\r\n        tickets[ticketId].groupId = groupId;\r\n        groups[groupId].push(ticketId);\r\n    }\r\n\r\n    // Rimuove un partecipante dal gruppo\r\n    function removeParticipant(uint256 groupId, uint256 ticketId) external {\r\n        require(groups[groupId].length > 0, \"Il gruppo non esiste\");\r\n        require(balanceOf(msg.sender, ticketId) > 0, \"Not the ticket owner\");\r\n        require( tickets[ticketId].groupId == groupId, \"Il ticket non appartiene a questo gruppo\" );\r\n\r\n        tickets[ticketId].groupId = 0;\r\n\r\n        // Rimuove il ticket dal gruppo\r\n        uint256 index;\r\n        bool found = false;\r\n        for (uint256 i = 0; i < groups[groupId].length; i++) {\r\n            if ( keccak256(abi.encodePacked(groups[groupId][i])) == keccak256(abi.encodePacked(ticketId)) ) {\r\n                index = i;\r\n                found = true;\r\n                break;\r\n            }\r\n        }\r\n        require(found, \"Ticket non trovato nel gruppo\");\r\n        groups[groupId][index] = groups[groupId][groups[groupId].length - 1];\r\n        groups[groupId].pop();\r\n    }\r\n\r\n    function setOwnerName(\r\n        uint256 ticketId,\r\n        string memory name,\r\n        string memory surname\r\n    ) external {\r\n        require(hasRole(ORGANIZER_ROLE, msg.sender) || balanceOf(msg.sender, ticketId) > 0, \"Not the ticket owner\");\r\n        Ticket storage ticket = tickets[ticketId];\r\n        ticket.hashName = generateHash( string(abi.encodePacked(name, \"-\", surname)), ticketId );\r\n    }\r\n\r\n    function validateTicket(\r\n        uint256 ticketId,\r\n        string memory name,\r\n        string memory surname\r\n    ) external onlyRole(ORGANIZER_ROLE) {\r\n        Ticket storage ticket = tickets[ticketId];\r\n        require( ticket.status != TicketStatus.Validated, \"Ticket already validated\" );\r\n        require(ticket.status != TicketStatus.Expired, \"Ticket expired!\");\r\n        bytes32 hashOwner = generateHash( string(abi.encodePacked(name, \"-\", surname)), ticketId );\r\n        require(ticket.hashName == hashOwner, \"Ticket has different owner!\");\r\n        ticket.status = TicketStatus.Validated;\r\n    }\r\n\r\n    function updateTicketStatus(uint256 ticketId, TicketStatus newStatus) external\r\n    {\r\n        Ticket storage ticket = tickets[ticketId];\r\n\r\n        if((newStatus == TicketStatus.Validated || newStatus == TicketStatus.Available) && (ticket.status == TicketStatus.Owned || ticket.status == TicketStatus.Available))\r\n            require(hasRole(ORGANIZER_ROLE, msg.sender) || balanceOf(msg.sender, ticketId) > 0, \"Not authorized to update ticket status\");\r\n        else \r\n            require(hasRole(ORGANIZER_ROLE, msg.sender), \"Not authorized to update ticket status\");\r\n\r\n        ticket.status = newStatus;\r\n    }\r\n\r\n\r\n\r\n    //chiama per mettere tutti i ticket di un evento expired\r\n    function expireTickets(uint256 _eventId) external onlyRole(ORGANIZER_ROLE) {\r\n        Event storage _event = events[_eventId];\r\n        require(_event.time < block.timestamp, \"Event has not yet occurred\");\r\n\r\n        for (uint256 i = 1; i <= ticketCount; i++) {\r\n            Ticket storage ticket = tickets[i];\r\n            if (ticket.eventId == _eventId && (ticket.status != TicketStatus.Expired && ticket.status != TicketStatus.Validated)) {\r\n                ticket.status = TicketStatus.Expired;\r\n            }\r\n        }\r\n    }\r\n\r\n    // get an event detail based on the event id\r\n    function getEventDetails(uint256 _eventId)\r\n        external\r\n        view\r\n        returns (\r\n            uint256 id,\r\n            string memory name,\r\n            uint256 time,\r\n            uint256 sectorCount,\r\n            uint256 availableSeats\r\n        )\r\n    {\r\n        Event storage _event = events[_eventId];\r\n\r\n        uint256 totAvailableSeats = 0;\r\n        for (uint i = 0; i < _event.sectorCount + 1; i++) {\r\n            totAvailableSeats += _event.sectors[i].totalSeats;\r\n        }\r\n\r\n        return (_event.id, _event.name, _event.time, _event.sectorCount, totAvailableSeats);\r\n    }\r\n\r\n\r\n    function getAllEventsDetails() external view returns (\r\n        uint256[] memory ids,\r\n        string[] memory names,\r\n        uint256[] memory times,\r\n        uint256[] memory sectorCounts,\r\n        uint256[] memory availableSeats\r\n        ) {\r\n            ids = new uint256[](eventCount);\r\n            names = new string[](eventCount);\r\n            times = new uint256[](eventCount);\r\n            sectorCounts = new uint256[](eventCount);\r\n            availableSeats = new uint256[](eventCount);\r\n\r\n            for (uint256 i = 1; i <= eventCount; i++) {\r\n                Event storage _event = events[i];\r\n                uint256 totAvailableSeats = 0;\r\n\r\n                for (uint256 j = 0; j <= _event.sectorCount; j++) {\r\n                    totAvailableSeats += _event.sectors[j].totalSeats;\r\n                }\r\n\r\n                // populate array\r\n                ids[i - 1] = _event.id;\r\n                names[i - 1] = _event.name;\r\n                times[i - 1] = _event.time;\r\n                sectorCounts[i - 1] = _event.sectorCount;\r\n                availableSeats[i - 1] = totAvailableSeats;\r\n            }\r\n        }\r\n\r\n\r\n    function getTickets(uint _start, uint _end) public view returns (Ticket[] memory) {\r\n        require(_end <= ticketCount, \"Invalid end\");\r\n        require(_end >= _start, \"Invalid parameters\");\r\n\r\n        Ticket[] memory array = new Ticket[]((_end - _start)+1);\r\n        for (uint i = _start; i < (_end+1); i++) {\r\n            array[i - _start] = tickets[i];\r\n        }\r\n        return array;\r\n    }\r\n\r\n    // get a sector detail based on the event id and sector id, along with all associated tickets\r\n    function getSector(uint256 _eventId, uint256 _sectorId) external view returns (\r\n            uint256 id,\r\n            string memory name,\r\n            uint256 totalSeats,\r\n            uint256 availableSeats,\r\n            uint256 seats_x_lines,\r\n            uint256[] memory ticketIds,\r\n            uint256[] memory associatedGroupIds\r\n        )\r\n    {\r\n        // Fetch the sector details\r\n        Sector storage sector = events[_eventId].sectors[_sectorId];\r\n\r\n        // Temporary array to hold ticket IDs associated with the sector\r\n        uint256 ticketSector=0;\r\n\r\n        for (uint256 i = 1; i <= ticketCount; i++) {\r\n            if (\r\n                tickets[i].eventId == _eventId &&\r\n                tickets[i].sectorId == _sectorId\r\n            ) {\r\n                ticketSector++;\r\n            }\r\n        }\r\n\r\n        // Allocate memory for ticket IDs\r\n        uint256[] memory associatedTicketIds = new uint256[](ticketSector);\r\n        uint256[] memory groupIds = new uint256[](ticketSector);\r\n\r\n        uint256 index = 0;\r\n\r\n        for (uint256 i = 1; i <= ticketCount && index<ticketSector; i++) {\r\n            if (\r\n                tickets[i].eventId == _eventId &&\r\n                tickets[i].sectorId == _sectorId\r\n            ) {\r\n                associatedTicketIds[index] = tickets[i].id;\r\n                groupIds[index] = tickets[i].groupId;\r\n                index++;\r\n            }\r\n        }\r\n\r\n        return (\r\n            sector.id,\r\n            sector.name,\r\n            sector.totalSeats,\r\n            sector.availableSeats,\r\n            sector.seats_x_lines,\r\n            associatedTicketIds,\r\n            groupIds\r\n        );\r\n    }\r\n\r\n    // get a ticket detail based on the ticket id\r\n    function getTicket(uint256 ticketId) external view returns (\r\n        uint256 id,\r\n        uint eventId,\r\n        uint sectorId,\r\n        uint groupId,\r\n        uint originalPrice,\r\n        TicketStatus status,\r\n        string memory seat,\r\n        bytes32 hashName){\r\n\r\n        Ticket storage ticket = tickets[ticketId];\r\n        return (\r\n            ticket.id,\r\n            ticket.eventId,\r\n            ticket.sectorId,\r\n            ticket.groupId,\r\n            ticket.originalPrice,\r\n            ticket.status,\r\n            ticket.seat,\r\n            ticket.hashName\r\n        );\r\n    }\r\n\r\n    function assignSeats(uint256[] memory ticket_ids, string[] memory seats) external onlyRole(ORGANIZER_ROLE) {\r\n        require(ticket_ids.length == seats.length, \"Mismatched input arrays\");\r\n\r\n        for (uint256 i = 0; i < ticket_ids.length; i++) {\r\n            Ticket storage ticket = tickets[ticket_ids[i]];\r\n            ticket.seat = seats[i];\r\n        }\r\n    }\r\n\r\n    // get all the ticket of a group based on the group id\r\n    function getGroupTickets(uint256 groupId)external view returns (uint256[] memory) { \r\n        return groups[groupId];\r\n    }\r\n\r\n    // check if a ticket is associated to a group\r\n    function isTicketInGroup(uint256 ticketId) external view returns (bool) {\r\n        return tickets[ticketId].groupId != 0;\r\n    }\r\n\r\n\r\n    function getnextTicketCount() external view returns (uint256) {\r\n        return ticketCount;\r\n    } \r\n\r\n\r\n\r\n    function supportsInterface(bytes4 _interfaceId)\r\n        public\r\n        view\r\n        virtual\r\n        override(AccessControl, ERC1155)\r\n        returns (bool)\r\n    {\r\n        return super.supportsInterface(_interfaceId);\r\n    }\r\n}\r\n",
  "sourcePath": "C:\\Users\\eddie\\OneDrive\\Desktop\\Blockchain\\BlockchainTicketsUnitn-main\\truffle\\contracts\\Ticket_NFT.sol",
  "compiler": {
    "name": "solc",
    "version": "0.8.20+commit.a1b79de6.Emscripten.clang"
  },
  "schemaVersion": "3.4.16",
  "updatedAt": "2025-02-11T17:35:33.243Z",
  "networkType": "ethereum",
  "devdoc": {
    "errors": {
      "AccessControlBadConfirmation()": [
        {
          "details": "The caller of a function is not the expected one. NOTE: Don't confuse with {AccessControlUnauthorizedAccount}."
        }
      ],
      "AccessControlUnauthorizedAccount(address,bytes32)": [
        {
          "details": "The `account` is missing a role."
        }
      ],
      "ERC1155InsufficientBalance(address,uint256,uint256,uint256)": [
        {
          "details": "Indicates an error related to the current `balance` of a `sender`. Used in transfers.",
          "params": {
            "balance": "Current balance for the interacting account.",
            "needed": "Minimum amount required to perform a transfer.",
            "sender": "Address whose tokens are being transferred.",
            "tokenId": "Identifier number of a token."
          }
        }
      ],
      "ERC1155InvalidApprover(address)": [
        {
          "details": "Indicates a failure with the `approver` of a token to be approved. Used in approvals.",
          "params": {
            "approver": "Address initiating an approval operation."
          }
        }
      ],
      "ERC1155InvalidArrayLength(uint256,uint256)": [
        {
          "details": "Indicates an array length mismatch between ids and values in a safeBatchTransferFrom operation. Used in batch transfers.",
          "params": {
            "idsLength": "Length of the array of token identifiers",
            "valuesLength": "Length of the array of token amounts"
          }
        }
      ],
      "ERC1155InvalidOperator(address)": [
        {
          "details": "Indicates a failure with the `operator` to be approved. Used in approvals.",
          "params": {
            "operator": "Address that may be allowed to operate on tokens without being their owner."
          }
        }
      ],
      "ERC1155InvalidReceiver(address)": [
        {
          "details": "Indicates a failure with the token `receiver`. Used in transfers.",
          "params": {
            "receiver": "Address to which tokens are being transferred."
          }
        }
      ],
      "ERC1155InvalidSender(address)": [
        {
          "details": "Indicates a failure with the token `sender`. Used in transfers.",
          "params": {
            "sender": "Address whose tokens are being transferred."
          }
        }
      ],
      "ERC1155MissingApprovalForAll(address,address)": [
        {
          "details": "Indicates a failure with the `operator`s approval. Used in transfers.",
          "params": {
            "operator": "Address that may be allowed to operate on tokens without being their owner.",
            "owner": "Address of the current owner of a token."
          }
        }
      ]
    },
    "events": {
      "ApprovalForAll(address,address,bool)": {
        "details": "Emitted when `account` grants or revokes permission to `operator` to transfer their tokens, according to `approved`."
      },
      "RoleAdminChanged(bytes32,bytes32,bytes32)": {
        "details": "Emitted when `newAdminRole` is set as ``role``'s admin role, replacing `previousAdminRole` `DEFAULT_ADMIN_ROLE` is the starting admin for all roles, despite {RoleAdminChanged} not being emitted signaling this."
      },
      "RoleGranted(bytes32,address,address)": {
        "details": "Emitted when `account` is granted `role`. `sender` is the account that originated the contract call. This account bears the admin role (for the granted role). Expected in cases where the role was granted using the internal {AccessControl-_grantRole}."
      },
      "RoleRevoked(bytes32,address,address)": {
        "details": "Emitted when `account` is revoked `role`. `sender` is the account that originated the contract call:   - if using `revokeRole`, it is the admin role bearer   - if using `renounceRole`, it is the role bearer (i.e. `account`)"
      },
      "TransferBatch(address,address,address,uint256[],uint256[])": {
        "details": "Equivalent to multiple {TransferSingle} events, where `operator`, `from` and `to` are the same for all transfers."
      },
      "TransferSingle(address,address,address,uint256,uint256)": {
        "details": "Emitted when `value` amount of tokens of type `id` are transferred from `from` to `to` by `operator`."
      },
      "URI(string,uint256)": {
        "details": "Emitted when the URI for token type `id` changes to `value`, if it is a non-programmatic URI. If an {URI} event was emitted for `id`, the standard https://eips.ethereum.org/EIPS/eip-1155#metadata-extensions[guarantees] that `value` will equal the value returned by {IERC1155MetadataURI-uri}."
      }
    },
    "kind": "dev",
    "methods": {
      "balanceOf(address,uint256)": {
        "details": "See {IERC1155-balanceOf}."
      },
      "balanceOfBatch(address[],uint256[])": {
        "details": "See {IERC1155-balanceOfBatch}. Requirements: - `accounts` and `ids` must have the same length."
      },
      "exists(uint256)": {
        "details": "Indicates whether any token exist with a given id, or not."
      },
      "getRoleAdmin(bytes32)": {
        "details": "Returns the admin role that controls `role`. See {grantRole} and {revokeRole}. To change a role's admin, use {_setRoleAdmin}."
      },
      "grantRole(bytes32,address)": {
        "details": "Grants `role` to `account`. If `account` had not been already granted `role`, emits a {RoleGranted} event. Requirements: - the caller must have ``role``'s admin role. May emit a {RoleGranted} event."
      },
      "hasRole(bytes32,address)": {
        "details": "Returns `true` if `account` has been granted `role`."
      },
      "isApprovedForAll(address,address)": {
        "details": "See {IERC1155-isApprovedForAll}."
      },
      "renounceRole(bytes32,address)": {
        "details": "Revokes `role` from the calling account. Roles are often managed via {grantRole} and {revokeRole}: this function's purpose is to provide a mechanism for accounts to lose their privileges if they are compromised (such as when a trusted device is misplaced). If the calling account had been revoked `role`, emits a {RoleRevoked} event. Requirements: - the caller must be `callerConfirmation`. May emit a {RoleRevoked} event."
      },
      "revokeRole(bytes32,address)": {
        "details": "Revokes `role` from `account`. If `account` had been granted `role`, emits a {RoleRevoked} event. Requirements: - the caller must have ``role``'s admin role. May emit a {RoleRevoked} event."
      },
      "safeBatchTransferFrom(address,address,uint256[],uint256[],bytes)": {
        "details": "See {IERC1155-safeBatchTransferFrom}."
      },
      "safeTransferFrom(address,address,uint256,uint256,bytes)": {
        "details": "See {IERC1155-safeTransferFrom}."
      },
      "setApprovalForAll(address,bool)": {
        "details": "See {IERC1155-setApprovalForAll}."
      },
      "totalSupply()": {
        "details": "Total value of tokens."
      },
      "totalSupply(uint256)": {
        "details": "Total value of tokens in with a given id."
      },
      "uri(uint256)": {
        "details": "See {IERC1155MetadataURI-uri}. This implementation returns the same URI for *all* token types. It relies on the token type ID substitution mechanism https://eips.ethereum.org/EIPS/eip-1155#metadata[defined in the ERC]. Clients calling this function must replace the `\\{id\\}` substring with the actual token type ID."
      }
    },
    "version": 1
  },
  "userdoc": {
    "kind": "user",
    "methods": {},
    "version": 1
  }
}