{
  "contractName": "Ticket_NFT_old",
  "abi": [
    {
      "inputs": [
        {
          "internalType": "string",
          "name": "_organization_name",
          "type": "string"
        },
        {
          "internalType": "address",
          "name": "_organizer",
          "type": "address"
        }
      ],
      "stateMutability": "nonpayable",
      "type": "constructor"
    },
    {
      "inputs": [],
      "name": "AccessControlBadConfirmation",
      "type": "error"
    },
    {
      "inputs": [
        {
          "internalType": "address",
          "name": "account",
          "type": "address"
        },
        {
          "internalType": "bytes32",
          "name": "neededRole",
          "type": "bytes32"
        }
      ],
      "name": "AccessControlUnauthorizedAccount",
      "type": "error"
    },
    {
      "inputs": [
        {
          "internalType": "address",
          "name": "sender",
          "type": "address"
        },
        {
          "internalType": "uint256",
          "name": "balance",
          "type": "uint256"
        },
        {
          "internalType": "uint256",
          "name": "needed",
          "type": "uint256"
        },
        {
          "internalType": "uint256",
          "name": "tokenId",
          "type": "uint256"
        }
      ],
      "name": "ERC1155InsufficientBalance",
      "type": "error"
    },
    {
      "inputs": [
        {
          "internalType": "address",
          "name": "approver",
          "type": "address"
        }
      ],
      "name": "ERC1155InvalidApprover",
      "type": "error"
    },
    {
      "inputs": [
        {
          "internalType": "uint256",
          "name": "idsLength",
          "type": "uint256"
        },
        {
          "internalType": "uint256",
          "name": "valuesLength",
          "type": "uint256"
        }
      ],
      "name": "ERC1155InvalidArrayLength",
      "type": "error"
    },
    {
      "inputs": [
        {
          "internalType": "address",
          "name": "operator",
          "type": "address"
        }
      ],
      "name": "ERC1155InvalidOperator",
      "type": "error"
    },
    {
      "inputs": [
        {
          "internalType": "address",
          "name": "receiver",
          "type": "address"
        }
      ],
      "name": "ERC1155InvalidReceiver",
      "type": "error"
    },
    {
      "inputs": [
        {
          "internalType": "address",
          "name": "sender",
          "type": "address"
        }
      ],
      "name": "ERC1155InvalidSender",
      "type": "error"
    },
    {
      "inputs": [
        {
          "internalType": "address",
          "name": "operator",
          "type": "address"
        },
        {
          "internalType": "address",
          "name": "owner",
          "type": "address"
        }
      ],
      "name": "ERC1155MissingApprovalForAll",
      "type": "error"
    },
    {
      "anonymous": false,
      "inputs": [
        {
          "indexed": true,
          "internalType": "address",
          "name": "account",
          "type": "address"
        },
        {
          "indexed": true,
          "internalType": "address",
          "name": "operator",
          "type": "address"
        },
        {
          "indexed": false,
          "internalType": "bool",
          "name": "approved",
          "type": "bool"
        }
      ],
      "name": "ApprovalForAll",
      "type": "event"
    },
    {
      "anonymous": false,
      "inputs": [
        {
          "indexed": false,
          "internalType": "string",
          "name": "organizationName",
          "type": "string"
        },
        {
          "indexed": false,
          "internalType": "address",
          "name": "admin",
          "type": "address"
        }
      ],
      "name": "OrganizationCreatedTi",
      "type": "event"
    },
    {
      "anonymous": false,
      "inputs": [
        {
          "indexed": true,
          "internalType": "bytes32",
          "name": "role",
          "type": "bytes32"
        },
        {
          "indexed": true,
          "internalType": "bytes32",
          "name": "previousAdminRole",
          "type": "bytes32"
        },
        {
          "indexed": true,
          "internalType": "bytes32",
          "name": "newAdminRole",
          "type": "bytes32"
        }
      ],
      "name": "RoleAdminChanged",
      "type": "event"
    },
    {
      "anonymous": false,
      "inputs": [
        {
          "indexed": true,
          "internalType": "bytes32",
          "name": "role",
          "type": "bytes32"
        },
        {
          "indexed": true,
          "internalType": "address",
          "name": "account",
          "type": "address"
        },
        {
          "indexed": true,
          "internalType": "address",
          "name": "sender",
          "type": "address"
        }
      ],
      "name": "RoleGranted",
      "type": "event"
    },
    {
      "anonymous": false,
      "inputs": [
        {
          "indexed": true,
          "internalType": "bytes32",
          "name": "role",
          "type": "bytes32"
        },
        {
          "indexed": true,
          "internalType": "address",
          "name": "account",
          "type": "address"
        },
        {
          "indexed": true,
          "internalType": "address",
          "name": "sender",
          "type": "address"
        }
      ],
      "name": "RoleRevoked",
      "type": "event"
    },
    {
      "anonymous": false,
      "inputs": [
        {
          "indexed": true,
          "internalType": "address",
          "name": "operator",
          "type": "address"
        },
        {
          "indexed": true,
          "internalType": "address",
          "name": "from",
          "type": "address"
        },
        {
          "indexed": true,
          "internalType": "address",
          "name": "to",
          "type": "address"
        },
        {
          "indexed": false,
          "internalType": "uint256[]",
          "name": "ids",
          "type": "uint256[]"
        },
        {
          "indexed": false,
          "internalType": "uint256[]",
          "name": "values",
          "type": "uint256[]"
        }
      ],
      "name": "TransferBatch",
      "type": "event"
    },
    {
      "anonymous": false,
      "inputs": [
        {
          "indexed": true,
          "internalType": "address",
          "name": "operator",
          "type": "address"
        },
        {
          "indexed": true,
          "internalType": "address",
          "name": "from",
          "type": "address"
        },
        {
          "indexed": true,
          "internalType": "address",
          "name": "to",
          "type": "address"
        },
        {
          "indexed": false,
          "internalType": "uint256",
          "name": "id",
          "type": "uint256"
        },
        {
          "indexed": false,
          "internalType": "uint256",
          "name": "value",
          "type": "uint256"
        }
      ],
      "name": "TransferSingle",
      "type": "event"
    },
    {
      "anonymous": false,
      "inputs": [
        {
          "indexed": false,
          "internalType": "string",
          "name": "value",
          "type": "string"
        },
        {
          "indexed": true,
          "internalType": "uint256",
          "name": "id",
          "type": "uint256"
        }
      ],
      "name": "URI",
      "type": "event"
    },
    {
      "inputs": [],
      "name": "ADMIN_ROLE",
      "outputs": [
        {
          "internalType": "bytes32",
          "name": "",
          "type": "bytes32"
        }
      ],
      "stateMutability": "view",
      "type": "function"
    },
    {
      "inputs": [],
      "name": "DEFAULT_ADMIN_ROLE",
      "outputs": [
        {
          "internalType": "bytes32",
          "name": "",
          "type": "bytes32"
        }
      ],
      "stateMutability": "view",
      "type": "function"
    },
    {
      "inputs": [],
      "name": "ORGANIZER_ROLE",
      "outputs": [
        {
          "internalType": "bytes32",
          "name": "",
          "type": "bytes32"
        }
      ],
      "stateMutability": "view",
      "type": "function"
    },
    {
      "inputs": [
        {
          "internalType": "address",
          "name": "account",
          "type": "address"
        },
        {
          "internalType": "uint256",
          "name": "id",
          "type": "uint256"
        }
      ],
      "name": "balanceOf",
      "outputs": [
        {
          "internalType": "uint256",
          "name": "",
          "type": "uint256"
        }
      ],
      "stateMutability": "view",
      "type": "function"
    },
    {
      "inputs": [
        {
          "internalType": "address[]",
          "name": "accounts",
          "type": "address[]"
        },
        {
          "internalType": "uint256[]",
          "name": "ids",
          "type": "uint256[]"
        }
      ],
      "name": "balanceOfBatch",
      "outputs": [
        {
          "internalType": "uint256[]",
          "name": "",
          "type": "uint256[]"
        }
      ],
      "stateMutability": "view",
      "type": "function"
    },
    {
      "inputs": [],
      "name": "eventCount",
      "outputs": [
        {
          "internalType": "uint256",
          "name": "",
          "type": "uint256"
        }
      ],
      "stateMutability": "view",
      "type": "function"
    },
    {
      "inputs": [
        {
          "internalType": "uint256",
          "name": "",
          "type": "uint256"
        }
      ],
      "name": "events",
      "outputs": [
        {
          "internalType": "uint256",
          "name": "id",
          "type": "uint256"
        },
        {
          "internalType": "string",
          "name": "name",
          "type": "string"
        },
        {
          "internalType": "uint256",
          "name": "time",
          "type": "uint256"
        },
        {
          "internalType": "uint256",
          "name": "sectorCount",
          "type": "uint256"
        }
      ],
      "stateMutability": "view",
      "type": "function"
    },
    {
      "inputs": [
        {
          "internalType": "uint256",
          "name": "id",
          "type": "uint256"
        }
      ],
      "name": "exists",
      "outputs": [
        {
          "internalType": "bool",
          "name": "",
          "type": "bool"
        }
      ],
      "stateMutability": "view",
      "type": "function"
    },
    {
      "inputs": [
        {
          "internalType": "bytes32",
          "name": "role",
          "type": "bytes32"
        }
      ],
      "name": "getRoleAdmin",
      "outputs": [
        {
          "internalType": "bytes32",
          "name": "",
          "type": "bytes32"
        }
      ],
      "stateMutability": "view",
      "type": "function"
    },
    {
      "inputs": [
        {
          "internalType": "bytes32",
          "name": "role",
          "type": "bytes32"
        },
        {
          "internalType": "address",
          "name": "account",
          "type": "address"
        }
      ],
      "name": "grantRole",
      "outputs": [],
      "stateMutability": "nonpayable",
      "type": "function"
    },
    {
      "inputs": [
        {
          "internalType": "uint256",
          "name": "",
          "type": "uint256"
        },
        {
          "internalType": "uint256",
          "name": "",
          "type": "uint256"
        }
      ],
      "name": "groups",
      "outputs": [
        {
          "internalType": "uint256",
          "name": "",
          "type": "uint256"
        }
      ],
      "stateMutability": "view",
      "type": "function"
    },
    {
      "inputs": [
        {
          "internalType": "bytes32",
          "name": "role",
          "type": "bytes32"
        },
        {
          "internalType": "address",
          "name": "account",
          "type": "address"
        }
      ],
      "name": "hasRole",
      "outputs": [
        {
          "internalType": "bool",
          "name": "",
          "type": "bool"
        }
      ],
      "stateMutability": "view",
      "type": "function"
    },
    {
      "inputs": [
        {
          "internalType": "address",
          "name": "account",
          "type": "address"
        },
        {
          "internalType": "address",
          "name": "operator",
          "type": "address"
        }
      ],
      "name": "isApprovedForAll",
      "outputs": [
        {
          "internalType": "bool",
          "name": "",
          "type": "bool"
        }
      ],
      "stateMutability": "view",
      "type": "function"
    },
    {
      "inputs": [],
      "name": "organization_name",
      "outputs": [
        {
          "internalType": "string",
          "name": "",
          "type": "string"
        }
      ],
      "stateMutability": "view",
      "type": "function"
    },
    {
      "inputs": [
        {
          "internalType": "bytes32",
          "name": "role",
          "type": "bytes32"
        },
        {
          "internalType": "address",
          "name": "callerConfirmation",
          "type": "address"
        }
      ],
      "name": "renounceRole",
      "outputs": [],
      "stateMutability": "nonpayable",
      "type": "function"
    },
    {
      "inputs": [
        {
          "internalType": "bytes32",
          "name": "role",
          "type": "bytes32"
        },
        {
          "internalType": "address",
          "name": "account",
          "type": "address"
        }
      ],
      "name": "revokeRole",
      "outputs": [],
      "stateMutability": "nonpayable",
      "type": "function"
    },
    {
      "inputs": [
        {
          "internalType": "address",
          "name": "from",
          "type": "address"
        },
        {
          "internalType": "address",
          "name": "to",
          "type": "address"
        },
        {
          "internalType": "uint256[]",
          "name": "ids",
          "type": "uint256[]"
        },
        {
          "internalType": "uint256[]",
          "name": "values",
          "type": "uint256[]"
        },
        {
          "internalType": "bytes",
          "name": "data",
          "type": "bytes"
        }
      ],
      "name": "safeBatchTransferFrom",
      "outputs": [],
      "stateMutability": "nonpayable",
      "type": "function"
    },
    {
      "inputs": [
        {
          "internalType": "address",
          "name": "from",
          "type": "address"
        },
        {
          "internalType": "address",
          "name": "to",
          "type": "address"
        },
        {
          "internalType": "uint256",
          "name": "id",
          "type": "uint256"
        },
        {
          "internalType": "uint256",
          "name": "value",
          "type": "uint256"
        },
        {
          "internalType": "bytes",
          "name": "data",
          "type": "bytes"
        }
      ],
      "name": "safeTransferFrom",
      "outputs": [],
      "stateMutability": "nonpayable",
      "type": "function"
    },
    {
      "inputs": [
        {
          "internalType": "address",
          "name": "operator",
          "type": "address"
        },
        {
          "internalType": "bool",
          "name": "approved",
          "type": "bool"
        }
      ],
      "name": "setApprovalForAll",
      "outputs": [],
      "stateMutability": "nonpayable",
      "type": "function"
    },
    {
      "inputs": [],
      "name": "ticketCount",
      "outputs": [
        {
          "internalType": "uint256",
          "name": "",
          "type": "uint256"
        }
      ],
      "stateMutability": "view",
      "type": "function"
    },
    {
      "inputs": [],
      "name": "ticketIdLength",
      "outputs": [
        {
          "internalType": "uint256",
          "name": "",
          "type": "uint256"
        }
      ],
      "stateMutability": "view",
      "type": "function"
    },
    {
      "inputs": [
        {
          "internalType": "uint256",
          "name": "",
          "type": "uint256"
        }
      ],
      "name": "tickets",
      "outputs": [
        {
          "internalType": "uint256",
          "name": "id",
          "type": "uint256"
        },
        {
          "internalType": "uint256",
          "name": "eventId",
          "type": "uint256"
        },
        {
          "internalType": "uint256",
          "name": "sectorId",
          "type": "uint256"
        },
        {
          "internalType": "uint256",
          "name": "groupId",
          "type": "uint256"
        },
        {
          "internalType": "uint256",
          "name": "originalPrice",
          "type": "uint256"
        },
        {
          "internalType": "enum Ticket_NFT_old.TicketStatus",
          "name": "status",
          "type": "uint8"
        },
        {
          "internalType": "string",
          "name": "seat",
          "type": "string"
        },
        {
          "internalType": "bytes32",
          "name": "hashName",
          "type": "bytes32"
        }
      ],
      "stateMutability": "view",
      "type": "function"
    },
    {
      "inputs": [],
      "name": "totalSupply",
      "outputs": [
        {
          "internalType": "uint256",
          "name": "",
          "type": "uint256"
        }
      ],
      "stateMutability": "view",
      "type": "function"
    },
    {
      "inputs": [
        {
          "internalType": "uint256",
          "name": "id",
          "type": "uint256"
        }
      ],
      "name": "totalSupply",
      "outputs": [
        {
          "internalType": "uint256",
          "name": "",
          "type": "uint256"
        }
      ],
      "stateMutability": "view",
      "type": "function"
    },
    {
      "inputs": [
        {
          "internalType": "uint256",
          "name": "",
          "type": "uint256"
        }
      ],
      "name": "uri",
      "outputs": [
        {
          "internalType": "string",
          "name": "",
          "type": "string"
        }
      ],
      "stateMutability": "view",
      "type": "function"
    },
    {
      "inputs": [],
      "name": "getOrganizationDetails",
      "outputs": [
        {
          "internalType": "string",
          "name": "",
          "type": "string"
        },
        {
          "internalType": "address",
          "name": "",
          "type": "address"
        }
      ],
      "stateMutability": "view",
      "type": "function"
    },
    {
      "inputs": [
        {
          "internalType": "address",
          "name": "_organizer",
          "type": "address"
        }
      ],
      "name": "addOrganizer",
      "outputs": [],
      "stateMutability": "nonpayable",
      "type": "function"
    },
    {
      "inputs": [
        {
          "internalType": "address",
          "name": "_organizer",
          "type": "address"
        }
      ],
      "name": "removeOrganizer",
      "outputs": [],
      "stateMutability": "nonpayable",
      "type": "function"
    },
    {
      "inputs": [
        {
          "internalType": "string",
          "name": "_name",
          "type": "string"
        },
        {
          "internalType": "uint256",
          "name": "_time",
          "type": "uint256"
        }
      ],
      "name": "createEvent",
      "outputs": [],
      "stateMutability": "nonpayable",
      "type": "function"
    },
    {
      "inputs": [
        {
          "internalType": "uint256",
          "name": "_eventId",
          "type": "uint256"
        },
        {
          "internalType": "string",
          "name": "_name",
          "type": "string"
        },
        {
          "internalType": "uint256",
          "name": "_totalSeats",
          "type": "uint256"
        },
        {
          "internalType": "uint256",
          "name": "_seat_x_lines",
          "type": "uint256"
        }
      ],
      "name": "createSector",
      "outputs": [],
      "stateMutability": "nonpayable",
      "type": "function"
    },
    {
      "inputs": [
        {
          "internalType": "uint256",
          "name": "_eventId",
          "type": "uint256"
        },
        {
          "internalType": "uint256",
          "name": "_sectorId",
          "type": "uint256"
        },
        {
          "internalType": "uint256",
          "name": "_originalPrice",
          "type": "uint256"
        }
      ],
      "name": "createTicket",
      "outputs": [],
      "stateMutability": "nonpayable",
      "type": "function"
    },
    {
      "inputs": [
        {
          "internalType": "string",
          "name": "str",
          "type": "string"
        },
        {
          "internalType": "uint256",
          "name": "num",
          "type": "uint256"
        }
      ],
      "name": "generateHash",
      "outputs": [
        {
          "internalType": "bytes32",
          "name": "",
          "type": "bytes32"
        }
      ],
      "stateMutability": "pure",
      "type": "function"
    },
    {
      "inputs": [
        {
          "internalType": "uint256",
          "name": "ticketId",
          "type": "uint256"
        }
      ],
      "name": "createGroup",
      "outputs": [],
      "stateMutability": "nonpayable",
      "type": "function"
    },
    {
      "inputs": [
        {
          "internalType": "uint256",
          "name": "groupId",
          "type": "uint256"
        },
        {
          "internalType": "uint256",
          "name": "ticketId",
          "type": "uint256"
        }
      ],
      "name": "addParticipant",
      "outputs": [],
      "stateMutability": "nonpayable",
      "type": "function"
    },
    {
      "inputs": [
        {
          "internalType": "uint256",
          "name": "groupId",
          "type": "uint256"
        },
        {
          "internalType": "uint256",
          "name": "ticketId",
          "type": "uint256"
        }
      ],
      "name": "removeParticipant",
      "outputs": [],
      "stateMutability": "nonpayable",
      "type": "function"
    },
    {
      "inputs": [
        {
          "internalType": "uint256",
          "name": "_eventId",
          "type": "uint256"
        },
        {
          "internalType": "uint256",
          "name": "_sectorId",
          "type": "uint256"
        }
      ],
      "name": "assignSeats",
      "outputs": [],
      "stateMutability": "nonpayable",
      "type": "function"
    },
    {
      "inputs": [
        {
          "internalType": "uint256",
          "name": "ticketId",
          "type": "uint256"
        },
        {
          "internalType": "string",
          "name": "name",
          "type": "string"
        },
        {
          "internalType": "string",
          "name": "surname",
          "type": "string"
        }
      ],
      "name": "setOwnerName",
      "outputs": [],
      "stateMutability": "nonpayable",
      "type": "function"
    },
    {
      "inputs": [
        {
          "internalType": "uint256",
          "name": "ticketId",
          "type": "uint256"
        },
        {
          "internalType": "string",
          "name": "name",
          "type": "string"
        },
        {
          "internalType": "string",
          "name": "surname",
          "type": "string"
        }
      ],
      "name": "validateTicket",
      "outputs": [],
      "stateMutability": "nonpayable",
      "type": "function"
    },
    {
      "inputs": [
        {
          "internalType": "uint256",
          "name": "ticketId",
          "type": "uint256"
        },
        {
          "internalType": "enum Ticket_NFT_old.TicketStatus",
          "name": "newStatus",
          "type": "uint8"
        }
      ],
      "name": "updateTicketStatus",
      "outputs": [],
      "stateMutability": "nonpayable",
      "type": "function"
    },
    {
      "inputs": [
        {
          "internalType": "uint256",
          "name": "_eventId",
          "type": "uint256"
        }
      ],
      "name": "expireTickets",
      "outputs": [],
      "stateMutability": "nonpayable",
      "type": "function"
    },
    {
      "inputs": [
        {
          "internalType": "uint256",
          "name": "_eventId",
          "type": "uint256"
        }
      ],
      "name": "getEvent",
      "outputs": [
        {
          "internalType": "uint256",
          "name": "id",
          "type": "uint256"
        },
        {
          "internalType": "string",
          "name": "name",
          "type": "string"
        },
        {
          "internalType": "uint256",
          "name": "time",
          "type": "uint256"
        },
        {
          "internalType": "uint256",
          "name": "sectorCount",
          "type": "uint256"
        }
      ],
      "stateMutability": "view",
      "type": "function"
    },
    {
      "inputs": [
        {
          "internalType": "uint256",
          "name": "_eventId",
          "type": "uint256"
        },
        {
          "internalType": "uint256",
          "name": "_sectorId",
          "type": "uint256"
        }
      ],
      "name": "getSector",
      "outputs": [
        {
          "internalType": "uint256",
          "name": "id",
          "type": "uint256"
        },
        {
          "internalType": "string",
          "name": "name",
          "type": "string"
        },
        {
          "internalType": "uint256",
          "name": "totalSeats",
          "type": "uint256"
        },
        {
          "internalType": "uint256",
          "name": "availableSeats",
          "type": "uint256"
        }
      ],
      "stateMutability": "view",
      "type": "function"
    },
    {
      "inputs": [
        {
          "internalType": "uint256",
          "name": "ticketId",
          "type": "uint256"
        }
      ],
      "name": "getTicket",
      "outputs": [
        {
          "internalType": "uint256",
          "name": "id",
          "type": "uint256"
        },
        {
          "internalType": "uint256",
          "name": "eventId",
          "type": "uint256"
        },
        {
          "internalType": "uint256",
          "name": "sectorId",
          "type": "uint256"
        },
        {
          "internalType": "uint256",
          "name": "groupId",
          "type": "uint256"
        },
        {
          "internalType": "uint256",
          "name": "originalPrice",
          "type": "uint256"
        },
        {
          "internalType": "enum Ticket_NFT_old.TicketStatus",
          "name": "status",
          "type": "uint8"
        },
        {
          "internalType": "string",
          "name": "seat",
          "type": "string"
        },
        {
          "internalType": "bytes32",
          "name": "hashName",
          "type": "bytes32"
        }
      ],
      "stateMutability": "view",
      "type": "function"
    },
    {
      "inputs": [
        {
          "internalType": "uint256",
          "name": "_eventId",
          "type": "uint256"
        },
        {
          "internalType": "uint256",
          "name": "_sectorId",
          "type": "uint256"
        }
      ],
      "name": "getSeatsInSector",
      "outputs": [
        {
          "internalType": "string[]",
          "name": "",
          "type": "string[]"
        }
      ],
      "stateMutability": "view",
      "type": "function"
    },
    {
      "inputs": [
        {
          "internalType": "uint256",
          "name": "groupId",
          "type": "uint256"
        }
      ],
      "name": "getGroupTickets",
      "outputs": [
        {
          "internalType": "uint256[]",
          "name": "",
          "type": "uint256[]"
        }
      ],
      "stateMutability": "view",
      "type": "function"
    },
    {
      "inputs": [
        {
          "internalType": "uint256",
          "name": "ticketId",
          "type": "uint256"
        }
      ],
      "name": "isTicketInGroup",
      "outputs": [
        {
          "internalType": "bool",
          "name": "",
          "type": "bool"
        }
      ],
      "stateMutability": "view",
      "type": "function"
    },
    {
      "inputs": [
        {
          "internalType": "bytes4",
          "name": "_interfaceId",
          "type": "bytes4"
        }
      ],
      "name": "supportsInterface",
      "outputs": [
        {
          "internalType": "bool",
          "name": "",
          "type": "bool"
        }
      ],
      "stateMutability": "view",
      "type": "function"
    }
  ],
  "bytecode": "0x608060405260046008553480156200001657600080fd5b506040516200428838038062004288833981016040819052620000399162000221565b60408051602081019091526000815262000053816200012d565b50620000616000336200013f565b506200008e7f4d2e7a1e3f5dd6e203f087b15756ccf0e4ccd947fe1b639a38540089a1e47f63826200013f565b50620000bb7fa49807205ce4d355092ef5a8a18f56e8913cf4a201fbe287825b095693c21775826200013f565b50600d620000ca838262000398565b50600e80546001600160a01b0319166001600160a01b0383169081179091556040517f8d5a0b368dfa15723d2a91d746da186e254860003b80961674b8624f71b261b0916200011d91600d919062000464565b60405180910390a1505062000508565b60036200013b828262000398565b5050565b6000828152602081815260408083206001600160a01b038516845290915281205460ff16620001e4576000838152602081815260408083206001600160a01b03861684529091529020805460ff191660011790556200019b3390565b6001600160a01b0316826001600160a01b0316847f2f8788117e7eff1d82e926ec794901d17c78024a50270940304540a733656f0d60405160405180910390a4506001620001e8565b5060005b92915050565b634e487b7160e01b600052604160045260246000fd5b80516001600160a01b03811681146200021c57600080fd5b919050565b600080604083850312156200023557600080fd5b82516001600160401b03808211156200024d57600080fd5b818501915085601f8301126200026257600080fd5b815181811115620002775762000277620001ee565b604051601f8201601f19908116603f01168101908382118183101715620002a257620002a2620001ee565b81604052828152602093508884848701011115620002bf57600080fd5b600091505b82821015620002e35784820184015181830185015290830190620002c4565b6000848483010152809650505050620002fe81860162000204565b925050509250929050565b600181811c908216806200031e57607f821691505b6020821081036200033f57634e487b7160e01b600052602260045260246000fd5b50919050565b601f8211156200039357600081815260208120601f850160051c810160208610156200036e5750805b601f850160051c820191505b818110156200038f578281556001016200037a565b5050505b505050565b81516001600160401b03811115620003b457620003b4620001ee565b620003cc81620003c5845462000309565b8462000345565b602080601f831160018114620004045760008415620003eb5750858301515b600019600386901b1c1916600185901b1785556200038f565b600085815260208120601f198616915b82811015620004355788860151825594840194600190910190840162000414565b5085821015620004545787850151600019600388901b60f8161c191681555b5050505050600190811b01905550565b604081526000808454620004788162000309565b80604086015260606001808416600081146200049d5760018114620004b857620004eb565b60ff1985168884015283151560051b880183019550620004eb565b8960005260208060002060005b86811015620004e25781548b8201870152908401908201620004c5565b8a018501975050505b505050506001600160a01b03851660208501525090509392505050565b613d7080620005186000396000f3fe608060405234801561001057600080fd5b50600436106102945760003560e01c806375b238fc11610167578063bc79ddcb116100ce578063dc517aff11610087578063dc517aff14610636578063e426bfef1461063f578063e4725f0214610652578063e985e9c514610665578063f242432a14610678578063f70778fa1461068b57600080fd5b8063bc79ddcb146105c1578063bd85b039146105d4578063c28aeb77146105f4578063cfbd900f14610607578063d547741f14610610578063db8aa9881461062357600080fd5b806391d148541161012057806391d14854146105485780639a4d43851461055b578063a217fddf1461056e578063a22cb46514610576578063a460b81714610589578063b51aef041461059c57600080fd5b806375b238fc146104b05780637909cb59146104d75780637b47a7e0146104ec5780637dc379fa1461050c57806389c9e2ef1461051f5780638be8a7751461053557600080fd5b80633c0d7e661161020b5780634f558e79116101c45780634f558e791461042557806350b447121461044757806352def1801461046e57806365bf60e0146104815780636d1884e01461049457806371be2e4a146104a757600080fd5b80633c0d7e66146103b157806344508ad0146103c457806344ade56d146103d75780634ae855cf146103ea5780634c66a073146103fd5780634e1273f41461040557600080fd5b806315e472dd1161025d57806315e472dd1461033a57806318160ddd1461034d578063248a9ca3146103555780632eb2c2d6146103785780632f2ff15d1461038b57806336568abe1461039e57600080fd5b8062fdd58e1461029957806301ffc9a7146102bf5780630b791430146102e25780630e531076146103055780630e89341c1461031a575b600080fd5b6102ac6102a73660046130e9565b61069e565b6040519081526020015b60405180910390f35b6102d26102cd366004613129565b6106c8565b60405190151581526020016102b6565b6102f56102f036600461314d565b6106d3565b6040516102b694939291906131b6565b610318610313366004613297565b610784565b005b61032d61032836600461314d565b610be0565b6040516102b691906132ed565b610318610348366004613300565b610c74565b6005546102ac565b6102ac61036336600461314d565b60009081526020819052604090206001015490565b6103186103863660046133ba565b610e59565b610318610399366004613463565b610ec0565b6103186103ac366004613463565b610eeb565b6103186103bf36600461348f565b610f23565b6103186103d236600461348f565b6112ef565b6103186103e53660046134b1565b611595565b6102ac6103f836600461348f565b6115db565b61032d61160c565b6104186104133660046134cc565b61169a565b6040516102b691906135c6565b6102d261043336600461314d565b600090815260046020526040902054151590565b61045a61045536600461314d565b61176e565b6040516102b69897969594939291906135ef565b61031861047c36600461365b565b61183f565b61031861048f36600461314d565b6119be565b6102f56104a236600461314d565b611a34565b6102ac60065481565b6102ac7fa49807205ce4d355092ef5a8a18f56e8913cf4a201fbe287825b095693c2177581565b6102ac600080516020613d1b83398151915281565b6104ff6104fa36600461348f565b611afb565b6040516102b691906136c7565b61045a61051a36600461314d565b611bef565b610527611cee565b6040516102b6929190613729565b6102f561054336600461348f565b611d9e565b6102d2610556366004613463565b611e76565b610318610569366004613753565b611e9f565b6102ac600081565b610318610584366004613797565b611f03565b6103186105973660046137d3565b611f0e565b6102d26105aa36600461314d565b6000908152600b6020526040902060030154151590565b6104186105cf36600461314d565b611fce565b6102ac6105e236600461314d565b60009081526004602052604090205490565b61031861060236600461365b565b61202f565b6102ac60075481565b61031861061e366004613463565b6120bd565b6102ac610631366004613753565b6120e2565b6102ac60085481565b61031861064d36600461314d565b612115565b6103186106603660046134b1565b6121fc565b6102d26106733660046137fc565b61223e565b610318610686366004613826565b61226c565b61031861069936600461348f565b6122cb565b60008181526001602090815260408083206001600160a01b03861684529091529020545b92915050565b60006106c2826126ae565b600a60205260009081526040902080546001820180549192916106f59061388a565b80601f01602080910402602001604051908101604052809291908181526020018280546107219061388a565b801561076e5780601f106107435761010080835404028352916020019161076e565b820191906000526020600020905b81548152906001019060200180831161075157829003601f168201915b5050505050908060020154908060040154905084565b600080516020613d1b83398151915261079c816126ee565b6000858152600a602052604081206001810180549192916107bc9061388a565b9050116108075760405162461bcd60e51b8152602060048201526014602482015273115d995b9d08191bd95cc81b9bdd08195e1a5cdd60621b60448201526064015b60405180910390fd5b600481018054906000610819836138da565b9091555050600481015460008181526003830160205260409020908155600181016108448782613939565b506002810185905560038101859055604080516103808101825260016103408201818152604160f81b610360840152825282518084018452818152602160f91b6020828101919091528084019190915283518085018552828152604360f81b818301528385015283518085018552828152601160fa1b81830152606084015283518085018552828152604560f81b81830152608084015283518085018552828152602360f91b8183015260a084015283518085018552828152604760f81b8183015260c084015283518085018552828152600960fb1b8183015260e084015283518085018552828152604960f81b8183015261010084015283518085018552828152602560f91b8183015261012084015283518085018552828152604b60f81b8183015261014084015283518085018552828152601360fa1b8183015261016084015283518085018552828152604d60f81b8183015261018084015283518085018552828152602760f91b818301526101a084015283518085018552828152604f60f81b818301526101c084015283518085018552828152600560fc1b818301526101e084015283518085018552828152605160f81b8183015261020084015283518085018552828152602960f91b8183015261022084015283518085018552828152605360f81b8183015261024084015283518085018552828152601560fa1b8183015261026084015283518085018552828152605560f81b8183015261028084015283518085018552828152602b60f91b818301526102a084015283518085018552828152605760f81b818301526102c084015283518085018552828152600b60fb1b818301526102e084015283518085018552828152605960f81b818301526103008401528351808501909452908352602d60f91b908301526103208101919091526000610af58688613a0e565b905060015b818111610bd45760015b878111610bc1576000610b18600284613a22565b15610b235781610b38565b610b2d828a613a36565b610b38906001613a49565b90506000610b45826126fb565b86610b51600187613a36565b601a8110610b6157610b61613a5c565b6020020151604051602001610b77929190613a72565b60408051601f198184030181529190526004880180546001810182556000918252602090912091925001610bab8282613939565b5050508080610bb9906138da565b915050610b04565b5080610bcc816138da565b915050610afa565b50505050505050505050565b606060038054610bef9061388a565b80601f0160208091040260200160405190810160405280929190818152602001828054610c1b9061388a565b8015610c685780601f10610c3d57610100808354040283529160200191610c68565b820191906000526020600020905b815481529060010190602001808311610c4b57829003601f168201915b50505050509050919050565b600080516020613d1b833981519152610c8c816126ee565b60008211610cdc5760405162461bcd60e51b815260206004820152601c60248201527f5072696365206d7573742062652067726561746572207468616e20300000000060448201526064016107fe565b6000848152600a60209081526040808320868452600390810190925290912090810154610d365760405162461bcd60e51b81526020600482015260086024820152674e6f20736561747360c01b60448201526064016107fe565b60078054906000610d46836138da565b90915550506007546000818152600b60205260409020818155600181018790556002810186905560058101805460ff1916905560048101859055600d8054610e169190610d929061388a565b80601f0160208091040260200160405190810160405280929190818152602001828054610dbe9061388a565b8015610e0b5780601f10610de057610100808354040283529160200191610e0b565b820191906000526020600020905b815481529060010190602001808311610dee57829003601f168201915b5050505050836120e2565b6007820155600383018054906000610e2d83613aa1565b9190505550610e5033600754600160405180602001604052806000815250612803565b50505050505050565b336001600160a01b0386168114801590610e7a5750610e78868261223e565b155b15610eab5760405163711bec9160e11b81526001600160a01b038083166004830152871660248201526044016107fe565b610eb88686868686612860565b505050505050565b600082815260208190526040902060010154610edb816126ee565b610ee583836128c7565b50505050565b6001600160a01b0381163314610f145760405163334bd91960e11b815260040160405180910390fd5b610f1e8282612959565b505050565b600080516020613d1b833981519152610f3b816126ee565b6000838152600a60209081526040808320858452600381019092529091206004810154610faa5760405162461bcd60e51b815260206004820152601f60248201527f4e6f20736561747320646566696e656420696e207468697320736563746f720060448201526064016107fe565b60008160030154116110085760405162461bcd60e51b815260206004820152602160248201527f4e6f20617661696c61626c6520736561747320696e207468697320736563746f6044820152603960f91b60648201526084016107fe565b600060015b6007548111611281576000818152600b6020526040902060018101548814801561103a5750868160020154145b801561105457508060060180546110509061388a565b1590505b801561107857506001600582015460ff166003811115611076576110766135d9565b145b80156110875750600381015415155b156111845760038101546000908152600c60205260408120905b815481101561118157600b60008383815481106110c0576110c0613a5c565b906000526020600020015481526020019081526020016000209250856004018054905085106111315760405162461bcd60e51b815260206004820152601a60248201527f4e6f7420656e6f75676820736561747320746f2061737369676e00000000000060448201526064016107fe565b85600401858154811061114657611146613a5c565b906000526020600020018360060190816111609190613ab8565b508461116b816138da565b9550508080611179906138da565b9150506110a1565b50505b87816001015414801561119a5750868160020154145b80156111b457508060060180546111b09061388a565b1590505b80156111d857506001600582015460ff1660038111156111d6576111d66135d9565b145b1561126e57600484015483106112305760405162461bcd60e51b815260206004820152601a60248201527f4e6f7420656e6f75676820736561747320746f2061737369676e00000000000060448201526064016107fe565b83600401838154811061124557611245613a5c565b9060005260206000200181600601908161125f9190613ab8565b508261126a816138da565b9350505b5080611279816138da565b91505061100d565b5080156112a7578082600301600082825461129c9190613a36565b90915550610eb89050565b60405162461bcd60e51b815260206004820152601960248201527f4e6f207469636b6574732061737369676e65642073656174730000000000000060448201526064016107fe565b6000828152600c60205260409020546113415760405162461bcd60e51b8152602060048201526014602482015273496c2067727570706f206e6f6e2065736973746560601b60448201526064016107fe565b600061134d338361069e565b1161136a5760405162461bcd60e51b81526004016107fe90613b8a565b6000818152600b602052604090206003015482146113db5760405162461bcd60e51b815260206004820152602860248201527f496c207469636b6574206e6f6e2061707061727469656e6520612071756573746044820152676f2067727570706f60c01b60648201526084016107fe565b6000818152600b6020526040812060030181905580805b6000858152600c60205260409020548110156114a05760408051602081018690520160408051601f1981840301815291815281516020928301206000888152600c909352912080548390811061144a5761144a613a5c565b906000526020600020015460405160200161146791815260200190565b604051602081830303815290604052805190602001200361148e57809250600191506114a0565b80611498816138da565b9150506113f2565b50806114ee5760405162461bcd60e51b815260206004820152601d60248201527f5469636b6574206e6f6e2074726f7661746f206e656c2067727570706f00000060448201526064016107fe565b6000848152600c60205260409020805461150a90600190613a36565b8154811061151a5761151a613a5c565b9060005260206000200154600c6000868152602001908152602001600020838154811061154957611549613a5c565b9060005260206000200181905550600c600085815260200190815260200160002080548061157957611579613bb8565b6001900381819060005260206000200160009055905550505050565b7fa49807205ce4d355092ef5a8a18f56e8913cf4a201fbe287825b095693c217756115bf816126ee565b6115d7600080516020613d1b833981519152836120bd565b5050565b600c60205281600052604060002081815481106115f757600080fd5b90600052602060002001600091509150505481565b600d80546116199061388a565b80601f01602080910402602001604051908101604052809291908181526020018280546116459061388a565b80156116925780601f1061166757610100808354040283529160200191611692565b820191906000526020600020905b81548152906001019060200180831161167557829003601f168201915b505050505081565b606081518351146116cb5781518351604051635b05999160e01b8152600481019290925260248201526044016107fe565b600083516001600160401b038111156116e6576116e66131e2565b60405190808252806020026020018201604052801561170f578160200160208202803683370190505b50905060005b8451811015611766576020808202860101516117399060208084028701015161069e565b82828151811061174b5761174b613a5c565b602090810291909101015261175f816138da565b9050611715565b509392505050565b600b6020526000908152604090208054600182015460028301546003840154600485015460058601546006870180549697959694959394929360ff909216926117b69061388a565b80601f01602080910402602001604051908101604052809291908181526020018280546117e29061388a565b801561182f5780601f106118045761010080835404028352916020019161182f565b820191906000526020600020905b81548152906001019060200180831161181257829003601f168201915b5050505050908060070154905088565b600080516020613d1b833981519152611857816126ee565b6000848152600b602052604090206002600582015460ff166003811115611880576118806135d9565b036118cd5760405162461bcd60e51b815260206004820152601860248201527f5469636b657420616c72656164792076616c696461746564000000000000000060448201526064016107fe565b6003600582015460ff1660038111156118e8576118e86135d9565b036119275760405162461bcd60e51b815260206004820152600f60248201526e5469636b657420657870697265642160881b60448201526064016107fe565b6000611954858560405160200161193f929190613bce565b604051602081830303815290604052876120e2565b9050808260070154146119a95760405162461bcd60e51b815260206004820152601b60248201527f5469636b65742068617320646966666572656e74206f776e657221000000000060448201526064016107fe565b50600501805460ff1916600217905550505050565b60006119ca338361069e565b116119e75760405162461bcd60e51b81526004016107fe90613b8a565b60006009600081546119f8906138da565b91829055506000838152600b60209081526040808320600301849055928252600c81529181208054600181018255908252919020019190915550565b6000818152600a602052604081208054600282015460048301546001840180546060958795869591949093928390611a6b9061388a565b80601f0160208091040260200160405190810160405280929190818152602001828054611a979061388a565b8015611ae45780601f10611ab957610100808354040283529160200191611ae4565b820191906000526020600020905b815481529060010190602001808311611ac757829003601f168201915b505050505092509450945094509450509193509193565b6000828152600a602090815260408083208484526003018252808320600401805482518185028101850190935280835260609492939192909184015b82821015611be3578382906000526020600020018054611b569061388a565b80601f0160208091040260200160405190810160405280929190818152602001828054611b829061388a565b8015611bcf5780601f10611ba457610100808354040283529160200191611bcf565b820191906000526020600020905b815481529060010190602001808311611bb257829003601f168201915b505050505081526020019060010190611b37565b50505050905092915050565b6000806000806000806060600080600b60008b81526020019081526020016000209050806000015481600101548260020154836003015484600401548560050160009054906101000a900460ff16866006018760070154818054611c529061388a565b80601f0160208091040260200160405190810160405280929190818152602001828054611c7e9061388a565b8015611ccb5780601f10611ca057610100808354040283529160200191611ccb565b820191906000526020600020905b815481529060010190602001808311611cae57829003601f168201915b505050505091509850985098509850985098509850985050919395975091939597565b60606000600d600e60009054906101000a90046001600160a01b0316818054611d169061388a565b80601f0160208091040260200160405190810160405280929190818152602001828054611d429061388a565b8015611d8f5780601f10611d6457610100808354040283529160200191611d8f565b820191906000526020600020905b815481529060010190602001808311611d7257829003601f168201915b50505050509150915091509091565b6000828152600a602090815260408083208484526003908101909252822080546002820154928201546001830180546060958795869590949093928390611de49061388a565b80601f0160208091040260200160405190810160405280929190818152602001828054611e109061388a565b8015611e5d5780601f10611e3257610100808354040283529160200191611e5d565b820191906000526020600020905b815481529060010190602001808311611e4057829003601f168201915b5050505050925094509450945094505092959194509250565b6000918252602082815260408084206001600160a01b0393909316845291905290205460ff1690565b600080516020613d1b833981519152611eb7816126ee565b60068054906000611ec7836138da565b90915550506006546000818152600a6020526040902090815560018101611eee8582613939565b50600281019290925550600060049091015550565b6115d73383836129c4565b6000828152600b60205260409020611f34600080516020613d1b83398151915233611e76565b80611f4857506000611f46338561069e565b115b611fa35760405162461bcd60e51b815260206004820152602660248201527f4e6f7420617574686f72697a656420746f20757064617465207469636b65742060448201526573746174757360d01b60648201526084016107fe565b60058101805483919060ff19166001836003811115611fc457611fc46135d9565b0217905550505050565b6000818152600c6020908152604091829020805483518184028101840190945280845260609392830182828015610c6857602002820191906000526020600020905b8154815260200190600101908083116120105750505050509050919050565b612047600080516020613d1b83398151915233611e76565b8061205b57506000612059338561069e565b115b6120775760405162461bcd60e51b81526004016107fe90613b8a565b6000838152600b602090815260409182902091516120b29161209d918691869101613bce565b604051602081830303815290604052856120e2565b600790910155505050565b6000828152602081905260409020600101546120d8816126ee565b610ee58383612959565b600082826040516020016120f7929190613c0a565b60405160208183030381529060405280519060200120905092915050565b600080516020613d1b83398151915261212d816126ee565b6000828152600a602052604090206002810154421161218e5760405162461bcd60e51b815260206004820152601a60248201527f4576656e7420686173206e6f7420796574206f6363757272656400000000000060448201526064016107fe565b60015b6007548111610ee5576000818152600b602052604090206001810154851480156121d457506003600582015460ff1660038111156121d1576121d16135d9565b14155b156121e95760058101805460ff191660031790555b50806121f4816138da565b915050612191565b7fa49807205ce4d355092ef5a8a18f56e8913cf4a201fbe287825b095693c21775612226816126ee565b610f1e600080516020613d1b833981519152836128c7565b6001600160a01b03918216600090815260026020908152604080832093909416825291909152205460ff1690565b336001600160a01b038616811480159061228d575061228b868261223e565b155b156122be5760405163711bec9160e11b81526001600160a01b038083166004830152871660248201526044016107fe565b610eb88686868686612a5a565b6000828152600c60205260409020546123265760405162461bcd60e51b815260206004820152601860248201527f5468652067726f757020646f6573206e6f74206578697374000000000000000060448201526064016107fe565b6000805b6000848152600c60205260409020548110156123b157600061239033600b6000600c60008a8152602001908152602001600020868154811061236e5761236e613a5c565b906000526020600020015481526020019081526020016000206000015461069e565b111561239f57600191506123b1565b806123a9816138da565b91505061232a565b50806124165760405162461bcd60e51b815260206004820152602e60248201527f596f75206d75737420626520612067726f7570206d656d62657220746f20616460448201526d64207061727469636970616e747360901b60648201526084016107fe565b60016000838152600b602052604090206005015460ff16600381111561243e5761243e6135d9565b1461248b5760405162461bcd60e51b815260206004820152601960248201527f546865207469636b6574206973206e6f7420274f776e6564270000000000000060448201526064016107fe565b6000828152600b6020526040902060030154156124fc5760405162461bcd60e51b815260206004820152602960248201527f546865207469636b657420697320616c72656164792061737369676e6564207460448201526806f20612067726f75760bc1b60648201526084016107fe565b6000838152600c602052604081208054600b918391829061251f5761251f613a5c565b906000526020600020015481526020019081526020016000206001015490506000600b6000600c600088815260200190815260200160002060008154811061256957612569613a5c565b9060005260206000200154815260200190815260200160002060020154905081600b600086815260200190815260200160002060010154146126015760405162461bcd60e51b815260206004820152602b60248201527f546865207469636b657420646f6573206e6f74206d617463682074686520677260448201526a1bdd5c09dcc8195d995b9d60aa1b60648201526084016107fe565b6000848152600b602052604090206002015481146126765760405162461bcd60e51b815260206004820152602c60248201527f546865207469636b657420646f6573206e6f74206d617463682074686520677260448201526b37bab813b99039b2b1ba37b960a11b60648201526084016107fe565b5050506000818152600b60209081526040808320600301859055938252600c8152928120805460018101825590825292902090910155565b60006001600160e01b03198216636cdb3d1360e11b14806126df57506001600160e01b031982166303a24d0760e21b145b806106c257506106c282612adf565b6126f88133612b14565b50565b6060816000036127225750506040805180820190915260018152600360fc1b602082015290565b8160005b811561274c5780612736816138da565b91506127459050600a83613a0e565b9150612726565b6000816001600160401b03811115612766576127666131e2565b6040519080825280601f01601f191660200182016040528015612790576020820181803683370190505b5090505b84156127fb576127a5600183613a36565b91506127b2600a86613a22565b6127bd906030613a49565b60f81b8183815181106127d2576127d2613a5c565b60200101906001600160f81b031916908160001a9053506127f4600a86613a0e565b9450612794565b949350505050565b6001600160a01b03841661282d57604051632bfa23e760e11b8152600060048201526024016107fe565b60408051600180825260208201869052818301908152606082018590526080820190925290610eb8600087848487612b4d565b6001600160a01b03841661288a57604051632bfa23e760e11b8152600060048201526024016107fe565b6001600160a01b0385166128b357604051626a0d4560e21b8152600060048201526024016107fe565b6128c08585858585612b4d565b5050505050565b60006128d38383611e76565b612951576000838152602081815260408083206001600160a01b03861684529091529020805460ff191660011790556129093390565b6001600160a01b0316826001600160a01b0316847f2f8788117e7eff1d82e926ec794901d17c78024a50270940304540a733656f0d60405160405180910390a45060016106c2565b5060006106c2565b60006129658383611e76565b15612951576000838152602081815260408083206001600160a01b0386168085529252808320805460ff1916905551339286917ff6391f5c32d9c69d2a47ea670b442974b53935d1edc7fd64eb21e047a839171b9190a45060016106c2565b6001600160a01b0382166129ed5760405162ced3e160e81b8152600060048201526024016107fe565b6001600160a01b03838116600081815260026020908152604080832094871680845294825291829020805460ff191686151590811790915591519182527f17307eab39ab6107e8899845ad3d59bd9653f200f220920489ca2b5937696c31910160405180910390a3505050565b6001600160a01b038416612a8457604051632bfa23e760e11b8152600060048201526024016107fe565b6001600160a01b038516612aad57604051626a0d4560e21b8152600060048201526024016107fe565b60408051600180825260208201869052818301908152606082018590526080820190925290610e508787848487612b4d565b60006001600160e01b03198216637965db0b60e01b14806106c257506301ffc9a760e01b6001600160e01b03198316146106c2565b612b1e8282611e76565b6115d75760405163e2517d3f60e01b81526001600160a01b0382166004820152602481018390526044016107fe565b612b5985858585612ba0565b6001600160a01b038416156128c05782513390600103612b925760208481015190840151612b8b838989858589612c9d565b5050610eb8565b610eb8818787878787612dc1565b612bac84848484612eaa565b6001600160a01b038416612c35576000805b8351811015612c1b5760208181028481018201519086018201516000908152600490925260408220805491928392612bf7908490613a49565b90915550612c0790508184613a49565b92505080612c14906138da565b9050612bbe565b508060056000828254612c2e9190613a49565b9091555050505b6001600160a01b038316610ee5576000805b8351811015612c8c576020818102848101820151908601820151600090815260049092526040909120805482900390559190910190612c85816138da565b9050612c47565b506005805491909103905550505050565b6001600160a01b0384163b15610eb85760405163f23a6e6160e01b81526001600160a01b0385169063f23a6e6190612ce19089908990889088908890600401613c2c565b6020604051808303816000875af1925050508015612d1c575060408051601f3d908101601f19168201909252612d1991810190613c71565b60015b612d85573d808015612d4a576040519150601f19603f3d011682016040523d82523d6000602084013e612d4f565b606091505b508051600003612d7d57604051632bfa23e760e11b81526001600160a01b03861660048201526024016107fe565b805181602001fd5b6001600160e01b0319811663f23a6e6160e01b14610e5057604051632bfa23e760e11b81526001600160a01b03861660048201526024016107fe565b6001600160a01b0384163b15610eb85760405163bc197c8160e01b81526001600160a01b0385169063bc197c8190612e059089908990889088908890600401613c8e565b6020604051808303816000875af1925050508015612e40575060408051601f3d908101601f19168201909252612e3d91810190613c71565b60015b612e6e573d808015612d4a576040519150601f19603f3d011682016040523d82523d6000602084013e612d4f565b6001600160e01b0319811663bc197c8160e01b14610e5057604051632bfa23e760e11b81526001600160a01b03861660048201526024016107fe565b8051825114612ed95781518151604051635b05999160e01b8152600481019290925260248201526044016107fe565b3360005b8351811015612fee576020818102858101820151908501909101516001600160a01b03881615612f945760008281526001602090815260408083206001600160a01b038c16845290915290205481811015612f6b576040516303dee4c560e01b81526001600160a01b038a1660048201526024810182905260448101839052606481018490526084016107fe565b60008381526001602090815260408083206001600160a01b038d16845290915290209082900390555b6001600160a01b03871615612fdb5760008281526001602090815260408083206001600160a01b038b16845290915281208054839290612fd5908490613a49565b90915550505b505080612fe7906138da565b9050612edd565b50825160010361306f5760208301516000906020840151909150856001600160a01b0316876001600160a01b0316846001600160a01b03167fc3d58168c5ae7397731d063d5bbf3d657854427343f4c083240f7aacaa2d0f628585604051613060929190918252602082015260400190565b60405180910390a450506128c0565b836001600160a01b0316856001600160a01b0316826001600160a01b03167f4a39dc06d4c0dbc64b70af90fd698a233a518aa5d07e595d983b8c0526c8f7fb86866040516130be929190613cec565b60405180910390a45050505050565b80356001600160a01b03811681146130e457600080fd5b919050565b600080604083850312156130fc57600080fd5b613105836130cd565b946020939093013593505050565b6001600160e01b0319811681146126f857600080fd5b60006020828403121561313b57600080fd5b813561314681613113565b9392505050565b60006020828403121561315f57600080fd5b5035919050565b60005b83811015613181578181015183820152602001613169565b50506000910152565b600081518084526131a2816020860160208601613166565b601f01601f19169290920160200192915050565b8481526080602082015260006131cf608083018661318a565b6040830194909452506060015292915050565b634e487b7160e01b600052604160045260246000fd5b604051601f8201601f191681016001600160401b0381118282101715613220576132206131e2565b604052919050565b600082601f83011261323957600080fd5b81356001600160401b03811115613252576132526131e2565b613265601f8201601f19166020016131f8565b81815284602083860101111561327a57600080fd5b816020850160208301376000918101602001919091529392505050565b600080600080608085870312156132ad57600080fd5b8435935060208501356001600160401b038111156132ca57600080fd5b6132d687828801613228565b949794965050505060408301359260600135919050565b602081526000613146602083018461318a565b60008060006060848603121561331557600080fd5b505081359360208301359350604090920135919050565b60006001600160401b03821115613345576133456131e2565b5060051b60200190565b600082601f83011261336057600080fd5b813560206133756133708361332c565b6131f8565b82815260059290921b8401810191818101908684111561339457600080fd5b8286015b848110156133af5780358352918301918301613398565b509695505050505050565b600080600080600060a086880312156133d257600080fd5b6133db866130cd565b94506133e9602087016130cd565b935060408601356001600160401b038082111561340557600080fd5b61341189838a0161334f565b9450606088013591508082111561342757600080fd5b61343389838a0161334f565b9350608088013591508082111561344957600080fd5b5061345688828901613228565b9150509295509295909350565b6000806040838503121561347657600080fd5b82359150613486602084016130cd565b90509250929050565b600080604083850312156134a257600080fd5b50508035926020909101359150565b6000602082840312156134c357600080fd5b613146826130cd565b600080604083850312156134df57600080fd5b82356001600160401b03808211156134f657600080fd5b818501915085601f83011261350a57600080fd5b8135602061351a6133708361332c565b82815260059290921b8401810191818101908984111561353957600080fd5b948201945b8386101561355e5761354f866130cd565b8252948201949082019061353e565b9650508601359250508082111561357457600080fd5b506135818582860161334f565b9150509250929050565b600081518084526020808501945080840160005b838110156135bb5781518752958201959082019060010161359f565b509495945050505050565b602081526000613146602083018461358b565b634e487b7160e01b600052602160045260246000fd5b60006101008a83528960208401528860408401528760608401528660808401526004861061362d57634e487b7160e01b600052602160045260246000fd5b8560a08401528060c08401526136458184018661318a565b9150508260e08301529998505050505050505050565b60008060006060848603121561367057600080fd5b8335925060208401356001600160401b038082111561368e57600080fd5b61369a87838801613228565b935060408601359150808211156136b057600080fd5b506136bd86828701613228565b9150509250925092565b6000602080830181845280855180835260408601915060408160051b870101925083870160005b8281101561371c57603f1988860301845261370a85835161318a565b945092850192908501906001016136ee565b5092979650505050505050565b60408152600061373c604083018561318a565b905060018060a01b03831660208301529392505050565b6000806040838503121561376657600080fd5b82356001600160401b0381111561377c57600080fd5b61378885828601613228565b95602094909401359450505050565b600080604083850312156137aa57600080fd5b6137b3836130cd565b9150602083013580151581146137c857600080fd5b809150509250929050565b600080604083850312156137e657600080fd5b823591506020830135600481106137c857600080fd5b6000806040838503121561380f57600080fd5b613818836130cd565b9150613486602084016130cd565b600080600080600060a0868803121561383e57600080fd5b613847866130cd565b9450613855602087016130cd565b9350604086013592506060860135915060808601356001600160401b0381111561387e57600080fd5b61345688828901613228565b600181811c9082168061389e57607f821691505b6020821081036138be57634e487b7160e01b600052602260045260246000fd5b50919050565b634e487b7160e01b600052601160045260246000fd5b6000600182016138ec576138ec6138c4565b5060010190565b601f821115610f1e57600081815260208120601f850160051c8101602086101561391a5750805b601f850160051c820191505b81811015610eb857828155600101613926565b81516001600160401b03811115613952576139526131e2565b61396681613960845461388a565b846138f3565b602080601f83116001811461399b57600084156139835750858301515b600019600386901b1c1916600185901b178555610eb8565b600085815260208120601f198616915b828110156139ca578886015182559484019460019091019084016139ab565b50858210156139e85787850151600019600388901b60f8161c191681555b5050505050600190811b01905550565b634e487b7160e01b600052601260045260246000fd5b600082613a1d57613a1d6139f8565b500490565b600082613a3157613a316139f8565b500690565b818103818111156106c2576106c26138c4565b808201808211156106c2576106c26138c4565b634e487b7160e01b600052603260045260246000fd5b60008351613a84818460208801613166565b835190830190613a98818360208801613166565b01949350505050565b600081613ab057613ab06138c4565b506000190190565b818103613ac3575050565b613acd825461388a565b6001600160401b03811115613ae457613ae46131e2565b613af281613960845461388a565b6000601f821160018114613b265760008315613b0e5750848201545b600019600385901b1c1916600184901b1784556128c0565b600085815260209020601f19841690600086815260209020845b83811015613b605782860154825560019586019590910190602001613b40565b50858310156139e85793015460001960f8600387901b161c19169092555050600190811b01905550565b6020808252601490820152732737ba103a3432903a34b1b5b2ba1037bbb732b960611b604082015260600190565b634e487b7160e01b600052603160045260246000fd5b60008351613be0818460208801613166565b602d60f81b9083019081528351613bfe816001840160208801613166565b01600101949350505050565b60008351613c1c818460208801613166565b9190910191825250602001919050565b6001600160a01b03868116825285166020820152604081018490526060810183905260a060808201819052600090613c669083018461318a565b979650505050505050565b600060208284031215613c8357600080fd5b815161314681613113565b6001600160a01b0386811682528516602082015260a060408201819052600090613cba9083018661358b565b8281036060840152613ccc818661358b565b90508281036080840152613ce0818561318a565b98975050505050505050565b604081526000613cff604083018561358b565b8281036020840152613d11818561358b565b9594505050505056fe4d2e7a1e3f5dd6e203f087b15756ccf0e4ccd947fe1b639a38540089a1e47f63a26469706673582212203c98a40e6a574d2cc9b2d88d9a644393f7c2be04e9aa823ac8ef6f924413645764736f6c63430008140033",
  "immutableReferences": {},
  "source": "// SPDX-License-Identifier: MIT\r\npragma solidity ^0.8.0;\r\n\r\nimport \"@openzeppelin/contracts/token/ERC1155/extensions/ERC1155Supply.sol\";\r\nimport \"@openzeppelin/contracts/access/AccessControl.sol\";\r\n\r\n\r\ncontract Ticket_NFT_old is AccessControl, ERC1155Supply{\r\n    \r\n    \r\n    struct Event{ \r\n        uint id; \r\n        string name; \r\n        uint time; \r\n        mapping(uint => Sector) sectors; \r\n        uint sectorCount; \r\n    } \r\n \r\n    struct Sector { \r\n        uint id; \r\n        string name; \r\n        uint totalSeats;\r\n        uint availableSeats;  \r\n        string[] seats;\r\n    } \r\n    \r\n    enum TicketStatus { Available, Owned, Validated, Expired } \r\n    \r\n    struct Ticket { \r\n        uint256 id; \r\n        uint eventId; \r\n        uint sectorId; \r\n        uint groupId; \r\n        uint originalPrice; \r\n        TicketStatus status; \r\n        string seat;\r\n        bytes32 hashName;\r\n    } \r\n \r\n    bytes32 public constant ORGANIZER_ROLE = keccak256(\"ORGANIZER_ROLE\");\r\n    bytes32 public constant ADMIN_ROLE = keccak256(\"ADMIN_ROLE\");\r\n    //address public platformOwner; \r\n    uint public eventCount; \r\n    uint public ticketCount; \r\n    //uint public fee=2; \r\n    uint public ticketIdLength = 4;\r\n    uint groupCount;\r\n    //mapping(address => bool) public organizers; \r\n    mapping(uint => Event) public events; \r\n    mapping(uint256 => Ticket) public tickets; \r\n    mapping(uint => uint[]) public groups;\r\n    string public organization_name;\r\n    address private admin;\r\n\r\n    event OrganizationCreatedTi(string organizationName, address admin);\r\n\r\n    constructor(string memory _organization_name, address _organizer) ERC1155(\"\") ERC1155Supply(){\r\n        _grantRole(DEFAULT_ADMIN_ROLE, msg.sender); //quello chedeploya la blockchain per primo (io)\r\n        _grantRole(ORGANIZER_ROLE, _organizer); //quello che chiama il contratto, ovvero sony, universal...\r\n        _grantRole(ADMIN_ROLE, _organizer);\r\n        //_setRoleAdmin(ADMIN_ROLE, ADMIN_ROLE); //guarda perch\r\n\r\n        organization_name=_organization_name;\r\n        admin = _organizer;\r\n\r\n        emit OrganizationCreatedTi(organization_name, admin);\r\n    }\r\n\r\n    function getOrganizationDetails() external view returns (string memory, address) {\r\n        return (organization_name, admin);\r\n    }\r\n\r\n\r\n    function addOrganizer(address _organizer)public onlyRole(ADMIN_ROLE){\r\n        _grantRole(ORGANIZER_ROLE, _organizer);\r\n    }\r\n\r\n    function removeOrganizer(address _organizer)public onlyRole(ADMIN_ROLE){\r\n        revokeRole(ORGANIZER_ROLE, _organizer);\r\n    }\r\n\r\n\r\n    //------------------------Gestione biglietti-----------------------------------------------------------\r\n\r\n    function createEvent(string memory _name, uint _time) external onlyRole(ORGANIZER_ROLE){ \r\n \r\n        eventCount++; \r\n        Event storage newEvent = events[eventCount]; \r\n        newEvent.id = eventCount; \r\n        newEvent.name = _name; \r\n        newEvent.time = _time; \r\n        newEvent.sectorCount=0; \r\n    } \r\n\r\n\r\n    function createSector(uint _eventId, string memory _name, uint _totalSeats, uint _seat_x_lines) external onlyRole(ORGANIZER_ROLE) {  \r\n        Event storage _event = events[_eventId]; \r\n\r\n        //check that event exist\r\n        require(bytes(_event.name).length > 0, \"Event does not exist\");\r\n\r\n        _event.sectorCount++; \r\n        Sector storage newSector = _event.sectors[_event.sectorCount]; \r\n        newSector.id = _event.sectorCount; \r\n        newSector.name = _name; \r\n        newSector.totalSeats = _totalSeats; \r\n        newSector.availableSeats = _totalSeats; \r\n        string[26] memory lettersSeats = [\r\n            \"A\", \"B\", \"C\", \"D\", \"E\", \"F\", \"G\", \"H\", \"I\", \"J\", \"K\", \"L\", \"M\", \"N\", \"O\", \r\n            \"P\", \"Q\", \"R\", \"S\", \"T\", \"U\", \"V\", \"W\", \"X\", \"Y\", \"Z\"\r\n        ];\r\n    \r\n        uint rows = _totalSeats / _seat_x_lines; // Calcoliamo il numero di righe\r\n        for (uint i = 1; i <= rows; i++) {\r\n            for (uint j = 1; j <= _seat_x_lines; j++) {\r\n                // Determina l'indice per la lettera: per righe pari, usa l'ordine inverso\r\n                uint columnIndex = (i % 2 == 0) ? (_seat_x_lines - j + 1) : j;\r\n\r\n                // Combina il numero di riga con la lettera appropriata\r\n                string memory seat = string(abi.encodePacked(uintToString(columnIndex), lettersSeats[i-1]));\r\n                newSector.seats.push(seat);\r\n            }\r\n        }\r\n\r\n    } \r\n\r\n\r\n    function uintToString(uint v) internal pure returns (string memory) {\r\n        if (v == 0) {\r\n            return \"0\";\r\n        }\r\n        uint temp = v;\r\n        uint digits;\r\n        while (temp != 0) {\r\n            digits++;\r\n            temp /= 10;\r\n        }\r\n        bytes memory buffer = new bytes(digits);\r\n        while (v != 0) {\r\n            digits -= 1;\r\n            buffer[digits] = bytes1(uint8(48 + uint(v % 10)));\r\n            v /= 10;\r\n        }\r\n        return string(buffer);\r\n    }\r\n\r\n\r\n    function createTicket(uint _eventId, uint _sectorId, uint _originalPrice)external onlyRole(ORGANIZER_ROLE){ \r\n\r\n        require(_originalPrice > 0, \"Price must be greater than 0\");\r\n\r\n        Sector storage sector=events[_eventId].sectors[_sectorId]; \r\n        require(sector.availableSeats>0, \"No seats\"); \r\n \r\n        ticketCount++; \r\n        uint256 ticketId = ticketCount;\r\n        //string memory ticketId = generateTicketId(_eventId, ticketCount);\r\n        Ticket storage newTicket = tickets[ticketId]; \r\n        newTicket.id = ticketId; \r\n        newTicket.eventId = _eventId; \r\n        newTicket.sectorId = _sectorId; \r\n        newTicket.status = TicketStatus.Available; \r\n        newTicket.originalPrice = _originalPrice;\r\n        newTicket.hashName = generateHash(organization_name, ticketId);\r\n        sector.availableSeats--; \r\n\r\n        _mint(msg.sender, ticketCount, 1, \"\");\r\n \r\n    } \r\n\r\n    function generateHash(string memory str, uint256 num) public pure returns (bytes32) {\r\n        return keccak256(abi.encodePacked(str, num));\r\n    }\r\n\r\n    //------------------------Gestione gruppi-----------------------------------------------------------\r\n\r\n    function createGroup(uint256 ticketId) external {\r\n        require(balanceOf(msg.sender, ticketId) > 0, \"Not the ticket owner\");\r\n        uint groupId = ++groupCount;\r\n        \r\n        tickets[ticketId].groupId = groupId;\r\n        groups[groupId].push(ticketId);\r\n    }\r\n\r\n\r\n    function addParticipant(uint groupId, uint256 ticketId) external {\r\n        require(groups[groupId].length > 0, \"The group does not exist\");\r\n\r\n        // Verify that the caller is a member of the group\r\n        bool isGroupMember = false;\r\n        for (uint i = 0; i < groups[groupId].length; i++) {\r\n            if (balanceOf(msg.sender, tickets[groups[groupId][i]].id) > 0){\r\n                isGroupMember = true;\r\n                break;\r\n            }\r\n        }\r\n        require(isGroupMember, \"You must be a group member to add participants\");\r\n\r\n        // Verify that the ticket has status Owned\r\n        require(tickets[ticketId].status == TicketStatus.Owned, \"The ticket is not 'Owned'\");\r\n        require(tickets[ticketId].groupId == 0, \"The ticket is already assigned to a group\");\r\n\r\n        // Verify that the new ticket has the same sector and event as others in the group\r\n        uint groupEventId = tickets[groups[groupId][0]].eventId;\r\n        uint groupSectorId = tickets[groups[groupId][0]].sectorId;\r\n        require(tickets[ticketId].eventId == groupEventId, \"The ticket does not match the group's event\");\r\n        require(tickets[ticketId].sectorId == groupSectorId, \"The ticket does not match the group's sector\");\r\n\r\n        // Associate the ticket with the group and update the mapping\r\n        tickets[ticketId].groupId = groupId;\r\n        groups[groupId].push(ticketId);\r\n    }\r\n\r\n\r\n\r\n    // Rimuove un partecipante dal gruppo\r\n    function removeParticipant(uint groupId, uint256 ticketId) external {\r\n        require(groups[groupId].length > 0, \"Il gruppo non esiste\");\r\n        require(balanceOf(msg.sender, ticketId) > 0, \"Not the ticket owner\");\r\n        require(tickets[ticketId].groupId == groupId, \"Il ticket non appartiene a questo gruppo\");\r\n\r\n        tickets[ticketId].groupId = 0;\r\n\r\n        // Rimuove il ticket dal gruppo\r\n        uint index;\r\n        bool found = false;\r\n        for (uint i = 0; i < groups[groupId].length; i++) {\r\n            if (keccak256(abi.encodePacked(groups[groupId][i])) == keccak256(abi.encodePacked(ticketId))) {\r\n                index = i;\r\n                found = true;\r\n                break;\r\n            }\r\n        }\r\n        require(found, \"Ticket non trovato nel gruppo\");\r\n        groups[groupId][index] = groups[groupId][groups[groupId].length - 1];\r\n        groups[groupId].pop();\r\n    }\r\n\r\n\r\n    //------------------------Assegnazione posti-----------------------------------------------------------\r\n    function assignSeats(uint _eventId, uint _sectorId) external onlyRole(ORGANIZER_ROLE) {\r\n        Event storage _event = events[_eventId];\r\n        Sector storage _sector = _event.sectors[_sectorId];\r\n\r\n        require(_sector.seats.length > 0, \"No seats defined in this sector\");\r\n        require(_sector.availableSeats > 0, \"No available seats in this sector\");\r\n\r\n        uint assignedCount = 0;\r\n\r\n        // Itera su tutti i biglietti per verificare e assegnare i posti\r\n        for (uint i = 1; i <= ticketCount; i++) {\r\n            Ticket storage _ticket = tickets[i];\r\n            //ha un grppuo\r\n            if ( _ticket.eventId == _eventId && _ticket.sectorId == _sectorId && bytes(_ticket.seat).length == 0 && _ticket.status == TicketStatus.Owned && _ticket.groupId != 0 ){\r\n                uint[] storage ticketsInGroup = groups[_ticket.groupId]; // Accedi all'array di ticket del gruppo\r\n\r\n                for (uint x = 0; x < ticketsInGroup.length; x++) {\r\n                    _ticket = tickets[ticketsInGroup[x]]; // Ticket associato\r\n                    require(assignedCount < _sector.seats.length, \"Not enough seats to assign\");\r\n\r\n                    // Assegna un posto al biglietto\r\n                    _ticket.seat = _sector.seats[assignedCount];\r\n                    assignedCount++;\r\n                }\r\n            }\r\n\r\n            // Verifica che il biglietto sia del giusto evento, settore e senza posto assegnato\r\n            if (\r\n                _ticket.eventId == _eventId &&\r\n                _ticket.sectorId == _sectorId &&\r\n                bytes(_ticket.seat).length == 0 &&\r\n                _ticket.status == TicketStatus.Owned\r\n            ){\r\n                // Verifica che ci siano ancora posti disponibili\r\n                require(assignedCount < _sector.seats.length, \"Not enough seats to assign\");\r\n\r\n                // Assegna un posto al biglietto\r\n                _ticket.seat = _sector.seats[assignedCount];\r\n                assignedCount++;\r\n            }\r\n        }\r\n\r\n        // Aggiorna i posti disponibili nel settore\r\n        if (assignedCount > 0) {\r\n            _sector.availableSeats -= assignedCount;\r\n        } else {\r\n            revert(\"No tickets assigned seats\");\r\n        }\r\n    }\r\n\r\n    function setOwnerName(uint ticketId, string memory name, string memory surname) external {\r\n        require(hasRole(ORGANIZER_ROLE, msg.sender) ||balanceOf(msg.sender, ticketId) > 0, \"Not the ticket owner\");\r\n        Ticket storage ticket = tickets[ticketId];\r\n        ticket.hashName = generateHash(string(abi.encodePacked(name,\"-\",surname)), ticketId);\r\n    }\r\n\r\n    function validateTicket(uint ticketId, string memory name, string memory surname) external onlyRole(ORGANIZER_ROLE){\r\n        Ticket storage ticket = tickets[ticketId];\r\n        require(ticket.status != TicketStatus.Validated, \"Ticket already validated\");\r\n        require(ticket.status != TicketStatus.Expired, \"Ticket expired!\");\r\n        bytes32 hashOwner = generateHash(string(abi.encodePacked(name,\"-\",surname)), ticketId);\r\n        require (ticket.hashName == hashOwner, \"Ticket has different owner!\");\r\n        ticket.status = TicketStatus.Validated;\r\n    }\r\n\r\n    \r\n    function updateTicketStatus(uint256 ticketId, TicketStatus newStatus) external {\r\n        // take the ticket\r\n        Ticket storage ticket = tickets[ticketId];\r\n\r\n        // controlla che sia il proprietario a farlo\r\n        require(\r\n            hasRole(ORGANIZER_ROLE, msg.sender) || balanceOf(msg.sender, ticketId) > 0,\r\n            \"Not authorized to update ticket status\"\r\n        );\r\n\r\n        ticket.status = newStatus;\r\n    }\r\n    \r\n\r\n    //chiama per mettere tutti i ticket di un evento expired\r\n    function expireTickets(uint _eventId) external onlyRole(ORGANIZER_ROLE) {\r\n        Event storage _event = events[_eventId];\r\n        require(_event.time < block.timestamp, \"Event has not yet occurred\");\r\n\r\n        for (uint i = 1; i <= ticketCount; i++) {\r\n            Ticket storage ticket = tickets[i];\r\n            if (ticket.eventId == _eventId && ticket.status != TicketStatus.Expired) {\r\n                ticket.status = TicketStatus.Expired;\r\n            }\r\n        }\r\n    }\r\n\r\n\r\n\r\n    // get an event detail based on the event id \r\n    function getEvent(uint _eventId) external view returns (\r\n        uint id,\r\n        string memory name,\r\n        uint time,\r\n        uint sectorCount\r\n    ){\r\n        Event storage _event =events[_eventId];\r\n        return (_event.id, _event.name, _event.time, _event.sectorCount);\r\n    }\r\n\r\n\r\n    // get a sector detail based on the event id and sector id\r\n    function getSector(uint _eventId, uint _sectorId) external view returns (\r\n        uint id,\r\n        string memory name,\r\n        uint totalSeats,\r\n        uint availableSeats\r\n    ) {\r\n        Sector storage sector = events[_eventId].sectors[_sectorId];\r\n        return (sector.id, sector.name, sector.totalSeats, sector.availableSeats);\r\n    }\r\n\r\n\r\n    // get a ticket detail based on the ticket id\r\n    function getTicket(uint256 ticketId) external view returns (\r\n        uint256 id,\r\n        uint eventId,\r\n        uint sectorId,\r\n        uint groupId,\r\n        uint originalPrice,\r\n        TicketStatus status,\r\n        string memory seat,\r\n        bytes32 hashName){\r\n\r\n        Ticket storage ticket = tickets[ticketId];\r\n        return (\r\n            ticket.id,\r\n            ticket.eventId,\r\n            ticket.sectorId,\r\n            ticket.groupId,\r\n            ticket.originalPrice,\r\n            ticket.status,\r\n            ticket.seat,\r\n            ticket.hashName\r\n        );\r\n    }\r\n\r\n    // get all the seat in a sector based on the event id and sector id\r\n    function getSeatsInSector(uint _eventId, uint _sectorId) external view returns (string[] memory) {\r\n        return events[_eventId].sectors[_sectorId].seats;\r\n    }\r\n\r\n\r\n    // get all the ticket of a group based on the group id\r\n    function getGroupTickets(uint groupId) external view returns (uint[] memory) {\r\n        return groups[groupId];\r\n    }\r\n\r\n    // check if a ticket is associated to a group\r\n    function isTicketInGroup(uint ticketId) external view returns (bool) {\r\n        return tickets[ticketId].groupId != 0;\r\n    }\r\n\r\n\r\n    // mancano getter per tutti i ticket di un evento e per tutti i ticket di un utente, ma farlo lato front end  troppo\r\n\r\n\r\n\r\n\r\n\r\n    \r\n\r\n\r\n\r\n\r\n\r\n\r\n\r\n\r\n\r\n    function supportsInterface(bytes4 _interfaceId) public view virtual override(AccessControl, ERC1155) returns (bool) {\r\n        return super.supportsInterface(_interfaceId);\r\n    }\r\n\r\n   \r\n\r\n\r\n}\r\n\r\n\r\n",
  "sourcePath": "C:\\Users\\eddie\\OneDrive\\Desktop\\Blockchain\\BlockchainTicketsUnitn-main\\truffle\\contracts\\Ticket_NFT_old.sol",
  "compiler": {
    "name": "solc",
    "version": "0.8.20+commit.a1b79de6.Emscripten.clang"
  },
  "schemaVersion": "3.4.16",
  "updatedAt": "2025-01-31T08:16:17.994Z",
  "devdoc": {
    "errors": {
      "AccessControlBadConfirmation()": [
        {
          "details": "The caller of a function is not the expected one. NOTE: Don't confuse with {AccessControlUnauthorizedAccount}."
        }
      ],
      "AccessControlUnauthorizedAccount(address,bytes32)": [
        {
          "details": "The `account` is missing a role."
        }
      ],
      "ERC1155InsufficientBalance(address,uint256,uint256,uint256)": [
        {
          "details": "Indicates an error related to the current `balance` of a `sender`. Used in transfers.",
          "params": {
            "balance": "Current balance for the interacting account.",
            "needed": "Minimum amount required to perform a transfer.",
            "sender": "Address whose tokens are being transferred.",
            "tokenId": "Identifier number of a token."
          }
        }
      ],
      "ERC1155InvalidApprover(address)": [
        {
          "details": "Indicates a failure with the `approver` of a token to be approved. Used in approvals.",
          "params": {
            "approver": "Address initiating an approval operation."
          }
        }
      ],
      "ERC1155InvalidArrayLength(uint256,uint256)": [
        {
          "details": "Indicates an array length mismatch between ids and values in a safeBatchTransferFrom operation. Used in batch transfers.",
          "params": {
            "idsLength": "Length of the array of token identifiers",
            "valuesLength": "Length of the array of token amounts"
          }
        }
      ],
      "ERC1155InvalidOperator(address)": [
        {
          "details": "Indicates a failure with the `operator` to be approved. Used in approvals.",
          "params": {
            "operator": "Address that may be allowed to operate on tokens without being their owner."
          }
        }
      ],
      "ERC1155InvalidReceiver(address)": [
        {
          "details": "Indicates a failure with the token `receiver`. Used in transfers.",
          "params": {
            "receiver": "Address to which tokens are being transferred."
          }
        }
      ],
      "ERC1155InvalidSender(address)": [
        {
          "details": "Indicates a failure with the token `sender`. Used in transfers.",
          "params": {
            "sender": "Address whose tokens are being transferred."
          }
        }
      ],
      "ERC1155MissingApprovalForAll(address,address)": [
        {
          "details": "Indicates a failure with the `operator`s approval. Used in transfers.",
          "params": {
            "operator": "Address that may be allowed to operate on tokens without being their owner.",
            "owner": "Address of the current owner of a token."
          }
        }
      ]
    },
    "events": {
      "ApprovalForAll(address,address,bool)": {
        "details": "Emitted when `account` grants or revokes permission to `operator` to transfer their tokens, according to `approved`."
      },
      "RoleAdminChanged(bytes32,bytes32,bytes32)": {
        "details": "Emitted when `newAdminRole` is set as ``role``'s admin role, replacing `previousAdminRole` `DEFAULT_ADMIN_ROLE` is the starting admin for all roles, despite {RoleAdminChanged} not being emitted signaling this."
      },
      "RoleGranted(bytes32,address,address)": {
        "details": "Emitted when `account` is granted `role`. `sender` is the account that originated the contract call. This account bears the admin role (for the granted role). Expected in cases where the role was granted using the internal {AccessControl-_grantRole}."
      },
      "RoleRevoked(bytes32,address,address)": {
        "details": "Emitted when `account` is revoked `role`. `sender` is the account that originated the contract call:   - if using `revokeRole`, it is the admin role bearer   - if using `renounceRole`, it is the role bearer (i.e. `account`)"
      },
      "TransferBatch(address,address,address,uint256[],uint256[])": {
        "details": "Equivalent to multiple {TransferSingle} events, where `operator`, `from` and `to` are the same for all transfers."
      },
      "TransferSingle(address,address,address,uint256,uint256)": {
        "details": "Emitted when `value` amount of tokens of type `id` are transferred from `from` to `to` by `operator`."
      },
      "URI(string,uint256)": {
        "details": "Emitted when the URI for token type `id` changes to `value`, if it is a non-programmatic URI. If an {URI} event was emitted for `id`, the standard https://eips.ethereum.org/EIPS/eip-1155#metadata-extensions[guarantees] that `value` will equal the value returned by {IERC1155MetadataURI-uri}."
      }
    },
    "kind": "dev",
    "methods": {
      "balanceOf(address,uint256)": {
        "details": "See {IERC1155-balanceOf}."
      },
      "balanceOfBatch(address[],uint256[])": {
        "details": "See {IERC1155-balanceOfBatch}. Requirements: - `accounts` and `ids` must have the same length."
      },
      "exists(uint256)": {
        "details": "Indicates whether any token exist with a given id, or not."
      },
      "getRoleAdmin(bytes32)": {
        "details": "Returns the admin role that controls `role`. See {grantRole} and {revokeRole}. To change a role's admin, use {_setRoleAdmin}."
      },
      "grantRole(bytes32,address)": {
        "details": "Grants `role` to `account`. If `account` had not been already granted `role`, emits a {RoleGranted} event. Requirements: - the caller must have ``role``'s admin role. May emit a {RoleGranted} event."
      },
      "hasRole(bytes32,address)": {
        "details": "Returns `true` if `account` has been granted `role`."
      },
      "isApprovedForAll(address,address)": {
        "details": "See {IERC1155-isApprovedForAll}."
      },
      "renounceRole(bytes32,address)": {
        "details": "Revokes `role` from the calling account. Roles are often managed via {grantRole} and {revokeRole}: this function's purpose is to provide a mechanism for accounts to lose their privileges if they are compromised (such as when a trusted device is misplaced). If the calling account had been revoked `role`, emits a {RoleRevoked} event. Requirements: - the caller must be `callerConfirmation`. May emit a {RoleRevoked} event."
      },
      "revokeRole(bytes32,address)": {
        "details": "Revokes `role` from `account`. If `account` had been granted `role`, emits a {RoleRevoked} event. Requirements: - the caller must have ``role``'s admin role. May emit a {RoleRevoked} event."
      },
      "safeBatchTransferFrom(address,address,uint256[],uint256[],bytes)": {
        "details": "See {IERC1155-safeBatchTransferFrom}."
      },
      "safeTransferFrom(address,address,uint256,uint256,bytes)": {
        "details": "See {IERC1155-safeTransferFrom}."
      },
      "setApprovalForAll(address,bool)": {
        "details": "See {IERC1155-setApprovalForAll}."
      },
      "totalSupply()": {
        "details": "Total value of tokens."
      },
      "totalSupply(uint256)": {
        "details": "Total value of tokens in with a given id."
      },
      "uri(uint256)": {
        "details": "See {IERC1155MetadataURI-uri}. This implementation returns the same URI for *all* token types. It relies on the token type ID substitution mechanism https://eips.ethereum.org/EIPS/eip-1155#metadata[defined in the ERC]. Clients calling this function must replace the `\\{id\\}` substring with the actual token type ID."
      }
    },
    "version": 1
  },
  "userdoc": {
    "kind": "user",
    "methods": {},
    "version": 1
  }
}