{
  "contractName": "Ticket_NFT",
  "abi": [
    {
      "inputs": [
        {
          "internalType": "string",
          "name": "_organization_name",
          "type": "string"
        },
        {
          "internalType": "address",
          "name": "_organizer",
          "type": "address"
        }
      ],
      "stateMutability": "nonpayable",
      "type": "constructor"
    },
    {
      "inputs": [],
      "name": "AccessControlBadConfirmation",
      "type": "error"
    },
    {
      "inputs": [
        {
          "internalType": "address",
          "name": "account",
          "type": "address"
        },
        {
          "internalType": "bytes32",
          "name": "neededRole",
          "type": "bytes32"
        }
      ],
      "name": "AccessControlUnauthorizedAccount",
      "type": "error"
    },
    {
      "inputs": [
        {
          "internalType": "address",
          "name": "sender",
          "type": "address"
        },
        {
          "internalType": "uint256",
          "name": "balance",
          "type": "uint256"
        },
        {
          "internalType": "uint256",
          "name": "needed",
          "type": "uint256"
        },
        {
          "internalType": "uint256",
          "name": "tokenId",
          "type": "uint256"
        }
      ],
      "name": "ERC1155InsufficientBalance",
      "type": "error"
    },
    {
      "inputs": [
        {
          "internalType": "address",
          "name": "approver",
          "type": "address"
        }
      ],
      "name": "ERC1155InvalidApprover",
      "type": "error"
    },
    {
      "inputs": [
        {
          "internalType": "uint256",
          "name": "idsLength",
          "type": "uint256"
        },
        {
          "internalType": "uint256",
          "name": "valuesLength",
          "type": "uint256"
        }
      ],
      "name": "ERC1155InvalidArrayLength",
      "type": "error"
    },
    {
      "inputs": [
        {
          "internalType": "address",
          "name": "operator",
          "type": "address"
        }
      ],
      "name": "ERC1155InvalidOperator",
      "type": "error"
    },
    {
      "inputs": [
        {
          "internalType": "address",
          "name": "receiver",
          "type": "address"
        }
      ],
      "name": "ERC1155InvalidReceiver",
      "type": "error"
    },
    {
      "inputs": [
        {
          "internalType": "address",
          "name": "sender",
          "type": "address"
        }
      ],
      "name": "ERC1155InvalidSender",
      "type": "error"
    },
    {
      "inputs": [
        {
          "internalType": "address",
          "name": "operator",
          "type": "address"
        },
        {
          "internalType": "address",
          "name": "owner",
          "type": "address"
        }
      ],
      "name": "ERC1155MissingApprovalForAll",
      "type": "error"
    },
    {
      "anonymous": false,
      "inputs": [
        {
          "indexed": true,
          "internalType": "address",
          "name": "account",
          "type": "address"
        },
        {
          "indexed": true,
          "internalType": "address",
          "name": "operator",
          "type": "address"
        },
        {
          "indexed": false,
          "internalType": "bool",
          "name": "approved",
          "type": "bool"
        }
      ],
      "name": "ApprovalForAll",
      "type": "event"
    },
    {
      "anonymous": false,
      "inputs": [
        {
          "indexed": true,
          "internalType": "uint256",
          "name": "eventId",
          "type": "uint256"
        },
        {
          "indexed": false,
          "internalType": "string",
          "name": "name",
          "type": "string"
        },
        {
          "indexed": false,
          "internalType": "uint256",
          "name": "time",
          "type": "uint256"
        }
      ],
      "name": "EventCreated",
      "type": "event"
    },
    {
      "anonymous": false,
      "inputs": [
        {
          "indexed": true,
          "internalType": "bytes32",
          "name": "role",
          "type": "bytes32"
        },
        {
          "indexed": true,
          "internalType": "bytes32",
          "name": "previousAdminRole",
          "type": "bytes32"
        },
        {
          "indexed": true,
          "internalType": "bytes32",
          "name": "newAdminRole",
          "type": "bytes32"
        }
      ],
      "name": "RoleAdminChanged",
      "type": "event"
    },
    {
      "anonymous": false,
      "inputs": [
        {
          "indexed": true,
          "internalType": "bytes32",
          "name": "role",
          "type": "bytes32"
        },
        {
          "indexed": true,
          "internalType": "address",
          "name": "account",
          "type": "address"
        },
        {
          "indexed": true,
          "internalType": "address",
          "name": "sender",
          "type": "address"
        }
      ],
      "name": "RoleGranted",
      "type": "event"
    },
    {
      "anonymous": false,
      "inputs": [
        {
          "indexed": true,
          "internalType": "bytes32",
          "name": "role",
          "type": "bytes32"
        },
        {
          "indexed": true,
          "internalType": "address",
          "name": "account",
          "type": "address"
        },
        {
          "indexed": true,
          "internalType": "address",
          "name": "sender",
          "type": "address"
        }
      ],
      "name": "RoleRevoked",
      "type": "event"
    },
    {
      "anonymous": false,
      "inputs": [
        {
          "indexed": true,
          "internalType": "uint256",
          "name": "eventId",
          "type": "uint256"
        },
        {
          "indexed": true,
          "internalType": "uint256",
          "name": "sectorId",
          "type": "uint256"
        },
        {
          "indexed": false,
          "internalType": "string",
          "name": "name",
          "type": "string"
        }
      ],
      "name": "SectorCreated",
      "type": "event"
    },
    {
      "anonymous": false,
      "inputs": [
        {
          "indexed": true,
          "internalType": "uint256",
          "name": "ticketId",
          "type": "uint256"
        },
        {
          "indexed": false,
          "internalType": "uint256",
          "name": "eventId",
          "type": "uint256"
        },
        {
          "indexed": false,
          "internalType": "uint256",
          "name": "sectorId",
          "type": "uint256"
        },
        {
          "indexed": false,
          "internalType": "uint256",
          "name": "price",
          "type": "uint256"
        }
      ],
      "name": "TicketCreated",
      "type": "event"
    },
    {
      "anonymous": false,
      "inputs": [
        {
          "indexed": true,
          "internalType": "address",
          "name": "operator",
          "type": "address"
        },
        {
          "indexed": true,
          "internalType": "address",
          "name": "from",
          "type": "address"
        },
        {
          "indexed": true,
          "internalType": "address",
          "name": "to",
          "type": "address"
        },
        {
          "indexed": false,
          "internalType": "uint256[]",
          "name": "ids",
          "type": "uint256[]"
        },
        {
          "indexed": false,
          "internalType": "uint256[]",
          "name": "values",
          "type": "uint256[]"
        }
      ],
      "name": "TransferBatch",
      "type": "event"
    },
    {
      "anonymous": false,
      "inputs": [
        {
          "indexed": true,
          "internalType": "address",
          "name": "operator",
          "type": "address"
        },
        {
          "indexed": true,
          "internalType": "address",
          "name": "from",
          "type": "address"
        },
        {
          "indexed": true,
          "internalType": "address",
          "name": "to",
          "type": "address"
        },
        {
          "indexed": false,
          "internalType": "uint256",
          "name": "id",
          "type": "uint256"
        },
        {
          "indexed": false,
          "internalType": "uint256",
          "name": "value",
          "type": "uint256"
        }
      ],
      "name": "TransferSingle",
      "type": "event"
    },
    {
      "anonymous": false,
      "inputs": [
        {
          "indexed": false,
          "internalType": "string",
          "name": "value",
          "type": "string"
        },
        {
          "indexed": true,
          "internalType": "uint256",
          "name": "id",
          "type": "uint256"
        }
      ],
      "name": "URI",
      "type": "event"
    },
    {
      "inputs": [],
      "name": "ADMIN_ROLE",
      "outputs": [
        {
          "internalType": "bytes32",
          "name": "",
          "type": "bytes32"
        }
      ],
      "stateMutability": "view",
      "type": "function"
    },
    {
      "inputs": [],
      "name": "DEFAULT_ADMIN_ROLE",
      "outputs": [
        {
          "internalType": "bytes32",
          "name": "",
          "type": "bytes32"
        }
      ],
      "stateMutability": "view",
      "type": "function"
    },
    {
      "inputs": [],
      "name": "ORGANIZER_ROLE",
      "outputs": [
        {
          "internalType": "bytes32",
          "name": "",
          "type": "bytes32"
        }
      ],
      "stateMutability": "view",
      "type": "function"
    },
    {
      "inputs": [
        {
          "internalType": "address",
          "name": "account",
          "type": "address"
        },
        {
          "internalType": "uint256",
          "name": "id",
          "type": "uint256"
        }
      ],
      "name": "balanceOf",
      "outputs": [
        {
          "internalType": "uint256",
          "name": "",
          "type": "uint256"
        }
      ],
      "stateMutability": "view",
      "type": "function"
    },
    {
      "inputs": [
        {
          "internalType": "address[]",
          "name": "accounts",
          "type": "address[]"
        },
        {
          "internalType": "uint256[]",
          "name": "ids",
          "type": "uint256[]"
        }
      ],
      "name": "balanceOfBatch",
      "outputs": [
        {
          "internalType": "uint256[]",
          "name": "",
          "type": "uint256[]"
        }
      ],
      "stateMutability": "view",
      "type": "function"
    },
    {
      "inputs": [],
      "name": "eventCount",
      "outputs": [
        {
          "internalType": "uint256",
          "name": "",
          "type": "uint256"
        }
      ],
      "stateMutability": "view",
      "type": "function"
    },
    {
      "inputs": [
        {
          "internalType": "uint256",
          "name": "",
          "type": "uint256"
        }
      ],
      "name": "events",
      "outputs": [
        {
          "internalType": "uint256",
          "name": "id",
          "type": "uint256"
        },
        {
          "internalType": "string",
          "name": "name",
          "type": "string"
        },
        {
          "internalType": "uint256",
          "name": "time",
          "type": "uint256"
        },
        {
          "internalType": "uint256",
          "name": "sectorCount",
          "type": "uint256"
        }
      ],
      "stateMutability": "view",
      "type": "function"
    },
    {
      "inputs": [
        {
          "internalType": "uint256",
          "name": "id",
          "type": "uint256"
        }
      ],
      "name": "exists",
      "outputs": [
        {
          "internalType": "bool",
          "name": "",
          "type": "bool"
        }
      ],
      "stateMutability": "view",
      "type": "function"
    },
    {
      "inputs": [
        {
          "internalType": "bytes32",
          "name": "role",
          "type": "bytes32"
        }
      ],
      "name": "getRoleAdmin",
      "outputs": [
        {
          "internalType": "bytes32",
          "name": "",
          "type": "bytes32"
        }
      ],
      "stateMutability": "view",
      "type": "function"
    },
    {
      "inputs": [
        {
          "internalType": "bytes32",
          "name": "role",
          "type": "bytes32"
        },
        {
          "internalType": "address",
          "name": "account",
          "type": "address"
        }
      ],
      "name": "grantRole",
      "outputs": [],
      "stateMutability": "nonpayable",
      "type": "function"
    },
    {
      "inputs": [],
      "name": "groupCount",
      "outputs": [
        {
          "internalType": "uint256",
          "name": "",
          "type": "uint256"
        }
      ],
      "stateMutability": "view",
      "type": "function"
    },
    {
      "inputs": [
        {
          "internalType": "uint256",
          "name": "",
          "type": "uint256"
        },
        {
          "internalType": "uint256",
          "name": "",
          "type": "uint256"
        }
      ],
      "name": "groups",
      "outputs": [
        {
          "internalType": "uint256",
          "name": "",
          "type": "uint256"
        }
      ],
      "stateMutability": "view",
      "type": "function"
    },
    {
      "inputs": [
        {
          "internalType": "bytes32",
          "name": "role",
          "type": "bytes32"
        },
        {
          "internalType": "address",
          "name": "account",
          "type": "address"
        }
      ],
      "name": "hasRole",
      "outputs": [
        {
          "internalType": "bool",
          "name": "",
          "type": "bool"
        }
      ],
      "stateMutability": "view",
      "type": "function"
    },
    {
      "inputs": [
        {
          "internalType": "address",
          "name": "account",
          "type": "address"
        },
        {
          "internalType": "address",
          "name": "operator",
          "type": "address"
        }
      ],
      "name": "isApprovedForAll",
      "outputs": [
        {
          "internalType": "bool",
          "name": "",
          "type": "bool"
        }
      ],
      "stateMutability": "view",
      "type": "function"
    },
    {
      "inputs": [],
      "name": "organization_name",
      "outputs": [
        {
          "internalType": "string",
          "name": "",
          "type": "string"
        }
      ],
      "stateMutability": "view",
      "type": "function"
    },
    {
      "inputs": [
        {
          "internalType": "bytes32",
          "name": "role",
          "type": "bytes32"
        },
        {
          "internalType": "address",
          "name": "callerConfirmation",
          "type": "address"
        }
      ],
      "name": "renounceRole",
      "outputs": [],
      "stateMutability": "nonpayable",
      "type": "function"
    },
    {
      "inputs": [
        {
          "internalType": "bytes32",
          "name": "role",
          "type": "bytes32"
        },
        {
          "internalType": "address",
          "name": "account",
          "type": "address"
        }
      ],
      "name": "revokeRole",
      "outputs": [],
      "stateMutability": "nonpayable",
      "type": "function"
    },
    {
      "inputs": [
        {
          "internalType": "address",
          "name": "from",
          "type": "address"
        },
        {
          "internalType": "address",
          "name": "to",
          "type": "address"
        },
        {
          "internalType": "uint256[]",
          "name": "ids",
          "type": "uint256[]"
        },
        {
          "internalType": "uint256[]",
          "name": "values",
          "type": "uint256[]"
        },
        {
          "internalType": "bytes",
          "name": "data",
          "type": "bytes"
        }
      ],
      "name": "safeBatchTransferFrom",
      "outputs": [],
      "stateMutability": "nonpayable",
      "type": "function"
    },
    {
      "inputs": [
        {
          "internalType": "address",
          "name": "from",
          "type": "address"
        },
        {
          "internalType": "address",
          "name": "to",
          "type": "address"
        },
        {
          "internalType": "uint256",
          "name": "id",
          "type": "uint256"
        },
        {
          "internalType": "uint256",
          "name": "value",
          "type": "uint256"
        },
        {
          "internalType": "bytes",
          "name": "data",
          "type": "bytes"
        }
      ],
      "name": "safeTransferFrom",
      "outputs": [],
      "stateMutability": "nonpayable",
      "type": "function"
    },
    {
      "inputs": [
        {
          "internalType": "address",
          "name": "operator",
          "type": "address"
        },
        {
          "internalType": "bool",
          "name": "approved",
          "type": "bool"
        }
      ],
      "name": "setApprovalForAll",
      "outputs": [],
      "stateMutability": "nonpayable",
      "type": "function"
    },
    {
      "inputs": [],
      "name": "ticketCount",
      "outputs": [
        {
          "internalType": "uint256",
          "name": "",
          "type": "uint256"
        }
      ],
      "stateMutability": "view",
      "type": "function"
    },
    {
      "inputs": [
        {
          "internalType": "uint256",
          "name": "",
          "type": "uint256"
        }
      ],
      "name": "tickets",
      "outputs": [
        {
          "internalType": "uint256",
          "name": "id",
          "type": "uint256"
        },
        {
          "internalType": "uint256",
          "name": "eventId",
          "type": "uint256"
        },
        {
          "internalType": "uint256",
          "name": "sectorId",
          "type": "uint256"
        },
        {
          "internalType": "uint256",
          "name": "groupId",
          "type": "uint256"
        },
        {
          "internalType": "uint256",
          "name": "originalPrice",
          "type": "uint256"
        },
        {
          "internalType": "enum Ticket_NFT.TicketStatus",
          "name": "status",
          "type": "uint8"
        },
        {
          "internalType": "string",
          "name": "seat",
          "type": "string"
        },
        {
          "internalType": "bytes32",
          "name": "hashName",
          "type": "bytes32"
        }
      ],
      "stateMutability": "view",
      "type": "function"
    },
    {
      "inputs": [],
      "name": "totalSupply",
      "outputs": [
        {
          "internalType": "uint256",
          "name": "",
          "type": "uint256"
        }
      ],
      "stateMutability": "view",
      "type": "function"
    },
    {
      "inputs": [
        {
          "internalType": "uint256",
          "name": "id",
          "type": "uint256"
        }
      ],
      "name": "totalSupply",
      "outputs": [
        {
          "internalType": "uint256",
          "name": "",
          "type": "uint256"
        }
      ],
      "stateMutability": "view",
      "type": "function"
    },
    {
      "inputs": [
        {
          "internalType": "uint256",
          "name": "",
          "type": "uint256"
        }
      ],
      "name": "uri",
      "outputs": [
        {
          "internalType": "string",
          "name": "",
          "type": "string"
        }
      ],
      "stateMutability": "view",
      "type": "function"
    },
    {
      "inputs": [
        {
          "internalType": "address",
          "name": "_organizer",
          "type": "address"
        }
      ],
      "name": "addOrganizer",
      "outputs": [],
      "stateMutability": "nonpayable",
      "type": "function"
    },
    {
      "inputs": [
        {
          "internalType": "address",
          "name": "_organizer",
          "type": "address"
        }
      ],
      "name": "removeOrganizer",
      "outputs": [],
      "stateMutability": "nonpayable",
      "type": "function"
    },
    {
      "inputs": [
        {
          "internalType": "string",
          "name": "_name",
          "type": "string"
        },
        {
          "internalType": "uint256",
          "name": "_time",
          "type": "uint256"
        }
      ],
      "name": "createEvent",
      "outputs": [],
      "stateMutability": "nonpayable",
      "type": "function"
    },
    {
      "inputs": [
        {
          "internalType": "uint256",
          "name": "_eventId",
          "type": "uint256"
        },
        {
          "internalType": "string",
          "name": "_name",
          "type": "string"
        },
        {
          "internalType": "uint256",
          "name": "_totalSeats",
          "type": "uint256"
        },
        {
          "internalType": "uint256",
          "name": "_seat_x_lines",
          "type": "uint256"
        }
      ],
      "name": "createSector",
      "outputs": [],
      "stateMutability": "nonpayable",
      "type": "function"
    },
    {
      "inputs": [
        {
          "internalType": "uint256",
          "name": "_eventId",
          "type": "uint256"
        },
        {
          "internalType": "uint256",
          "name": "_sectorId",
          "type": "uint256"
        },
        {
          "internalType": "uint256",
          "name": "_originalPrice",
          "type": "uint256"
        }
      ],
      "name": "createTicket",
      "outputs": [],
      "stateMutability": "nonpayable",
      "type": "function"
    },
    {
      "inputs": [
        {
          "internalType": "string",
          "name": "str",
          "type": "string"
        },
        {
          "internalType": "uint256",
          "name": "num",
          "type": "uint256"
        }
      ],
      "name": "generateHash",
      "outputs": [
        {
          "internalType": "bytes32",
          "name": "",
          "type": "bytes32"
        }
      ],
      "stateMutability": "pure",
      "type": "function"
    },
    {
      "inputs": [
        {
          "internalType": "uint256",
          "name": "ticketId",
          "type": "uint256"
        }
      ],
      "name": "createGroup",
      "outputs": [],
      "stateMutability": "nonpayable",
      "type": "function"
    },
    {
      "inputs": [
        {
          "internalType": "uint256",
          "name": "groupId",
          "type": "uint256"
        },
        {
          "internalType": "uint256",
          "name": "ticketId",
          "type": "uint256"
        }
      ],
      "name": "addParticipant",
      "outputs": [],
      "stateMutability": "nonpayable",
      "type": "function"
    },
    {
      "inputs": [
        {
          "internalType": "uint256",
          "name": "groupId",
          "type": "uint256"
        },
        {
          "internalType": "uint256",
          "name": "ticketId",
          "type": "uint256"
        }
      ],
      "name": "removeParticipant",
      "outputs": [],
      "stateMutability": "nonpayable",
      "type": "function"
    },
    {
      "inputs": [
        {
          "internalType": "uint256",
          "name": "ticketId",
          "type": "uint256"
        },
        {
          "internalType": "string",
          "name": "name",
          "type": "string"
        },
        {
          "internalType": "string",
          "name": "surname",
          "type": "string"
        }
      ],
      "name": "setOwnerName",
      "outputs": [],
      "stateMutability": "nonpayable",
      "type": "function"
    },
    {
      "inputs": [
        {
          "internalType": "uint256",
          "name": "ticketId",
          "type": "uint256"
        },
        {
          "internalType": "string",
          "name": "name",
          "type": "string"
        },
        {
          "internalType": "string",
          "name": "surname",
          "type": "string"
        }
      ],
      "name": "validateTicket",
      "outputs": [],
      "stateMutability": "nonpayable",
      "type": "function"
    },
    {
      "inputs": [
        {
          "internalType": "uint256",
          "name": "ticketId",
          "type": "uint256"
        },
        {
          "internalType": "enum Ticket_NFT.TicketStatus",
          "name": "newStatus",
          "type": "uint8"
        }
      ],
      "name": "updateTicketStatus",
      "outputs": [],
      "stateMutability": "nonpayable",
      "type": "function"
    },
    {
      "inputs": [
        {
          "internalType": "uint256",
          "name": "_eventId",
          "type": "uint256"
        }
      ],
      "name": "expireTickets",
      "outputs": [],
      "stateMutability": "nonpayable",
      "type": "function"
    },
    {
      "inputs": [
        {
          "internalType": "uint256",
          "name": "_eventId",
          "type": "uint256"
        }
      ],
      "name": "getEventDetails",
      "outputs": [
        {
          "internalType": "uint256",
          "name": "id",
          "type": "uint256"
        },
        {
          "internalType": "string",
          "name": "name",
          "type": "string"
        },
        {
          "internalType": "uint256",
          "name": "time",
          "type": "uint256"
        },
        {
          "internalType": "uint256",
          "name": "sectorCount",
          "type": "uint256"
        },
        {
          "internalType": "uint256",
          "name": "availableSeats",
          "type": "uint256"
        }
      ],
      "stateMutability": "view",
      "type": "function"
    },
    {
      "inputs": [],
      "name": "getAllEventsDetails",
      "outputs": [
        {
          "internalType": "uint256[]",
          "name": "ids",
          "type": "uint256[]"
        },
        {
          "internalType": "string[]",
          "name": "names",
          "type": "string[]"
        },
        {
          "internalType": "uint256[]",
          "name": "times",
          "type": "uint256[]"
        },
        {
          "internalType": "uint256[]",
          "name": "sectorCounts",
          "type": "uint256[]"
        },
        {
          "internalType": "uint256[]",
          "name": "availableSeats",
          "type": "uint256[]"
        }
      ],
      "stateMutability": "view",
      "type": "function"
    },
    {
      "inputs": [
        {
          "internalType": "uint256",
          "name": "_start",
          "type": "uint256"
        },
        {
          "internalType": "uint256",
          "name": "_end",
          "type": "uint256"
        }
      ],
      "name": "getTickets",
      "outputs": [
        {
          "components": [
            {
              "internalType": "uint256",
              "name": "id",
              "type": "uint256"
            },
            {
              "internalType": "uint256",
              "name": "eventId",
              "type": "uint256"
            },
            {
              "internalType": "uint256",
              "name": "sectorId",
              "type": "uint256"
            },
            {
              "internalType": "uint256",
              "name": "groupId",
              "type": "uint256"
            },
            {
              "internalType": "uint256",
              "name": "originalPrice",
              "type": "uint256"
            },
            {
              "internalType": "enum Ticket_NFT.TicketStatus",
              "name": "status",
              "type": "uint8"
            },
            {
              "internalType": "string",
              "name": "seat",
              "type": "string"
            },
            {
              "internalType": "bytes32",
              "name": "hashName",
              "type": "bytes32"
            }
          ],
          "internalType": "struct Ticket_NFT.Ticket[]",
          "name": "",
          "type": "tuple[]"
        }
      ],
      "stateMutability": "view",
      "type": "function"
    },
    {
      "inputs": [
        {
          "internalType": "uint256",
          "name": "_eventId",
          "type": "uint256"
        },
        {
          "internalType": "uint256",
          "name": "_sectorId",
          "type": "uint256"
        }
      ],
      "name": "getSector",
      "outputs": [
        {
          "internalType": "uint256",
          "name": "id",
          "type": "uint256"
        },
        {
          "internalType": "string",
          "name": "name",
          "type": "string"
        },
        {
          "internalType": "uint256",
          "name": "totalSeats",
          "type": "uint256"
        },
        {
          "internalType": "uint256",
          "name": "availableSeats",
          "type": "uint256"
        },
        {
          "internalType": "uint256[]",
          "name": "ticketIds",
          "type": "uint256[]"
        },
        {
          "internalType": "uint256[]",
          "name": "associatedGroupIds",
          "type": "uint256[]"
        }
      ],
      "stateMutability": "view",
      "type": "function"
    },
    {
      "inputs": [
        {
          "internalType": "uint256",
          "name": "ticketId",
          "type": "uint256"
        }
      ],
      "name": "getTicket",
      "outputs": [
        {
          "internalType": "uint256",
          "name": "id",
          "type": "uint256"
        },
        {
          "internalType": "uint256",
          "name": "eventId",
          "type": "uint256"
        },
        {
          "internalType": "uint256",
          "name": "sectorId",
          "type": "uint256"
        },
        {
          "internalType": "uint256",
          "name": "groupId",
          "type": "uint256"
        },
        {
          "internalType": "uint256",
          "name": "originalPrice",
          "type": "uint256"
        },
        {
          "internalType": "enum Ticket_NFT.TicketStatus",
          "name": "status",
          "type": "uint8"
        },
        {
          "internalType": "string",
          "name": "seat",
          "type": "string"
        },
        {
          "internalType": "bytes32",
          "name": "hashName",
          "type": "bytes32"
        }
      ],
      "stateMutability": "view",
      "type": "function"
    },
    {
      "inputs": [
        {
          "internalType": "uint256[]",
          "name": "ticket_ids",
          "type": "uint256[]"
        },
        {
          "internalType": "string[]",
          "name": "seats",
          "type": "string[]"
        }
      ],
      "name": "assignSeats",
      "outputs": [],
      "stateMutability": "nonpayable",
      "type": "function"
    },
    {
      "inputs": [
        {
          "internalType": "uint256",
          "name": "groupId",
          "type": "uint256"
        }
      ],
      "name": "getGroupTickets",
      "outputs": [
        {
          "internalType": "uint256[]",
          "name": "",
          "type": "uint256[]"
        }
      ],
      "stateMutability": "view",
      "type": "function"
    },
    {
      "inputs": [
        {
          "internalType": "uint256",
          "name": "ticketId",
          "type": "uint256"
        }
      ],
      "name": "isTicketInGroup",
      "outputs": [
        {
          "internalType": "bool",
          "name": "",
          "type": "bool"
        }
      ],
      "stateMutability": "view",
      "type": "function"
    },
    {
      "inputs": [
        {
          "internalType": "bytes4",
          "name": "_interfaceId",
          "type": "bytes4"
        }
      ],
      "name": "supportsInterface",
      "outputs": [
        {
          "internalType": "bool",
          "name": "",
          "type": "bool"
        }
      ],
      "stateMutability": "view",
      "type": "function"
    }
  ],
  "bytecode": "0x60806040523480156200001157600080fd5b50604051620043a7380380620043a7833981016040819052620000349162000217565b6040805160208101909152600081526200004e81620000d8565b506200005c600032620000ea565b50620000897f4d2e7a1e3f5dd6e203f087b15756ccf0e4ccd947fe1b639a38540089a1e47f6382620000ea565b50620000a56000805160206200438783398151915282620000ea565b50620000c1600080516020620043878339815191528062000199565b600c620000cf83826200038e565b5050506200045a565b6003620000e682826200038e565b5050565b6000828152602081815260408083206001600160a01b038516845290915281205460ff166200018f576000838152602081815260408083206001600160a01b03861684529091529020805460ff19166001179055620001463390565b6001600160a01b0316826001600160a01b0316847f2f8788117e7eff1d82e926ec794901d17c78024a50270940304540a733656f0d60405160405180910390a450600162000193565b5060005b92915050565b600082815260208190526040808220600101805490849055905190918391839186917fbd79b86ffe0ab8e8776151514217cd7cacd52c909f66475c3af44e129f0b00ff9190a4505050565b634e487b7160e01b600052604160045260246000fd5b80516001600160a01b03811681146200021257600080fd5b919050565b600080604083850312156200022b57600080fd5b82516001600160401b03808211156200024357600080fd5b818501915085601f8301126200025857600080fd5b8151818111156200026d576200026d620001e4565b604051601f8201601f19908116603f01168101908382118183101715620002985762000298620001e4565b81604052828152602093508884848701011115620002b557600080fd5b600091505b82821015620002d95784820184015181830185015290830190620002ba565b6000848483010152809650505050620002f4818601620001fa565b925050509250929050565b600181811c908216806200031457607f821691505b6020821081036200033557634e487b7160e01b600052602260045260246000fd5b50919050565b601f8211156200038957600081815260208120601f850160051c81016020861015620003645750805b601f850160051c820191505b81811015620003855782815560010162000370565b5050505b505050565b81516001600160401b03811115620003aa57620003aa620001e4565b620003c281620003bb8454620002ff565b846200033b565b602080601f831160018114620003fa5760008415620003e15750858301515b600019600386901b1c1916600185901b17855562000385565b600085815260208120601f198616915b828110156200042b578886015182559484019460019091019084016200040a565b50858210156200044a5787850151600019600388901b60f8161c191681555b5050505050600190811b01905550565b613f1d806200046a6000396000f3fe608060405234801561001057600080fd5b50600436106102945760003560e01c806371be2e4a11610167578063bc79ddcb116100ce578063e426bfef11610087578063e426bfef14610641578063e4725f0214610654578063e985e9c514610667578063ec38d5a01461067a578063f242432a1461069e578063f70778fa146106b157600080fd5b8063bc79ddcb146105cc578063bd85b039146105df578063c28aeb77146105ff578063cfbd900f14610612578063d547741f1461061b578063db8aa9881461062e57600080fd5b806391d148541161012057806391d14854146105535780639a4d438514610566578063a217fddf14610579578063a22cb46514610581578063a460b81714610594578063b51aef04146105a757600080fd5b806371be2e4a146104cd57806375b238fc146104d65780637909cb59146104fd5780637dc379fa146105125780638be8a775146105255780638f23b3261461054a57600080fd5b80632eb2c2d61161020b5780634c66a073116101c45780634c66a073146104365780634e1273f41461043e5780634f558e791461045e57806350b447121461048057806352def180146104a757806365bf60e0146104ba57600080fd5b80632eb2c2d6146103c45780632f2ff15d146103d757806336568abe146103ea57806344508ad0146103fd57806344ade56d146104105780634ae855cf1461042357600080fd5b80630e89341c1161025d5780630e89341c1461032d578063118757f81461034d57806315e472dd1461036657806318160ddd146103795780631c80964514610381578063248a9ca3146103a157600080fd5b8062fdd58e1461029957806301ffc9a7146102bf5780630b791430146102e25780630c08b30d146103055780630e5310761461031a575b600080fd5b6102ac6102a7366004613127565b6106c4565b6040519081526020015b60405180910390f35b6102d26102cd366004613167565b6106ee565b60405190151581526020016102b6565b6102f56102f036600461318b565b6106f9565b6040516102b694939291906131f4565b610318610313366004613363565b6107aa565b005b610318610328366004613437565b610899565b61034061033b36600461318b565b610975565b6040516102b6919061348d565b610355610a09565b6040516102b69594939291906134db565b61031861037436600461358a565b610d53565b6005546102ac565b61039461038f3660046135b6565b610f80565b6040516102b69190613610565b6102ac6103af36600461318b565b60009081526020819052604090206001015490565b6103186103d23660046136d2565b6111d9565b6103186103e536600461377b565b611240565b6103186103f836600461377b565b611265565b61031861040b3660046135b6565b61129d565b61031861041e3660046137a7565b611543565b6102ac6104313660046135b6565b611589565b6103406115ba565b61045161044c3660046137c2565b611648565b6040516102b69190613881565b6102d261046c36600461318b565b600090815260046020526040902054151590565b61049361048e36600461318b565b611714565b6040516102b6989796959493929190613894565b6103186104b53660046138e9565b6117e5565b6103186104c836600461318b565b611964565b6102ac60065481565b6102ac7fa49807205ce4d355092ef5a8a18f56e8913cf4a201fbe287825b095693c2177581565b6102ac600080516020613ec883398151915281565b61049361052036600461318b565b6119da565b6105386105333660046135b6565b611ad9565b6040516102b696959493929190613955565b6102ac60085481565b6102d261056136600461377b565b611d76565b6103186105743660046139ad565b611d9f565b6102ac600081565b61031861058f3660046139f1565b611e40565b6103186105a2366004613a2d565b611e4b565b6102d26105b536600461318b565b6000908152600a6020526040902060030154151590565b6104516105da36600461318b565b611f81565b6102ac6105ed36600461318b565b60009081526004602052604090205490565b61031861060d3660046138e9565b611fe2565b6102ac60075481565b61031861062936600461377b565b612070565b6102ac61063c3660046139ad565b612095565b61031861064f36600461318b565b6120c8565b6103186106623660046137a7565b6121d3565b6102d2610675366004613a56565b612215565b61068d61068836600461318b565b612243565b6040516102b6959493929190613a80565b6103186106ac366004613ab6565b61235c565b6103186106bf3660046135b6565b6123bb565b60008181526001602090815260408083206001600160a01b03861684529091529020545b92915050565b60006106e88261279e565b6009602052600090815260409020805460018201805491929161071b90613b1a565b80601f016020809104026020016040519081016040528092919081815260200182805461074790613b1a565b80156107945780601f1061076957610100808354040283529160200191610794565b820191906000526020600020905b81548152906001019060200180831161077757829003601f168201915b5050505050908060020154908060040154905084565b600080516020613ec88339815191526107c2816127de565b81518351146108185760405162461bcd60e51b815260206004820152601760248201527f4d69736d61746368656420696e7075742061727261797300000000000000000060448201526064015b60405180910390fd5b60005b8351811015610893576000600a600086848151811061083c5761083c613b54565b60200260200101518152602001908152602001600020905083828151811061086657610866613b54565b602002602001015181600601908161087e9190613bb0565b5050808061088b90613c85565b91505061081b565b50505050565b600080516020613ec88339815191526108b1816127de565b60008581526009602052604081206001810180549192916108d190613b1a565b9050116108dd57600080fd5b6004810180549060006108ef83613c85565b90915550506004810154600081815260038301602052604090209081556001810161091a8782613bb0565b50600281018590556003810185905560048101849055805460405188907fa02d99a1daac50524d2b80db5bd4ef4ef59bc535a96274cb9cc11c460cc8ac6690610964908a9061348d565b60405180910390a350505050505050565b60606003805461098490613b1a565b80601f01602080910402602001604051908101604052809291908181526020018280546109b090613b1a565b80156109fd5780601f106109d2576101008083540402835291602001916109fd565b820191906000526020600020905b8154815290600101906020018083116109e057829003601f168201915b50505050509050919050565b60608060608060606006546001600160401b03811115610a2b57610a2b613220565b604051908082528060200260200182016040528015610a54578160200160208202803683370190505b5094506006546001600160401b03811115610a7157610a71613220565b604051908082528060200260200182016040528015610aa457816020015b6060815260200190600190039081610a8f5790505b5093506006546001600160401b03811115610ac157610ac1613220565b604051908082528060200260200182016040528015610aea578160200160208202803683370190505b5092506006546001600160401b03811115610b0757610b07613220565b604051908082528060200260200182016040528015610b30578160200160208202803683370190505b5091506006546001600160401b03811115610b4d57610b4d613220565b604051908082528060200260200182016040528015610b76578160200160208202803683370190505b50905060015b6006548111610d4b5760008181526009602052604081209060015b82600401548111610bd4576000818152600380850160205260409091200154610bc09083613c9e565b915080610bcc81613c85565b915050610b97565b50815488610be3600186613cb1565b81518110610bf357610bf3613b54565b602002602001018181525050816001018054610c0e90613b1a565b80601f0160208091040260200160405190810160405280929190818152602001828054610c3a90613b1a565b8015610c875780601f10610c5c57610100808354040283529160200191610c87565b820191906000526020600020905b815481529060010190602001808311610c6a57829003601f168201915b505050505087600185610c9a9190613cb1565b81518110610caa57610caa613b54565b6020908102919091010152600282015486610cc6600186613cb1565b81518110610cd657610cd6613b54565b6020908102919091010152600482015485610cf2600186613cb1565b81518110610d0257610d02613b54565b60209081029190910101528084610d1a600186613cb1565b81518110610d2a57610d2a613b54565b60200260200101818152505050508080610d4390613c85565b915050610b7c565b509091929394565b600080516020613ec8833981519152610d6b816127de565b60008211610dbb5760405162461bcd60e51b815260206004820152601c60248201527f5072696365206d7573742062652067726561746572207468616e203000000000604482015260640161080f565b6000848152600960209081526040808320868452600390810190925290912090810154610e1a5760405162461bcd60e51b815260206004820152600d60248201526c139bc81cd9585d1cc81b19599d609a1b604482015260640161080f565b60078054906000610e2a83613c85565b90915550506007546000818152600a60205260409020818155600181018790556002810186905560058101805460ff1916905560048101859055600c8054610efa9190610e7690613b1a565b80601f0160208091040260200160405190810160405280929190818152602001828054610ea290613b1a565b8015610eef5780601f10610ec457610100808354040283529160200191610eef565b820191906000526020600020905b815481529060010190602001808311610ed257829003601f168201915b505050505083612095565b6007820155600383018054906000610f1183613cc4565b9091555050604080518881526020810188905290810186905282907f2a46459bd2b4f82bf8e5df9e7aaaa836588650ea9b6758cd0f274e5b5a2187c69060600160405180910390a2610f77336007546001604051806020016040528060008152506127eb565b50505050505050565b6060600754821115610fc25760405162461bcd60e51b815260206004820152600b60248201526a125b9d985b1a5908195b9960aa1b604482015260640161080f565b828210156110075760405162461bcd60e51b8152602060048201526012602482015271496e76616c696420706172616d657465727360701b604482015260640161080f565b60006110138484613cb1565b6001600160401b0381111561102a5761102a613220565b60405190808252806020026020018201604052801561106357816020015b6110506130b5565b8152602001906001900390816110485790505b509050835b838110156111d157600a60008281526020019081526020016000206040518061010001604052908160008201548152602001600182015481526020016002820154815260200160038201548152602001600482015481526020016005820160009054906101000a900460ff1660038111156110e5576110e56135d8565b60038111156110f6576110f66135d8565b815260200160068201805461110a90613b1a565b80601f016020809104026020016040519081016040528092919081815260200182805461113690613b1a565b80156111835780601f1061115857610100808354040283529160200191611183565b820191906000526020600020905b81548152906001019060200180831161116657829003601f168201915b505050505081526020016007820154815250508286836111a39190613cb1565b815181106111b3576111b3613b54565b602002602001018190525080806111c990613c85565b915050611068565b509392505050565b336001600160a01b03861681148015906111fa57506111f88682612215565b155b1561122b5760405163711bec9160e11b81526001600160a01b0380831660048301528716602482015260440161080f565b6112388686868686612848565b505050505050565b60008281526020819052604090206001015461125b816127de565b61089383836128af565b6001600160a01b038116331461128e5760405163334bd91960e11b815260040160405180910390fd5b6112988282612941565b505050565b6000828152600b60205260409020546112ef5760405162461bcd60e51b8152602060048201526014602482015273496c2067727570706f206e6f6e2065736973746560601b604482015260640161080f565b60006112fb33836106c4565b116113185760405162461bcd60e51b815260040161080f90613cdb565b6000818152600a602052604090206003015482146113895760405162461bcd60e51b815260206004820152602860248201527f496c207469636b6574206e6f6e2061707061727469656e6520612071756573746044820152676f2067727570706f60c01b606482015260840161080f565b6000818152600a6020526040812060030181905580805b6000858152600b602052604090205481101561144e5760408051602081018690520160408051601f1981840301815291815281516020928301206000888152600b90935291208054839081106113f8576113f8613b54565b906000526020600020015460405160200161141591815260200190565b604051602081830303815290604052805190602001200361143c578092506001915061144e565b8061144681613c85565b9150506113a0565b508061149c5760405162461bcd60e51b815260206004820152601d60248201527f5469636b6574206e6f6e2074726f7661746f206e656c2067727570706f000000604482015260640161080f565b6000848152600b6020526040902080546114b890600190613cb1565b815481106114c8576114c8613b54565b9060005260206000200154600b600086815260200190815260200160002083815481106114f7576114f7613b54565b9060005260206000200181905550600b600085815260200190815260200160002080548061152757611527613d09565b6001900381819060005260206000200160009055905550505050565b7fa49807205ce4d355092ef5a8a18f56e8913cf4a201fbe287825b095693c2177561156d816127de565b611585600080516020613ec883398151915283612070565b5050565b600b60205281600052604060002081815481106115a557600080fd5b90600052602060002001600091509150505481565b600c80546115c790613b1a565b80601f01602080910402602001604051908101604052809291908181526020018280546115f390613b1a565b80156116405780601f1061161557610100808354040283529160200191611640565b820191906000526020600020905b81548152906001019060200180831161162357829003601f168201915b505050505081565b606081518351146116795781518351604051635b05999160e01b81526004810192909252602482015260440161080f565b600083516001600160401b0381111561169457611694613220565b6040519080825280602002602001820160405280156116bd578160200160208202803683370190505b50905060005b84518110156111d1576020808202860101516116e7906020808402870101516106c4565b8282815181106116f9576116f9613b54565b602090810291909101015261170d81613c85565b90506116c3565b600a6020526000908152604090208054600182015460028301546003840154600485015460058601546006870180549697959694959394929360ff9092169261175c90613b1a565b80601f016020809104026020016040519081016040528092919081815260200182805461178890613b1a565b80156117d55780601f106117aa576101008083540402835291602001916117d5565b820191906000526020600020905b8154815290600101906020018083116117b857829003601f168201915b5050505050908060070154905088565b600080516020613ec88339815191526117fd816127de565b6000848152600a602052604090206002600582015460ff166003811115611826576118266135d8565b036118735760405162461bcd60e51b815260206004820152601860248201527f5469636b657420616c72656164792076616c6964617465640000000000000000604482015260640161080f565b6003600582015460ff16600381111561188e5761188e6135d8565b036118cd5760405162461bcd60e51b815260206004820152600f60248201526e5469636b657420657870697265642160881b604482015260640161080f565b60006118fa85856040516020016118e5929190613d1f565b60405160208183030381529060405287612095565b90508082600701541461194f5760405162461bcd60e51b815260206004820152601b60248201527f5469636b65742068617320646966666572656e74206f776e6572210000000000604482015260640161080f565b50600501805460ff1916600217905550505050565b600061197033836106c4565b1161198d5760405162461bcd60e51b815260040161080f90613cdb565b600060086000815461199e90613c85565b91829055506000838152600a60209081526040808320600301849055928252600b81529181208054600181018255908252919020019190915550565b6000806000806000806060600080600a60008b81526020019081526020016000209050806000015481600101548260020154836003015484600401548560050160009054906101000a900460ff16866006018760070154818054611a3d90613b1a565b80601f0160208091040260200160405190810160405280929190818152602001828054611a6990613b1a565b8015611ab65780601f10611a8b57610100808354040283529160200191611ab6565b820191906000526020600020905b815481529060010190602001808311611a9957829003601f168201915b505050505091509850985098509850985098509850985050919395975091939597565b60008281526009602090815260408083208484526003019091528120606090829081908390819083805b600754811015611b62576000818152600a60205260409020600101548b148015611b3d57506000818152600a60205260409020600201548a145b15611b505781611b4c81613c85565b9250505b80611b5a81613c85565b915050611b03565b5060006007546001600160401b03811115611b7f57611b7f613220565b604051908082528060200260200182016040528015611ba8578160200160208202803683370190505b50905060006007546001600160401b03811115611bc757611bc7613220565b604051908082528060200260200182016040528015611bf0578160200160208202803683370190505b5090506000805b600754811015611cb9576000818152600a60205260409020600101548e148015611c3157506000818152600a60205260409020600201548d145b15611ca7576000818152600a60205260409020548451859084908110611c5957611c59613b54565b602002602001018181525050600a600082815260200190815260200160002060030154838381518110611c8e57611c8e613b54565b602090810291909101015281611ca381613c85565b9250505b80611cb181613c85565b915050611bf7565b50846000015485600101866002015487600301548686848054611cdb90613b1a565b80601f0160208091040260200160405190810160405280929190818152602001828054611d0790613b1a565b8015611d545780601f10611d2957610100808354040283529160200191611d54565b820191906000526020600020905b815481529060010190602001808311611d3757829003601f168201915b505050505094509a509a509a509a509a509a5050505050509295509295509295565b6000918252602082815260408084206001600160a01b0393909316845291905290205460ff1690565b600080516020613ec8833981519152611db7816127de565b60068054906000611dc783613c85565b9091555050600654600081815260096020526040902090815560018101611dee8582613bb0565b5060028101839055600060048201556006546040517fee37bb5143a14810f72e86fce895be08e16090409d2e18f79b308995e39b73d490611e329087908790613d5b565b60405180910390a250505050565b6115853383836129ac565b6000828152600a602052604090206002826003811115611e6d57611e6d6135d8565b1480611e8a57506000826003811115611e8857611e886135d8565b145b8015611ed057506001600582015460ff166003811115611eac57611eac6135d8565b1480611ed057506000600582015460ff166003811115611ece57611ece6135d8565b145b15611f2257611eed600080516020613ec883398151915233611d76565b80611f0157506000611eff33856106c4565b115b611f1d5760405162461bcd60e51b815260040161080f90613d7d565b611f56565b611f3a600080516020613ec883398151915233611d76565b611f565760405162461bcd60e51b815260040161080f90613d7d565b60058101805483919060ff19166001836003811115611f7757611f776135d8565b0217905550505050565b6000818152600b60209081526040918290208054835181840281018401909452808452606093928301828280156109fd57602002820191906000526020600020905b815481526020019060010190808311611fc35750505050509050919050565b611ffa600080516020613ec883398151915233611d76565b8061200e5750600061200c33856106c4565b115b61202a5760405162461bcd60e51b815260040161080f90613cdb565b6000838152600a6020908152604091829020915161206591612050918691869101613d1f565b60405160208183030381529060405285612095565b600790910155505050565b60008281526020819052604090206001015461208b816127de565b6108938383612941565b600082826040516020016120aa929190613dc3565b60405160208183030381529060405280519060200120905092915050565b600080516020613ec88339815191526120e0816127de565b6000828152600960205260409020600281015442116121415760405162461bcd60e51b815260206004820152601a60248201527f4576656e7420686173206e6f7420796574206f63637572726564000000000000604482015260640161080f565b60015b6007548111610893576000818152600a602052604090206001810154851480156121ab57506003600582015460ff166003811115612184576121846135d8565b141580156121ab57506002600582015460ff1660038111156121a8576121a86135d8565b14155b156121c05760058101805460ff191660031790555b50806121cb81613c85565b915050612144565b7fa49807205ce4d355092ef5a8a18f56e8913cf4a201fbe287825b095693c217756121fd816127de565b611298600080516020613ec8833981519152836128af565b6001600160a01b03918216600090815260026020908152604080832093909416825291909152205460ff1690565b600081815260096020526040812060609082908190819081805b600483015461226d906001613c9e565b8110156122a65760008181526003808501602052604090912001546122929083613c9e565b91508061229e81613c85565b91505061225d565b5081600001548260010183600201548460040154848380546122c790613b1a565b80601f01602080910402602001604051908101604052809291908181526020018280546122f390613b1a565b80156123405780601f1061231557610100808354040283529160200191612340565b820191906000526020600020905b81548152906001019060200180831161232357829003601f168201915b5050505050935096509650965096509650505091939590929450565b336001600160a01b038616811480159061237d575061237b8682612215565b155b156123ae5760405163711bec9160e11b81526001600160a01b0380831660048301528716602482015260440161080f565b6112388686868686612a42565b6000828152600b60205260409020546124165760405162461bcd60e51b815260206004820152601860248201527f5468652067726f757020646f6573206e6f742065786973740000000000000000604482015260640161080f565b6000805b6000848152600b60205260409020548110156124a157600061248033600a6000600b60008a8152602001908152602001600020868154811061245e5761245e613b54565b90600052602060002001548152602001908152602001600020600001546106c4565b111561248f57600191506124a1565b8061249981613c85565b91505061241a565b50806125065760405162461bcd60e51b815260206004820152602e60248201527f596f75206d75737420626520612067726f7570206d656d62657220746f20616460448201526d64207061727469636970616e747360901b606482015260840161080f565b60016000838152600a602052604090206005015460ff16600381111561252e5761252e6135d8565b1461257b5760405162461bcd60e51b815260206004820152601960248201527f546865207469636b6574206973206e6f7420274f776e65642700000000000000604482015260640161080f565b6000828152600a6020526040902060030154156125ec5760405162461bcd60e51b815260206004820152602960248201527f546865207469636b657420697320616c72656164792061737369676e6564207460448201526806f20612067726f75760bc1b606482015260840161080f565b6000838152600b602052604081208054600a918391829061260f5761260f613b54565b906000526020600020015481526020019081526020016000206001015490506000600a6000600b600088815260200190815260200160002060008154811061265957612659613b54565b9060005260206000200154815260200190815260200160002060020154905081600a600086815260200190815260200160002060010154146126f15760405162461bcd60e51b815260206004820152602b60248201527f546865207469636b657420646f6573206e6f74206d617463682074686520677260448201526a1bdd5c09dcc8195d995b9d60aa1b606482015260840161080f565b6000848152600a602052604090206002015481146127665760405162461bcd60e51b815260206004820152602c60248201527f546865207469636b657420646f6573206e6f74206d617463682074686520677260448201526b37bab813b99039b2b1ba37b960a11b606482015260840161080f565b5050506000818152600a60209081526040808320600301859055938252600b8152928120805460018101825590825292902090910155565b60006001600160e01b03198216636cdb3d1360e11b14806127cf57506001600160e01b031982166303a24d0760e21b145b806106e857506106e882612ac7565b6127e88133612afc565b50565b6001600160a01b03841661281557604051632bfa23e760e11b81526000600482015260240161080f565b60408051600180825260208201869052818301908152606082018590526080820190925290611238600087848487612b35565b6001600160a01b03841661287257604051632bfa23e760e11b81526000600482015260240161080f565b6001600160a01b03851661289b57604051626a0d4560e21b81526000600482015260240161080f565b6128a88585858585612b35565b5050505050565b60006128bb8383611d76565b612939576000838152602081815260408083206001600160a01b03861684529091529020805460ff191660011790556128f13390565b6001600160a01b0316826001600160a01b0316847f2f8788117e7eff1d82e926ec794901d17c78024a50270940304540a733656f0d60405160405180910390a45060016106e8565b5060006106e8565b600061294d8383611d76565b15612939576000838152602081815260408083206001600160a01b0386168085529252808320805460ff1916905551339286917ff6391f5c32d9c69d2a47ea670b442974b53935d1edc7fd64eb21e047a839171b9190a45060016106e8565b6001600160a01b0382166129d55760405162ced3e160e81b81526000600482015260240161080f565b6001600160a01b03838116600081815260026020908152604080832094871680845294825291829020805460ff191686151590811790915591519182527f17307eab39ab6107e8899845ad3d59bd9653f200f220920489ca2b5937696c31910160405180910390a3505050565b6001600160a01b038416612a6c57604051632bfa23e760e11b81526000600482015260240161080f565b6001600160a01b038516612a9557604051626a0d4560e21b81526000600482015260240161080f565b60408051600180825260208201869052818301908152606082018590526080820190925290610f778787848487612b35565b60006001600160e01b03198216637965db0b60e01b14806106e857506301ffc9a760e01b6001600160e01b03198316146106e8565b612b068282611d76565b6115855760405163e2517d3f60e01b81526001600160a01b03821660048201526024810183905260440161080f565b612b4185858585612b88565b6001600160a01b038416156128a85782513390600103612b7a5760208481015190840151612b73838989858589612c85565b5050611238565b611238818787878787612da9565b612b9484848484612e92565b6001600160a01b038416612c1d576000805b8351811015612c035760208181028481018201519086018201516000908152600490925260408220805491928392612bdf908490613c9e565b90915550612bef90508184613c9e565b92505080612bfc90613c85565b9050612ba6565b508060056000828254612c169190613c9e565b9091555050505b6001600160a01b038316610893576000805b8351811015612c74576020818102848101820151908601820151600090815260049092526040909120805482900390559190910190612c6d81613c85565b9050612c2f565b506005805491909103905550505050565b6001600160a01b0384163b156112385760405163f23a6e6160e01b81526001600160a01b0385169063f23a6e6190612cc99089908990889088908890600401613de5565b6020604051808303816000875af1925050508015612d04575060408051601f3d908101601f19168201909252612d0191810190613e2a565b60015b612d6d573d808015612d32576040519150601f19603f3d011682016040523d82523d6000602084013e612d37565b606091505b508051600003612d6557604051632bfa23e760e11b81526001600160a01b038616600482015260240161080f565b805181602001fd5b6001600160e01b0319811663f23a6e6160e01b14610f7757604051632bfa23e760e11b81526001600160a01b038616600482015260240161080f565b6001600160a01b0384163b156112385760405163bc197c8160e01b81526001600160a01b0385169063bc197c8190612ded9089908990889088908890600401613e47565b6020604051808303816000875af1925050508015612e28575060408051601f3d908101601f19168201909252612e2591810190613e2a565b60015b612e56573d808015612d32576040519150601f19603f3d011682016040523d82523d6000602084013e612d37565b6001600160e01b0319811663bc197c8160e01b14610f7757604051632bfa23e760e11b81526001600160a01b038616600482015260240161080f565b8051825114612ec15781518151604051635b05999160e01b81526004810192909252602482015260440161080f565b3360005b8351811015612fd6576020818102858101820151908501909101516001600160a01b03881615612f7c5760008281526001602090815260408083206001600160a01b038c16845290915290205481811015612f53576040516303dee4c560e01b81526001600160a01b038a16600482015260248101829052604481018390526064810184905260840161080f565b60008381526001602090815260408083206001600160a01b038d16845290915290209082900390555b6001600160a01b03871615612fc35760008281526001602090815260408083206001600160a01b038b16845290915281208054839290612fbd908490613c9e565b90915550505b505080612fcf90613c85565b9050612ec5565b5082516001036130575760208301516000906020840151909150856001600160a01b0316876001600160a01b0316846001600160a01b03167fc3d58168c5ae7397731d063d5bbf3d657854427343f4c083240f7aacaa2d0f628585604051613048929190918252602082015260400190565b60405180910390a450506128a8565b836001600160a01b0316856001600160a01b0316826001600160a01b03167f4a39dc06d4c0dbc64b70af90fd698a233a518aa5d07e595d983b8c0526c8f7fb86866040516130a6929190613e99565b60405180910390a45050505050565b6040518061010001604052806000815260200160008152602001600081526020016000815260200160008152602001600060038111156130f7576130f76135d8565b815260606020820152600060409091015290565b80356001600160a01b038116811461312257600080fd5b919050565b6000806040838503121561313a57600080fd5b6131438361310b565b946020939093013593505050565b6001600160e01b0319811681146127e857600080fd5b60006020828403121561317957600080fd5b813561318481613151565b9392505050565b60006020828403121561319d57600080fd5b5035919050565b60005b838110156131bf5781810151838201526020016131a7565b50506000910152565b600081518084526131e08160208601602086016131a4565b601f01601f19169290920160200192915050565b84815260806020820152600061320d60808301866131c8565b6040830194909452506060015292915050565b634e487b7160e01b600052604160045260246000fd5b604051601f8201601f191681016001600160401b038111828210171561325e5761325e613220565b604052919050565b60006001600160401b0382111561327f5761327f613220565b5060051b60200190565b600082601f83011261329a57600080fd5b813560206132af6132aa83613266565b613236565b82815260059290921b840181019181810190868411156132ce57600080fd5b8286015b848110156132e957803583529183019183016132d2565b509695505050505050565b600082601f83011261330557600080fd5b81356001600160401b0381111561331e5761331e613220565b613331601f8201601f1916602001613236565b81815284602083860101111561334657600080fd5b816020850160208301376000918101602001919091529392505050565b6000806040838503121561337657600080fd5b82356001600160401b038082111561338d57600080fd5b61339986838701613289565b93506020915081850135818111156133b057600080fd5b8501601f810187136133c157600080fd5b80356133cf6132aa82613266565b81815260059190911b820184019084810190898311156133ee57600080fd5b8584015b838110156134265780358681111561340a5760008081fd5b6134188c89838901016132f4565b8452509186019186016133f2565b508096505050505050509250929050565b6000806000806080858703121561344d57600080fd5b8435935060208501356001600160401b0381111561346a57600080fd5b613476878288016132f4565b949794965050505060408301359260600135919050565b60208152600061318460208301846131c8565b600081518084526020808501945080840160005b838110156134d0578151875295820195908201906001016134b4565b509495945050505050565b60a0815260006134ee60a08301886134a0565b6020838203818501528188518084528284019150828160051b850101838b0160005b8381101561353e57601f1987840301855261352c8383516131c8565b94860194925090850190600101613510565b50508681036040880152613552818b6134a0565b945050505050828103606084015261356a81866134a0565b9050828103608084015261357e81856134a0565b98975050505050505050565b60008060006060848603121561359f57600080fd5b505081359360208301359350604090920135919050565b600080604083850312156135c957600080fd5b50508035926020909101359150565b634e487b7160e01b600052602160045260246000fd5b6004811061360c57634e487b7160e01b600052602160045260246000fd5b9052565b60006020808301818452808551808352604092508286019150828160051b87010184880160005b838110156136c457888303603f1901855281518051845287810151888501528681015187850152606080820151908501526080808201519085015260a0808201516101009190613689828801826135ee565b505060c08083015182828801526136a2838801826131c8565b60e0948501519790940196909652505094870194925090860190600101613637565b509098975050505050505050565b600080600080600060a086880312156136ea57600080fd5b6136f38661310b565b94506137016020870161310b565b935060408601356001600160401b038082111561371d57600080fd5b61372989838a01613289565b9450606088013591508082111561373f57600080fd5b61374b89838a01613289565b9350608088013591508082111561376157600080fd5b5061376e888289016132f4565b9150509295509295909350565b6000806040838503121561378e57600080fd5b8235915061379e6020840161310b565b90509250929050565b6000602082840312156137b957600080fd5b6131848261310b565b600080604083850312156137d557600080fd5b82356001600160401b03808211156137ec57600080fd5b818501915085601f83011261380057600080fd5b813560206138106132aa83613266565b82815260059290921b8401810191818101908984111561382f57600080fd5b948201945b83861015613854576138458661310b565b82529482019490820190613834565b9650508601359250508082111561386a57600080fd5b5061387785828601613289565b9150509250929050565b60208152600061318460208301846134a0565b60006101008a83528960208401528860408401528760608401528660808401526138c160a08401876135ee565b8060c08401526138d3818401866131c8565b9150508260e08301529998505050505050505050565b6000806000606084860312156138fe57600080fd5b8335925060208401356001600160401b038082111561391c57600080fd5b613928878388016132f4565b9350604086013591508082111561393e57600080fd5b5061394b868287016132f4565b9150509250925092565b86815260c06020820152600061396e60c08301886131c8565b866040840152856060840152828103608084015261398c81866134a0565b905082810360a08401526139a081856134a0565b9998505050505050505050565b600080604083850312156139c057600080fd5b82356001600160401b038111156139d657600080fd5b6139e2858286016132f4565b95602094909401359450505050565b60008060408385031215613a0457600080fd5b613a0d8361310b565b915060208301358015158114613a2257600080fd5b809150509250929050565b60008060408385031215613a4057600080fd5b82359150602083013560048110613a2257600080fd5b60008060408385031215613a6957600080fd5b613a728361310b565b915061379e6020840161310b565b85815260a060208201526000613a9960a08301876131c8565b604083019590955250606081019290925260809091015292915050565b600080600080600060a08688031215613ace57600080fd5b613ad78661310b565b9450613ae56020870161310b565b9350604086013592506060860135915060808601356001600160401b03811115613b0e57600080fd5b61376e888289016132f4565b600181811c90821680613b2e57607f821691505b602082108103613b4e57634e487b7160e01b600052602260045260246000fd5b50919050565b634e487b7160e01b600052603260045260246000fd5b601f82111561129857600081815260208120601f850160051c81016020861015613b915750805b601f850160051c820191505b8181101561123857828155600101613b9d565b81516001600160401b03811115613bc957613bc9613220565b613bdd81613bd78454613b1a565b84613b6a565b602080601f831160018114613c125760008415613bfa5750858301515b600019600386901b1c1916600185901b178555611238565b600085815260208120601f198616915b82811015613c4157888601518255948401946001909101908401613c22565b5085821015613c5f5787850151600019600388901b60f8161c191681555b5050505050600190811b01905550565b634e487b7160e01b600052601160045260246000fd5b600060018201613c9757613c97613c6f565b5060010190565b808201808211156106e8576106e8613c6f565b818103818111156106e8576106e8613c6f565b600081613cd357613cd3613c6f565b506000190190565b6020808252601490820152732737ba103a3432903a34b1b5b2ba1037bbb732b960611b604082015260600190565b634e487b7160e01b600052603160045260246000fd5b60008351613d318184602088016131a4565b602d60f81b9083019081528351613d4f8160018401602088016131a4565b01600101949350505050565b604081526000613d6e60408301856131c8565b90508260208301529392505050565b60208082526026908201527f4e6f7420617574686f72697a656420746f20757064617465207469636b65742060408201526573746174757360d01b606082015260800190565b60008351613dd58184602088016131a4565b9190910191825250602001919050565b6001600160a01b03868116825285166020820152604081018490526060810183905260a060808201819052600090613e1f908301846131c8565b979650505050505050565b600060208284031215613e3c57600080fd5b815161318481613151565b6001600160a01b0386811682528516602082015260a060408201819052600090613e73908301866134a0565b8281036060840152613e8581866134a0565b9050828103608084015261357e81856131c8565b604081526000613eac60408301856134a0565b8281036020840152613ebe81856134a0565b9594505050505056fe4d2e7a1e3f5dd6e203f087b15756ccf0e4ccd947fe1b639a38540089a1e47f63a2646970667358221220f1d9e30559bdcb9cacc279fe667a3e910379997f4bcea223804fa524a85f72d764736f6c63430008140033a49807205ce4d355092ef5a8a18f56e8913cf4a201fbe287825b095693c21775",
  "immutableReferences": {},
  "source": "// SPDX-License-Identifier: MIT\r\npragma solidity ^0.8.0;\r\n\r\nimport \"@openzeppelin/contracts/token/ERC1155/extensions/ERC1155Supply.sol\";\r\nimport \"@openzeppelin/contracts/access/AccessControl.sol\";\r\n\r\ncontract Ticket_NFT is AccessControl, ERC1155Supply {\r\n    \r\n    struct Event {\r\n        uint256 id;\r\n        string name;\r\n        uint256 time;\r\n        mapping(uint256 => Sector) sectors;\r\n        uint256 sectorCount;\r\n    }\r\n\r\n    /*\r\n    struct EventDetails {\r\n        uint64 id;\r\n        string name;\r\n        uint64 time;\r\n        uint64 sectorCount;\r\n        uint64 totAvailableSeats;\r\n    }\r\n    */\r\n\r\n    struct Sector {\r\n        uint256 id;\r\n        string name;\r\n        uint256 totalSeats;\r\n        uint256 availableSeats;\r\n        uint256 seats_x_lines;\r\n    }\r\n\r\n    enum TicketStatus {\r\n        Available,\r\n        Owned,\r\n        Validated,\r\n        Expired\r\n    }\r\n\r\n    struct Ticket {\r\n        uint256 id;\r\n        uint256 eventId;\r\n        uint256 sectorId;\r\n        uint256 groupId;\r\n        uint256 originalPrice;\r\n        TicketStatus status;\r\n        string seat;\r\n        bytes32 hashName;\r\n    }\r\n\r\n    bytes32 public constant ORGANIZER_ROLE = keccak256(\"ORGANIZER_ROLE\");\r\n    bytes32 public constant ADMIN_ROLE = keccak256(\"ADMIN_ROLE\");\r\n\r\n    uint256 public eventCount;\r\n    uint256 public ticketCount;\r\n    uint256 public groupCount;\r\n\r\n    mapping(uint256 => Event) public events;\r\n    mapping(uint256 => Ticket) public tickets;\r\n    mapping(uint256 => uint256[]) public groups;\r\n\r\n    string public organization_name;\r\n\r\n    constructor(string memory _organization_name, address _organizer)\r\n        ERC1155(\"\")\r\n        ERC1155Supply()\r\n    {\r\n        _grantRole(DEFAULT_ADMIN_ROLE, tx.origin); //quello chedeploya la blockchain per primo (io)\r\n        _grantRole(ORGANIZER_ROLE, _organizer); //quello che chiama il contratto, ovvero sony, universal...\r\n        _grantRole(ADMIN_ROLE, _organizer);\r\n        _setRoleAdmin(ADMIN_ROLE, ADMIN_ROLE);\r\n\r\n        organization_name = _organization_name;\r\n    }\r\n\r\n    function addOrganizer(address _organizer) public onlyRole(ADMIN_ROLE) {\r\n        _grantRole(ORGANIZER_ROLE, _organizer);\r\n    }\r\n\r\n    function removeOrganizer(address _organizer) public onlyRole(ADMIN_ROLE) {\r\n        revokeRole(ORGANIZER_ROLE, _organizer);\r\n    }\r\n\r\n    //------------------------Gestione biglietti-----------------------------------------------------------\r\n\r\n    event EventCreated(uint256 indexed eventId, string name, uint256 time);\r\n\r\n    function createEvent(string memory _name, uint256 _time)\r\n        external\r\n        onlyRole(ORGANIZER_ROLE)\r\n    {\r\n        eventCount++;\r\n        Event storage newEvent = events[eventCount];\r\n        newEvent.id = eventCount;\r\n        newEvent.name = _name;\r\n        newEvent.time = _time;\r\n        newEvent.sectorCount = 0;\r\n\r\n        emit EventCreated(eventCount, _name, _time);\r\n    }\r\n\r\n    event SectorCreated(uint256 indexed eventId, uint256 indexed sectorId, string name);\r\n\r\n    function createSector(\r\n        uint256 _eventId,\r\n        string memory _name,\r\n        uint256 _totalSeats,\r\n        uint256 _seat_x_lines\r\n    ) external onlyRole(ORGANIZER_ROLE) {\r\n        Event storage _event = events[_eventId];\r\n        require(bytes(_event.name).length > 0);\r\n        _event.sectorCount++;\r\n        Sector storage newSector = _event.sectors[_event.sectorCount];\r\n        newSector.id = _event.sectorCount;\r\n        newSector.name = _name;\r\n        newSector.totalSeats = _totalSeats;\r\n        newSector.availableSeats = _totalSeats;\r\n        newSector.seats_x_lines = _seat_x_lines;\r\n        \r\n        emit SectorCreated(_eventId, newSector.id, _name);\r\n    }\r\n\r\n    event TicketCreated(uint256 indexed ticketId, uint256 eventId, uint256 sectorId, uint256 price);\r\n    function createTicket(\r\n        uint256 _eventId,\r\n        uint256 _sectorId,\r\n        uint256 _originalPrice\r\n    ) external onlyRole(ORGANIZER_ROLE) {\r\n        require(_originalPrice > 0, \"Price must be greater than 0\");\r\n        Sector storage sector = events[_eventId].sectors[_sectorId];\r\n        require(sector.availableSeats > 0, \"No seats left\");\r\n\r\n        ticketCount++;\r\n        uint256 ticketId = ticketCount;\r\n        Ticket storage newTicket = tickets[ticketId];\r\n        newTicket.id = ticketId;\r\n        newTicket.eventId = _eventId;\r\n        newTicket.sectorId = _sectorId;\r\n        newTicket.status = TicketStatus.Available;\r\n        newTicket.originalPrice = _originalPrice;\r\n        newTicket.hashName = generateHash(organization_name, ticketId);\r\n        sector.availableSeats--;\r\n\r\n        emit TicketCreated(ticketId, _eventId, _sectorId, _originalPrice);\r\n        _mint(msg.sender, ticketCount, 1, \"\");\r\n    }\r\n\r\n    function generateHash(string memory str, uint256 num) public pure returns (bytes32){\r\n        return keccak256(abi.encodePacked(str, num));\r\n    }\r\n\r\n    //------------------------Gestione gruppi-----------------------------------------------------------\r\n    function createGroup(uint256 ticketId) external {\r\n        require(balanceOf(msg.sender, ticketId) > 0, \"Not the ticket owner\");\r\n        uint256 groupId = ++groupCount;\r\n\r\n        tickets[ticketId].groupId = groupId;\r\n        groups[groupId].push(ticketId);\r\n    }\r\n\r\n    function addParticipant(uint256 groupId, uint256 ticketId) external {\r\n        require(groups[groupId].length > 0, \"The group does not exist\");\r\n\r\n        // Verify that the caller is a member of the group\r\n        bool isGroupMember = false;\r\n        for (uint256 i = 0; i < groups[groupId].length; i++) {\r\n            if (balanceOf(msg.sender, tickets[groups[groupId][i]].id) > 0) {\r\n                isGroupMember = true;\r\n                break;\r\n            }\r\n        }\r\n        require( isGroupMember, \"You must be a group member to add participants\");\r\n\r\n        // Verify that the ticket has status Owned\r\n        require( tickets[ticketId].status == TicketStatus.Owned, \"The ticket is not 'Owned'\" );\r\n        require( tickets[ticketId].groupId == 0, \"The ticket is already assigned to a group\" );\r\n\r\n        // Verify that the new ticket has the same sector and event as others in the group\r\n        uint256 groupEventId = tickets[groups[groupId][0]].eventId;\r\n        uint256 groupSectorId = tickets[groups[groupId][0]].sectorId;\r\n        require( tickets[ticketId].eventId == groupEventId, \"The ticket does not match the group's event\" );\r\n        require( tickets[ticketId].sectorId == groupSectorId, \"The ticket does not match the group's sector\" );\r\n\r\n        // Associate the ticket with the group and update the mapping\r\n        tickets[ticketId].groupId = groupId;\r\n        groups[groupId].push(ticketId);\r\n    }\r\n\r\n    // Rimuove un partecipante dal gruppo\r\n    function removeParticipant(uint256 groupId, uint256 ticketId) external {\r\n        require(groups[groupId].length > 0, \"Il gruppo non esiste\");\r\n        require(balanceOf(msg.sender, ticketId) > 0, \"Not the ticket owner\");\r\n        require( tickets[ticketId].groupId == groupId, \"Il ticket non appartiene a questo gruppo\" );\r\n\r\n        tickets[ticketId].groupId = 0;\r\n\r\n        // Rimuove il ticket dal gruppo\r\n        uint256 index;\r\n        bool found = false;\r\n        for (uint256 i = 0; i < groups[groupId].length; i++) {\r\n            if ( keccak256(abi.encodePacked(groups[groupId][i])) == keccak256(abi.encodePacked(ticketId)) ) {\r\n                index = i;\r\n                found = true;\r\n                break;\r\n            }\r\n        }\r\n        require(found, \"Ticket non trovato nel gruppo\");\r\n        groups[groupId][index] = groups[groupId][groups[groupId].length - 1];\r\n        groups[groupId].pop();\r\n    }\r\n\r\n    function setOwnerName(\r\n        uint256 ticketId,\r\n        string memory name,\r\n        string memory surname\r\n    ) external {\r\n        require(hasRole(ORGANIZER_ROLE, msg.sender) || balanceOf(msg.sender, ticketId) > 0, \"Not the ticket owner\");\r\n        Ticket storage ticket = tickets[ticketId];\r\n        ticket.hashName = generateHash( string(abi.encodePacked(name, \"-\", surname)), ticketId );\r\n    }\r\n\r\n    function validateTicket(\r\n        uint256 ticketId,\r\n        string memory name,\r\n        string memory surname\r\n    ) external onlyRole(ORGANIZER_ROLE) {\r\n        Ticket storage ticket = tickets[ticketId];\r\n        require( ticket.status != TicketStatus.Validated, \"Ticket already validated\" );\r\n        require(ticket.status != TicketStatus.Expired, \"Ticket expired!\");\r\n        bytes32 hashOwner = generateHash( string(abi.encodePacked(name, \"-\", surname)), ticketId );\r\n        require(ticket.hashName == hashOwner, \"Ticket has different owner!\");\r\n        ticket.status = TicketStatus.Validated;\r\n    }\r\n\r\n    function updateTicketStatus(uint256 ticketId, TicketStatus newStatus) external\r\n    {\r\n        Ticket storage ticket = tickets[ticketId];\r\n\r\n        if((newStatus == TicketStatus.Validated || newStatus == TicketStatus.Available) && (ticket.status == TicketStatus.Owned || ticket.status == TicketStatus.Available))\r\n            require(hasRole(ORGANIZER_ROLE, msg.sender) || balanceOf(msg.sender, ticketId) > 0, \"Not authorized to update ticket status\");\r\n        else \r\n            require(hasRole(ORGANIZER_ROLE, msg.sender), \"Not authorized to update ticket status\");\r\n\r\n        ticket.status = newStatus;\r\n    }\r\n\r\n\r\n\r\n    //chiama per mettere tutti i ticket di un evento expired\r\n    function expireTickets(uint256 _eventId) external onlyRole(ORGANIZER_ROLE) {\r\n        Event storage _event = events[_eventId];\r\n        require(_event.time < block.timestamp, \"Event has not yet occurred\");\r\n\r\n        for (uint256 i = 1; i <= ticketCount; i++) {\r\n            Ticket storage ticket = tickets[i];\r\n            if (ticket.eventId == _eventId && (ticket.status != TicketStatus.Expired && ticket.status != TicketStatus.Validated)) {\r\n                ticket.status = TicketStatus.Expired;\r\n            }\r\n        }\r\n    }\r\n\r\n    // get an event detail based on the event id\r\n    function getEventDetails(uint256 _eventId)\r\n        external\r\n        view\r\n        returns (\r\n            uint256 id,\r\n            string memory name,\r\n            uint256 time,\r\n            uint256 sectorCount,\r\n            uint256 availableSeats\r\n        )\r\n    {\r\n        Event storage _event = events[_eventId];\r\n\r\n        uint256 totAvailableSeats = 0;\r\n        for (uint i = 0; i < _event.sectorCount + 1; i++) {\r\n            totAvailableSeats += _event.sectors[i].availableSeats;\r\n        }\r\n\r\n        return (_event.id, _event.name, _event.time, _event.sectorCount, totAvailableSeats);\r\n    }\r\n\r\n\r\n    function getAllEventsDetails() external view returns (\r\n        uint256[] memory ids,\r\n        string[] memory names,\r\n        uint256[] memory times,\r\n        uint256[] memory sectorCounts,\r\n        uint256[] memory availableSeats\r\n        ) {\r\n            ids = new uint256[](eventCount);\r\n            names = new string[](eventCount);\r\n            times = new uint256[](eventCount);\r\n            sectorCounts = new uint256[](eventCount);\r\n            availableSeats = new uint256[](eventCount);\r\n\r\n            for (uint256 i = 1; i <= eventCount; i++) {\r\n                Event storage _event = events[i];\r\n                uint256 totAvailableSeats = 0;\r\n\r\n                // available seats for every sector\r\n                for (uint256 j = 1; j <= _event.sectorCount; j++) {\r\n                    totAvailableSeats += _event.sectors[j].availableSeats;\r\n                }\r\n\r\n                // populate array\r\n                ids[i - 1] = _event.id;\r\n                names[i - 1] = _event.name;\r\n                times[i - 1] = _event.time;\r\n                sectorCounts[i - 1] = _event.sectorCount;\r\n                availableSeats[i - 1] = totAvailableSeats;\r\n            }\r\n        }\r\n\r\n\r\n    function getTickets(uint _start, uint _end) public view returns (Ticket[] memory) {\r\n        require(_end <= ticketCount, \"Invalid end\");\r\n        require(_end >= _start, \"Invalid parameters\");\r\n\r\n        Ticket[] memory array = new Ticket[](_end - _start);\r\n        for (uint i = _start; i < _end; i++) {\r\n            array[i - _start] = tickets[i];\r\n        }\r\n        return array;\r\n    }\r\n\r\n    // get a sector detail based on the event id and sector id, along with all associated tickets\r\n    function getSector(uint256 _eventId, uint256 _sectorId) external view returns (\r\n            uint256 id,\r\n            string memory name,\r\n            uint256 totalSeats,\r\n            uint256 availableSeats,\r\n            uint256[] memory ticketIds,\r\n            uint256[] memory associatedGroupIds\r\n        )\r\n    {\r\n        // Fetch the sector details\r\n        Sector storage sector = events[_eventId].sectors[_sectorId];\r\n\r\n        // Temporary array to hold ticket IDs associated with the sector\r\n        uint256 ticketSector=0;\r\n\r\n        for (uint256 i = 0; i < ticketCount; i++) {\r\n            if (\r\n                tickets[i].eventId == _eventId &&\r\n                tickets[i].sectorId == _sectorId\r\n            ) {\r\n                ticketSector++;\r\n            }\r\n        }\r\n\r\n        // Allocate memory for ticket IDs\r\n        uint256[] memory associatedTicketIds = new uint256[](ticketCount);\r\n        uint256[] memory groupIds = new uint256[](ticketCount);\r\n\r\n        uint256 index = 0;\r\n\r\n        for (uint256 i = 0; i < ticketCount; i++) {\r\n            if (\r\n                tickets[i].eventId == _eventId &&\r\n                tickets[i].sectorId == _sectorId\r\n            ) {\r\n                associatedTicketIds[index] = tickets[i].id;\r\n                groupIds[index] = tickets[i].groupId;\r\n                index++;\r\n            }\r\n        }\r\n\r\n        return (\r\n            sector.id,\r\n            sector.name,\r\n            sector.totalSeats,\r\n            sector.availableSeats,\r\n            associatedTicketIds,\r\n            groupIds\r\n        );\r\n    }\r\n\r\n    // get a ticket detail based on the ticket id\r\n    function getTicket(uint256 ticketId) external view returns (\r\n        uint256 id,\r\n        uint eventId,\r\n        uint sectorId,\r\n        uint groupId,\r\n        uint originalPrice,\r\n        TicketStatus status,\r\n        string memory seat,\r\n        bytes32 hashName){\r\n\r\n        Ticket storage ticket = tickets[ticketId];\r\n        return (\r\n            ticket.id,\r\n            ticket.eventId,\r\n            ticket.sectorId,\r\n            ticket.groupId,\r\n            ticket.originalPrice,\r\n            ticket.status,\r\n            ticket.seat,\r\n            ticket.hashName\r\n        );\r\n    }\r\n\r\n    function assignSeats(uint256[] memory ticket_ids, string[] memory seats) external onlyRole(ORGANIZER_ROLE) {\r\n        require(ticket_ids.length == seats.length, \"Mismatched input arrays\");\r\n\r\n        for (uint256 i = 0; i < ticket_ids.length; i++) {\r\n            Ticket storage ticket = tickets[ticket_ids[i]];\r\n            ticket.seat = seats[i];\r\n        }\r\n    }\r\n\r\n    // get all the ticket of a group based on the group id\r\n    function getGroupTickets(uint256 groupId)external view returns (uint256[] memory) { \r\n        return groups[groupId];\r\n    }\r\n\r\n    // check if a ticket is associated to a group\r\n    function isTicketInGroup(uint256 ticketId) external view returns (bool) {\r\n        return tickets[ticketId].groupId != 0;\r\n    }\r\n\r\n    function supportsInterface(bytes4 _interfaceId)\r\n        public\r\n        view\r\n        virtual\r\n        override(AccessControl, ERC1155)\r\n        returns (bool)\r\n    {\r\n        return super.supportsInterface(_interfaceId);\r\n    }\r\n}\r\n",
  "sourcePath": "C:\\Users\\eddie\\OneDrive\\Desktop\\Blockchain\\BlockchainTicketsUnitn-main\\truffle\\contracts\\Ticket_NFT.sol",
  "compiler": {
    "name": "solc",
    "version": "0.8.20+commit.a1b79de6.Emscripten.clang"
  },
  "schemaVersion": "3.4.16",
  "updatedAt": "2025-02-03T14:39:55.355Z",
  "networkType": "ethereum",
  "devdoc": {
    "errors": {
      "AccessControlBadConfirmation()": [
        {
          "details": "The caller of a function is not the expected one. NOTE: Don't confuse with {AccessControlUnauthorizedAccount}."
        }
      ],
      "AccessControlUnauthorizedAccount(address,bytes32)": [
        {
          "details": "The `account` is missing a role."
        }
      ],
      "ERC1155InsufficientBalance(address,uint256,uint256,uint256)": [
        {
          "details": "Indicates an error related to the current `balance` of a `sender`. Used in transfers.",
          "params": {
            "balance": "Current balance for the interacting account.",
            "needed": "Minimum amount required to perform a transfer.",
            "sender": "Address whose tokens are being transferred.",
            "tokenId": "Identifier number of a token."
          }
        }
      ],
      "ERC1155InvalidApprover(address)": [
        {
          "details": "Indicates a failure with the `approver` of a token to be approved. Used in approvals.",
          "params": {
            "approver": "Address initiating an approval operation."
          }
        }
      ],
      "ERC1155InvalidArrayLength(uint256,uint256)": [
        {
          "details": "Indicates an array length mismatch between ids and values in a safeBatchTransferFrom operation. Used in batch transfers.",
          "params": {
            "idsLength": "Length of the array of token identifiers",
            "valuesLength": "Length of the array of token amounts"
          }
        }
      ],
      "ERC1155InvalidOperator(address)": [
        {
          "details": "Indicates a failure with the `operator` to be approved. Used in approvals.",
          "params": {
            "operator": "Address that may be allowed to operate on tokens without being their owner."
          }
        }
      ],
      "ERC1155InvalidReceiver(address)": [
        {
          "details": "Indicates a failure with the token `receiver`. Used in transfers.",
          "params": {
            "receiver": "Address to which tokens are being transferred."
          }
        }
      ],
      "ERC1155InvalidSender(address)": [
        {
          "details": "Indicates a failure with the token `sender`. Used in transfers.",
          "params": {
            "sender": "Address whose tokens are being transferred."
          }
        }
      ],
      "ERC1155MissingApprovalForAll(address,address)": [
        {
          "details": "Indicates a failure with the `operator`s approval. Used in transfers.",
          "params": {
            "operator": "Address that may be allowed to operate on tokens without being their owner.",
            "owner": "Address of the current owner of a token."
          }
        }
      ]
    },
    "events": {
      "ApprovalForAll(address,address,bool)": {
        "details": "Emitted when `account` grants or revokes permission to `operator` to transfer their tokens, according to `approved`."
      },
      "RoleAdminChanged(bytes32,bytes32,bytes32)": {
        "details": "Emitted when `newAdminRole` is set as ``role``'s admin role, replacing `previousAdminRole` `DEFAULT_ADMIN_ROLE` is the starting admin for all roles, despite {RoleAdminChanged} not being emitted signaling this."
      },
      "RoleGranted(bytes32,address,address)": {
        "details": "Emitted when `account` is granted `role`. `sender` is the account that originated the contract call. This account bears the admin role (for the granted role). Expected in cases where the role was granted using the internal {AccessControl-_grantRole}."
      },
      "RoleRevoked(bytes32,address,address)": {
        "details": "Emitted when `account` is revoked `role`. `sender` is the account that originated the contract call:   - if using `revokeRole`, it is the admin role bearer   - if using `renounceRole`, it is the role bearer (i.e. `account`)"
      },
      "TransferBatch(address,address,address,uint256[],uint256[])": {
        "details": "Equivalent to multiple {TransferSingle} events, where `operator`, `from` and `to` are the same for all transfers."
      },
      "TransferSingle(address,address,address,uint256,uint256)": {
        "details": "Emitted when `value` amount of tokens of type `id` are transferred from `from` to `to` by `operator`."
      },
      "URI(string,uint256)": {
        "details": "Emitted when the URI for token type `id` changes to `value`, if it is a non-programmatic URI. If an {URI} event was emitted for `id`, the standard https://eips.ethereum.org/EIPS/eip-1155#metadata-extensions[guarantees] that `value` will equal the value returned by {IERC1155MetadataURI-uri}."
      }
    },
    "kind": "dev",
    "methods": {
      "balanceOf(address,uint256)": {
        "details": "See {IERC1155-balanceOf}."
      },
      "balanceOfBatch(address[],uint256[])": {
        "details": "See {IERC1155-balanceOfBatch}. Requirements: - `accounts` and `ids` must have the same length."
      },
      "exists(uint256)": {
        "details": "Indicates whether any token exist with a given id, or not."
      },
      "getRoleAdmin(bytes32)": {
        "details": "Returns the admin role that controls `role`. See {grantRole} and {revokeRole}. To change a role's admin, use {_setRoleAdmin}."
      },
      "grantRole(bytes32,address)": {
        "details": "Grants `role` to `account`. If `account` had not been already granted `role`, emits a {RoleGranted} event. Requirements: - the caller must have ``role``'s admin role. May emit a {RoleGranted} event."
      },
      "hasRole(bytes32,address)": {
        "details": "Returns `true` if `account` has been granted `role`."
      },
      "isApprovedForAll(address,address)": {
        "details": "See {IERC1155-isApprovedForAll}."
      },
      "renounceRole(bytes32,address)": {
        "details": "Revokes `role` from the calling account. Roles are often managed via {grantRole} and {revokeRole}: this function's purpose is to provide a mechanism for accounts to lose their privileges if they are compromised (such as when a trusted device is misplaced). If the calling account had been revoked `role`, emits a {RoleRevoked} event. Requirements: - the caller must be `callerConfirmation`. May emit a {RoleRevoked} event."
      },
      "revokeRole(bytes32,address)": {
        "details": "Revokes `role` from `account`. If `account` had been granted `role`, emits a {RoleRevoked} event. Requirements: - the caller must have ``role``'s admin role. May emit a {RoleRevoked} event."
      },
      "safeBatchTransferFrom(address,address,uint256[],uint256[],bytes)": {
        "details": "See {IERC1155-safeBatchTransferFrom}."
      },
      "safeTransferFrom(address,address,uint256,uint256,bytes)": {
        "details": "See {IERC1155-safeTransferFrom}."
      },
      "setApprovalForAll(address,bool)": {
        "details": "See {IERC1155-setApprovalForAll}."
      },
      "totalSupply()": {
        "details": "Total value of tokens."
      },
      "totalSupply(uint256)": {
        "details": "Total value of tokens in with a given id."
      },
      "uri(uint256)": {
        "details": "See {IERC1155MetadataURI-uri}. This implementation returns the same URI for *all* token types. It relies on the token type ID substitution mechanism https://eips.ethereum.org/EIPS/eip-1155#metadata[defined in the ERC]. Clients calling this function must replace the `\\{id\\}` substring with the actual token type ID."
      }
    },
    "version": 1
  },
  "userdoc": {
    "kind": "user",
    "methods": {},
    "version": 1
  }
}