{
  "contractName": "Ticket_NFT",
  "abi": [
    {
      "inputs": [
        {
          "internalType": "string",
          "name": "_organization_name",
          "type": "string"
        },
        {
          "internalType": "address",
          "name": "_organizer",
          "type": "address"
        }
      ],
      "stateMutability": "nonpayable",
      "type": "constructor"
    },
    {
      "inputs": [],
      "name": "AccessControlBadConfirmation",
      "type": "error"
    },
    {
      "inputs": [
        {
          "internalType": "address",
          "name": "account",
          "type": "address"
        },
        {
          "internalType": "bytes32",
          "name": "neededRole",
          "type": "bytes32"
        }
      ],
      "name": "AccessControlUnauthorizedAccount",
      "type": "error"
    },
    {
      "inputs": [
        {
          "internalType": "address",
          "name": "sender",
          "type": "address"
        },
        {
          "internalType": "uint256",
          "name": "balance",
          "type": "uint256"
        },
        {
          "internalType": "uint256",
          "name": "needed",
          "type": "uint256"
        },
        {
          "internalType": "uint256",
          "name": "tokenId",
          "type": "uint256"
        }
      ],
      "name": "ERC1155InsufficientBalance",
      "type": "error"
    },
    {
      "inputs": [
        {
          "internalType": "address",
          "name": "approver",
          "type": "address"
        }
      ],
      "name": "ERC1155InvalidApprover",
      "type": "error"
    },
    {
      "inputs": [
        {
          "internalType": "uint256",
          "name": "idsLength",
          "type": "uint256"
        },
        {
          "internalType": "uint256",
          "name": "valuesLength",
          "type": "uint256"
        }
      ],
      "name": "ERC1155InvalidArrayLength",
      "type": "error"
    },
    {
      "inputs": [
        {
          "internalType": "address",
          "name": "operator",
          "type": "address"
        }
      ],
      "name": "ERC1155InvalidOperator",
      "type": "error"
    },
    {
      "inputs": [
        {
          "internalType": "address",
          "name": "receiver",
          "type": "address"
        }
      ],
      "name": "ERC1155InvalidReceiver",
      "type": "error"
    },
    {
      "inputs": [
        {
          "internalType": "address",
          "name": "sender",
          "type": "address"
        }
      ],
      "name": "ERC1155InvalidSender",
      "type": "error"
    },
    {
      "inputs": [
        {
          "internalType": "address",
          "name": "operator",
          "type": "address"
        },
        {
          "internalType": "address",
          "name": "owner",
          "type": "address"
        }
      ],
      "name": "ERC1155MissingApprovalForAll",
      "type": "error"
    },
    {
      "anonymous": false,
      "inputs": [
        {
          "indexed": true,
          "internalType": "address",
          "name": "account",
          "type": "address"
        },
        {
          "indexed": true,
          "internalType": "address",
          "name": "operator",
          "type": "address"
        },
        {
          "indexed": false,
          "internalType": "bool",
          "name": "approved",
          "type": "bool"
        }
      ],
      "name": "ApprovalForAll",
      "type": "event"
    },
    {
      "anonymous": false,
      "inputs": [
        {
          "indexed": false,
          "internalType": "string",
          "name": "organizationName",
          "type": "string"
        },
        {
          "indexed": false,
          "internalType": "address",
          "name": "admin",
          "type": "address"
        }
      ],
      "name": "OrganizationCreatedTi",
      "type": "event"
    },
    {
      "anonymous": false,
      "inputs": [
        {
          "indexed": true,
          "internalType": "bytes32",
          "name": "role",
          "type": "bytes32"
        },
        {
          "indexed": true,
          "internalType": "bytes32",
          "name": "previousAdminRole",
          "type": "bytes32"
        },
        {
          "indexed": true,
          "internalType": "bytes32",
          "name": "newAdminRole",
          "type": "bytes32"
        }
      ],
      "name": "RoleAdminChanged",
      "type": "event"
    },
    {
      "anonymous": false,
      "inputs": [
        {
          "indexed": true,
          "internalType": "bytes32",
          "name": "role",
          "type": "bytes32"
        },
        {
          "indexed": true,
          "internalType": "address",
          "name": "account",
          "type": "address"
        },
        {
          "indexed": true,
          "internalType": "address",
          "name": "sender",
          "type": "address"
        }
      ],
      "name": "RoleGranted",
      "type": "event"
    },
    {
      "anonymous": false,
      "inputs": [
        {
          "indexed": true,
          "internalType": "bytes32",
          "name": "role",
          "type": "bytes32"
        },
        {
          "indexed": true,
          "internalType": "address",
          "name": "account",
          "type": "address"
        },
        {
          "indexed": true,
          "internalType": "address",
          "name": "sender",
          "type": "address"
        }
      ],
      "name": "RoleRevoked",
      "type": "event"
    },
    {
      "anonymous": false,
      "inputs": [
        {
          "indexed": true,
          "internalType": "address",
          "name": "operator",
          "type": "address"
        },
        {
          "indexed": true,
          "internalType": "address",
          "name": "from",
          "type": "address"
        },
        {
          "indexed": true,
          "internalType": "address",
          "name": "to",
          "type": "address"
        },
        {
          "indexed": false,
          "internalType": "uint256[]",
          "name": "ids",
          "type": "uint256[]"
        },
        {
          "indexed": false,
          "internalType": "uint256[]",
          "name": "values",
          "type": "uint256[]"
        }
      ],
      "name": "TransferBatch",
      "type": "event"
    },
    {
      "anonymous": false,
      "inputs": [
        {
          "indexed": true,
          "internalType": "address",
          "name": "operator",
          "type": "address"
        },
        {
          "indexed": true,
          "internalType": "address",
          "name": "from",
          "type": "address"
        },
        {
          "indexed": true,
          "internalType": "address",
          "name": "to",
          "type": "address"
        },
        {
          "indexed": false,
          "internalType": "uint256",
          "name": "id",
          "type": "uint256"
        },
        {
          "indexed": false,
          "internalType": "uint256",
          "name": "value",
          "type": "uint256"
        }
      ],
      "name": "TransferSingle",
      "type": "event"
    },
    {
      "anonymous": false,
      "inputs": [
        {
          "indexed": false,
          "internalType": "string",
          "name": "value",
          "type": "string"
        },
        {
          "indexed": true,
          "internalType": "uint256",
          "name": "id",
          "type": "uint256"
        }
      ],
      "name": "URI",
      "type": "event"
    },
    {
      "inputs": [],
      "name": "ADMIN_ROLE",
      "outputs": [
        {
          "internalType": "bytes32",
          "name": "",
          "type": "bytes32"
        }
      ],
      "stateMutability": "view",
      "type": "function",
      "constant": true
    },
    {
      "inputs": [],
      "name": "DEFAULT_ADMIN_ROLE",
      "outputs": [
        {
          "internalType": "bytes32",
          "name": "",
          "type": "bytes32"
        }
      ],
      "stateMutability": "view",
      "type": "function",
      "constant": true
    },
    {
      "inputs": [],
      "name": "ORGANIZER_ROLE",
      "outputs": [
        {
          "internalType": "bytes32",
          "name": "",
          "type": "bytes32"
        }
      ],
      "stateMutability": "view",
      "type": "function",
      "constant": true
    },
    {
      "inputs": [
        {
          "internalType": "address",
          "name": "account",
          "type": "address"
        },
        {
          "internalType": "uint256",
          "name": "id",
          "type": "uint256"
        }
      ],
      "name": "balanceOf",
      "outputs": [
        {
          "internalType": "uint256",
          "name": "",
          "type": "uint256"
        }
      ],
      "stateMutability": "view",
      "type": "function",
      "constant": true
    },
    {
      "inputs": [
        {
          "internalType": "address[]",
          "name": "accounts",
          "type": "address[]"
        },
        {
          "internalType": "uint256[]",
          "name": "ids",
          "type": "uint256[]"
        }
      ],
      "name": "balanceOfBatch",
      "outputs": [
        {
          "internalType": "uint256[]",
          "name": "",
          "type": "uint256[]"
        }
      ],
      "stateMutability": "view",
      "type": "function",
      "constant": true
    },
    {
      "inputs": [],
      "name": "eventCount",
      "outputs": [
        {
          "internalType": "uint256",
          "name": "",
          "type": "uint256"
        }
      ],
      "stateMutability": "view",
      "type": "function",
      "constant": true
    },
    {
      "inputs": [
        {
          "internalType": "uint256",
          "name": "",
          "type": "uint256"
        }
      ],
      "name": "events",
      "outputs": [
        {
          "internalType": "uint256",
          "name": "id",
          "type": "uint256"
        },
        {
          "internalType": "string",
          "name": "name",
          "type": "string"
        },
        {
          "internalType": "uint256",
          "name": "time",
          "type": "uint256"
        },
        {
          "internalType": "uint256",
          "name": "sectorCount",
          "type": "uint256"
        }
      ],
      "stateMutability": "view",
      "type": "function",
      "constant": true
    },
    {
      "inputs": [
        {
          "internalType": "uint256",
          "name": "id",
          "type": "uint256"
        }
      ],
      "name": "exists",
      "outputs": [
        {
          "internalType": "bool",
          "name": "",
          "type": "bool"
        }
      ],
      "stateMutability": "view",
      "type": "function",
      "constant": true
    },
    {
      "inputs": [
        {
          "internalType": "bytes32",
          "name": "role",
          "type": "bytes32"
        }
      ],
      "name": "getRoleAdmin",
      "outputs": [
        {
          "internalType": "bytes32",
          "name": "",
          "type": "bytes32"
        }
      ],
      "stateMutability": "view",
      "type": "function",
      "constant": true
    },
    {
      "inputs": [
        {
          "internalType": "bytes32",
          "name": "role",
          "type": "bytes32"
        },
        {
          "internalType": "address",
          "name": "account",
          "type": "address"
        }
      ],
      "name": "grantRole",
      "outputs": [],
      "stateMutability": "nonpayable",
      "type": "function"
    },
    {
      "inputs": [
        {
          "internalType": "uint256",
          "name": "",
          "type": "uint256"
        },
        {
          "internalType": "uint256",
          "name": "",
          "type": "uint256"
        }
      ],
      "name": "groups",
      "outputs": [
        {
          "internalType": "uint256",
          "name": "",
          "type": "uint256"
        }
      ],
      "stateMutability": "view",
      "type": "function",
      "constant": true
    },
    {
      "inputs": [
        {
          "internalType": "bytes32",
          "name": "role",
          "type": "bytes32"
        },
        {
          "internalType": "address",
          "name": "account",
          "type": "address"
        }
      ],
      "name": "hasRole",
      "outputs": [
        {
          "internalType": "bool",
          "name": "",
          "type": "bool"
        }
      ],
      "stateMutability": "view",
      "type": "function",
      "constant": true
    },
    {
      "inputs": [
        {
          "internalType": "address",
          "name": "account",
          "type": "address"
        },
        {
          "internalType": "address",
          "name": "operator",
          "type": "address"
        }
      ],
      "name": "isApprovedForAll",
      "outputs": [
        {
          "internalType": "bool",
          "name": "",
          "type": "bool"
        }
      ],
      "stateMutability": "view",
      "type": "function",
      "constant": true
    },
    {
      "inputs": [],
      "name": "organization_name",
      "outputs": [
        {
          "internalType": "string",
          "name": "",
          "type": "string"
        }
      ],
      "stateMutability": "view",
      "type": "function",
      "constant": true
    },
    {
      "inputs": [
        {
          "internalType": "bytes32",
          "name": "role",
          "type": "bytes32"
        },
        {
          "internalType": "address",
          "name": "callerConfirmation",
          "type": "address"
        }
      ],
      "name": "renounceRole",
      "outputs": [],
      "stateMutability": "nonpayable",
      "type": "function"
    },
    {
      "inputs": [
        {
          "internalType": "bytes32",
          "name": "role",
          "type": "bytes32"
        },
        {
          "internalType": "address",
          "name": "account",
          "type": "address"
        }
      ],
      "name": "revokeRole",
      "outputs": [],
      "stateMutability": "nonpayable",
      "type": "function"
    },
    {
      "inputs": [
        {
          "internalType": "address",
          "name": "from",
          "type": "address"
        },
        {
          "internalType": "address",
          "name": "to",
          "type": "address"
        },
        {
          "internalType": "uint256[]",
          "name": "ids",
          "type": "uint256[]"
        },
        {
          "internalType": "uint256[]",
          "name": "values",
          "type": "uint256[]"
        },
        {
          "internalType": "bytes",
          "name": "data",
          "type": "bytes"
        }
      ],
      "name": "safeBatchTransferFrom",
      "outputs": [],
      "stateMutability": "nonpayable",
      "type": "function"
    },
    {
      "inputs": [
        {
          "internalType": "address",
          "name": "from",
          "type": "address"
        },
        {
          "internalType": "address",
          "name": "to",
          "type": "address"
        },
        {
          "internalType": "uint256",
          "name": "id",
          "type": "uint256"
        },
        {
          "internalType": "uint256",
          "name": "value",
          "type": "uint256"
        },
        {
          "internalType": "bytes",
          "name": "data",
          "type": "bytes"
        }
      ],
      "name": "safeTransferFrom",
      "outputs": [],
      "stateMutability": "nonpayable",
      "type": "function"
    },
    {
      "inputs": [
        {
          "internalType": "address",
          "name": "operator",
          "type": "address"
        },
        {
          "internalType": "bool",
          "name": "approved",
          "type": "bool"
        }
      ],
      "name": "setApprovalForAll",
      "outputs": [],
      "stateMutability": "nonpayable",
      "type": "function"
    },
    {
      "inputs": [],
      "name": "ticketCount",
      "outputs": [
        {
          "internalType": "uint256",
          "name": "",
          "type": "uint256"
        }
      ],
      "stateMutability": "view",
      "type": "function",
      "constant": true
    },
    {
      "inputs": [],
      "name": "ticketIdLength",
      "outputs": [
        {
          "internalType": "uint256",
          "name": "",
          "type": "uint256"
        }
      ],
      "stateMutability": "view",
      "type": "function",
      "constant": true
    },
    {
      "inputs": [
        {
          "internalType": "uint256",
          "name": "",
          "type": "uint256"
        }
      ],
      "name": "tickets",
      "outputs": [
        {
          "internalType": "uint256",
          "name": "id",
          "type": "uint256"
        },
        {
          "internalType": "uint256",
          "name": "eventId",
          "type": "uint256"
        },
        {
          "internalType": "uint256",
          "name": "sectorId",
          "type": "uint256"
        },
        {
          "internalType": "uint256",
          "name": "groupId",
          "type": "uint256"
        },
        {
          "internalType": "uint256",
          "name": "originalPrice",
          "type": "uint256"
        },
        {
          "internalType": "enum Ticket_NFT.TicketStatus",
          "name": "status",
          "type": "uint8"
        },
        {
          "internalType": "string",
          "name": "seat",
          "type": "string"
        },
        {
          "internalType": "string",
          "name": "hashName",
          "type": "string"
        }
      ],
      "stateMutability": "view",
      "type": "function",
      "constant": true
    },
    {
      "inputs": [],
      "name": "totalSupply",
      "outputs": [
        {
          "internalType": "uint256",
          "name": "",
          "type": "uint256"
        }
      ],
      "stateMutability": "view",
      "type": "function",
      "constant": true
    },
    {
      "inputs": [
        {
          "internalType": "uint256",
          "name": "id",
          "type": "uint256"
        }
      ],
      "name": "totalSupply",
      "outputs": [
        {
          "internalType": "uint256",
          "name": "",
          "type": "uint256"
        }
      ],
      "stateMutability": "view",
      "type": "function",
      "constant": true
    },
    {
      "inputs": [
        {
          "internalType": "uint256",
          "name": "",
          "type": "uint256"
        }
      ],
      "name": "uri",
      "outputs": [
        {
          "internalType": "string",
          "name": "",
          "type": "string"
        }
      ],
      "stateMutability": "view",
      "type": "function",
      "constant": true
    },
    {
      "inputs": [],
      "name": "getOrganizationDetails",
      "outputs": [
        {
          "internalType": "string",
          "name": "",
          "type": "string"
        },
        {
          "internalType": "address",
          "name": "",
          "type": "address"
        }
      ],
      "stateMutability": "view",
      "type": "function",
      "constant": true
    },
    {
      "inputs": [
        {
          "internalType": "address",
          "name": "_organizer",
          "type": "address"
        }
      ],
      "name": "addOrganizer",
      "outputs": [],
      "stateMutability": "nonpayable",
      "type": "function"
    },
    {
      "inputs": [
        {
          "internalType": "address",
          "name": "_organizer",
          "type": "address"
        }
      ],
      "name": "removeOrganizer",
      "outputs": [],
      "stateMutability": "nonpayable",
      "type": "function"
    },
    {
      "inputs": [
        {
          "internalType": "string",
          "name": "_name",
          "type": "string"
        },
        {
          "internalType": "uint256",
          "name": "_time",
          "type": "uint256"
        }
      ],
      "name": "createEvent",
      "outputs": [],
      "stateMutability": "nonpayable",
      "type": "function"
    },
    {
      "inputs": [
        {
          "internalType": "uint256",
          "name": "_eventId",
          "type": "uint256"
        },
        {
          "internalType": "string",
          "name": "_name",
          "type": "string"
        },
        {
          "internalType": "uint256",
          "name": "_totalSeats",
          "type": "uint256"
        },
        {
          "internalType": "uint256",
          "name": "_seat_x_lines",
          "type": "uint256"
        }
      ],
      "name": "createSector",
      "outputs": [],
      "stateMutability": "nonpayable",
      "type": "function"
    },
    {
      "inputs": [
        {
          "internalType": "uint256",
          "name": "_eventId",
          "type": "uint256"
        },
        {
          "internalType": "uint256",
          "name": "_sectorId",
          "type": "uint256"
        },
        {
          "internalType": "uint256",
          "name": "_originalPrice",
          "type": "uint256"
        }
      ],
      "name": "createTicket",
      "outputs": [],
      "stateMutability": "nonpayable",
      "type": "function"
    },
    {
      "inputs": [
        {
          "internalType": "uint256",
          "name": "ticketId",
          "type": "uint256"
        }
      ],
      "name": "createGroup",
      "outputs": [],
      "stateMutability": "nonpayable",
      "type": "function"
    },
    {
      "inputs": [
        {
          "internalType": "uint256",
          "name": "groupId",
          "type": "uint256"
        },
        {
          "internalType": "uint256",
          "name": "ticketId",
          "type": "uint256"
        }
      ],
      "name": "addParticipant",
      "outputs": [],
      "stateMutability": "nonpayable",
      "type": "function"
    },
    {
      "inputs": [
        {
          "internalType": "uint256",
          "name": "groupId",
          "type": "uint256"
        },
        {
          "internalType": "uint256",
          "name": "ticketId",
          "type": "uint256"
        }
      ],
      "name": "removeParticipant",
      "outputs": [],
      "stateMutability": "nonpayable",
      "type": "function"
    },
    {
      "inputs": [
        {
          "internalType": "uint256",
          "name": "_eventId",
          "type": "uint256"
        },
        {
          "internalType": "uint256",
          "name": "_sectorId",
          "type": "uint256"
        }
      ],
      "name": "assignSeats",
      "outputs": [],
      "stateMutability": "nonpayable",
      "type": "function"
    },
    {
      "inputs": [
        {
          "internalType": "uint256",
          "name": "ticketId",
          "type": "uint256"
        },
        {
          "internalType": "enum Ticket_NFT.TicketStatus",
          "name": "newStatus",
          "type": "uint8"
        }
      ],
      "name": "updateTicketStatus",
      "outputs": [],
      "stateMutability": "nonpayable",
      "type": "function"
    },
    {
      "inputs": [
        {
          "internalType": "uint256",
          "name": "_eventId",
          "type": "uint256"
        }
      ],
      "name": "expireTickets",
      "outputs": [],
      "stateMutability": "nonpayable",
      "type": "function"
    },
    {
      "inputs": [
        {
          "internalType": "uint256",
          "name": "_eventId",
          "type": "uint256"
        }
      ],
      "name": "getEvent",
      "outputs": [
        {
          "internalType": "uint256",
          "name": "id",
          "type": "uint256"
        },
        {
          "internalType": "string",
          "name": "name",
          "type": "string"
        },
        {
          "internalType": "uint256",
          "name": "time",
          "type": "uint256"
        },
        {
          "internalType": "uint256",
          "name": "sectorCount",
          "type": "uint256"
        }
      ],
      "stateMutability": "view",
      "type": "function",
      "constant": true
    },
    {
      "inputs": [
        {
          "internalType": "uint256",
          "name": "_eventId",
          "type": "uint256"
        },
        {
          "internalType": "uint256",
          "name": "_sectorId",
          "type": "uint256"
        }
      ],
      "name": "getSector",
      "outputs": [
        {
          "internalType": "uint256",
          "name": "id",
          "type": "uint256"
        },
        {
          "internalType": "string",
          "name": "name",
          "type": "string"
        },
        {
          "internalType": "uint256",
          "name": "totalSeats",
          "type": "uint256"
        },
        {
          "internalType": "uint256",
          "name": "availableSeats",
          "type": "uint256"
        }
      ],
      "stateMutability": "view",
      "type": "function",
      "constant": true
    },
    {
      "inputs": [
        {
          "internalType": "uint256",
          "name": "ticketId",
          "type": "uint256"
        }
      ],
      "name": "getTicket",
      "outputs": [
        {
          "internalType": "uint256",
          "name": "id",
          "type": "uint256"
        },
        {
          "internalType": "uint256",
          "name": "eventId",
          "type": "uint256"
        },
        {
          "internalType": "uint256",
          "name": "sectorId",
          "type": "uint256"
        },
        {
          "internalType": "uint256",
          "name": "groupId",
          "type": "uint256"
        },
        {
          "internalType": "uint256",
          "name": "originalPrice",
          "type": "uint256"
        },
        {
          "internalType": "enum Ticket_NFT.TicketStatus",
          "name": "status",
          "type": "uint8"
        },
        {
          "internalType": "string",
          "name": "seat",
          "type": "string"
        },
        {
          "internalType": "string",
          "name": "hashName",
          "type": "string"
        }
      ],
      "stateMutability": "view",
      "type": "function",
      "constant": true
    },
    {
      "inputs": [
        {
          "internalType": "uint256",
          "name": "_eventId",
          "type": "uint256"
        },
        {
          "internalType": "uint256",
          "name": "_sectorId",
          "type": "uint256"
        }
      ],
      "name": "getSeatsInSector",
      "outputs": [
        {
          "internalType": "string[]",
          "name": "",
          "type": "string[]"
        }
      ],
      "stateMutability": "view",
      "type": "function",
      "constant": true
    },
    {
      "inputs": [
        {
          "internalType": "uint256",
          "name": "groupId",
          "type": "uint256"
        }
      ],
      "name": "getGroupTickets",
      "outputs": [
        {
          "internalType": "uint256[]",
          "name": "",
          "type": "uint256[]"
        }
      ],
      "stateMutability": "view",
      "type": "function",
      "constant": true
    },
    {
      "inputs": [
        {
          "internalType": "uint256",
          "name": "ticketId",
          "type": "uint256"
        }
      ],
      "name": "isTicketInGroup",
      "outputs": [
        {
          "internalType": "bool",
          "name": "",
          "type": "bool"
        }
      ],
      "stateMutability": "view",
      "type": "function",
      "constant": true
    },
    {
      "inputs": [
        {
          "internalType": "bytes4",
          "name": "_interfaceId",
          "type": "bytes4"
        }
      ],
      "name": "supportsInterface",
      "outputs": [
        {
          "internalType": "bool",
          "name": "",
          "type": "bool"
        }
      ],
      "stateMutability": "view",
      "type": "function",
      "constant": true
    }
  ],
  "bytecode": "0x608060405260046008553480156200001657600080fd5b5060405162003fd438038062003fd4833981016040819052620000399162000221565b60408051602081019091526000815262000053816200012d565b50620000616000336200013f565b506200008e7f4d2e7a1e3f5dd6e203f087b15756ccf0e4ccd947fe1b639a38540089a1e47f63826200013f565b50620000bb7fa49807205ce4d355092ef5a8a18f56e8913cf4a201fbe287825b095693c21775826200013f565b50600d620000ca838262000398565b50600e80546001600160a01b0319166001600160a01b0383169081179091556040517f8d5a0b368dfa15723d2a91d746da186e254860003b80961674b8624f71b261b0916200011d91600d919062000464565b60405180910390a1505062000508565b60036200013b828262000398565b5050565b6000828152602081815260408083206001600160a01b038516845290915281205460ff16620001e4576000838152602081815260408083206001600160a01b03861684529091529020805460ff191660011790556200019b3390565b6001600160a01b0316826001600160a01b0316847f2f8788117e7eff1d82e926ec794901d17c78024a50270940304540a733656f0d60405160405180910390a4506001620001e8565b5060005b92915050565b634e487b7160e01b600052604160045260246000fd5b80516001600160a01b03811681146200021c57600080fd5b919050565b600080604083850312156200023557600080fd5b82516001600160401b03808211156200024d57600080fd5b818501915085601f8301126200026257600080fd5b815181811115620002775762000277620001ee565b604051601f8201601f19908116603f01168101908382118183101715620002a257620002a2620001ee565b81604052828152602093508884848701011115620002bf57600080fd5b600091505b82821015620002e35784820184015181830185015290830190620002c4565b6000848483010152809650505050620002fe81860162000204565b925050509250929050565b600181811c908216806200031e57607f821691505b6020821081036200033f57634e487b7160e01b600052602260045260246000fd5b50919050565b601f8211156200039357600081815260208120601f850160051c810160208610156200036e5750805b601f850160051c820191505b818110156200038f578281556001016200037a565b5050505b505050565b81516001600160401b03811115620003b457620003b4620001ee565b620003cc81620003c5845462000309565b8462000345565b602080601f831160018114620004045760008415620003eb5750858301515b600019600386901b1c1916600185901b1785556200038f565b600085815260208120601f198616915b82811015620004355788860151825594840194600190910190840162000414565b5085821015620004545787850151600019600388901b60f8161c191681555b5050505050600190811b01905550565b604081526000808454620004788162000309565b80604086015260606001808416600081146200049d5760018114620004b857620004eb565b60ff1985168884015283151560051b880183019550620004eb565b8960005260208060002060005b86811015620004e25781548b8201870152908401908201620004c5565b8a018501975050505b505050506001600160a01b03851660208501525090509392505050565b613abc80620005186000396000f3fe608060405234801561001057600080fd5b50600436106102735760003560e01c806375b238fc11610151578063b51aef04116100c3578063dc517aff11610087578063dc517aff146105dc578063e426bfef146105e5578063e4725f02146105f8578063e985e9c51461060b578063f242432a1461061e578063f70778fa1461063157600080fd5b8063b51aef0414610568578063bc79ddcb1461058d578063bd85b039146105a0578063cfbd900f146105c0578063d547741f146105c957600080fd5b80638be8a775116101155780638be8a7751461050157806391d14854146105145780639a4d438514610527578063a217fddf1461053a578063a22cb46514610542578063a460b8171461055557600080fd5b806375b238fc1461047c5780637909cb59146104a35780637b47a7e0146104b85780637dc379fa146104d857806389c9e2ef146104eb57600080fd5b80633c0d7e66116101ea5780634e1273f4116101ae5780634e1273f4146103e45780634f558e791461040457806350b447121461042657806365bf60e01461044d5780636d1884e01461046057806371be2e4a1461047357600080fd5b80633c0d7e661461039057806344508ad0146103a357806344ade56d146103b65780634ae855cf146103c95780634c66a073146103dc57600080fd5b806315e472dd1161023c57806315e472dd1461031957806318160ddd1461032c578063248a9ca3146103345780632eb2c2d6146103575780632f2ff15d1461036a57806336568abe1461037d57600080fd5b8062fdd58e1461027857806301ffc9a71461029e5780630b791430146102c15780630e531076146102e45780630e89341c146102f9575b600080fd5b61028b610286366004612f16565b610644565b6040519081526020015b60405180910390f35b6102b16102ac366004612f56565b61066e565b6040519015158152602001610295565b6102d46102cf366004612f7a565b610679565b6040516102959493929190612fe3565b6102f76102f23660046130c6565b61072a565b005b61030c610307366004612f7a565b610b86565b604051610295919061311d565b6102f7610327366004613130565b610c1a565b60055461028b565b61028b610342366004612f7a565b60009081526020819052604090206001015490565b6102f76103653660046131eb565b610d63565b6102f7610378366004613295565b610dca565b6102f761038b366004613295565b610df5565b6102f761039e3660046132c1565b610e2d565b6102f76103b13660046132c1565b6111f9565b6102f76103c43660046132e3565b6114c6565b61028b6103d73660046132c1565b61150c565b61030c61153d565b6103f76103f23660046132fe565b6115cb565b60405161029591906133f9565b6102b1610412366004612f7a565b600090815260046020526040902054151590565b610439610434366004612f7a565b6116a0565b604051610295989796959493929190613422565b6102f761045b366004612f7a565b6117f9565b6102d461046e366004612f7a565b611896565b61028b60065481565b61028b7fa49807205ce4d355092ef5a8a18f56e8913cf4a201fbe287825b095693c2177581565b61028b600080516020613a6783398151915281565b6104cb6104c63660046132c1565b61195d565b604051610295919061349b565b6104396104e6366004612f7a565b611a51565b6104f3611bdb565b6040516102959291906134fd565b6102d461050f3660046132c1565b611c8b565b6102b1610522366004613295565b611d63565b6102f7610535366004613527565b611d8c565b61028b600081565b6102f761055036600461356c565b611df0565b6102f76105633660046135a8565b611dfb565b6102b1610576366004612f7a565b6000908152600b6020526040902060030154151590565b6103f761059b366004612f7a565b611ebb565b61028b6105ae366004612f7a565b60009081526004602052604090205490565b61028b60075481565b6102f76105d7366004613295565b611f1c565b61028b60085481565b6102f76105f3366004612f7a565b611f41565b6102f76106063660046132e3565b612028565b6102b16106193660046135d1565b61206a565b6102f761062c3660046135fb565b612098565b6102f761063f3660046132c1565b6120f7565b60008181526001602090815260408083206001600160a01b03861684529091529020545b92915050565b6000610668826124da565b600a602052600090815260409020805460018201805491929161069b90613660565b80601f01602080910402602001604051908101604052809291908181526020018280546106c790613660565b80156107145780601f106106e957610100808354040283529160200191610714565b820191906000526020600020905b8154815290600101906020018083116106f757829003601f168201915b5050505050908060020154908060040154905084565b600080516020613a678339815191526107428161251a565b6000858152600a6020526040812060018101805491929161076290613660565b9050116107ad5760405162461bcd60e51b8152602060048201526014602482015273115d995b9d08191bd95cc81b9bdd08195e1a5cdd60621b60448201526064015b60405180910390fd5b6004810180549060006107bf836136b0565b9091555050600481015460008181526003830160205260409020908155600181016107ea878261370f565b506002810185905560038101859055604080516103808101825260016103408201818152604160f81b610360840152825282518084018452818152602160f91b6020828101919091528084019190915283518085018552828152604360f81b818301528385015283518085018552828152601160fa1b81830152606084015283518085018552828152604560f81b81830152608084015283518085018552828152602360f91b8183015260a084015283518085018552828152604760f81b8183015260c084015283518085018552828152600960fb1b8183015260e084015283518085018552828152604960f81b8183015261010084015283518085018552828152602560f91b8183015261012084015283518085018552828152604b60f81b8183015261014084015283518085018552828152601360fa1b8183015261016084015283518085018552828152604d60f81b8183015261018084015283518085018552828152602760f91b818301526101a084015283518085018552828152604f60f81b818301526101c084015283518085018552828152600560fc1b818301526101e084015283518085018552828152605160f81b8183015261020084015283518085018552828152602960f91b8183015261022084015283518085018552828152605360f81b8183015261024084015283518085018552828152601560fa1b8183015261026084015283518085018552828152605560f81b8183015261028084015283518085018552828152602b60f91b818301526102a084015283518085018552828152605760f81b818301526102c084015283518085018552828152600b60fb1b818301526102e084015283518085018552828152605960f81b818301526103008401528351808501909452908352602d60f91b908301526103208101919091526000610a9b86886137e5565b905060015b818111610b7a5760015b878111610b67576000610abe6002846137f9565b15610ac95781610ade565b610ad3828a61380d565b610ade906001613820565b90506000610aeb82612527565b86610af760018761380d565b601a8110610b0757610b07613833565b6020020151604051602001610b1d929190613849565b60408051601f198184030181529190526004880180546001810182556000918252602090912091925001610b51828261370f565b5050508080610b5f906136b0565b915050610aaa565b5080610b72816136b0565b915050610aa0565b50505050505050505050565b606060038054610b9590613660565b80601f0160208091040260200160405190810160405280929190818152602001828054610bc190613660565b8015610c0e5780601f10610be357610100808354040283529160200191610c0e565b820191906000526020600020905b815481529060010190602001808311610bf157829003601f168201915b50505050509050919050565b600080516020613a67833981519152610c328161251a565b60008211610c825760405162461bcd60e51b815260206004820152601c60248201527f5072696365206d7573742062652067726561746572207468616e20300000000060448201526064016107a4565b6000848152600a60209081526040808320868452600390810190925290912090810154610cdc5760405162461bcd60e51b81526020600482015260086024820152674e6f20736561747360c01b60448201526064016107a4565b60078054906000610cec836136b0565b90915550506007546000818152600b60205260408120828155600181018890556002810187905560058101805460ff19169055600481018690556003840180549192610d3783613878565b9190505550610d5a33600754600160405180602001604052806000815250612630565b50505050505050565b336001600160a01b0386168114801590610d845750610d82868261206a565b155b15610db55760405163711bec9160e11b81526001600160a01b038083166004830152871660248201526044016107a4565b610dc2868686868661268d565b505050505050565b600082815260208190526040902060010154610de58161251a565b610def83836126f4565b50505050565b6001600160a01b0381163314610e1e5760405163334bd91960e11b815260040160405180910390fd5b610e288282612786565b505050565b600080516020613a67833981519152610e458161251a565b6000838152600a60209081526040808320858452600381019092529091206004810154610eb45760405162461bcd60e51b815260206004820152601f60248201527f4e6f20736561747320646566696e656420696e207468697320736563746f720060448201526064016107a4565b6000816003015411610f125760405162461bcd60e51b815260206004820152602160248201527f4e6f20617661696c61626c6520736561747320696e207468697320736563746f6044820152603960f91b60648201526084016107a4565b600060015b600754811161118b576000818152600b60205260409020600181015488148015610f445750868160020154145b8015610f5e5750806006018054610f5a90613660565b1590505b8015610f8257506001600582015460ff166003811115610f8057610f8061340c565b145b8015610f915750600381015415155b1561108e5760038101546000908152600c60205260408120905b815481101561108b57600b6000838381548110610fca57610fca613833565b9060005260206000200154815260200190815260200160002092508560040180549050851061103b5760405162461bcd60e51b815260206004820152601a60248201527f4e6f7420656e6f75676820736561747320746f2061737369676e00000000000060448201526064016107a4565b85600401858154811061105057611050613833565b9060005260206000200183600601908161106a919061388f565b5084611075816136b0565b9550508080611083906136b0565b915050610fab565b50505b8781600101541480156110a45750868160020154145b80156110be57508060060180546110ba90613660565b1590505b80156110e257506001600582015460ff1660038111156110e0576110e061340c565b145b15611178576004840154831061113a5760405162461bcd60e51b815260206004820152601a60248201527f4e6f7420656e6f75676820736561747320746f2061737369676e00000000000060448201526064016107a4565b83600401838154811061114f5761114f613833565b90600052602060002001816006019081611169919061388f565b5082611174816136b0565b9350505b5080611183816136b0565b915050610f17565b5080156111b157808260030160008282546111a6919061380d565b90915550610dc29050565b60405162461bcd60e51b815260206004820152601960248201527f4e6f207469636b6574732061737369676e65642073656174730000000000000060448201526064016107a4565b6000828152600c602052604090205461124b5760405162461bcd60e51b8152602060048201526014602482015273496c2067727570706f206e6f6e2065736973746560601b60448201526064016107a4565b60006112573383610644565b1161129b5760405162461bcd60e51b81526020600482015260146024820152732737ba103a3432903a34b1b5b2ba1037bbb732b960611b60448201526064016107a4565b6000818152600b6020526040902060030154821461130c5760405162461bcd60e51b815260206004820152602860248201527f496c207469636b6574206e6f6e2061707061727469656e6520612071756573746044820152676f2067727570706f60c01b60648201526084016107a4565b6000818152600b6020526040812060030181905580805b6000858152600c60205260409020548110156113d15760408051602081018690520160408051601f1981840301815291815281516020928301206000888152600c909352912080548390811061137b5761137b613833565b906000526020600020015460405160200161139891815260200190565b60405160208183030381529060405280519060200120036113bf57809250600191506113d1565b806113c9816136b0565b915050611323565b508061141f5760405162461bcd60e51b815260206004820152601d60248201527f5469636b6574206e6f6e2074726f7661746f206e656c2067727570706f00000060448201526064016107a4565b6000848152600c60205260409020805461143b9060019061380d565b8154811061144b5761144b613833565b9060005260206000200154600c6000868152602001908152602001600020838154811061147a5761147a613833565b9060005260206000200181905550600c60008581526020019081526020016000208054806114aa576114aa613962565b6001900381819060005260206000200160009055905550505050565b7fa49807205ce4d355092ef5a8a18f56e8913cf4a201fbe287825b095693c217756114f08161251a565b611508600080516020613a6783398151915283611f1c565b5050565b600c602052816000526040600020818154811061152857600080fd5b90600052602060002001600091509150505481565b600d805461154a90613660565b80601f016020809104026020016040519081016040528092919081815260200182805461157690613660565b80156115c35780601f10611598576101008083540402835291602001916115c3565b820191906000526020600020905b8154815290600101906020018083116115a657829003601f168201915b505050505081565b606081518351146115fc5781518351604051635b05999160e01b8152600481019290925260248201526044016107a4565b6000835167ffffffffffffffff8111156116185761161861300f565b604051908082528060200260200182016040528015611641578160200160208202803683370190505b50905060005b84518110156116985760208082028601015161166b90602080840287010151610644565b82828151811061167d5761167d613833565b6020908102919091010152611691816136b0565b9050611647565b509392505050565b600b6020526000908152604090208054600182015460028301546003840154600485015460058601546006870180549697959694959394929360ff909216926116e890613660565b80601f016020809104026020016040519081016040528092919081815260200182805461171490613660565b80156117615780601f1061173657610100808354040283529160200191611761565b820191906000526020600020905b81548152906001019060200180831161174457829003601f168201915b50505050509080600701805461177690613660565b80601f01602080910402602001604051908101604052809291908181526020018280546117a290613660565b80156117ef5780601f106117c4576101008083540402835291602001916117ef565b820191906000526020600020905b8154815290600101906020018083116117d257829003601f168201915b5050505050905088565b60006118053383610644565b116118495760405162461bcd60e51b81526020600482015260146024820152732737ba103a3432903a34b1b5b2ba1037bbb732b960611b60448201526064016107a4565b600060096000815461185a906136b0565b91829055506000838152600b60209081526040808320600301849055928252600c81529181208054600181018255908252919020019190915550565b6000818152600a6020526040812080546002820154600483015460018401805460609587958695919490939283906118cd90613660565b80601f01602080910402602001604051908101604052809291908181526020018280546118f990613660565b80156119465780601f1061191b57610100808354040283529160200191611946565b820191906000526020600020905b81548152906001019060200180831161192957829003601f168201915b505050505092509450945094509450509193509193565b6000828152600a602090815260408083208484526003018252808320600401805482518185028101850190935280835260609492939192909184015b82821015611a455783829060005260206000200180546119b890613660565b80601f01602080910402602001604051908101604052809291908181526020018280546119e490613660565b8015611a315780601f10611a0657610100808354040283529160200191611a31565b820191906000526020600020905b815481529060010190602001808311611a1457829003601f168201915b505050505081526020019060010190611999565b50505050905092915050565b6000806000806000806060806000600b60008b81526020019081526020016000209050806000015481600101548260020154836003015484600401548560050160009054906101000a900460ff168660060187600701818054611ab390613660565b80601f0160208091040260200160405190810160405280929190818152602001828054611adf90613660565b8015611b2c5780601f10611b0157610100808354040283529160200191611b2c565b820191906000526020600020905b815481529060010190602001808311611b0f57829003601f168201915b50505050509150808054611b3f90613660565b80601f0160208091040260200160405190810160405280929190818152602001828054611b6b90613660565b8015611bb85780601f10611b8d57610100808354040283529160200191611bb8565b820191906000526020600020905b815481529060010190602001808311611b9b57829003601f168201915b505050505090509850985098509850985098509850985050919395975091939597565b60606000600d600e60009054906101000a90046001600160a01b0316818054611c0390613660565b80601f0160208091040260200160405190810160405280929190818152602001828054611c2f90613660565b8015611c7c5780601f10611c5157610100808354040283529160200191611c7c565b820191906000526020600020905b815481529060010190602001808311611c5f57829003601f168201915b50505050509150915091509091565b6000828152600a602090815260408083208484526003908101909252822080546002820154928201546001830180546060958795869590949093928390611cd190613660565b80601f0160208091040260200160405190810160405280929190818152602001828054611cfd90613660565b8015611d4a5780601f10611d1f57610100808354040283529160200191611d4a565b820191906000526020600020905b815481529060010190602001808311611d2d57829003601f168201915b5050505050925094509450945094505092959194509250565b6000918252602082815260408084206001600160a01b0393909316845291905290205460ff1690565b600080516020613a67833981519152611da48161251a565b60068054906000611db4836136b0565b90915550506006546000818152600a6020526040902090815560018101611ddb858261370f565b50600281019290925550600060049091015550565b6115083383836127f1565b6000828152600b60205260409020611e21600080516020613a6783398151915233611d63565b80611e3557506000611e333385610644565b115b611e905760405162461bcd60e51b815260206004820152602660248201527f4e6f7420617574686f72697a656420746f20757064617465207469636b65742060448201526573746174757360d01b60648201526084016107a4565b60058101805483919060ff19166001836003811115611eb157611eb161340c565b0217905550505050565b6000818152600c6020908152604091829020805483518184028101840190945280845260609392830182828015610c0e57602002820191906000526020600020905b815481526020019060010190808311611efd5750505050509050919050565b600082815260208190526040902060010154611f378161251a565b610def8383612786565b600080516020613a67833981519152611f598161251a565b6000828152600a6020526040902060028101544211611fba5760405162461bcd60e51b815260206004820152601a60248201527f4576656e7420686173206e6f7420796574206f6363757272656400000000000060448201526064016107a4565b60015b6007548111610def576000818152600b6020526040902060018101548514801561200057506003600582015460ff166003811115611ffd57611ffd61340c565b14155b156120155760058101805460ff191660031790555b5080612020816136b0565b915050611fbd565b7fa49807205ce4d355092ef5a8a18f56e8913cf4a201fbe287825b095693c217756120528161251a565b610e28600080516020613a67833981519152836126f4565b6001600160a01b03918216600090815260026020908152604080832093909416825291909152205460ff1690565b336001600160a01b03861681148015906120b957506120b7868261206a565b155b156120ea5760405163711bec9160e11b81526001600160a01b038083166004830152871660248201526044016107a4565b610dc28686868686612887565b6000828152600c60205260409020546121525760405162461bcd60e51b815260206004820152601860248201527f5468652067726f757020646f6573206e6f74206578697374000000000000000060448201526064016107a4565b6000805b6000848152600c60205260409020548110156121dd5760006121bc33600b6000600c60008a8152602001908152602001600020868154811061219a5761219a613833565b9060005260206000200154815260200190815260200160002060000154610644565b11156121cb57600191506121dd565b806121d5816136b0565b915050612156565b50806122425760405162461bcd60e51b815260206004820152602e60248201527f596f75206d75737420626520612067726f7570206d656d62657220746f20616460448201526d64207061727469636970616e747360901b60648201526084016107a4565b60016000838152600b602052604090206005015460ff16600381111561226a5761226a61340c565b146122b75760405162461bcd60e51b815260206004820152601960248201527f546865207469636b6574206973206e6f7420274f776e6564270000000000000060448201526064016107a4565b6000828152600b6020526040902060030154156123285760405162461bcd60e51b815260206004820152602960248201527f546865207469636b657420697320616c72656164792061737369676e6564207460448201526806f20612067726f75760bc1b60648201526084016107a4565b6000838152600c602052604081208054600b918391829061234b5761234b613833565b906000526020600020015481526020019081526020016000206001015490506000600b6000600c600088815260200190815260200160002060008154811061239557612395613833565b9060005260206000200154815260200190815260200160002060020154905081600b6000868152602001908152602001600020600101541461242d5760405162461bcd60e51b815260206004820152602b60248201527f546865207469636b657420646f6573206e6f74206d617463682074686520677260448201526a1bdd5c09dcc8195d995b9d60aa1b60648201526084016107a4565b6000848152600b602052604090206002015481146124a25760405162461bcd60e51b815260206004820152602c60248201527f546865207469636b657420646f6573206e6f74206d617463682074686520677260448201526b37bab813b99039b2b1ba37b960a11b60648201526084016107a4565b5050506000818152600b60209081526040808320600301859055938252600c8152928120805460018101825590825292902090910155565b60006001600160e01b03198216636cdb3d1360e11b148061250b57506001600160e01b031982166303a24d0760e21b145b8061066857506106688261290c565b6125248133612941565b50565b60608160000361254e5750506040805180820190915260018152600360fc1b602082015290565b8160005b81156125785780612562816136b0565b91506125719050600a836137e5565b9150612552565b60008167ffffffffffffffff8111156125935761259361300f565b6040519080825280601f01601f1916602001820160405280156125bd576020820181803683370190505b5090505b8415612628576125d260018361380d565b91506125df600a866137f9565b6125ea906030613820565b60f81b8183815181106125ff576125ff613833565b60200101906001600160f81b031916908160001a905350612621600a866137e5565b94506125c1565b949350505050565b6001600160a01b03841661265a57604051632bfa23e760e11b8152600060048201526024016107a4565b60408051600180825260208201869052818301908152606082018590526080820190925290610dc260008784848761297a565b6001600160a01b0384166126b757604051632bfa23e760e11b8152600060048201526024016107a4565b6001600160a01b0385166126e057604051626a0d4560e21b8152600060048201526024016107a4565b6126ed858585858561297a565b5050505050565b60006127008383611d63565b61277e576000838152602081815260408083206001600160a01b03861684529091529020805460ff191660011790556127363390565b6001600160a01b0316826001600160a01b0316847f2f8788117e7eff1d82e926ec794901d17c78024a50270940304540a733656f0d60405160405180910390a4506001610668565b506000610668565b60006127928383611d63565b1561277e576000838152602081815260408083206001600160a01b0386168085529252808320805460ff1916905551339286917ff6391f5c32d9c69d2a47ea670b442974b53935d1edc7fd64eb21e047a839171b9190a4506001610668565b6001600160a01b03821661281a5760405162ced3e160e81b8152600060048201526024016107a4565b6001600160a01b03838116600081815260026020908152604080832094871680845294825291829020805460ff191686151590811790915591519182527f17307eab39ab6107e8899845ad3d59bd9653f200f220920489ca2b5937696c31910160405180910390a3505050565b6001600160a01b0384166128b157604051632bfa23e760e11b8152600060048201526024016107a4565b6001600160a01b0385166128da57604051626a0d4560e21b8152600060048201526024016107a4565b60408051600180825260208201869052818301908152606082018590526080820190925290610d5a878784848761297a565b60006001600160e01b03198216637965db0b60e01b148061066857506301ffc9a760e01b6001600160e01b0319831614610668565b61294b8282611d63565b6115085760405163e2517d3f60e01b81526001600160a01b0382166004820152602481018390526044016107a4565b612986858585856129cd565b6001600160a01b038416156126ed57825133906001036129bf57602084810151908401516129b8838989858589612aca565b5050610dc2565b610dc2818787878787612bee565b6129d984848484612cd7565b6001600160a01b038416612a62576000805b8351811015612a485760208181028481018201519086018201516000908152600490925260408220805491928392612a24908490613820565b90915550612a3490508184613820565b92505080612a41906136b0565b90506129eb565b508060056000828254612a5b9190613820565b9091555050505b6001600160a01b038316610def576000805b8351811015612ab9576020818102848101820151908601820151600090815260049092526040909120805482900390559190910190612ab2816136b0565b9050612a74565b506005805491909103905550505050565b6001600160a01b0384163b15610dc25760405163f23a6e6160e01b81526001600160a01b0385169063f23a6e6190612b0e9089908990889088908890600401613978565b6020604051808303816000875af1925050508015612b49575060408051601f3d908101601f19168201909252612b46918101906139bd565b60015b612bb2573d808015612b77576040519150601f19603f3d011682016040523d82523d6000602084013e612b7c565b606091505b508051600003612baa57604051632bfa23e760e11b81526001600160a01b03861660048201526024016107a4565b805181602001fd5b6001600160e01b0319811663f23a6e6160e01b14610d5a57604051632bfa23e760e11b81526001600160a01b03861660048201526024016107a4565b6001600160a01b0384163b15610dc25760405163bc197c8160e01b81526001600160a01b0385169063bc197c8190612c3290899089908890889088906004016139da565b6020604051808303816000875af1925050508015612c6d575060408051601f3d908101601f19168201909252612c6a918101906139bd565b60015b612c9b573d808015612b77576040519150601f19603f3d011682016040523d82523d6000602084013e612b7c565b6001600160e01b0319811663bc197c8160e01b14610d5a57604051632bfa23e760e11b81526001600160a01b03861660048201526024016107a4565b8051825114612d065781518151604051635b05999160e01b8152600481019290925260248201526044016107a4565b3360005b8351811015612e1b576020818102858101820151908501909101516001600160a01b03881615612dc15760008281526001602090815260408083206001600160a01b038c16845290915290205481811015612d98576040516303dee4c560e01b81526001600160a01b038a1660048201526024810182905260448101839052606481018490526084016107a4565b60008381526001602090815260408083206001600160a01b038d16845290915290209082900390555b6001600160a01b03871615612e085760008281526001602090815260408083206001600160a01b038b16845290915281208054839290612e02908490613820565b90915550505b505080612e14906136b0565b9050612d0a565b508251600103612e9c5760208301516000906020840151909150856001600160a01b0316876001600160a01b0316846001600160a01b03167fc3d58168c5ae7397731d063d5bbf3d657854427343f4c083240f7aacaa2d0f628585604051612e8d929190918252602082015260400190565b60405180910390a450506126ed565b836001600160a01b0316856001600160a01b0316826001600160a01b03167f4a39dc06d4c0dbc64b70af90fd698a233a518aa5d07e595d983b8c0526c8f7fb8686604051612eeb929190613a38565b60405180910390a45050505050565b80356001600160a01b0381168114612f1157600080fd5b919050565b60008060408385031215612f2957600080fd5b612f3283612efa565b946020939093013593505050565b6001600160e01b03198116811461252457600080fd5b600060208284031215612f6857600080fd5b8135612f7381612f40565b9392505050565b600060208284031215612f8c57600080fd5b5035919050565b60005b83811015612fae578181015183820152602001612f96565b50506000910152565b60008151808452612fcf816020860160208601612f93565b601f01601f19169290920160200192915050565b848152608060208201526000612ffc6080830186612fb7565b6040830194909452506060015292915050565b634e487b7160e01b600052604160045260246000fd5b604051601f8201601f1916810167ffffffffffffffff8111828210171561304e5761304e61300f565b604052919050565b600082601f83011261306757600080fd5b813567ffffffffffffffff8111156130815761308161300f565b613094601f8201601f1916602001613025565b8181528460208386010111156130a957600080fd5b816020850160208301376000918101602001919091529392505050565b600080600080608085870312156130dc57600080fd5b84359350602085013567ffffffffffffffff8111156130fa57600080fd5b61310687828801613056565b949794965050505060408301359260600135919050565b602081526000612f736020830184612fb7565b60008060006060848603121561314557600080fd5b505081359360208301359350604090920135919050565b600067ffffffffffffffff8211156131765761317661300f565b5060051b60200190565b600082601f83011261319157600080fd5b813560206131a66131a18361315c565b613025565b82815260059290921b840181019181810190868411156131c557600080fd5b8286015b848110156131e057803583529183019183016131c9565b509695505050505050565b600080600080600060a0868803121561320357600080fd5b61320c86612efa565b945061321a60208701612efa565b9350604086013567ffffffffffffffff8082111561323757600080fd5b61324389838a01613180565b9450606088013591508082111561325957600080fd5b61326589838a01613180565b9350608088013591508082111561327b57600080fd5b5061328888828901613056565b9150509295509295909350565b600080604083850312156132a857600080fd5b823591506132b860208401612efa565b90509250929050565b600080604083850312156132d457600080fd5b50508035926020909101359150565b6000602082840312156132f557600080fd5b612f7382612efa565b6000806040838503121561331157600080fd5b823567ffffffffffffffff8082111561332957600080fd5b818501915085601f83011261333d57600080fd5b8135602061334d6131a18361315c565b82815260059290921b8401810191818101908984111561336c57600080fd5b948201945b838610156133915761338286612efa565b82529482019490820190613371565b965050860135925050808211156133a757600080fd5b506133b485828601613180565b9150509250929050565b600081518084526020808501945080840160005b838110156133ee578151875295820195908201906001016133d2565b509495945050505050565b602081526000612f7360208301846133be565b634e487b7160e01b600052602160045260246000fd5b60006101008a83528960208401528860408401528760608401528660808401526004861061346057634e487b7160e01b600052602160045260246000fd5b8560a08401528060c084015261347881840186612fb7565b905082810360e084015261348c8185612fb7565b9b9a5050505050505050505050565b6000602080830181845280855180835260408601915060408160051b870101925083870160005b828110156134f057603f198886030184526134de858351612fb7565b945092850192908501906001016134c2565b5092979650505050505050565b6040815260006135106040830185612fb7565b905060018060a01b03831660208301529392505050565b6000806040838503121561353a57600080fd5b823567ffffffffffffffff81111561355157600080fd5b61355d85828601613056565b95602094909401359450505050565b6000806040838503121561357f57600080fd5b61358883612efa565b91506020830135801515811461359d57600080fd5b809150509250929050565b600080604083850312156135bb57600080fd5b8235915060208301356004811061359d57600080fd5b600080604083850312156135e457600080fd5b6135ed83612efa565b91506132b860208401612efa565b600080600080600060a0868803121561361357600080fd5b61361c86612efa565b945061362a60208701612efa565b93506040860135925060608601359150608086013567ffffffffffffffff81111561365457600080fd5b61328888828901613056565b600181811c9082168061367457607f821691505b60208210810361369457634e487b7160e01b600052602260045260246000fd5b50919050565b634e487b7160e01b600052601160045260246000fd5b6000600182016136c2576136c261369a565b5060010190565b601f821115610e2857600081815260208120601f850160051c810160208610156136f05750805b601f850160051c820191505b81811015610dc2578281556001016136fc565b815167ffffffffffffffff8111156137295761372961300f565b61373d816137378454613660565b846136c9565b602080601f831160018114613772576000841561375a5750858301515b600019600386901b1c1916600185901b178555610dc2565b600085815260208120601f198616915b828110156137a157888601518255948401946001909101908401613782565b50858210156137bf5787850151600019600388901b60f8161c191681555b5050505050600190811b01905550565b634e487b7160e01b600052601260045260246000fd5b6000826137f4576137f46137cf565b500490565b600082613808576138086137cf565b500690565b818103818111156106685761066861369a565b808201808211156106685761066861369a565b634e487b7160e01b600052603260045260246000fd5b6000835161385b818460208801612f93565b83519083019061386f818360208801612f93565b01949350505050565b6000816138875761388761369a565b506000190190565b81810361389a575050565b6138a48254613660565b67ffffffffffffffff8111156138bc576138bc61300f565b6138ca816137378454613660565b6000601f8211600181146138fe57600083156138e65750848201545b600019600385901b1c1916600184901b1784556126ed565b600085815260209020601f19841690600086815260209020845b838110156139385782860154825560019586019590910190602001613918565b50858310156137bf5793015460001960f8600387901b161c19169092555050600190811b01905550565b634e487b7160e01b600052603160045260246000fd5b6001600160a01b03868116825285166020820152604081018490526060810183905260a0608082018190526000906139b290830184612fb7565b979650505050505050565b6000602082840312156139cf57600080fd5b8151612f7381612f40565b6001600160a01b0386811682528516602082015260a060408201819052600090613a06908301866133be565b8281036060840152613a1881866133be565b90508281036080840152613a2c8185612fb7565b98975050505050505050565b604081526000613a4b60408301856133be565b8281036020840152613a5d81856133be565b9594505050505056fe4d2e7a1e3f5dd6e203f087b15756ccf0e4ccd947fe1b639a38540089a1e47f63a2646970667358221220dbfed22e49e636c44ccbfb8de340c28673738ccf06b48dd7e36d58aade70e5e664736f6c63430008140033",
  "immutableReferences": {},
  "source": "// SPDX-License-Identifier: MIT\r\npragma solidity ^0.8.0;\r\n\r\nimport \"@openzeppelin/contracts/token/ERC1155/extensions/ERC1155Supply.sol\";\r\nimport \"@openzeppelin/contracts/access/AccessControl.sol\";\r\n\r\n\r\ncontract Ticket_NFT is AccessControl, ERC1155Supply{\r\n    \r\n    \r\n    struct Event{ \r\n        uint id; \r\n        string name; \r\n        uint time; \r\n        mapping(uint => Sector) sectors; \r\n        uint sectorCount; \r\n    } \r\n \r\n    struct Sector { \r\n        uint id; \r\n        string name; \r\n        uint totalSeats;\r\n        uint availableSeats;  \r\n        string[] seats;\r\n    } \r\n    \r\n    enum TicketStatus { Available, Owned, Validated, Expired } \r\n    \r\n    struct Ticket { \r\n        uint256 id; \r\n        uint eventId; \r\n        uint sectorId; \r\n        uint groupId; \r\n        uint originalPrice; \r\n        TicketStatus status; \r\n        string seat;\r\n        string hashName;\r\n    } \r\n \r\n    bytes32 public constant ORGANIZER_ROLE = keccak256(\"ORGANIZER_ROLE\");\r\n    bytes32 public constant ADMIN_ROLE = keccak256(\"ADMIN_ROLE\");\r\n    //address public platformOwner; \r\n    uint public eventCount; \r\n    uint public ticketCount; \r\n    //uint public fee=2; \r\n    uint public ticketIdLength = 4;\r\n    uint groupCount;\r\n    //mapping(address => bool) public organizers; \r\n    mapping(uint => Event) public events; \r\n    mapping(uint256 => Ticket) public tickets; \r\n    mapping(uint => uint[]) public groups;\r\n    string public organization_name;\r\n    address private admin;\r\n\r\n    event OrganizationCreatedTi(string organizationName, address admin);\r\n\r\n    constructor(string memory _organization_name, address _organizer) ERC1155(\"\") ERC1155Supply(){\r\n        _grantRole(DEFAULT_ADMIN_ROLE, msg.sender); //quello chedeploya la blockchain per primo (io)\r\n        _grantRole(ORGANIZER_ROLE, _organizer); //quello che chiama il contratto, ovvero sony, universal...\r\n        _grantRole(ADMIN_ROLE, _organizer);\r\n        //_setRoleAdmin(ADMIN_ROLE, ADMIN_ROLE); //guarda perch\r\n\r\n        organization_name=_organization_name;\r\n        admin = _organizer;\r\n\r\n        emit OrganizationCreatedTi(organization_name, admin);\r\n    }\r\n\r\n    function getOrganizationDetails() external view returns (string memory, address) {\r\n        return (organization_name, admin);\r\n    }\r\n\r\n\r\n    function addOrganizer(address _organizer)public onlyRole(ADMIN_ROLE){\r\n        _grantRole(ORGANIZER_ROLE, _organizer);\r\n    }\r\n\r\n    function removeOrganizer(address _organizer)public onlyRole(ADMIN_ROLE){\r\n        revokeRole(ORGANIZER_ROLE, _organizer);\r\n    }\r\n\r\n\r\n    //------------------------Gestione biglietti-----------------------------------------------------------\r\n\r\n    function createEvent(string memory _name, uint _time) external onlyRole(ORGANIZER_ROLE){ \r\n \r\n        eventCount++; \r\n        Event storage newEvent = events[eventCount]; \r\n        newEvent.id = eventCount; \r\n        newEvent.name = _name; \r\n        newEvent.time = _time; \r\n        newEvent.sectorCount=0; \r\n    } \r\n\r\n\r\n    function createSector(uint _eventId, string memory _name, uint _totalSeats, uint _seat_x_lines) external onlyRole(ORGANIZER_ROLE) {  \r\n        Event storage _event = events[_eventId]; \r\n\r\n        //check that event exist\r\n        require(bytes(_event.name).length > 0, \"Event does not exist\");\r\n\r\n        _event.sectorCount++; \r\n        Sector storage newSector = _event.sectors[_event.sectorCount]; \r\n        newSector.id = _event.sectorCount; \r\n        newSector.name = _name; \r\n        newSector.totalSeats = _totalSeats; \r\n        newSector.availableSeats = _totalSeats; \r\n        string[26] memory lettersSeats = [\r\n            \"A\", \"B\", \"C\", \"D\", \"E\", \"F\", \"G\", \"H\", \"I\", \"J\", \"K\", \"L\", \"M\", \"N\", \"O\", \r\n            \"P\", \"Q\", \"R\", \"S\", \"T\", \"U\", \"V\", \"W\", \"X\", \"Y\", \"Z\"\r\n        ];\r\n    \r\n        uint rows = _totalSeats / _seat_x_lines; // Calcoliamo il numero di righe\r\n        for (uint i = 1; i <= rows; i++) {\r\n            for (uint j = 1; j <= _seat_x_lines; j++) {\r\n                // Determina l'indice per la lettera: per righe pari, usa l'ordine inverso\r\n                uint columnIndex = (i % 2 == 0) ? (_seat_x_lines - j + 1) : j;\r\n\r\n                // Combina il numero di riga con la lettera appropriata\r\n                string memory seat = string(abi.encodePacked(uintToString(columnIndex), lettersSeats[i-1]));\r\n                newSector.seats.push(seat);\r\n            }\r\n        }\r\n\r\n    } \r\n\r\n\r\n    function uintToString(uint v) internal pure returns (string memory) {\r\n        if (v == 0) {\r\n            return \"0\";\r\n        }\r\n        uint temp = v;\r\n        uint digits;\r\n        while (temp != 0) {\r\n            digits++;\r\n            temp /= 10;\r\n        }\r\n        bytes memory buffer = new bytes(digits);\r\n        while (v != 0) {\r\n            digits -= 1;\r\n            buffer[digits] = bytes1(uint8(48 + uint(v % 10)));\r\n            v /= 10;\r\n        }\r\n        return string(buffer);\r\n    }\r\n\r\n\r\n    function createTicket(uint _eventId, uint _sectorId, uint _originalPrice)external onlyRole(ORGANIZER_ROLE){ \r\n\r\n        require(_originalPrice > 0, \"Price must be greater than 0\");\r\n\r\n        Sector storage sector=events[_eventId].sectors[_sectorId]; \r\n        require(sector.availableSeats>0, \"No seats\"); \r\n \r\n        ticketCount++; \r\n        uint256 ticketId = ticketCount;\r\n        //string memory ticketId = generateTicketId(_eventId, ticketCount);\r\n        Ticket storage newTicket = tickets[ticketId]; \r\n        newTicket.id = ticketId; \r\n        newTicket.eventId = _eventId; \r\n        newTicket.sectorId = _sectorId; \r\n        newTicket.status = TicketStatus.Available; \r\n        newTicket.originalPrice = _originalPrice;\r\n        sector.availableSeats--; \r\n\r\n        _mint(msg.sender, ticketCount, 1, \"\");\r\n \r\n    } \r\n\r\n\r\n    //------------------------Gestione gruppi-----------------------------------------------------------\r\n\r\n    function createGroup(uint256 ticketId) external {\r\n        require(balanceOf(msg.sender, ticketId) > 0, \"Not the ticket owner\");\r\n        uint groupId = ++groupCount;\r\n        \r\n        tickets[ticketId].groupId = groupId;\r\n        groups[groupId].push(ticketId);\r\n    }\r\n\r\n\r\n    function addParticipant(uint groupId, uint256 ticketId) external {\r\n        require(groups[groupId].length > 0, \"The group does not exist\");\r\n\r\n        // Verify that the caller is a member of the group\r\n        bool isGroupMember = false;\r\n        for (uint i = 0; i < groups[groupId].length; i++) {\r\n            if (balanceOf(msg.sender, tickets[groups[groupId][i]].id) > 0){\r\n                isGroupMember = true;\r\n                break;\r\n            }\r\n        }\r\n        require(isGroupMember, \"You must be a group member to add participants\");\r\n\r\n        // Verify that the ticket has status Owned\r\n        require(tickets[ticketId].status == TicketStatus.Owned, \"The ticket is not 'Owned'\");\r\n        require(tickets[ticketId].groupId == 0, \"The ticket is already assigned to a group\");\r\n\r\n        // Verify that the new ticket has the same sector and event as others in the group\r\n        uint groupEventId = tickets[groups[groupId][0]].eventId;\r\n        uint groupSectorId = tickets[groups[groupId][0]].sectorId;\r\n        require(tickets[ticketId].eventId == groupEventId, \"The ticket does not match the group's event\");\r\n        require(tickets[ticketId].sectorId == groupSectorId, \"The ticket does not match the group's sector\");\r\n\r\n        // Associate the ticket with the group and update the mapping\r\n        tickets[ticketId].groupId = groupId;\r\n        groups[groupId].push(ticketId);\r\n    }\r\n\r\n\r\n\r\n    // Rimuove un partecipante dal gruppo\r\n    function removeParticipant(uint groupId, uint256 ticketId) external {\r\n        require(groups[groupId].length > 0, \"Il gruppo non esiste\");\r\n        require(balanceOf(msg.sender, ticketId) > 0, \"Not the ticket owner\");\r\n        require(tickets[ticketId].groupId == groupId, \"Il ticket non appartiene a questo gruppo\");\r\n\r\n        tickets[ticketId].groupId = 0;\r\n\r\n        // Rimuove il ticket dal gruppo\r\n        uint index;\r\n        bool found = false;\r\n        for (uint i = 0; i < groups[groupId].length; i++) {\r\n            if (keccak256(abi.encodePacked(groups[groupId][i])) == keccak256(abi.encodePacked(ticketId))) {\r\n                index = i;\r\n                found = true;\r\n                break;\r\n            }\r\n        }\r\n        require(found, \"Ticket non trovato nel gruppo\");\r\n        groups[groupId][index] = groups[groupId][groups[groupId].length - 1];\r\n        groups[groupId].pop();\r\n    }\r\n\r\n\r\n    //------------------------Assegnazione posti-----------------------------------------------------------\r\n    function assignSeats(uint _eventId, uint _sectorId) external onlyRole(ORGANIZER_ROLE) {\r\n        Event storage _event = events[_eventId];\r\n        Sector storage _sector = _event.sectors[_sectorId];\r\n\r\n        require(_sector.seats.length > 0, \"No seats defined in this sector\");\r\n        require(_sector.availableSeats > 0, \"No available seats in this sector\");\r\n\r\n        uint assignedCount = 0;\r\n\r\n        // Itera su tutti i biglietti per verificare e assegnare i posti\r\n        for (uint i = 1; i <= ticketCount; i++) {\r\n            Ticket storage _ticket = tickets[i];\r\n            //ha un grppuo\r\n            if ( _ticket.eventId == _eventId && _ticket.sectorId == _sectorId && bytes(_ticket.seat).length == 0 && _ticket.status == TicketStatus.Owned && _ticket.groupId != 0 ){\r\n                uint[] storage ticketsInGroup = groups[_ticket.groupId]; // Accedi all'array di ticket del gruppo\r\n\r\n                for (uint x = 0; x < ticketsInGroup.length; x++) {\r\n                    _ticket = tickets[ticketsInGroup[x]]; // Ticket associato\r\n                    require(assignedCount < _sector.seats.length, \"Not enough seats to assign\");\r\n\r\n                    // Assegna un posto al biglietto\r\n                    _ticket.seat = _sector.seats[assignedCount];\r\n                    assignedCount++;\r\n                }\r\n            }\r\n\r\n            // Verifica che il biglietto sia del giusto evento, settore e senza posto assegnato\r\n            if (\r\n                _ticket.eventId == _eventId &&\r\n                _ticket.sectorId == _sectorId &&\r\n                bytes(_ticket.seat).length == 0 &&\r\n                _ticket.status == TicketStatus.Owned\r\n            ){\r\n                // Verifica che ci siano ancora posti disponibili\r\n                require(assignedCount < _sector.seats.length, \"Not enough seats to assign\");\r\n\r\n                // Assegna un posto al biglietto\r\n                _ticket.seat = _sector.seats[assignedCount];\r\n                assignedCount++;\r\n            }\r\n        }\r\n\r\n        // Aggiorna i posti disponibili nel settore\r\n        if (assignedCount > 0) {\r\n            _sector.availableSeats -= assignedCount;\r\n        } else {\r\n            revert(\"No tickets assigned seats\");\r\n        }\r\n    }\r\n\r\n    function updateTicketStatus(uint256 ticketId, TicketStatus newStatus) external {\r\n\r\n        // take the ticket\r\n        Ticket storage ticket = tickets[ticketId];\r\n\r\n        // controlla che sia il proprietario a farlo\r\n        require(\r\n            hasRole(ORGANIZER_ROLE, msg.sender) || balanceOf(msg.sender, ticketId) > 0,\r\n            \"Not authorized to update ticket status\"\r\n        );\r\n\r\n        ticket.status = newStatus;\r\n    }\r\n    \r\n\r\n    //chiama per mettere tutti i ticket di un evento expired\r\n    function expireTickets(uint _eventId) external onlyRole(ORGANIZER_ROLE) {\r\n        Event storage _event = events[_eventId];\r\n        require(_event.time < block.timestamp, \"Event has not yet occurred\");\r\n\r\n        for (uint i = 1; i <= ticketCount; i++) {\r\n            Ticket storage ticket = tickets[i];\r\n            if (ticket.eventId == _eventId && ticket.status != TicketStatus.Expired) {\r\n                ticket.status = TicketStatus.Expired;\r\n            }\r\n        }\r\n    }\r\n\r\n\r\n\r\n    // get an event detail based on the event id \r\n    function getEvent(uint _eventId) external view returns (\r\n        uint id,\r\n        string memory name,\r\n        uint time,\r\n        uint sectorCount\r\n    ){\r\n        Event storage _event =events[_eventId];\r\n        return (_event.id, _event.name, _event.time, _event.sectorCount);\r\n    }\r\n\r\n\r\n    // get a sector detail based on the event id and sector id\r\n    function getSector(uint _eventId, uint _sectorId) external view returns (\r\n        uint id,\r\n        string memory name,\r\n        uint totalSeats,\r\n        uint availableSeats\r\n    ) {\r\n        Sector storage sector = events[_eventId].sectors[_sectorId];\r\n        return (sector.id, sector.name, sector.totalSeats, sector.availableSeats);\r\n    }\r\n\r\n\r\n    // get a ticket detail based on the ticket id\r\n    function getTicket(uint256 ticketId) external view returns (\r\n        uint256 id,\r\n        uint eventId,\r\n        uint sectorId,\r\n        uint groupId,\r\n        uint originalPrice,\r\n        TicketStatus status,\r\n        string memory seat,\r\n        string memory hashName){\r\n\r\n        Ticket storage ticket = tickets[ticketId];\r\n        return (\r\n            ticket.id,\r\n            ticket.eventId,\r\n            ticket.sectorId,\r\n            ticket.groupId,\r\n            ticket.originalPrice,\r\n            ticket.status,\r\n            ticket.seat,\r\n            ticket.hashName\r\n        );\r\n    }\r\n\r\n    // get all the seat in a sector based on the event id and sector id\r\n    function getSeatsInSector(uint _eventId, uint _sectorId) external view returns (string[] memory) {\r\n        return events[_eventId].sectors[_sectorId].seats;\r\n    }\r\n\r\n\r\n    // get all the ticket of a group based on the group id\r\n    function getGroupTickets(uint groupId) external view returns (uint[] memory) {\r\n        return groups[groupId];\r\n    }\r\n\r\n    // check if a ticket is associated to a group\r\n    function isTicketInGroup(uint ticketId) external view returns (bool) {\r\n        return tickets[ticketId].groupId != 0;\r\n    }\r\n\r\n\r\n    // mancano getter per tutti i ticket di un evento e per tutti i ticket di un utente, ma farlo lato front end  troppo\r\n\r\n\r\n\r\n\r\n\r\n    \r\n\r\n\r\n\r\n\r\n\r\n\r\n\r\n\r\n\r\n    function supportsInterface(bytes4 _interfaceId) public view virtual override(AccessControl, ERC1155) returns (bool) {\r\n        return super.supportsInterface(_interfaceId);\r\n    }\r\n\r\n   \r\n\r\n\r\n}\r\n\r\n\r\n",
  "sourcePath": "C:\\Users\\eddie\\OneDrive\\Desktop\\block\\truffle\\contracts\\Ticket_NFT.sol",
  "compiler": {
    "name": "solc",
    "version": "0.8.20+commit.a1b79de6.Emscripten.clang"
  },
  "schemaVersion": "3.4.16",
  "updatedAt": "2025-01-27T17:29:56.029Z",
  "networkType": "ethereum",
  "devdoc": {
    "errors": {
      "AccessControlBadConfirmation()": [
        {
          "details": "The caller of a function is not the expected one. NOTE: Don't confuse with {AccessControlUnauthorizedAccount}."
        }
      ],
      "AccessControlUnauthorizedAccount(address,bytes32)": [
        {
          "details": "The `account` is missing a role."
        }
      ],
      "ERC1155InsufficientBalance(address,uint256,uint256,uint256)": [
        {
          "details": "Indicates an error related to the current `balance` of a `sender`. Used in transfers.",
          "params": {
            "balance": "Current balance for the interacting account.",
            "needed": "Minimum amount required to perform a transfer.",
            "sender": "Address whose tokens are being transferred.",
            "tokenId": "Identifier number of a token."
          }
        }
      ],
      "ERC1155InvalidApprover(address)": [
        {
          "details": "Indicates a failure with the `approver` of a token to be approved. Used in approvals.",
          "params": {
            "approver": "Address initiating an approval operation."
          }
        }
      ],
      "ERC1155InvalidArrayLength(uint256,uint256)": [
        {
          "details": "Indicates an array length mismatch between ids and values in a safeBatchTransferFrom operation. Used in batch transfers.",
          "params": {
            "idsLength": "Length of the array of token identifiers",
            "valuesLength": "Length of the array of token amounts"
          }
        }
      ],
      "ERC1155InvalidOperator(address)": [
        {
          "details": "Indicates a failure with the `operator` to be approved. Used in approvals.",
          "params": {
            "operator": "Address that may be allowed to operate on tokens without being their owner."
          }
        }
      ],
      "ERC1155InvalidReceiver(address)": [
        {
          "details": "Indicates a failure with the token `receiver`. Used in transfers.",
          "params": {
            "receiver": "Address to which tokens are being transferred."
          }
        }
      ],
      "ERC1155InvalidSender(address)": [
        {
          "details": "Indicates a failure with the token `sender`. Used in transfers.",
          "params": {
            "sender": "Address whose tokens are being transferred."
          }
        }
      ],
      "ERC1155MissingApprovalForAll(address,address)": [
        {
          "details": "Indicates a failure with the `operator`s approval. Used in transfers.",
          "params": {
            "operator": "Address that may be allowed to operate on tokens without being their owner.",
            "owner": "Address of the current owner of a token."
          }
        }
      ]
    },
    "events": {
      "ApprovalForAll(address,address,bool)": {
        "details": "Emitted when `account` grants or revokes permission to `operator` to transfer their tokens, according to `approved`."
      },
      "RoleAdminChanged(bytes32,bytes32,bytes32)": {
        "details": "Emitted when `newAdminRole` is set as ``role``'s admin role, replacing `previousAdminRole` `DEFAULT_ADMIN_ROLE` is the starting admin for all roles, despite {RoleAdminChanged} not being emitted signaling this."
      },
      "RoleGranted(bytes32,address,address)": {
        "details": "Emitted when `account` is granted `role`. `sender` is the account that originated the contract call. This account bears the admin role (for the granted role). Expected in cases where the role was granted using the internal {AccessControl-_grantRole}."
      },
      "RoleRevoked(bytes32,address,address)": {
        "details": "Emitted when `account` is revoked `role`. `sender` is the account that originated the contract call:   - if using `revokeRole`, it is the admin role bearer   - if using `renounceRole`, it is the role bearer (i.e. `account`)"
      },
      "TransferBatch(address,address,address,uint256[],uint256[])": {
        "details": "Equivalent to multiple {TransferSingle} events, where `operator`, `from` and `to` are the same for all transfers."
      },
      "TransferSingle(address,address,address,uint256,uint256)": {
        "details": "Emitted when `value` amount of tokens of type `id` are transferred from `from` to `to` by `operator`."
      },
      "URI(string,uint256)": {
        "details": "Emitted when the URI for token type `id` changes to `value`, if it is a non-programmatic URI. If an {URI} event was emitted for `id`, the standard https://eips.ethereum.org/EIPS/eip-1155#metadata-extensions[guarantees] that `value` will equal the value returned by {IERC1155MetadataURI-uri}."
      }
    },
    "kind": "dev",
    "methods": {
      "balanceOf(address,uint256)": {
        "details": "See {IERC1155-balanceOf}."
      },
      "balanceOfBatch(address[],uint256[])": {
        "details": "See {IERC1155-balanceOfBatch}. Requirements: - `accounts` and `ids` must have the same length."
      },
      "exists(uint256)": {
        "details": "Indicates whether any token exist with a given id, or not."
      },
      "getRoleAdmin(bytes32)": {
        "details": "Returns the admin role that controls `role`. See {grantRole} and {revokeRole}. To change a role's admin, use {_setRoleAdmin}."
      },
      "grantRole(bytes32,address)": {
        "details": "Grants `role` to `account`. If `account` had not been already granted `role`, emits a {RoleGranted} event. Requirements: - the caller must have ``role``'s admin role. May emit a {RoleGranted} event."
      },
      "hasRole(bytes32,address)": {
        "details": "Returns `true` if `account` has been granted `role`."
      },
      "isApprovedForAll(address,address)": {
        "details": "See {IERC1155-isApprovedForAll}."
      },
      "renounceRole(bytes32,address)": {
        "details": "Revokes `role` from the calling account. Roles are often managed via {grantRole} and {revokeRole}: this function's purpose is to provide a mechanism for accounts to lose their privileges if they are compromised (such as when a trusted device is misplaced). If the calling account had been revoked `role`, emits a {RoleRevoked} event. Requirements: - the caller must be `callerConfirmation`. May emit a {RoleRevoked} event."
      },
      "revokeRole(bytes32,address)": {
        "details": "Revokes `role` from `account`. If `account` had been granted `role`, emits a {RoleRevoked} event. Requirements: - the caller must have ``role``'s admin role. May emit a {RoleRevoked} event."
      },
      "safeBatchTransferFrom(address,address,uint256[],uint256[],bytes)": {
        "details": "See {IERC1155-safeBatchTransferFrom}."
      },
      "safeTransferFrom(address,address,uint256,uint256,bytes)": {
        "details": "See {IERC1155-safeTransferFrom}."
      },
      "setApprovalForAll(address,bool)": {
        "details": "See {IERC1155-setApprovalForAll}."
      },
      "totalSupply()": {
        "details": "Total value of tokens."
      },
      "totalSupply(uint256)": {
        "details": "Total value of tokens in with a given id."
      },
      "uri(uint256)": {
        "details": "See {IERC1155MetadataURI-uri}. This implementation returns the same URI for *all* token types. It relies on the token type ID substitution mechanism https://eips.ethereum.org/EIPS/eip-1155#metadata[defined in the ERC]. Clients calling this function must replace the `\\{id\\}` substring with the actual token type ID."
      }
    },
    "version": 1
  },
  "userdoc": {
    "kind": "user",
    "methods": {},
    "version": 1
  }
}