{
  "contractName": "Ticket_NFT",
  "abi": [
    {
      "inputs": [
        {
          "internalType": "string",
          "name": "_organization_name",
          "type": "string"
        },
        {
          "internalType": "address",
          "name": "_organizer",
          "type": "address"
        }
      ],
      "stateMutability": "nonpayable",
      "type": "constructor"
    },
    {
      "inputs": [],
      "name": "AccessControlBadConfirmation",
      "type": "error"
    },
    {
      "inputs": [
        {
          "internalType": "address",
          "name": "account",
          "type": "address"
        },
        {
          "internalType": "bytes32",
          "name": "neededRole",
          "type": "bytes32"
        }
      ],
      "name": "AccessControlUnauthorizedAccount",
      "type": "error"
    },
    {
      "inputs": [
        {
          "internalType": "address",
          "name": "sender",
          "type": "address"
        },
        {
          "internalType": "uint256",
          "name": "balance",
          "type": "uint256"
        },
        {
          "internalType": "uint256",
          "name": "needed",
          "type": "uint256"
        },
        {
          "internalType": "uint256",
          "name": "tokenId",
          "type": "uint256"
        }
      ],
      "name": "ERC1155InsufficientBalance",
      "type": "error"
    },
    {
      "inputs": [
        {
          "internalType": "address",
          "name": "approver",
          "type": "address"
        }
      ],
      "name": "ERC1155InvalidApprover",
      "type": "error"
    },
    {
      "inputs": [
        {
          "internalType": "uint256",
          "name": "idsLength",
          "type": "uint256"
        },
        {
          "internalType": "uint256",
          "name": "valuesLength",
          "type": "uint256"
        }
      ],
      "name": "ERC1155InvalidArrayLength",
      "type": "error"
    },
    {
      "inputs": [
        {
          "internalType": "address",
          "name": "operator",
          "type": "address"
        }
      ],
      "name": "ERC1155InvalidOperator",
      "type": "error"
    },
    {
      "inputs": [
        {
          "internalType": "address",
          "name": "receiver",
          "type": "address"
        }
      ],
      "name": "ERC1155InvalidReceiver",
      "type": "error"
    },
    {
      "inputs": [
        {
          "internalType": "address",
          "name": "sender",
          "type": "address"
        }
      ],
      "name": "ERC1155InvalidSender",
      "type": "error"
    },
    {
      "inputs": [
        {
          "internalType": "address",
          "name": "operator",
          "type": "address"
        },
        {
          "internalType": "address",
          "name": "owner",
          "type": "address"
        }
      ],
      "name": "ERC1155MissingApprovalForAll",
      "type": "error"
    },
    {
      "anonymous": false,
      "inputs": [
        {
          "indexed": true,
          "internalType": "address",
          "name": "account",
          "type": "address"
        },
        {
          "indexed": true,
          "internalType": "address",
          "name": "operator",
          "type": "address"
        },
        {
          "indexed": false,
          "internalType": "bool",
          "name": "approved",
          "type": "bool"
        }
      ],
      "name": "ApprovalForAll",
      "type": "event"
    },
    {
      "anonymous": false,
      "inputs": [
        {
          "indexed": true,
          "internalType": "bytes32",
          "name": "role",
          "type": "bytes32"
        },
        {
          "indexed": true,
          "internalType": "bytes32",
          "name": "previousAdminRole",
          "type": "bytes32"
        },
        {
          "indexed": true,
          "internalType": "bytes32",
          "name": "newAdminRole",
          "type": "bytes32"
        }
      ],
      "name": "RoleAdminChanged",
      "type": "event"
    },
    {
      "anonymous": false,
      "inputs": [
        {
          "indexed": true,
          "internalType": "bytes32",
          "name": "role",
          "type": "bytes32"
        },
        {
          "indexed": true,
          "internalType": "address",
          "name": "account",
          "type": "address"
        },
        {
          "indexed": true,
          "internalType": "address",
          "name": "sender",
          "type": "address"
        }
      ],
      "name": "RoleGranted",
      "type": "event"
    },
    {
      "anonymous": false,
      "inputs": [
        {
          "indexed": true,
          "internalType": "bytes32",
          "name": "role",
          "type": "bytes32"
        },
        {
          "indexed": true,
          "internalType": "address",
          "name": "account",
          "type": "address"
        },
        {
          "indexed": true,
          "internalType": "address",
          "name": "sender",
          "type": "address"
        }
      ],
      "name": "RoleRevoked",
      "type": "event"
    },
    {
      "anonymous": false,
      "inputs": [
        {
          "indexed": true,
          "internalType": "address",
          "name": "operator",
          "type": "address"
        },
        {
          "indexed": true,
          "internalType": "address",
          "name": "from",
          "type": "address"
        },
        {
          "indexed": true,
          "internalType": "address",
          "name": "to",
          "type": "address"
        },
        {
          "indexed": false,
          "internalType": "uint256[]",
          "name": "ids",
          "type": "uint256[]"
        },
        {
          "indexed": false,
          "internalType": "uint256[]",
          "name": "values",
          "type": "uint256[]"
        }
      ],
      "name": "TransferBatch",
      "type": "event"
    },
    {
      "anonymous": false,
      "inputs": [
        {
          "indexed": true,
          "internalType": "address",
          "name": "operator",
          "type": "address"
        },
        {
          "indexed": true,
          "internalType": "address",
          "name": "from",
          "type": "address"
        },
        {
          "indexed": true,
          "internalType": "address",
          "name": "to",
          "type": "address"
        },
        {
          "indexed": false,
          "internalType": "uint256",
          "name": "id",
          "type": "uint256"
        },
        {
          "indexed": false,
          "internalType": "uint256",
          "name": "value",
          "type": "uint256"
        }
      ],
      "name": "TransferSingle",
      "type": "event"
    },
    {
      "anonymous": false,
      "inputs": [
        {
          "indexed": false,
          "internalType": "string",
          "name": "value",
          "type": "string"
        },
        {
          "indexed": true,
          "internalType": "uint256",
          "name": "id",
          "type": "uint256"
        }
      ],
      "name": "URI",
      "type": "event"
    },
    {
      "inputs": [],
      "name": "ADMIN_ROLE",
      "outputs": [
        {
          "internalType": "bytes32",
          "name": "",
          "type": "bytes32"
        }
      ],
      "stateMutability": "view",
      "type": "function",
      "constant": true
    },
    {
      "inputs": [],
      "name": "DEFAULT_ADMIN_ROLE",
      "outputs": [
        {
          "internalType": "bytes32",
          "name": "",
          "type": "bytes32"
        }
      ],
      "stateMutability": "view",
      "type": "function",
      "constant": true
    },
    {
      "inputs": [],
      "name": "ORGANIZER_ROLE",
      "outputs": [
        {
          "internalType": "bytes32",
          "name": "",
          "type": "bytes32"
        }
      ],
      "stateMutability": "view",
      "type": "function",
      "constant": true
    },
    {
      "inputs": [
        {
          "internalType": "address",
          "name": "account",
          "type": "address"
        },
        {
          "internalType": "uint256",
          "name": "id",
          "type": "uint256"
        }
      ],
      "name": "balanceOf",
      "outputs": [
        {
          "internalType": "uint256",
          "name": "",
          "type": "uint256"
        }
      ],
      "stateMutability": "view",
      "type": "function",
      "constant": true
    },
    {
      "inputs": [
        {
          "internalType": "address[]",
          "name": "accounts",
          "type": "address[]"
        },
        {
          "internalType": "uint256[]",
          "name": "ids",
          "type": "uint256[]"
        }
      ],
      "name": "balanceOfBatch",
      "outputs": [
        {
          "internalType": "uint256[]",
          "name": "",
          "type": "uint256[]"
        }
      ],
      "stateMutability": "view",
      "type": "function",
      "constant": true
    },
    {
      "inputs": [],
      "name": "eventCount",
      "outputs": [
        {
          "internalType": "uint256",
          "name": "",
          "type": "uint256"
        }
      ],
      "stateMutability": "view",
      "type": "function",
      "constant": true
    },
    {
      "inputs": [
        {
          "internalType": "uint256",
          "name": "",
          "type": "uint256"
        }
      ],
      "name": "events",
      "outputs": [
        {
          "internalType": "uint256",
          "name": "id",
          "type": "uint256"
        },
        {
          "internalType": "string",
          "name": "name",
          "type": "string"
        },
        {
          "internalType": "uint256",
          "name": "time",
          "type": "uint256"
        },
        {
          "internalType": "uint256",
          "name": "sectorCount",
          "type": "uint256"
        }
      ],
      "stateMutability": "view",
      "type": "function",
      "constant": true
    },
    {
      "inputs": [
        {
          "internalType": "uint256",
          "name": "id",
          "type": "uint256"
        }
      ],
      "name": "exists",
      "outputs": [
        {
          "internalType": "bool",
          "name": "",
          "type": "bool"
        }
      ],
      "stateMutability": "view",
      "type": "function",
      "constant": true
    },
    {
      "inputs": [
        {
          "internalType": "bytes32",
          "name": "role",
          "type": "bytes32"
        }
      ],
      "name": "getRoleAdmin",
      "outputs": [
        {
          "internalType": "bytes32",
          "name": "",
          "type": "bytes32"
        }
      ],
      "stateMutability": "view",
      "type": "function",
      "constant": true
    },
    {
      "inputs": [
        {
          "internalType": "bytes32",
          "name": "role",
          "type": "bytes32"
        },
        {
          "internalType": "address",
          "name": "account",
          "type": "address"
        }
      ],
      "name": "grantRole",
      "outputs": [],
      "stateMutability": "nonpayable",
      "type": "function"
    },
    {
      "inputs": [],
      "name": "groupCount",
      "outputs": [
        {
          "internalType": "uint256",
          "name": "",
          "type": "uint256"
        }
      ],
      "stateMutability": "view",
      "type": "function",
      "constant": true
    },
    {
      "inputs": [
        {
          "internalType": "uint256",
          "name": "",
          "type": "uint256"
        },
        {
          "internalType": "uint256",
          "name": "",
          "type": "uint256"
        }
      ],
      "name": "groups",
      "outputs": [
        {
          "internalType": "uint256",
          "name": "",
          "type": "uint256"
        }
      ],
      "stateMutability": "view",
      "type": "function",
      "constant": true
    },
    {
      "inputs": [
        {
          "internalType": "bytes32",
          "name": "role",
          "type": "bytes32"
        },
        {
          "internalType": "address",
          "name": "account",
          "type": "address"
        }
      ],
      "name": "hasRole",
      "outputs": [
        {
          "internalType": "bool",
          "name": "",
          "type": "bool"
        }
      ],
      "stateMutability": "view",
      "type": "function",
      "constant": true
    },
    {
      "inputs": [
        {
          "internalType": "address",
          "name": "account",
          "type": "address"
        },
        {
          "internalType": "address",
          "name": "operator",
          "type": "address"
        }
      ],
      "name": "isApprovedForAll",
      "outputs": [
        {
          "internalType": "bool",
          "name": "",
          "type": "bool"
        }
      ],
      "stateMutability": "view",
      "type": "function",
      "constant": true
    },
    {
      "inputs": [],
      "name": "organization_name",
      "outputs": [
        {
          "internalType": "string",
          "name": "",
          "type": "string"
        }
      ],
      "stateMutability": "view",
      "type": "function",
      "constant": true
    },
    {
      "inputs": [
        {
          "internalType": "bytes32",
          "name": "role",
          "type": "bytes32"
        },
        {
          "internalType": "address",
          "name": "callerConfirmation",
          "type": "address"
        }
      ],
      "name": "renounceRole",
      "outputs": [],
      "stateMutability": "nonpayable",
      "type": "function"
    },
    {
      "inputs": [
        {
          "internalType": "bytes32",
          "name": "role",
          "type": "bytes32"
        },
        {
          "internalType": "address",
          "name": "account",
          "type": "address"
        }
      ],
      "name": "revokeRole",
      "outputs": [],
      "stateMutability": "nonpayable",
      "type": "function"
    },
    {
      "inputs": [
        {
          "internalType": "address",
          "name": "from",
          "type": "address"
        },
        {
          "internalType": "address",
          "name": "to",
          "type": "address"
        },
        {
          "internalType": "uint256[]",
          "name": "ids",
          "type": "uint256[]"
        },
        {
          "internalType": "uint256[]",
          "name": "values",
          "type": "uint256[]"
        },
        {
          "internalType": "bytes",
          "name": "data",
          "type": "bytes"
        }
      ],
      "name": "safeBatchTransferFrom",
      "outputs": [],
      "stateMutability": "nonpayable",
      "type": "function"
    },
    {
      "inputs": [
        {
          "internalType": "address",
          "name": "from",
          "type": "address"
        },
        {
          "internalType": "address",
          "name": "to",
          "type": "address"
        },
        {
          "internalType": "uint256",
          "name": "id",
          "type": "uint256"
        },
        {
          "internalType": "uint256",
          "name": "value",
          "type": "uint256"
        },
        {
          "internalType": "bytes",
          "name": "data",
          "type": "bytes"
        }
      ],
      "name": "safeTransferFrom",
      "outputs": [],
      "stateMutability": "nonpayable",
      "type": "function"
    },
    {
      "inputs": [
        {
          "internalType": "address",
          "name": "operator",
          "type": "address"
        },
        {
          "internalType": "bool",
          "name": "approved",
          "type": "bool"
        }
      ],
      "name": "setApprovalForAll",
      "outputs": [],
      "stateMutability": "nonpayable",
      "type": "function"
    },
    {
      "inputs": [],
      "name": "ticketCount",
      "outputs": [
        {
          "internalType": "uint256",
          "name": "",
          "type": "uint256"
        }
      ],
      "stateMutability": "view",
      "type": "function",
      "constant": true
    },
    {
      "inputs": [
        {
          "internalType": "uint256",
          "name": "",
          "type": "uint256"
        }
      ],
      "name": "tickets",
      "outputs": [
        {
          "internalType": "uint256",
          "name": "id",
          "type": "uint256"
        },
        {
          "internalType": "uint256",
          "name": "eventId",
          "type": "uint256"
        },
        {
          "internalType": "uint256",
          "name": "sectorId",
          "type": "uint256"
        },
        {
          "internalType": "uint256",
          "name": "groupId",
          "type": "uint256"
        },
        {
          "internalType": "uint256",
          "name": "originalPrice",
          "type": "uint256"
        },
        {
          "internalType": "enum Ticket_NFT.TicketStatus",
          "name": "status",
          "type": "uint8"
        },
        {
          "internalType": "string",
          "name": "seat",
          "type": "string"
        },
        {
          "internalType": "bytes32",
          "name": "hashName",
          "type": "bytes32"
        }
      ],
      "stateMutability": "view",
      "type": "function",
      "constant": true
    },
    {
      "inputs": [],
      "name": "totalSupply",
      "outputs": [
        {
          "internalType": "uint256",
          "name": "",
          "type": "uint256"
        }
      ],
      "stateMutability": "view",
      "type": "function",
      "constant": true
    },
    {
      "inputs": [
        {
          "internalType": "uint256",
          "name": "id",
          "type": "uint256"
        }
      ],
      "name": "totalSupply",
      "outputs": [
        {
          "internalType": "uint256",
          "name": "",
          "type": "uint256"
        }
      ],
      "stateMutability": "view",
      "type": "function",
      "constant": true
    },
    {
      "inputs": [
        {
          "internalType": "uint256",
          "name": "",
          "type": "uint256"
        }
      ],
      "name": "uri",
      "outputs": [
        {
          "internalType": "string",
          "name": "",
          "type": "string"
        }
      ],
      "stateMutability": "view",
      "type": "function",
      "constant": true
    },
    {
      "inputs": [
        {
          "internalType": "address",
          "name": "_organizer",
          "type": "address"
        }
      ],
      "name": "addOrganizer",
      "outputs": [],
      "stateMutability": "nonpayable",
      "type": "function"
    },
    {
      "inputs": [
        {
          "internalType": "address",
          "name": "_organizer",
          "type": "address"
        }
      ],
      "name": "removeOrganizer",
      "outputs": [],
      "stateMutability": "nonpayable",
      "type": "function"
    },
    {
      "inputs": [
        {
          "internalType": "string",
          "name": "_name",
          "type": "string"
        },
        {
          "internalType": "uint256",
          "name": "_time",
          "type": "uint256"
        }
      ],
      "name": "createEvent",
      "outputs": [],
      "stateMutability": "nonpayable",
      "type": "function"
    },
    {
      "inputs": [
        {
          "internalType": "uint256",
          "name": "_eventId",
          "type": "uint256"
        },
        {
          "internalType": "string",
          "name": "_name",
          "type": "string"
        },
        {
          "internalType": "uint256",
          "name": "_totalSeats",
          "type": "uint256"
        },
        {
          "internalType": "uint256",
          "name": "_seat_x_lines",
          "type": "uint256"
        }
      ],
      "name": "createSector",
      "outputs": [],
      "stateMutability": "nonpayable",
      "type": "function"
    },
    {
      "inputs": [
        {
          "internalType": "uint256",
          "name": "_eventId",
          "type": "uint256"
        },
        {
          "internalType": "uint256",
          "name": "_sectorId",
          "type": "uint256"
        },
        {
          "internalType": "uint256",
          "name": "_originalPrice",
          "type": "uint256"
        }
      ],
      "name": "createTicket",
      "outputs": [],
      "stateMutability": "nonpayable",
      "type": "function"
    },
    {
      "inputs": [
        {
          "internalType": "string",
          "name": "str",
          "type": "string"
        },
        {
          "internalType": "uint256",
          "name": "num",
          "type": "uint256"
        }
      ],
      "name": "generateHash",
      "outputs": [
        {
          "internalType": "bytes32",
          "name": "",
          "type": "bytes32"
        }
      ],
      "stateMutability": "pure",
      "type": "function",
      "constant": true
    },
    {
      "inputs": [
        {
          "internalType": "uint256",
          "name": "ticketId",
          "type": "uint256"
        }
      ],
      "name": "createGroup",
      "outputs": [],
      "stateMutability": "nonpayable",
      "type": "function"
    },
    {
      "inputs": [
        {
          "internalType": "uint256",
          "name": "groupId",
          "type": "uint256"
        },
        {
          "internalType": "uint256",
          "name": "ticketId",
          "type": "uint256"
        }
      ],
      "name": "addParticipant",
      "outputs": [],
      "stateMutability": "nonpayable",
      "type": "function"
    },
    {
      "inputs": [
        {
          "internalType": "uint256",
          "name": "groupId",
          "type": "uint256"
        },
        {
          "internalType": "uint256",
          "name": "ticketId",
          "type": "uint256"
        }
      ],
      "name": "removeParticipant",
      "outputs": [],
      "stateMutability": "nonpayable",
      "type": "function"
    },
    {
      "inputs": [
        {
          "internalType": "uint256",
          "name": "ticketId",
          "type": "uint256"
        },
        {
          "internalType": "string",
          "name": "name",
          "type": "string"
        },
        {
          "internalType": "string",
          "name": "surname",
          "type": "string"
        }
      ],
      "name": "setOwnerName",
      "outputs": [],
      "stateMutability": "nonpayable",
      "type": "function"
    },
    {
      "inputs": [
        {
          "internalType": "uint256",
          "name": "ticketId",
          "type": "uint256"
        },
        {
          "internalType": "string",
          "name": "name",
          "type": "string"
        },
        {
          "internalType": "string",
          "name": "surname",
          "type": "string"
        }
      ],
      "name": "validateTicket",
      "outputs": [],
      "stateMutability": "nonpayable",
      "type": "function"
    },
    {
      "inputs": [
        {
          "internalType": "uint256",
          "name": "ticketId",
          "type": "uint256"
        },
        {
          "internalType": "enum Ticket_NFT.TicketStatus",
          "name": "newStatus",
          "type": "uint8"
        }
      ],
      "name": "updateTicketStatus",
      "outputs": [],
      "stateMutability": "nonpayable",
      "type": "function"
    },
    {
      "inputs": [
        {
          "internalType": "uint256",
          "name": "_eventId",
          "type": "uint256"
        }
      ],
      "name": "expireTickets",
      "outputs": [],
      "stateMutability": "nonpayable",
      "type": "function"
    },
    {
      "inputs": [
        {
          "internalType": "uint256",
          "name": "_eventId",
          "type": "uint256"
        }
      ],
      "name": "getEvent",
      "outputs": [
        {
          "internalType": "uint256",
          "name": "id",
          "type": "uint256"
        },
        {
          "internalType": "string",
          "name": "name",
          "type": "string"
        },
        {
          "internalType": "uint256",
          "name": "time",
          "type": "uint256"
        },
        {
          "internalType": "uint256",
          "name": "sectorCount",
          "type": "uint256"
        }
      ],
      "stateMutability": "view",
      "type": "function",
      "constant": true
    },
    {
      "inputs": [
        {
          "internalType": "uint256",
          "name": "_start",
          "type": "uint256"
        },
        {
          "internalType": "uint256",
          "name": "_end",
          "type": "uint256"
        }
      ],
      "name": "getTickets",
      "outputs": [
        {
          "components": [
            {
              "internalType": "uint256",
              "name": "id",
              "type": "uint256"
            },
            {
              "internalType": "uint256",
              "name": "eventId",
              "type": "uint256"
            },
            {
              "internalType": "uint256",
              "name": "sectorId",
              "type": "uint256"
            },
            {
              "internalType": "uint256",
              "name": "groupId",
              "type": "uint256"
            },
            {
              "internalType": "uint256",
              "name": "originalPrice",
              "type": "uint256"
            },
            {
              "internalType": "enum Ticket_NFT.TicketStatus",
              "name": "status",
              "type": "uint8"
            },
            {
              "internalType": "string",
              "name": "seat",
              "type": "string"
            },
            {
              "internalType": "bytes32",
              "name": "hashName",
              "type": "bytes32"
            }
          ],
          "internalType": "struct Ticket_NFT.Ticket[]",
          "name": "",
          "type": "tuple[]"
        }
      ],
      "stateMutability": "view",
      "type": "function",
      "constant": true
    },
    {
      "inputs": [
        {
          "internalType": "uint256",
          "name": "_eventId",
          "type": "uint256"
        },
        {
          "internalType": "uint256",
          "name": "_sectorId",
          "type": "uint256"
        }
      ],
      "name": "getSector",
      "outputs": [
        {
          "internalType": "uint256",
          "name": "id",
          "type": "uint256"
        },
        {
          "internalType": "string",
          "name": "name",
          "type": "string"
        },
        {
          "internalType": "uint256",
          "name": "totalSeats",
          "type": "uint256"
        },
        {
          "internalType": "uint256",
          "name": "availableSeats",
          "type": "uint256"
        },
        {
          "internalType": "uint256[]",
          "name": "ticketIds",
          "type": "uint256[]"
        },
        {
          "internalType": "uint256[]",
          "name": "associatedGroupIds",
          "type": "uint256[]"
        }
      ],
      "stateMutability": "view",
      "type": "function",
      "constant": true
    },
    {
      "inputs": [
        {
          "internalType": "uint256",
          "name": "ticketId",
          "type": "uint256"
        }
      ],
      "name": "getTicket",
      "outputs": [
        {
          "internalType": "uint256",
          "name": "id",
          "type": "uint256"
        },
        {
          "internalType": "uint256",
          "name": "eventId",
          "type": "uint256"
        },
        {
          "internalType": "uint256",
          "name": "sectorId",
          "type": "uint256"
        },
        {
          "internalType": "uint256",
          "name": "groupId",
          "type": "uint256"
        },
        {
          "internalType": "uint256",
          "name": "originalPrice",
          "type": "uint256"
        },
        {
          "internalType": "enum Ticket_NFT.TicketStatus",
          "name": "status",
          "type": "uint8"
        },
        {
          "internalType": "string",
          "name": "seat",
          "type": "string"
        },
        {
          "internalType": "bytes32",
          "name": "hashName",
          "type": "bytes32"
        }
      ],
      "stateMutability": "view",
      "type": "function",
      "constant": true
    },
    {
      "inputs": [
        {
          "internalType": "uint256[]",
          "name": "ticket_ids",
          "type": "uint256[]"
        },
        {
          "internalType": "string[]",
          "name": "seats",
          "type": "string[]"
        }
      ],
      "name": "assignSeats",
      "outputs": [],
      "stateMutability": "nonpayable",
      "type": "function"
    },
    {
      "inputs": [
        {
          "internalType": "uint256",
          "name": "groupId",
          "type": "uint256"
        }
      ],
      "name": "getGroupTickets",
      "outputs": [
        {
          "internalType": "uint256[]",
          "name": "",
          "type": "uint256[]"
        }
      ],
      "stateMutability": "view",
      "type": "function",
      "constant": true
    },
    {
      "inputs": [
        {
          "internalType": "uint256",
          "name": "ticketId",
          "type": "uint256"
        }
      ],
      "name": "isTicketInGroup",
      "outputs": [
        {
          "internalType": "bool",
          "name": "",
          "type": "bool"
        }
      ],
      "stateMutability": "view",
      "type": "function",
      "constant": true
    },
    {
      "inputs": [
        {
          "internalType": "bytes4",
          "name": "_interfaceId",
          "type": "bytes4"
        }
      ],
      "name": "supportsInterface",
      "outputs": [
        {
          "internalType": "bool",
          "name": "",
          "type": "bool"
        }
      ],
      "stateMutability": "view",
      "type": "function",
      "constant": true
    }
  ],
  "bytecode": "0x60806040523480156200001157600080fd5b5060405162003d4838038062003d48833981016040819052620000349162000217565b6040805160208101909152600081526200004e81620000d8565b506200005c600032620000ea565b50620000897f4d2e7a1e3f5dd6e203f087b15756ccf0e4ccd947fe1b639a38540089a1e47f6382620000ea565b50620000a560008051602062003d2883398151915282620000ea565b50620000c160008051602062003d288339815191528062000199565b600c620000cf83826200038e565b5050506200045a565b6003620000e682826200038e565b5050565b6000828152602081815260408083206001600160a01b038516845290915281205460ff166200018f576000838152602081815260408083206001600160a01b03861684529091529020805460ff19166001179055620001463390565b6001600160a01b0316826001600160a01b0316847f2f8788117e7eff1d82e926ec794901d17c78024a50270940304540a733656f0d60405160405180910390a450600162000193565b5060005b92915050565b600082815260208190526040808220600101805490849055905190918391839186917fbd79b86ffe0ab8e8776151514217cd7cacd52c909f66475c3af44e129f0b00ff9190a4505050565b634e487b7160e01b600052604160045260246000fd5b80516001600160a01b03811681146200021257600080fd5b919050565b600080604083850312156200022b57600080fd5b82516001600160401b03808211156200024357600080fd5b818501915085601f8301126200025857600080fd5b8151818111156200026d576200026d620001e4565b604051601f8201601f19908116603f01168101908382118183101715620002985762000298620001e4565b81604052828152602093508884848701011115620002b557600080fd5b600091505b82821015620002d95784820184015181830185015290830190620002ba565b6000848483010152809650505050620002f4818601620001fa565b925050509250929050565b600181811c908216806200031457607f821691505b6020821081036200033557634e487b7160e01b600052602260045260246000fd5b50919050565b601f8211156200038957600081815260208120601f850160051c81016020861015620003645750805b601f850160051c820191505b81811015620003855782815560010162000370565b5050505b505050565b81516001600160401b03811115620003aa57620003aa620001e4565b620003c281620003bb8454620002ff565b846200033b565b602080601f831160018114620003fa5760008415620003e15750858301515b600019600386901b1c1916600185901b17855562000385565b600085815260208120601f198616915b828110156200042b578886015182559484019460019091019084016200040a565b50858210156200044a5787850151600019600388901b60f8161c191681555b5050505050600190811b01905550565b6138be806200046a6000396000f3fe608060405234801561001057600080fd5b50600436106102895760003560e01c806371be2e4a1161015c578063b51aef04116100ce578063db8aa98811610087578063db8aa9881461061d578063e426bfef14610630578063e4725f0214610643578063e985e9c514610656578063f242432a14610669578063f70778fa1461067c57600080fd5b8063b51aef0414610596578063bc79ddcb146105bb578063bd85b039146105ce578063c28aeb77146105ee578063cfbd900f14610601578063d547741f1461060a57600080fd5b80638f23b326116101205780638f23b3261461053957806391d14854146105425780639a4d438514610555578063a217fddf14610568578063a22cb46514610570578063a460b8171461058357600080fd5b806371be2e4a146104bc57806375b238fc146104c55780637909cb59146104ec5780637dc379fa146105015780638be8a7751461051457600080fd5b80632f2ff15d116102005780634e1273f4116101b95780634e1273f41461041a5780634f558e791461043a57806350b447121461045c57806352def1801461048357806365bf60e0146104965780636d1884e0146104a957600080fd5b80632f2ff15d146103b357806336568abe146103c657806344508ad0146103d957806344ade56d146103ec5780634ae855cf146103ff5780634c66a0731461041257600080fd5b80630e89341c116102525780630e89341c1461032257806315e472dd1461034257806318160ddd146103555780631c8096451461035d578063248a9ca31461037d5780632eb2c2d6146103a057600080fd5b8062fdd58e1461028e57806301ffc9a7146102b45780630b791430146102d75780630c08b30d146102fa5780630e5310761461030f575b600080fd5b6102a161029c366004612bc3565b61068f565b6040519081526020015b60405180910390f35b6102c76102c2366004612c03565b6106b9565b60405190151581526020016102ab565b6102ea6102e5366004612c27565b6106c4565b6040516102ab9493929190612c90565b61030d610308366004612dff565b610775565b005b61030d61031d366004612ed3565b610864565b610335610330366004612c27565b6108e2565b6040516102ab9190612f29565b61030d610350366004612f3c565b610976565b6005546102a1565b61037061036b366004612f68565b610b10565b6040516102ab9190612fc2565b6102a161038b366004612c27565b60009081526020819052604090206001015490565b61030d6103ae366004613084565b610d69565b61030d6103c136600461312d565b610dd0565b61030d6103d436600461312d565b610df5565b61030d6103e7366004612f68565b610e2d565b61030d6103fa366004613159565b6110d3565b6102a161040d366004612f68565b611119565b61033561114a565b61042d610428366004613174565b6111d8565b6040516102ab919061326e565b6102c7610448366004612c27565b600090815260046020526040902054151590565b61046f61046a366004612c27565b6112a4565b6040516102ab989796959493929190613281565b61030d6104913660046132d6565b611375565b61030d6104a4366004612c27565b6114f4565b6102ea6104b7366004612c27565b61156a565b6102a160065481565b6102a17fa49807205ce4d355092ef5a8a18f56e8913cf4a201fbe287825b095693c2177581565b6102a160008051602061386983398151915281565b61046f61050f366004612c27565b611631565b610527610522366004612f68565b611730565b6040516102ab96959493929190613342565b6102a160085481565b6102c761055036600461312d565b6119cd565b61030d61056336600461339a565b6119f6565b6102a1600081565b61030d61057e3660046133de565b611a5a565b61030d61059136600461341a565b611a65565b6102c76105a4366004612c27565b6000908152600a6020526040902060030154151590565b61042d6105c9366004612c27565b611b55565b6102a16105dc366004612c27565b60009081526004602052604090205490565b61030d6105fc3660046132d6565b611bb6565b6102a160075481565b61030d61061836600461312d565b611c25565b6102a161062b36600461339a565b611c4a565b61030d61063e366004612c27565b611c7d565b61030d610651366004613159565b611d88565b6102c7610664366004613443565b611dca565b61030d61067736600461346d565b611df8565b61030d61068a366004612f68565b611e57565b60008181526001602090815260408083206001600160a01b03861684529091529020545b92915050565b60006106b38261223a565b600960205260009081526040902080546001820180549192916106e6906134d1565b80601f0160208091040260200160405190810160405280929190818152602001828054610712906134d1565b801561075f5780601f106107345761010080835404028352916020019161075f565b820191906000526020600020905b81548152906001019060200180831161074257829003601f168201915b5050505050908060020154908060040154905084565b60008051602061386983398151915261078d8161227a565b81518351146107e35760405162461bcd60e51b815260206004820152601760248201527f4d69736d61746368656420696e7075742061727261797300000000000000000060448201526064015b60405180910390fd5b60005b835181101561085e576000600a60008684815181106108075761080761350b565b6020026020010151815260200190815260200160002090508382815181106108315761083161350b565b60200260200101518160060190816108499190613567565b505080806108569061363c565b9150506107e6565b50505050565b60008051602061386983398151915261087c8161227a565b6000858152600960205260408120600481018054919261089b8361363c565b9091555050600481015460008181526003830160205260409020908155600181016108c68782613567565b5060028101859055600381019490945550506004909101555050565b6060600380546108f1906134d1565b80601f016020809104026020016040519081016040528092919081815260200182805461091d906134d1565b801561096a5780601f1061093f5761010080835404028352916020019161096a565b820191906000526020600020905b81548152906001019060200180831161094d57829003601f168201915b50505050509050919050565b60008051602061386983398151915261098e8161227a565b60008481526009602090815260408083208684526003908101909252909120908101546109ed5760405162461bcd60e51b815260206004820152600d60248201526c139bc81cd9585d1cc81b19599d609a1b60448201526064016107da565b600780549060006109fd8361363c565b90915550506007546000818152600a60205260409020818155600181018790556002810186905560058101805460ff1916905560048101859055600c8054610acd9190610a49906134d1565b80601f0160208091040260200160405190810160405280929190818152602001828054610a75906134d1565b8015610ac25780601f10610a9757610100808354040283529160200191610ac2565b820191906000526020600020905b815481529060010190602001808311610aa557829003601f168201915b505050505083611c4a565b6007820155600383018054906000610ae483613655565b9190505550610b0733600754600160405180602001604052806000815250612287565b50505050505050565b6060600754821115610b525760405162461bcd60e51b815260206004820152600b60248201526a125b9d985b1a5908195b9960aa1b60448201526064016107da565b82821015610b975760405162461bcd60e51b8152602060048201526012602482015271496e76616c696420706172616d657465727360701b60448201526064016107da565b6000610ba3848461366c565b6001600160401b03811115610bba57610bba612cbc565b604051908082528060200260200182016040528015610bf357816020015b610be0612b51565b815260200190600190039081610bd85790505b509050835b83811015610d6157600a60008281526020019081526020016000206040518061010001604052908160008201548152602001600182015481526020016002820154815260200160038201548152602001600482015481526020016005820160009054906101000a900460ff166003811115610c7557610c75612f8a565b6003811115610c8657610c86612f8a565b8152602001600682018054610c9a906134d1565b80601f0160208091040260200160405190810160405280929190818152602001828054610cc6906134d1565b8015610d135780601f10610ce857610100808354040283529160200191610d13565b820191906000526020600020905b815481529060010190602001808311610cf657829003601f168201915b50505050508152602001600782015481525050828683610d33919061366c565b81518110610d4357610d4361350b565b60200260200101819052508080610d599061363c565b915050610bf8565b509392505050565b336001600160a01b0386168114801590610d8a5750610d888682611dca565b155b15610dbb5760405163711bec9160e11b81526001600160a01b038083166004830152871660248201526044016107da565b610dc886868686866122e4565b505050505050565b600082815260208190526040902060010154610deb8161227a565b61085e838361234b565b6001600160a01b0381163314610e1e5760405163334bd91960e11b815260040160405180910390fd5b610e2882826123dd565b505050565b6000828152600b6020526040902054610e7f5760405162461bcd60e51b8152602060048201526014602482015273496c2067727570706f206e6f6e2065736973746560601b60448201526064016107da565b6000610e8b338361068f565b11610ea85760405162461bcd60e51b81526004016107da9061367f565b6000818152600a60205260409020600301548214610f195760405162461bcd60e51b815260206004820152602860248201527f496c207469636b6574206e6f6e2061707061727469656e6520612071756573746044820152676f2067727570706f60c01b60648201526084016107da565b6000818152600a6020526040812060030181905580805b6000858152600b6020526040902054811015610fde5760408051602081018690520160408051601f1981840301815291815281516020928301206000888152600b9093529120805483908110610f8857610f8861350b565b9060005260206000200154604051602001610fa591815260200190565b6040516020818303038152906040528051906020012003610fcc5780925060019150610fde565b80610fd68161363c565b915050610f30565b508061102c5760405162461bcd60e51b815260206004820152601d60248201527f5469636b6574206e6f6e2074726f7661746f206e656c2067727570706f00000060448201526064016107da565b6000848152600b6020526040902080546110489060019061366c565b815481106110585761105861350b565b9060005260206000200154600b600086815260200190815260200160002083815481106110875761108761350b565b9060005260206000200181905550600b60008581526020019081526020016000208054806110b7576110b76136ad565b6001900381819060005260206000200160009055905550505050565b7fa49807205ce4d355092ef5a8a18f56e8913cf4a201fbe287825b095693c217756110fd8161227a565b61111560008051602061386983398151915283611c25565b5050565b600b602052816000526040600020818154811061113557600080fd5b90600052602060002001600091509150505481565b600c8054611157906134d1565b80601f0160208091040260200160405190810160405280929190818152602001828054611183906134d1565b80156111d05780601f106111a5576101008083540402835291602001916111d0565b820191906000526020600020905b8154815290600101906020018083116111b357829003601f168201915b505050505081565b606081518351146112095781518351604051635b05999160e01b8152600481019290925260248201526044016107da565b600083516001600160401b0381111561122457611224612cbc565b60405190808252806020026020018201604052801561124d578160200160208202803683370190505b50905060005b8451811015610d61576020808202860101516112779060208084028701015161068f565b8282815181106112895761128961350b565b602090810291909101015261129d8161363c565b9050611253565b600a6020526000908152604090208054600182015460028301546003840154600485015460058601546006870180549697959694959394929360ff909216926112ec906134d1565b80601f0160208091040260200160405190810160405280929190818152602001828054611318906134d1565b80156113655780601f1061133a57610100808354040283529160200191611365565b820191906000526020600020905b81548152906001019060200180831161134857829003601f168201915b5050505050908060070154905088565b60008051602061386983398151915261138d8161227a565b6000848152600a602052604090206002600582015460ff1660038111156113b6576113b6612f8a565b036114035760405162461bcd60e51b815260206004820152601860248201527f5469636b657420616c72656164792076616c696461746564000000000000000060448201526064016107da565b6003600582015460ff16600381111561141e5761141e612f8a565b0361145d5760405162461bcd60e51b815260206004820152600f60248201526e5469636b657420657870697265642160881b60448201526064016107da565b600061148a85856040516020016114759291906136c3565b60405160208183030381529060405287611c4a565b9050808260070154146114df5760405162461bcd60e51b815260206004820152601b60248201527f5469636b65742068617320646966666572656e74206f776e657221000000000060448201526064016107da565b50600501805460ff1916600217905550505050565b6000611500338361068f565b1161151d5760405162461bcd60e51b81526004016107da9061367f565b600060086000815461152e9061363c565b91829055506000838152600a60209081526040808320600301849055928252600b81529181208054600181018255908252919020019190915550565b600081815260096020526040812080546002820154600483015460018401805460609587958695919490939283906115a1906134d1565b80601f01602080910402602001604051908101604052809291908181526020018280546115cd906134d1565b801561161a5780601f106115ef5761010080835404028352916020019161161a565b820191906000526020600020905b8154815290600101906020018083116115fd57829003601f168201915b505050505092509450945094509450509193509193565b6000806000806000806060600080600a60008b81526020019081526020016000209050806000015481600101548260020154836003015484600401548560050160009054906101000a900460ff16866006018760070154818054611694906134d1565b80601f01602080910402602001604051908101604052809291908181526020018280546116c0906134d1565b801561170d5780601f106116e25761010080835404028352916020019161170d565b820191906000526020600020905b8154815290600101906020018083116116f057829003601f168201915b505050505091509850985098509850985098509850985050919395975091939597565b60008281526009602090815260408083208484526003019091528120606090829081908390819083805b6007548110156117b9576000818152600a60205260409020600101548b14801561179457506000818152600a60205260409020600201548a145b156117a757816117a38161363c565b9250505b806117b18161363c565b91505061175a565b5060006007546001600160401b038111156117d6576117d6612cbc565b6040519080825280602002602001820160405280156117ff578160200160208202803683370190505b50905060006007546001600160401b0381111561181e5761181e612cbc565b604051908082528060200260200182016040528015611847578160200160208202803683370190505b5090506000805b600754811015611910576000818152600a60205260409020600101548e14801561188857506000818152600a60205260409020600201548d145b156118fe576000818152600a602052604090205484518590849081106118b0576118b061350b565b602002602001018181525050600a6000828152602001908152602001600020600301548383815181106118e5576118e561350b565b6020908102919091010152816118fa8161363c565b9250505b806119088161363c565b91505061184e565b50846000015485600101866002015487600301548686848054611932906134d1565b80601f016020809104026020016040519081016040528092919081815260200182805461195e906134d1565b80156119ab5780601f10611980576101008083540402835291602001916119ab565b820191906000526020600020905b81548152906001019060200180831161198e57829003601f168201915b505050505094509a509a509a509a509a509a5050505050509295509295509295565b6000918252602082815260408084206001600160a01b0393909316845291905290205460ff1690565b600080516020613869833981519152611a0e8161227a565b60068054906000611a1e8361363c565b9091555050600654600081815260096020526040902090815560018101611a458582613567565b50600281019290925550600060049091015550565b611115338383612448565b6000828152600a602052604090206002826003811115611a8757611a87612f8a565b1480611aa457506000826003811115611aa257611aa2612f8a565b145b15611af657611ac1600080516020613869833981519152336119cd565b80611ad557506000611ad3338561068f565b115b611af15760405162461bcd60e51b81526004016107da906136ff565b611b2a565b611b0e600080516020613869833981519152336119cd565b611b2a5760405162461bcd60e51b81526004016107da906136ff565b60058101805483919060ff19166001836003811115611b4b57611b4b612f8a565b0217905550505050565b6000818152600b602090815260409182902080548351818402810184019094528084526060939283018282801561096a57602002820191906000526020600020905b815481526020019060010190808311611b975750505050509050919050565b6000611bc2338561068f565b11611bdf5760405162461bcd60e51b81526004016107da9061367f565b6000838152600a60209081526040918290209151611c1a91611c059186918691016136c3565b60405160208183030381529060405285611c4a565b600790910155505050565b600082815260208190526040902060010154611c408161227a565b61085e83836123dd565b60008282604051602001611c5f929190613745565b60405160208183030381529060405280519060200120905092915050565b600080516020613869833981519152611c958161227a565b600082815260096020526040902060028101544211611cf65760405162461bcd60e51b815260206004820152601a60248201527f4576656e7420686173206e6f7420796574206f6363757272656400000000000060448201526064016107da565b60015b600754811161085e576000818152600a60205260409020600181015485148015611d6057506003600582015460ff166003811115611d3957611d39612f8a565b14158015611d6057506002600582015460ff166003811115611d5d57611d5d612f8a565b14155b15611d755760058101805460ff191660031790555b5080611d808161363c565b915050611cf9565b7fa49807205ce4d355092ef5a8a18f56e8913cf4a201fbe287825b095693c21775611db28161227a565b610e286000805160206138698339815191528361234b565b6001600160a01b03918216600090815260026020908152604080832093909416825291909152205460ff1690565b336001600160a01b0386168114801590611e195750611e178682611dca565b155b15611e4a5760405163711bec9160e11b81526001600160a01b038083166004830152871660248201526044016107da565b610dc886868686866124de565b6000828152600b6020526040902054611eb25760405162461bcd60e51b815260206004820152601860248201527f5468652067726f757020646f6573206e6f74206578697374000000000000000060448201526064016107da565b6000805b6000848152600b6020526040902054811015611f3d576000611f1c33600a6000600b60008a81526020019081526020016000208681548110611efa57611efa61350b565b906000526020600020015481526020019081526020016000206000015461068f565b1115611f2b5760019150611f3d565b80611f358161363c565b915050611eb6565b5080611fa25760405162461bcd60e51b815260206004820152602e60248201527f596f75206d75737420626520612067726f7570206d656d62657220746f20616460448201526d64207061727469636970616e747360901b60648201526084016107da565b60016000838152600a602052604090206005015460ff166003811115611fca57611fca612f8a565b146120175760405162461bcd60e51b815260206004820152601960248201527f546865207469636b6574206973206e6f7420274f776e6564270000000000000060448201526064016107da565b6000828152600a6020526040902060030154156120885760405162461bcd60e51b815260206004820152602960248201527f546865207469636b657420697320616c72656164792061737369676e6564207460448201526806f20612067726f75760bc1b60648201526084016107da565b6000838152600b602052604081208054600a91839182906120ab576120ab61350b565b906000526020600020015481526020019081526020016000206001015490506000600a6000600b60008881526020019081526020016000206000815481106120f5576120f561350b565b9060005260206000200154815260200190815260200160002060020154905081600a6000868152602001908152602001600020600101541461218d5760405162461bcd60e51b815260206004820152602b60248201527f546865207469636b657420646f6573206e6f74206d617463682074686520677260448201526a1bdd5c09dcc8195d995b9d60aa1b60648201526084016107da565b6000848152600a602052604090206002015481146122025760405162461bcd60e51b815260206004820152602c60248201527f546865207469636b657420646f6573206e6f74206d617463682074686520677260448201526b37bab813b99039b2b1ba37b960a11b60648201526084016107da565b5050506000818152600a60209081526040808320600301859055938252600b8152928120805460018101825590825292902090910155565b60006001600160e01b03198216636cdb3d1360e11b148061226b57506001600160e01b031982166303a24d0760e21b145b806106b357506106b382612563565b6122848133612598565b50565b6001600160a01b0384166122b157604051632bfa23e760e11b8152600060048201526024016107da565b60408051600180825260208201869052818301908152606082018590526080820190925290610dc86000878484876125d1565b6001600160a01b03841661230e57604051632bfa23e760e11b8152600060048201526024016107da565b6001600160a01b03851661233757604051626a0d4560e21b8152600060048201526024016107da565b61234485858585856125d1565b5050505050565b600061235783836119cd565b6123d5576000838152602081815260408083206001600160a01b03861684529091529020805460ff1916600117905561238d3390565b6001600160a01b0316826001600160a01b0316847f2f8788117e7eff1d82e926ec794901d17c78024a50270940304540a733656f0d60405160405180910390a45060016106b3565b5060006106b3565b60006123e983836119cd565b156123d5576000838152602081815260408083206001600160a01b0386168085529252808320805460ff1916905551339286917ff6391f5c32d9c69d2a47ea670b442974b53935d1edc7fd64eb21e047a839171b9190a45060016106b3565b6001600160a01b0382166124715760405162ced3e160e81b8152600060048201526024016107da565b6001600160a01b03838116600081815260026020908152604080832094871680845294825291829020805460ff191686151590811790915591519182527f17307eab39ab6107e8899845ad3d59bd9653f200f220920489ca2b5937696c31910160405180910390a3505050565b6001600160a01b03841661250857604051632bfa23e760e11b8152600060048201526024016107da565b6001600160a01b03851661253157604051626a0d4560e21b8152600060048201526024016107da565b60408051600180825260208201869052818301908152606082018590526080820190925290610b0787878484876125d1565b60006001600160e01b03198216637965db0b60e01b14806106b357506301ffc9a760e01b6001600160e01b03198316146106b3565b6125a282826119cd565b6111155760405163e2517d3f60e01b81526001600160a01b0382166004820152602481018390526044016107da565b6125dd85858585612624565b6001600160a01b038416156123445782513390600103612616576020848101519084015161260f838989858589612721565b5050610dc8565b610dc8818787878787612845565b6126308484848461292e565b6001600160a01b0384166126b9576000805b835181101561269f576020818102848101820151908601820151600090815260049092526040822080549192839261267b908490613767565b9091555061268b90508184613767565b925050806126989061363c565b9050612642565b5080600560008282546126b29190613767565b9091555050505b6001600160a01b03831661085e576000805b83518110156127105760208181028481018201519086018201516000908152600490925260409091208054829003905591909101906127098161363c565b90506126cb565b506005805491909103905550505050565b6001600160a01b0384163b15610dc85760405163f23a6e6160e01b81526001600160a01b0385169063f23a6e6190612765908990899088908890889060040161377a565b6020604051808303816000875af19250505080156127a0575060408051601f3d908101601f1916820190925261279d918101906137bf565b60015b612809573d8080156127ce576040519150601f19603f3d011682016040523d82523d6000602084013e6127d3565b606091505b50805160000361280157604051632bfa23e760e11b81526001600160a01b03861660048201526024016107da565b805181602001fd5b6001600160e01b0319811663f23a6e6160e01b14610b0757604051632bfa23e760e11b81526001600160a01b03861660048201526024016107da565b6001600160a01b0384163b15610dc85760405163bc197c8160e01b81526001600160a01b0385169063bc197c819061288990899089908890889088906004016137dc565b6020604051808303816000875af19250505080156128c4575060408051601f3d908101601f191682019092526128c1918101906137bf565b60015b6128f2573d8080156127ce576040519150601f19603f3d011682016040523d82523d6000602084013e6127d3565b6001600160e01b0319811663bc197c8160e01b14610b0757604051632bfa23e760e11b81526001600160a01b03861660048201526024016107da565b805182511461295d5781518151604051635b05999160e01b8152600481019290925260248201526044016107da565b3360005b8351811015612a72576020818102858101820151908501909101516001600160a01b03881615612a185760008281526001602090815260408083206001600160a01b038c168452909152902054818110156129ef576040516303dee4c560e01b81526001600160a01b038a1660048201526024810182905260448101839052606481018490526084016107da565b60008381526001602090815260408083206001600160a01b038d16845290915290209082900390555b6001600160a01b03871615612a5f5760008281526001602090815260408083206001600160a01b038b16845290915281208054839290612a59908490613767565b90915550505b505080612a6b9061363c565b9050612961565b508251600103612af35760208301516000906020840151909150856001600160a01b0316876001600160a01b0316846001600160a01b03167fc3d58168c5ae7397731d063d5bbf3d657854427343f4c083240f7aacaa2d0f628585604051612ae4929190918252602082015260400190565b60405180910390a45050612344565b836001600160a01b0316856001600160a01b0316826001600160a01b03167f4a39dc06d4c0dbc64b70af90fd698a233a518aa5d07e595d983b8c0526c8f7fb8686604051612b4292919061383a565b60405180910390a45050505050565b604051806101000160405280600081526020016000815260200160008152602001600081526020016000815260200160006003811115612b9357612b93612f8a565b815260606020820152600060409091015290565b80356001600160a01b0381168114612bbe57600080fd5b919050565b60008060408385031215612bd657600080fd5b612bdf83612ba7565b946020939093013593505050565b6001600160e01b03198116811461228457600080fd5b600060208284031215612c1557600080fd5b8135612c2081612bed565b9392505050565b600060208284031215612c3957600080fd5b5035919050565b60005b83811015612c5b578181015183820152602001612c43565b50506000910152565b60008151808452612c7c816020860160208601612c40565b601f01601f19169290920160200192915050565b848152608060208201526000612ca96080830186612c64565b6040830194909452506060015292915050565b634e487b7160e01b600052604160045260246000fd5b604051601f8201601f191681016001600160401b0381118282101715612cfa57612cfa612cbc565b604052919050565b60006001600160401b03821115612d1b57612d1b612cbc565b5060051b60200190565b600082601f830112612d3657600080fd5b81356020612d4b612d4683612d02565b612cd2565b82815260059290921b84018101918181019086841115612d6a57600080fd5b8286015b84811015612d855780358352918301918301612d6e565b509695505050505050565b600082601f830112612da157600080fd5b81356001600160401b03811115612dba57612dba612cbc565b612dcd601f8201601f1916602001612cd2565b818152846020838601011115612de257600080fd5b816020850160208301376000918101602001919091529392505050565b60008060408385031215612e1257600080fd5b82356001600160401b0380821115612e2957600080fd5b612e3586838701612d25565b9350602091508185013581811115612e4c57600080fd5b8501601f81018713612e5d57600080fd5b8035612e6b612d4682612d02565b81815260059190911b82018401908481019089831115612e8a57600080fd5b8584015b83811015612ec257803586811115612ea65760008081fd5b612eb48c8983890101612d90565b845250918601918601612e8e565b508096505050505050509250929050565b60008060008060808587031215612ee957600080fd5b8435935060208501356001600160401b03811115612f0657600080fd5b612f1287828801612d90565b949794965050505060408301359260600135919050565b602081526000612c206020830184612c64565b600080600060608486031215612f5157600080fd5b505081359360208301359350604090920135919050565b60008060408385031215612f7b57600080fd5b50508035926020909101359150565b634e487b7160e01b600052602160045260246000fd5b60048110612fbe57634e487b7160e01b600052602160045260246000fd5b9052565b60006020808301818452808551808352604092508286019150828160051b87010184880160005b8381101561307657888303603f1901855281518051845287810151888501528681015187850152606080820151908501526080808201519085015260a080820151610100919061303b82880182612fa0565b505060c080830151828288015261305483880182612c64565b60e0948501519790940196909652505094870194925090860190600101612fe9565b509098975050505050505050565b600080600080600060a0868803121561309c57600080fd5b6130a586612ba7565b94506130b360208701612ba7565b935060408601356001600160401b03808211156130cf57600080fd5b6130db89838a01612d25565b945060608801359150808211156130f157600080fd5b6130fd89838a01612d25565b9350608088013591508082111561311357600080fd5b5061312088828901612d90565b9150509295509295909350565b6000806040838503121561314057600080fd5b8235915061315060208401612ba7565b90509250929050565b60006020828403121561316b57600080fd5b612c2082612ba7565b6000806040838503121561318757600080fd5b82356001600160401b038082111561319e57600080fd5b818501915085601f8301126131b257600080fd5b813560206131c2612d4683612d02565b82815260059290921b840181019181810190898411156131e157600080fd5b948201945b83861015613206576131f786612ba7565b825294820194908201906131e6565b9650508601359250508082111561321c57600080fd5b5061322985828601612d25565b9150509250929050565b600081518084526020808501945080840160005b8381101561326357815187529582019590820190600101613247565b509495945050505050565b602081526000612c206020830184613233565b60006101008a83528960208401528860408401528760608401528660808401526132ae60a0840187612fa0565b8060c08401526132c081840186612c64565b9150508260e08301529998505050505050505050565b6000806000606084860312156132eb57600080fd5b8335925060208401356001600160401b038082111561330957600080fd5b61331587838801612d90565b9350604086013591508082111561332b57600080fd5b5061333886828701612d90565b9150509250925092565b86815260c06020820152600061335b60c0830188612c64565b86604084015285606084015282810360808401526133798186613233565b905082810360a084015261338d8185613233565b9998505050505050505050565b600080604083850312156133ad57600080fd5b82356001600160401b038111156133c357600080fd5b6133cf85828601612d90565b95602094909401359450505050565b600080604083850312156133f157600080fd5b6133fa83612ba7565b91506020830135801515811461340f57600080fd5b809150509250929050565b6000806040838503121561342d57600080fd5b8235915060208301356004811061340f57600080fd5b6000806040838503121561345657600080fd5b61345f83612ba7565b915061315060208401612ba7565b600080600080600060a0868803121561348557600080fd5b61348e86612ba7565b945061349c60208701612ba7565b9350604086013592506060860135915060808601356001600160401b038111156134c557600080fd5b61312088828901612d90565b600181811c908216806134e557607f821691505b60208210810361350557634e487b7160e01b600052602260045260246000fd5b50919050565b634e487b7160e01b600052603260045260246000fd5b601f821115610e2857600081815260208120601f850160051c810160208610156135485750805b601f850160051c820191505b81811015610dc857828155600101613554565b81516001600160401b0381111561358057613580612cbc565b6135948161358e84546134d1565b84613521565b602080601f8311600181146135c957600084156135b15750858301515b600019600386901b1c1916600185901b178555610dc8565b600085815260208120601f198616915b828110156135f8578886015182559484019460019091019084016135d9565b50858210156136165787850151600019600388901b60f8161c191681555b5050505050600190811b01905550565b634e487b7160e01b600052601160045260246000fd5b60006001820161364e5761364e613626565b5060010190565b60008161366457613664613626565b506000190190565b818103818111156106b3576106b3613626565b6020808252601490820152732737ba103a3432903a34b1b5b2ba1037bbb732b960611b604082015260600190565b634e487b7160e01b600052603160045260246000fd5b600083516136d5818460208801612c40565b602d60f81b90830190815283516136f3816001840160208801612c40565b01600101949350505050565b60208082526026908201527f4e6f7420617574686f72697a656420746f20757064617465207469636b65742060408201526573746174757360d01b606082015260800190565b60008351613757818460208801612c40565b9190910191825250602001919050565b808201808211156106b3576106b3613626565b6001600160a01b03868116825285166020820152604081018490526060810183905260a0608082018190526000906137b490830184612c64565b979650505050505050565b6000602082840312156137d157600080fd5b8151612c2081612bed565b6001600160a01b0386811682528516602082015260a06040820181905260009061380890830186613233565b828103606084015261381a8186613233565b9050828103608084015261382e8185612c64565b98975050505050505050565b60408152600061384d6040830185613233565b828103602084015261385f8185613233565b9594505050505056fe4d2e7a1e3f5dd6e203f087b15756ccf0e4ccd947fe1b639a38540089a1e47f63a264697066735822122018c39f968eda8dcb38790a281f9c7782662ad754922dd8db2f4787fb88137e8a64736f6c63430008140033a49807205ce4d355092ef5a8a18f56e8913cf4a201fbe287825b095693c21775",
  "immutableReferences": {},
  "source": "// SPDX-License-Identifier: MIT\r\npragma solidity ^0.8.0;\r\n\r\nimport \"@openzeppelin/contracts/token/ERC1155/extensions/ERC1155Supply.sol\";\r\nimport \"@openzeppelin/contracts/access/AccessControl.sol\";\r\n\r\ncontract Ticket_NFT is AccessControl, ERC1155Supply {\r\n    \r\n    struct Event {\r\n        uint256 id;\r\n        string name;\r\n        uint256 time;\r\n        mapping(uint256 => Sector) sectors;\r\n        uint256 sectorCount;\r\n    }\r\n\r\n    struct Sector {\r\n        uint256 id;\r\n        string name;\r\n        uint256 totalSeats;\r\n        uint256 availableSeats;\r\n        uint256 seats_x_lines;\r\n    }\r\n\r\n    enum TicketStatus {\r\n        Available,\r\n        Owned,\r\n        Validated,\r\n        Expired\r\n    }\r\n\r\n    struct Ticket {\r\n        uint256 id;\r\n        uint256 eventId;\r\n        uint256 sectorId;\r\n        uint256 groupId;\r\n        uint256 originalPrice;\r\n        TicketStatus status;\r\n        string seat;\r\n        bytes32 hashName;\r\n    }\r\n\r\n    bytes32 public constant ORGANIZER_ROLE = keccak256(\"ORGANIZER_ROLE\");\r\n    bytes32 public constant ADMIN_ROLE = keccak256(\"ADMIN_ROLE\");\r\n\r\n    uint256 public eventCount;\r\n    uint256 public ticketCount;\r\n    uint256 public groupCount;\r\n\r\n    mapping(uint256 => Event) public events;\r\n    mapping(uint256 => Ticket) public tickets;\r\n    mapping(uint256 => uint256[]) public groups;\r\n\r\n    string public organization_name;\r\n\r\n    constructor(string memory _organization_name, address _organizer)\r\n        ERC1155(\"\")\r\n        ERC1155Supply()\r\n    {\r\n        _grantRole(DEFAULT_ADMIN_ROLE, tx.origin); //quello chedeploya la blockchain per primo (io)\r\n        _grantRole(ORGANIZER_ROLE, _organizer); //quello che chiama il contratto, ovvero sony, universal...\r\n        _grantRole(ADMIN_ROLE, _organizer);\r\n        _setRoleAdmin(ADMIN_ROLE, ADMIN_ROLE);\r\n\r\n        organization_name = _organization_name;\r\n    }\r\n\r\n    function addOrganizer(address _organizer) public onlyRole(ADMIN_ROLE) {\r\n        _grantRole(ORGANIZER_ROLE, _organizer);\r\n    }\r\n\r\n    function removeOrganizer(address _organizer) public onlyRole(ADMIN_ROLE) {\r\n        revokeRole(ORGANIZER_ROLE, _organizer);\r\n    }\r\n\r\n    //------------------------Gestione biglietti-----------------------------------------------------------\r\n\r\n    function createEvent(string memory _name, uint256 _time)\r\n        external\r\n        onlyRole(ORGANIZER_ROLE)\r\n    {\r\n        eventCount++;\r\n        Event storage newEvent = events[eventCount];\r\n        newEvent.id = eventCount;\r\n        newEvent.name = _name;\r\n        newEvent.time = _time;\r\n        newEvent.sectorCount = 0;\r\n    }\r\n\r\n    function createSector(\r\n        uint256 _eventId,\r\n        string memory _name,\r\n        uint256 _totalSeats,\r\n        uint256 _seat_x_lines\r\n    ) external onlyRole(ORGANIZER_ROLE) {\r\n        Event storage _event = events[_eventId];\r\n        _event.sectorCount++;\r\n        Sector storage newSector = _event.sectors[_event.sectorCount];\r\n        newSector.id = _event.sectorCount;\r\n        newSector.name = _name;\r\n        newSector.totalSeats = _totalSeats;\r\n        newSector.availableSeats = _totalSeats;\r\n        newSector.seats_x_lines = _seat_x_lines;\r\n    }\r\n\r\n    function createTicket(\r\n        uint256 _eventId,\r\n        uint256 _sectorId,\r\n        uint256 _originalPrice\r\n    ) external onlyRole(ORGANIZER_ROLE) {\r\n        Sector storage sector = events[_eventId].sectors[_sectorId];\r\n        require(sector.availableSeats > 0, \"No seats left\");\r\n\r\n        ticketCount++;\r\n        uint256 ticketId = ticketCount;\r\n        Ticket storage newTicket = tickets[ticketId];\r\n        newTicket.id = ticketId;\r\n        newTicket.eventId = _eventId;\r\n        newTicket.sectorId = _sectorId;\r\n        newTicket.status = TicketStatus.Available;\r\n        newTicket.originalPrice = _originalPrice;\r\n        newTicket.hashName = generateHash(organization_name, ticketId);\r\n        sector.availableSeats--;\r\n\r\n        _mint(msg.sender, ticketCount, 1, \"\");\r\n    }\r\n\r\n    function generateHash(string memory str, uint256 num) public pure returns (bytes32){\r\n        return keccak256(abi.encodePacked(str, num));\r\n    }\r\n\r\n    //------------------------Gestione gruppi-----------------------------------------------------------\r\n    function createGroup(uint256 ticketId) external {\r\n        require(balanceOf(msg.sender, ticketId) > 0, \"Not the ticket owner\");\r\n        uint256 groupId = ++groupCount;\r\n\r\n        tickets[ticketId].groupId = groupId;\r\n        groups[groupId].push(ticketId);\r\n    }\r\n\r\n    function addParticipant(uint256 groupId, uint256 ticketId) external {\r\n        require(groups[groupId].length > 0, \"The group does not exist\");\r\n\r\n        // Verify that the caller is a member of the group\r\n        bool isGroupMember = false;\r\n        for (uint256 i = 0; i < groups[groupId].length; i++) {\r\n            if (balanceOf(msg.sender, tickets[groups[groupId][i]].id) > 0) {\r\n                isGroupMember = true;\r\n                break;\r\n            }\r\n        }\r\n        require( isGroupMember, \"You must be a group member to add participants\");\r\n\r\n        // Verify that the ticket has status Owned\r\n        require( tickets[ticketId].status == TicketStatus.Owned, \"The ticket is not 'Owned'\" );\r\n        require( tickets[ticketId].groupId == 0, \"The ticket is already assigned to a group\" );\r\n\r\n        // Verify that the new ticket has the same sector and event as others in the group\r\n        uint256 groupEventId = tickets[groups[groupId][0]].eventId;\r\n        uint256 groupSectorId = tickets[groups[groupId][0]].sectorId;\r\n        require( tickets[ticketId].eventId == groupEventId, \"The ticket does not match the group's event\" );\r\n        require( tickets[ticketId].sectorId == groupSectorId, \"The ticket does not match the group's sector\" );\r\n\r\n        // Associate the ticket with the group and update the mapping\r\n        tickets[ticketId].groupId = groupId;\r\n        groups[groupId].push(ticketId);\r\n    }\r\n\r\n    // Rimuove un partecipante dal gruppo\r\n    function removeParticipant(uint256 groupId, uint256 ticketId) external {\r\n        require(groups[groupId].length > 0, \"Il gruppo non esiste\");\r\n        require(balanceOf(msg.sender, ticketId) > 0, \"Not the ticket owner\");\r\n        require( tickets[ticketId].groupId == groupId, \"Il ticket non appartiene a questo gruppo\" );\r\n\r\n        tickets[ticketId].groupId = 0;\r\n\r\n        // Rimuove il ticket dal gruppo\r\n        uint256 index;\r\n        bool found = false;\r\n        for (uint256 i = 0; i < groups[groupId].length; i++) {\r\n            if ( keccak256(abi.encodePacked(groups[groupId][i])) == keccak256(abi.encodePacked(ticketId)) ) {\r\n                index = i;\r\n                found = true;\r\n                break;\r\n            }\r\n        }\r\n        require(found, \"Ticket non trovato nel gruppo\");\r\n        groups[groupId][index] = groups[groupId][groups[groupId].length - 1];\r\n        groups[groupId].pop();\r\n    }\r\n\r\n    function setOwnerName(\r\n        uint256 ticketId,\r\n        string memory name,\r\n        string memory surname\r\n    ) external {\r\n        require(balanceOf(msg.sender, ticketId) > 0, \"Not the ticket owner\");\r\n        Ticket storage ticket = tickets[ticketId];\r\n        ticket.hashName = generateHash( string(abi.encodePacked(name, \"-\", surname)), ticketId );\r\n    }\r\n\r\n    function validateTicket(\r\n        uint256 ticketId,\r\n        string memory name,\r\n        string memory surname\r\n    ) external onlyRole(ORGANIZER_ROLE) {\r\n        Ticket storage ticket = tickets[ticketId];\r\n        require( ticket.status != TicketStatus.Validated, \"Ticket already validated\" );\r\n        require(ticket.status != TicketStatus.Expired, \"Ticket expired!\");\r\n        bytes32 hashOwner = generateHash( string(abi.encodePacked(name, \"-\", surname)), ticketId );\r\n        require(ticket.hashName == hashOwner, \"Ticket has different owner!\");\r\n        ticket.status = TicketStatus.Validated;\r\n    }\r\n\r\n    function updateTicketStatus(uint256 ticketId, TicketStatus newStatus) external\r\n    {\r\n        Ticket storage ticket = tickets[ticketId];\r\n\r\n        if(newStatus == TicketStatus.Validated || newStatus == TicketStatus.Available)\r\n            require(hasRole(ORGANIZER_ROLE, msg.sender) || balanceOf(msg.sender, ticketId) > 0, \"Not authorized to update ticket status\");\r\n        else \r\n            require(hasRole(ORGANIZER_ROLE, msg.sender), \"Not authorized to update ticket status\");\r\n\r\n        ticket.status = newStatus;\r\n    }\r\n\r\n    //chiama per mettere tutti i ticket di un evento expired\r\n    function expireTickets(uint256 _eventId) external onlyRole(ORGANIZER_ROLE) {\r\n        Event storage _event = events[_eventId];\r\n        require(_event.time < block.timestamp, \"Event has not yet occurred\");\r\n\r\n        for (uint256 i = 1; i <= ticketCount; i++) {\r\n            Ticket storage ticket = tickets[i];\r\n            if (ticket.eventId == _eventId && (ticket.status != TicketStatus.Expired && ticket.status != TicketStatus.Validated)) {\r\n                ticket.status = TicketStatus.Expired;\r\n            }\r\n        }\r\n    }\r\n\r\n    // get an event detail based on the event id\r\n    function getEvent(uint256 _eventId)\r\n        external\r\n        view\r\n        returns (\r\n            uint256 id,\r\n            string memory name,\r\n            uint256 time,\r\n            uint256 sectorCount\r\n        )\r\n    {\r\n        Event storage _event = events[_eventId];\r\n        return (_event.id, _event.name, _event.time, _event.sectorCount);\r\n    }\r\n\r\n    function getTickets(uint _start, uint _end) public view returns (Ticket[] memory) {\r\n        require(_end <= ticketCount, \"Invalid end\");\r\n        require(_end >= _start, \"Invalid parameters\");\r\n\r\n        Ticket[] memory array = new Ticket[](_end - _start);\r\n        for (uint i = _start; i < _end; i++) {\r\n            array[i - _start] = tickets[i];\r\n        }\r\n        return array;\r\n    }\r\n\r\n    // get a sector detail based on the event id and sector id, along with all associated tickets\r\n    function getSector(uint256 _eventId, uint256 _sectorId) external view returns (\r\n            uint256 id,\r\n            string memory name,\r\n            uint256 totalSeats,\r\n            uint256 availableSeats,\r\n            uint256[] memory ticketIds,\r\n            uint256[] memory associatedGroupIds\r\n        )\r\n    {\r\n        // Fetch the sector details\r\n        Sector storage sector = events[_eventId].sectors[_sectorId];\r\n\r\n        // Temporary array to hold ticket IDs associated with the sector\r\n        uint256 ticketSector=0;\r\n\r\n        for (uint256 i = 0; i < ticketCount; i++) {\r\n            if (\r\n                tickets[i].eventId == _eventId &&\r\n                tickets[i].sectorId == _sectorId\r\n            ) {\r\n                ticketSector++;\r\n            }\r\n        }\r\n\r\n        // Allocate memory for ticket IDs\r\n        uint256[] memory associatedTicketIds = new uint256[](ticketCount);\r\n        uint256[] memory groupIds = new uint256[](ticketCount);\r\n\r\n        uint256 index = 0;\r\n\r\n        for (uint256 i = 0; i < ticketCount; i++) {\r\n            if (\r\n                tickets[i].eventId == _eventId &&\r\n                tickets[i].sectorId == _sectorId\r\n            ) {\r\n                associatedTicketIds[index] = tickets[i].id;\r\n                groupIds[index] = tickets[i].groupId;\r\n                index++;\r\n            }\r\n        }\r\n\r\n        return (\r\n            sector.id,\r\n            sector.name,\r\n            sector.totalSeats,\r\n            sector.availableSeats,\r\n            associatedTicketIds,\r\n            groupIds\r\n        );\r\n    }\r\n\r\n    // get a ticket detail based on the ticket id\r\n    function getTicket(uint256 ticketId) external view returns (\r\n        uint256 id,\r\n        uint eventId,\r\n        uint sectorId,\r\n        uint groupId,\r\n        uint originalPrice,\r\n        TicketStatus status,\r\n        string memory seat,\r\n        bytes32 hashName){\r\n\r\n        Ticket storage ticket = tickets[ticketId];\r\n        return (\r\n            ticket.id,\r\n            ticket.eventId,\r\n            ticket.sectorId,\r\n            ticket.groupId,\r\n            ticket.originalPrice,\r\n            ticket.status,\r\n            ticket.seat,\r\n            ticket.hashName\r\n        );\r\n    }\r\n\r\n    function assignSeats(uint256[] memory ticket_ids, string[] memory seats) external onlyRole(ORGANIZER_ROLE) {\r\n        require(ticket_ids.length == seats.length, \"Mismatched input arrays\");\r\n\r\n        for (uint256 i = 0; i < ticket_ids.length; i++) {\r\n            Ticket storage ticket = tickets[ticket_ids[i]];\r\n            ticket.seat = seats[i];\r\n        }\r\n    }\r\n\r\n    // get all the ticket of a group based on the group id\r\n    function getGroupTickets(uint256 groupId)external view returns (uint256[] memory) { \r\n        return groups[groupId];\r\n    }\r\n\r\n    // check if a ticket is associated to a group\r\n    function isTicketInGroup(uint256 ticketId) external view returns (bool) {\r\n        return tickets[ticketId].groupId != 0;\r\n    }\r\n\r\n    function supportsInterface(bytes4 _interfaceId)\r\n        public\r\n        view\r\n        virtual\r\n        override(AccessControl, ERC1155)\r\n        returns (bool)\r\n    {\r\n        return super.supportsInterface(_interfaceId);\r\n    }\r\n}\r\n",
  "sourcePath": "C:\\Users\\eddie\\OneDrive\\Desktop\\Blockchain\\BlockchainTicketsUnitn-main\\truffle\\contracts\\Ticket_NFT.sol",
  "compiler": {
    "name": "solc",
    "version": "0.8.20+commit.a1b79de6.Emscripten.clang"
  },
  "schemaVersion": "3.4.16",
  "updatedAt": "2025-01-31T08:16:22.992Z",
  "networkType": "ethereum",
  "devdoc": {
    "errors": {
      "AccessControlBadConfirmation()": [
        {
          "details": "The caller of a function is not the expected one. NOTE: Don't confuse with {AccessControlUnauthorizedAccount}."
        }
      ],
      "AccessControlUnauthorizedAccount(address,bytes32)": [
        {
          "details": "The `account` is missing a role."
        }
      ],
      "ERC1155InsufficientBalance(address,uint256,uint256,uint256)": [
        {
          "details": "Indicates an error related to the current `balance` of a `sender`. Used in transfers.",
          "params": {
            "balance": "Current balance for the interacting account.",
            "needed": "Minimum amount required to perform a transfer.",
            "sender": "Address whose tokens are being transferred.",
            "tokenId": "Identifier number of a token."
          }
        }
      ],
      "ERC1155InvalidApprover(address)": [
        {
          "details": "Indicates a failure with the `approver` of a token to be approved. Used in approvals.",
          "params": {
            "approver": "Address initiating an approval operation."
          }
        }
      ],
      "ERC1155InvalidArrayLength(uint256,uint256)": [
        {
          "details": "Indicates an array length mismatch between ids and values in a safeBatchTransferFrom operation. Used in batch transfers.",
          "params": {
            "idsLength": "Length of the array of token identifiers",
            "valuesLength": "Length of the array of token amounts"
          }
        }
      ],
      "ERC1155InvalidOperator(address)": [
        {
          "details": "Indicates a failure with the `operator` to be approved. Used in approvals.",
          "params": {
            "operator": "Address that may be allowed to operate on tokens without being their owner."
          }
        }
      ],
      "ERC1155InvalidReceiver(address)": [
        {
          "details": "Indicates a failure with the token `receiver`. Used in transfers.",
          "params": {
            "receiver": "Address to which tokens are being transferred."
          }
        }
      ],
      "ERC1155InvalidSender(address)": [
        {
          "details": "Indicates a failure with the token `sender`. Used in transfers.",
          "params": {
            "sender": "Address whose tokens are being transferred."
          }
        }
      ],
      "ERC1155MissingApprovalForAll(address,address)": [
        {
          "details": "Indicates a failure with the `operator`s approval. Used in transfers.",
          "params": {
            "operator": "Address that may be allowed to operate on tokens without being their owner.",
            "owner": "Address of the current owner of a token."
          }
        }
      ]
    },
    "events": {
      "ApprovalForAll(address,address,bool)": {
        "details": "Emitted when `account` grants or revokes permission to `operator` to transfer their tokens, according to `approved`."
      },
      "RoleAdminChanged(bytes32,bytes32,bytes32)": {
        "details": "Emitted when `newAdminRole` is set as ``role``'s admin role, replacing `previousAdminRole` `DEFAULT_ADMIN_ROLE` is the starting admin for all roles, despite {RoleAdminChanged} not being emitted signaling this."
      },
      "RoleGranted(bytes32,address,address)": {
        "details": "Emitted when `account` is granted `role`. `sender` is the account that originated the contract call. This account bears the admin role (for the granted role). Expected in cases where the role was granted using the internal {AccessControl-_grantRole}."
      },
      "RoleRevoked(bytes32,address,address)": {
        "details": "Emitted when `account` is revoked `role`. `sender` is the account that originated the contract call:   - if using `revokeRole`, it is the admin role bearer   - if using `renounceRole`, it is the role bearer (i.e. `account`)"
      },
      "TransferBatch(address,address,address,uint256[],uint256[])": {
        "details": "Equivalent to multiple {TransferSingle} events, where `operator`, `from` and `to` are the same for all transfers."
      },
      "TransferSingle(address,address,address,uint256,uint256)": {
        "details": "Emitted when `value` amount of tokens of type `id` are transferred from `from` to `to` by `operator`."
      },
      "URI(string,uint256)": {
        "details": "Emitted when the URI for token type `id` changes to `value`, if it is a non-programmatic URI. If an {URI} event was emitted for `id`, the standard https://eips.ethereum.org/EIPS/eip-1155#metadata-extensions[guarantees] that `value` will equal the value returned by {IERC1155MetadataURI-uri}."
      }
    },
    "kind": "dev",
    "methods": {
      "balanceOf(address,uint256)": {
        "details": "See {IERC1155-balanceOf}."
      },
      "balanceOfBatch(address[],uint256[])": {
        "details": "See {IERC1155-balanceOfBatch}. Requirements: - `accounts` and `ids` must have the same length."
      },
      "exists(uint256)": {
        "details": "Indicates whether any token exist with a given id, or not."
      },
      "getRoleAdmin(bytes32)": {
        "details": "Returns the admin role that controls `role`. See {grantRole} and {revokeRole}. To change a role's admin, use {_setRoleAdmin}."
      },
      "grantRole(bytes32,address)": {
        "details": "Grants `role` to `account`. If `account` had not been already granted `role`, emits a {RoleGranted} event. Requirements: - the caller must have ``role``'s admin role. May emit a {RoleGranted} event."
      },
      "hasRole(bytes32,address)": {
        "details": "Returns `true` if `account` has been granted `role`."
      },
      "isApprovedForAll(address,address)": {
        "details": "See {IERC1155-isApprovedForAll}."
      },
      "renounceRole(bytes32,address)": {
        "details": "Revokes `role` from the calling account. Roles are often managed via {grantRole} and {revokeRole}: this function's purpose is to provide a mechanism for accounts to lose their privileges if they are compromised (such as when a trusted device is misplaced). If the calling account had been revoked `role`, emits a {RoleRevoked} event. Requirements: - the caller must be `callerConfirmation`. May emit a {RoleRevoked} event."
      },
      "revokeRole(bytes32,address)": {
        "details": "Revokes `role` from `account`. If `account` had been granted `role`, emits a {RoleRevoked} event. Requirements: - the caller must have ``role``'s admin role. May emit a {RoleRevoked} event."
      },
      "safeBatchTransferFrom(address,address,uint256[],uint256[],bytes)": {
        "details": "See {IERC1155-safeBatchTransferFrom}."
      },
      "safeTransferFrom(address,address,uint256,uint256,bytes)": {
        "details": "See {IERC1155-safeTransferFrom}."
      },
      "setApprovalForAll(address,bool)": {
        "details": "See {IERC1155-setApprovalForAll}."
      },
      "totalSupply()": {
        "details": "Total value of tokens."
      },
      "totalSupply(uint256)": {
        "details": "Total value of tokens in with a given id."
      },
      "uri(uint256)": {
        "details": "See {IERC1155MetadataURI-uri}. This implementation returns the same URI for *all* token types. It relies on the token type ID substitution mechanism https://eips.ethereum.org/EIPS/eip-1155#metadata[defined in the ERC]. Clients calling this function must replace the `\\{id\\}` substring with the actual token type ID."
      }
    },
    "version": 1
  },
  "userdoc": {
    "kind": "user",
    "methods": {},
    "version": 1
  }
}